{
  "address": "0x0355B7B8cb128fA5692729Ab3AAa199C1753f726",
  "abi": [
    {
      "inputs": [],
      "stateMutability": "nonpayable",
      "type": "constructor"
    },
    {
      "anonymous": false,
      "inputs": [
        {
          "indexed": true,
          "internalType": "address",
          "name": "owner",
          "type": "address"
        },
        {
          "indexed": true,
          "internalType": "address",
          "name": "approved",
          "type": "address"
        },
        {
          "indexed": true,
          "internalType": "uint256",
          "name": "tokenId",
          "type": "uint256"
        }
      ],
      "name": "Approval",
      "type": "event"
    },
    {
      "anonymous": false,
      "inputs": [
        {
          "indexed": true,
          "internalType": "address",
          "name": "owner",
          "type": "address"
        },
        {
          "indexed": true,
          "internalType": "address",
          "name": "operator",
          "type": "address"
        },
        {
          "indexed": false,
          "internalType": "bool",
          "name": "approved",
          "type": "bool"
        }
      ],
      "name": "ApprovalForAll",
      "type": "event"
    },
    {
      "anonymous": false,
      "inputs": [
        {
          "indexed": true,
          "internalType": "address",
          "name": "delegator",
          "type": "address"
        },
        {
          "indexed": true,
          "internalType": "address",
          "name": "fromDelegate",
          "type": "address"
        },
        {
          "indexed": true,
          "internalType": "address",
          "name": "toDelegate",
          "type": "address"
        }
      ],
      "name": "DelegateChanged",
      "type": "event"
    },
    {
      "anonymous": false,
      "inputs": [
        {
          "indexed": true,
          "internalType": "address",
          "name": "delegate",
          "type": "address"
        },
        {
          "indexed": false,
          "internalType": "uint256",
          "name": "previousBalance",
          "type": "uint256"
        },
        {
          "indexed": false,
          "internalType": "uint256",
          "name": "newBalance",
          "type": "uint256"
        }
      ],
      "name": "DelegateVotesChanged",
      "type": "event"
    },
    {
      "anonymous": false,
      "inputs": [
        {
          "indexed": true,
          "internalType": "address",
          "name": "previousOwner",
          "type": "address"
        },
        {
          "indexed": true,
          "internalType": "address",
          "name": "newOwner",
          "type": "address"
        }
      ],
      "name": "OwnershipTransferred",
      "type": "event"
    },
    {
      "anonymous": false,
      "inputs": [
        {
          "indexed": false,
          "internalType": "address",
          "name": "account",
          "type": "address"
        }
      ],
      "name": "Paused",
      "type": "event"
    },
    {
      "anonymous": false,
      "inputs": [
        {
          "indexed": true,
          "internalType": "address",
          "name": "from",
          "type": "address"
        },
        {
          "indexed": true,
          "internalType": "address",
          "name": "to",
          "type": "address"
        },
        {
          "indexed": true,
          "internalType": "uint256",
          "name": "tokenId",
          "type": "uint256"
        }
      ],
      "name": "Transfer",
      "type": "event"
    },
    {
      "anonymous": false,
      "inputs": [
        {
          "indexed": false,
          "internalType": "address",
          "name": "account",
          "type": "address"
        }
      ],
      "name": "Unpaused",
      "type": "event"
    },
    {
      "inputs": [],
      "name": "DOMAIN_SEPARATOR",
      "outputs": [
        {
          "internalType": "bytes32",
          "name": "",
          "type": "bytes32"
        }
      ],
      "stateMutability": "view",
      "type": "function"
    },
    {
      "inputs": [
        {
          "internalType": "address",
          "name": "to",
          "type": "address"
        },
        {
          "internalType": "uint256",
          "name": "tokenId",
          "type": "uint256"
        }
      ],
      "name": "approve",
      "outputs": [],
      "stateMutability": "nonpayable",
      "type": "function"
    },
    {
      "inputs": [
        {
          "internalType": "address",
          "name": "owner",
          "type": "address"
        }
      ],
      "name": "balanceOf",
      "outputs": [
        {
          "internalType": "uint256",
          "name": "",
          "type": "uint256"
        }
      ],
      "stateMutability": "view",
      "type": "function"
    },
    {
      "inputs": [
        {
          "internalType": "address",
          "name": "delegatee",
          "type": "address"
        }
      ],
      "name": "delegate",
      "outputs": [],
      "stateMutability": "nonpayable",
      "type": "function"
    },
    {
      "inputs": [
        {
          "internalType": "address",
          "name": "delegatee",
          "type": "address"
        },
        {
          "internalType": "uint256",
          "name": "nonce",
          "type": "uint256"
        },
        {
          "internalType": "uint256",
          "name": "expiry",
          "type": "uint256"
        },
        {
          "internalType": "uint8",
          "name": "v",
          "type": "uint8"
        },
        {
          "internalType": "bytes32",
          "name": "r",
          "type": "bytes32"
        },
        {
          "internalType": "bytes32",
          "name": "s",
          "type": "bytes32"
        }
      ],
      "name": "delegateBySig",
      "outputs": [],
      "stateMutability": "nonpayable",
      "type": "function"
    },
    {
      "inputs": [
        {
          "internalType": "address",
          "name": "account",
          "type": "address"
        }
      ],
      "name": "delegates",
      "outputs": [
        {
          "internalType": "address",
          "name": "",
          "type": "address"
        }
      ],
      "stateMutability": "view",
      "type": "function"
    },
    {
      "inputs": [
        {
          "internalType": "uint256",
          "name": "tokenId",
          "type": "uint256"
        }
      ],
      "name": "getApproved",
      "outputs": [
        {
          "internalType": "address",
          "name": "",
          "type": "address"
        }
      ],
      "stateMutability": "view",
      "type": "function"
    },
    {
      "inputs": [
        {
          "internalType": "uint256",
          "name": "blockNumber",
          "type": "uint256"
        }
      ],
      "name": "getPastTotalSupply",
      "outputs": [
        {
          "internalType": "uint256",
          "name": "",
          "type": "uint256"
        }
      ],
      "stateMutability": "view",
      "type": "function"
    },
    {
      "inputs": [
        {
          "internalType": "address",
          "name": "account",
          "type": "address"
        },
        {
          "internalType": "uint256",
          "name": "blockNumber",
          "type": "uint256"
        }
      ],
      "name": "getPastVotes",
      "outputs": [
        {
          "internalType": "uint256",
          "name": "",
          "type": "uint256"
        }
      ],
      "stateMutability": "view",
      "type": "function"
    },
    {
      "inputs": [
        {
          "internalType": "address",
          "name": "account",
          "type": "address"
        }
      ],
      "name": "getVotes",
      "outputs": [
        {
          "internalType": "uint256",
          "name": "",
          "type": "uint256"
        }
      ],
      "stateMutability": "view",
      "type": "function"
    },
    {
      "inputs": [
        {
          "internalType": "address",
          "name": "owner",
          "type": "address"
        },
        {
          "internalType": "address",
          "name": "operator",
          "type": "address"
        }
      ],
      "name": "isApprovedForAll",
      "outputs": [
        {
          "internalType": "bool",
          "name": "",
          "type": "bool"
        }
      ],
      "stateMutability": "view",
      "type": "function"
    },
    {
      "inputs": [],
      "name": "name",
      "outputs": [
        {
          "internalType": "string",
          "name": "",
          "type": "string"
        }
      ],
      "stateMutability": "view",
      "type": "function"
    },
    {
      "inputs": [
        {
          "internalType": "address",
          "name": "owner",
          "type": "address"
        }
      ],
      "name": "nonces",
      "outputs": [
        {
          "internalType": "uint256",
          "name": "",
          "type": "uint256"
        }
      ],
      "stateMutability": "view",
      "type": "function"
    },
    {
      "inputs": [],
      "name": "owner",
      "outputs": [
        {
          "internalType": "address",
          "name": "",
          "type": "address"
        }
      ],
      "stateMutability": "view",
      "type": "function"
    },
    {
      "inputs": [
        {
          "internalType": "uint256",
          "name": "tokenId",
          "type": "uint256"
        }
      ],
      "name": "ownerOf",
      "outputs": [
        {
          "internalType": "address",
          "name": "",
          "type": "address"
        }
      ],
      "stateMutability": "view",
      "type": "function"
    },
    {
      "inputs": [],
      "name": "pause",
      "outputs": [],
      "stateMutability": "nonpayable",
      "type": "function"
    },
    {
      "inputs": [],
      "name": "paused",
      "outputs": [
        {
          "internalType": "bool",
          "name": "",
          "type": "bool"
        }
      ],
      "stateMutability": "view",
      "type": "function"
    },
    {
      "inputs": [],
      "name": "renounceOwnership",
      "outputs": [],
      "stateMutability": "nonpayable",
      "type": "function"
    },
    {
      "inputs": [
        {
          "internalType": "address",
          "name": "to",
          "type": "address"
        }
      ],
      "name": "safeMint",
      "outputs": [],
      "stateMutability": "nonpayable",
      "type": "function"
    },
    {
      "inputs": [
        {
          "internalType": "address",
          "name": "from",
          "type": "address"
        },
        {
          "internalType": "address",
          "name": "to",
          "type": "address"
        },
        {
          "internalType": "uint256",
          "name": "tokenId",
          "type": "uint256"
        }
      ],
      "name": "safeTransferFrom",
      "outputs": [],
      "stateMutability": "nonpayable",
      "type": "function"
    },
    {
      "inputs": [
        {
          "internalType": "address",
          "name": "from",
          "type": "address"
        },
        {
          "internalType": "address",
          "name": "to",
          "type": "address"
        },
        {
          "internalType": "uint256",
          "name": "tokenId",
          "type": "uint256"
        },
        {
          "internalType": "bytes",
          "name": "data",
          "type": "bytes"
        }
      ],
      "name": "safeTransferFrom",
      "outputs": [],
      "stateMutability": "nonpayable",
      "type": "function"
    },
    {
      "inputs": [
        {
          "internalType": "address",
          "name": "operator",
          "type": "address"
        },
        {
          "internalType": "bool",
          "name": "approved",
          "type": "bool"
        }
      ],
      "name": "setApprovalForAll",
      "outputs": [],
      "stateMutability": "nonpayable",
      "type": "function"
    },
    {
      "inputs": [
        {
          "internalType": "bytes4",
          "name": "interfaceId",
          "type": "bytes4"
        }
      ],
      "name": "supportsInterface",
      "outputs": [
        {
          "internalType": "bool",
          "name": "",
          "type": "bool"
        }
      ],
      "stateMutability": "view",
      "type": "function"
    },
    {
      "inputs": [],
      "name": "symbol",
      "outputs": [
        {
          "internalType": "string",
          "name": "",
          "type": "string"
        }
      ],
      "stateMutability": "view",
      "type": "function"
    },
    {
      "inputs": [
        {
          "internalType": "uint256",
          "name": "index",
          "type": "uint256"
        }
      ],
      "name": "tokenByIndex",
      "outputs": [
        {
          "internalType": "uint256",
          "name": "",
          "type": "uint256"
        }
      ],
      "stateMutability": "view",
      "type": "function"
    },
    {
      "inputs": [
        {
          "internalType": "address",
          "name": "owner",
          "type": "address"
        },
        {
          "internalType": "uint256",
          "name": "index",
          "type": "uint256"
        }
      ],
      "name": "tokenOfOwnerByIndex",
      "outputs": [
        {
          "internalType": "uint256",
          "name": "",
          "type": "uint256"
        }
      ],
      "stateMutability": "view",
      "type": "function"
    },
    {
      "inputs": [
        {
          "internalType": "uint256",
          "name": "tokenId",
          "type": "uint256"
        }
      ],
      "name": "tokenURI",
      "outputs": [
        {
          "internalType": "string",
          "name": "",
          "type": "string"
        }
      ],
      "stateMutability": "view",
      "type": "function"
    },
    {
      "inputs": [],
      "name": "totalSupply",
      "outputs": [
        {
          "internalType": "uint256",
          "name": "",
          "type": "uint256"
        }
      ],
      "stateMutability": "view",
      "type": "function"
    },
    {
      "inputs": [
        {
          "internalType": "address",
          "name": "from",
          "type": "address"
        },
        {
          "internalType": "address",
          "name": "to",
          "type": "address"
        },
        {
          "internalType": "uint256",
          "name": "tokenId",
          "type": "uint256"
        }
      ],
      "name": "transferFrom",
      "outputs": [],
      "stateMutability": "nonpayable",
      "type": "function"
    },
    {
      "inputs": [
        {
          "internalType": "address",
          "name": "newOwner",
          "type": "address"
        }
      ],
      "name": "transferOwnership",
      "outputs": [],
      "stateMutability": "nonpayable",
      "type": "function"
    },
    {
      "inputs": [],
      "name": "unpause",
      "outputs": [],
      "stateMutability": "nonpayable",
      "type": "function"
    }
  ],
  "numDeployments": 6,
  "bytecode": "0x6101406040523480156200001257600080fd5b50604080518082018252600a808252694e6577436f6d6d65723160b01b60208084018290528451808601865260018152603160f81b818301528551808701875293845283820192909252845180860190955260038552624e433160e81b90850152919260006200008383826200023e565b5060016200009282826200023e565b5050600a805460ff1916905550620000aa336200013f565b815160209283012081519183019190912060e08290526101008190524660a0818152604080517f8b73c3c69bb8fe3d512ecc4cf759cc79239f7b179b0ffacaa9a75d522b39400f818801819052818301969096526060810194909452608080850193909352308483018190528151808603909301835260c094850190915281519190950120905291909152610120526200030a565b600a80546001600160a01b03838116610100818102610100600160a81b031985161790945560405193909204169182907f8be0079c531659141344cd1fd0a4f28419497f9722a3daafe3b4186f6b6457e090600090a35050565b634e487b7160e01b600052604160045260246000fd5b600181811c90821680620001c457607f821691505b602082108103620001e557634e487b7160e01b600052602260045260246000fd5b50919050565b601f8211156200023957600081815260208120601f850160051c81016020861015620002145750805b601f850160051c820191505b81811015620002355782815560010162000220565b5050505b505050565b81516001600160401b038111156200025a576200025a62000199565b62000272816200026b8454620001af565b84620001eb565b602080601f831160018114620002aa5760008415620002915750858301515b600019600386901b1c1916600185901b17855562000235565b600085815260208120601f198616915b82811015620002db57888601518255948401946001909101908401620002ba565b5085821015620002fa5787850151600019600388901b60f8161c191681555b5050505050600190811b01905550565b60805160a05160c05160e0516101005161012051612bb86200035a60003960006111c301526000611212015260006111ed01526000611146015260006111700152600061119a0152612bb86000f3fe608060405234801561001057600080fd5b50600436106101e55760003560e01c80635c975abb1161010f57806395d89b41116100a2578063c3cda52011610071578063c3cda520146103f8578063c87b56dd1461040b578063e985e9c51461041e578063f2fde38b1461045a57600080fd5b806395d89b41146103b75780639ab24eb0146103bf578063a22cb465146103d2578063b88d4fde146103e557600080fd5b80637ecebe00116100de5780637ecebe00146103735780638456cb59146103865780638da5cb5b1461038e5780638e539e8c146103a457600080fd5b80635c975abb1461033a5780636352211e1461034557806370a0823114610358578063715018a61461036b57600080fd5b80633644e5151161018757806342842e0e1161015657806342842e0e146102d55780634f6ccce7146102e8578063587cde1e146102fb5780635c19a95c1461032757600080fd5b80633644e5151461029f5780633a46b1a8146102a75780633f4ba83a146102ba57806340d097c3146102c257600080fd5b8063095ea7b3116101c3578063095ea7b31461025257806318160ddd1461026757806323b872dd146102795780632f745c591461028c57600080fd5b806301ffc9a7146101ea57806306fdde0314610212578063081812fc14610227575b600080fd5b6101fd6101f83660046126fa565b61046d565b60405190151581526020015b60405180910390f35b61021a6104b2565b6040516102099190612767565b61023a61023536600461277a565b610544565b6040516001600160a01b039091168152602001610209565b6102656102603660046127af565b61056b565b005b6008545b604051908152602001610209565b6102656102873660046127d9565b6106a1565b61026b61029a3660046127af565b610728565b61026b6107d0565b61026b6102b53660046127af565b6107df565b610265610808565b6102656102d0366004612815565b61081a565b6102656102e33660046127d9565b61084b565b61026b6102f636600461277a565b610866565b61023a610309366004612815565b6001600160a01b039081166000908152600b60205260409020541690565b610265610335366004612815565b61090a565b600a5460ff166101fd565b61023a61035336600461277a565b610915565b61026b610366366004612815565b61097a565b610265610a14565b61026b610381366004612815565b610a26565b610265610a44565b600a5461010090046001600160a01b031661023a565b61026b6103b236600461277a565b610a54565b61021a610ab0565b61026b6103cd366004612815565b610abf565b6102656103e0366004612830565b610ae0565b6102656103f3366004612882565b610aeb565b61026561040636600461295e565b610b79565b61021a61041936600461277a565b610caf565b6101fd61042c3660046129be565b6001600160a01b03918216600090815260056020908152604080832093909416825291909152205460ff1690565b610265610468366004612815565b610d22565b600061047882610db2565b806104ac57506001600160e01b031982167fe90fb3f600000000000000000000000000000000000000000000000000000000145b92915050565b6060600080546104c1906129f1565b80601f01602080910402602001604051908101604052809291908181526020018280546104ed906129f1565b801561053a5780601f1061050f5761010080835404028352916020019161053a565b820191906000526020600020905b81548152906001019060200180831161051d57829003601f168201915b5050505050905090565b600061054f82610df0565b506000908152600460205260409020546001600160a01b031690565b600061057682610915565b9050806001600160a01b0316836001600160a01b0316036106045760405162461bcd60e51b815260206004820152602160248201527f4552433732313a20617070726f76616c20746f2063757272656e74206f776e6560448201527f720000000000000000000000000000000000000000000000000000000000000060648201526084015b60405180910390fd5b336001600160a01b03821614806106205750610620813361042c565b6106925760405162461bcd60e51b815260206004820152603e60248201527f4552433732313a20617070726f76652063616c6c6572206973206e6f7420746f60448201527f6b656e206f776e6572206e6f7220617070726f76656420666f7220616c6c000060648201526084016105fb565b61069c8383610e54565b505050565b6106ab3382610ecf565b61071d5760405162461bcd60e51b815260206004820152602e60248201527f4552433732313a2063616c6c6572206973206e6f7420746f6b656e206f776e6560448201527f72206e6f7220617070726f76656400000000000000000000000000000000000060648201526084016105fb565b61069c838383610f4e565b60006107338361097a565b82106107a75760405162461bcd60e51b815260206004820152602b60248201527f455243373231456e756d657261626c653a206f776e657220696e646578206f7560448201527f74206f6620626f756e647300000000000000000000000000000000000000000060648201526084016105fb565b506001600160a01b03919091166000908152600660209081526040808320938352929052205490565b60006107da611139565b905090565b6001600160a01b0382166000908152600c602052604081206108019083611260565b9392505050565b61081061136f565b6108186113cf565b565b61082261136f565b600061082d600f5490565b905061083d600f80546001019055565b6108478282611421565b5050565b61069c83838360405180602001604052806000815250610aeb565b600061087160085490565b82106108e55760405162461bcd60e51b815260206004820152602c60248201527f455243373231456e756d657261626c653a20676c6f62616c20696e646578206f60448201527f7574206f6620626f756e6473000000000000000000000000000000000000000060648201526084016105fb565b600882815481106108f8576108f8612a25565b90600052602060002001549050919050565b33610847818361143b565b6000818152600260205260408120546001600160a01b0316806104ac5760405162461bcd60e51b815260206004820152601860248201527f4552433732313a20696e76616c696420746f6b656e204944000000000000000060448201526064016105fb565b60006001600160a01b0382166109f85760405162461bcd60e51b815260206004820152602960248201527f4552433732313a2061646472657373207a65726f206973206e6f74206120766160448201527f6c6964206f776e6572000000000000000000000000000000000000000000000060648201526084016105fb565b506001600160a01b031660009081526003602052604090205490565b610a1c61136f565b61081860006114ba565b6001600160a01b0381166000908152600e60205260408120546104ac565b610a4c61136f565b61081861152b565b6000438210610aa55760405162461bcd60e51b815260206004820152601a60248201527f566f7465733a20626c6f636b206e6f7420796574206d696e656400000000000060448201526064016105fb565b6104ac600d83611260565b6060600180546104c1906129f1565b6001600160a01b0381166000908152600c602052604081206104ac90611568565b6108473383836115c4565b610af53383610ecf565b610b675760405162461bcd60e51b815260206004820152602e60248201527f4552433732313a2063616c6c6572206973206e6f7420746f6b656e206f776e6560448201527f72206e6f7220617070726f76656400000000000000000000000000000000000060648201526084016105fb565b610b7384848484611692565b50505050565b83421115610bc95760405162461bcd60e51b815260206004820152601860248201527f566f7465733a207369676e61747572652065787069726564000000000000000060448201526064016105fb565b604080517fe48329057bfd03d55e49b547132e39cffd9c1820ad7b9d4c5307691425d15adf60208201526001600160a01b038816918101919091526060810186905260808101859052600090610c4390610c3b9060a00160405160208183030381529060405280519060200120611710565b858585611779565b9050610c4e816117a1565b8614610c9c5760405162461bcd60e51b815260206004820152601460248201527f566f7465733a20696e76616c6964206e6f6e636500000000000000000000000060448201526064016105fb565b610ca6818861143b565b50505050505050565b6060610cba82610df0565b6000610cd160408051602081019091526000815290565b90506000815111610cf15760405180602001604052806000815250610801565b80610cfb846117c9565b604051602001610d0c929190612a3b565b6040516020818303038152906040529392505050565b610d2a61136f565b6001600160a01b038116610da65760405162461bcd60e51b815260206004820152602660248201527f4f776e61626c653a206e6577206f776e657220697320746865207a65726f206160448201527f646472657373000000000000000000000000000000000000000000000000000060648201526084016105fb565b610daf816114ba565b50565b60006001600160e01b031982167f780e9d630000000000000000000000000000000000000000000000000000000014806104ac57506104ac826118fe565b6000818152600260205260409020546001600160a01b0316610daf5760405162461bcd60e51b815260206004820152601860248201527f4552433732313a20696e76616c696420746f6b656e204944000000000000000060448201526064016105fb565b6000818152600460205260409020805473ffffffffffffffffffffffffffffffffffffffff19166001600160a01b0384169081179091558190610e9682610915565b6001600160a01b03167f8c5be1e5ebec7d5bd14f71427d1e84f3dd0314c0f7b2291e5b200ac8c7c3b92560405160405180910390a45050565b600080610edb83610915565b9050806001600160a01b0316846001600160a01b03161480610f2257506001600160a01b0380821660009081526005602090815260408083209388168352929052205460ff165b80610f465750836001600160a01b0316610f3b84610544565b6001600160a01b0316145b949350505050565b826001600160a01b0316610f6182610915565b6001600160a01b031614610fdd5760405162461bcd60e51b815260206004820152602560248201527f4552433732313a207472616e736665722066726f6d20696e636f72726563742060448201527f6f776e657200000000000000000000000000000000000000000000000000000060648201526084016105fb565b6001600160a01b0382166110585760405162461bcd60e51b8152602060048201526024808201527f4552433732313a207472616e7366657220746f20746865207a65726f2061646460448201527f726573730000000000000000000000000000000000000000000000000000000060648201526084016105fb565b611063838383611999565b61106e600082610e54565b6001600160a01b0383166000908152600360205260408120805460019290611097908490612a80565b90915550506001600160a01b03821660009081526003602052604081208054600192906110c5908490612a93565b9091555050600081815260026020526040808220805473ffffffffffffffffffffffffffffffffffffffff19166001600160a01b0386811691821790925591518493918716917fddf252ad1be2c89b69c2b068fc378daa952ba7f163c4a11628f55a4df523b3ef91a461069c8383836119d5565b6000306001600160a01b037f00000000000000000000000000000000000000000000000000000000000000001614801561119257507f000000000000000000000000000000000000000000000000000000000000000046145b156111bc57507f000000000000000000000000000000000000000000000000000000000000000090565b50604080517f00000000000000000000000000000000000000000000000000000000000000006020808301919091527f0000000000000000000000000000000000000000000000000000000000000000828401527f000000000000000000000000000000000000000000000000000000000000000060608301524660808301523060a0808401919091528351808403909101815260c0909201909252805191012090565b60004382106112b15760405162461bcd60e51b815260206004820181905260248201527f436865636b706f696e74733a20626c6f636b206e6f7420796574206d696e656460448201526064016105fb565b825460005b818110156113165760006112ca82846119e0565b9050848660000182815481106112e2576112e2612a25565b60009182526020909120015463ffffffff16111561130257809250611310565b61130d816001612a93565b91505b506112b6565b811561135a5784611328600184612a80565b8154811061133857611338612a25565b60009182526020909120015464010000000090046001600160e01b031661135d565b60005b6001600160e01b031695945050505050565b600a546001600160a01b036101009091041633146108185760405162461bcd60e51b815260206004820181905260248201527f4f776e61626c653a2063616c6c6572206973206e6f7420746865206f776e657260448201526064016105fb565b6113d76119fb565b600a805460ff191690557f5db9ee0a495bf2e6ff9c91a7834c1ba4fdd244a5e8aa4e537bd38aeae4b073aa335b6040516001600160a01b03909116815260200160405180910390a1565b610847828260405180602001604052806000815250611a4d565b6001600160a01b038281166000818152600b6020526040808220805486861673ffffffffffffffffffffffffffffffffffffffff19821681179092559151919094169392849290917f3134e8a2e6d97e929a7e54011ea5485d7d196dd5f0ba4d4ef95803e8e3fc257f9190a461069c81836114b586611acb565b611ad6565b600a80546001600160a01b038381166101008181027fffffffffffffffffffffff0000000000000000000000000000000000000000ff85161790945560405193909204169182907f8be0079c531659141344cd1fd0a4f28419497f9722a3daafe3b4186f6b6457e090600090a35050565b611533611c13565b600a805460ff191660011790557f62e78cea01bee320cd4e420270b5ea74000d11b0c9f74754ebdbfc544b05a2586114043390565b805460009080156115b1578261157f600183612a80565b8154811061158f5761158f612a25565b60009182526020909120015464010000000090046001600160e01b03166115b4565b60005b6001600160e01b03169392505050565b816001600160a01b0316836001600160a01b0316036116255760405162461bcd60e51b815260206004820152601960248201527f4552433732313a20617070726f766520746f2063616c6c65720000000000000060448201526064016105fb565b6001600160a01b03838116600081815260056020908152604080832094871680845294825291829020805460ff191686151590811790915591519182527f17307eab39ab6107e8899845ad3d59bd9653f200f220920489ca2b5937696c31910160405180910390a3505050565b61169d848484610f4e565b6116a984848484611c66565b610b735760405162461bcd60e51b815260206004820152603260248201527f4552433732313a207472616e7366657220746f206e6f6e20455243373231526560448201527131b2b4bb32b91034b6b83632b6b2b73a32b960711b60648201526084016105fb565b60006104ac61171d611139565b836040517f19010000000000000000000000000000000000000000000000000000000000006020820152602281018390526042810182905260009060620160405160208183030381529060405280519060200120905092915050565b600080600061178a87878787611daf565b9150915061179781611e9c565b5095945050505050565b6001600160a01b0381166000908152600e602052604090208054600181018255905b50919050565b60608160000361180c57505060408051808201909152600181527f3000000000000000000000000000000000000000000000000000000000000000602082015290565b8160005b8115611836578061182081612aa6565b915061182f9050600a83612ad5565b9150611810565b60008167ffffffffffffffff8111156118515761185161286c565b6040519080825280601f01601f19166020018201604052801561187b576020820181803683370190505b5090505b8415610f4657611890600183612a80565b915061189d600a86612ae9565b6118a8906030612a93565b60f81b8183815181106118bd576118bd612a25565b60200101907effffffffffffffffffffffffffffffffffffffffffffffffffffffffffffff1916908160001a9053506118f7600a86612ad5565b945061187f565b60006001600160e01b031982167f80ac58cd00000000000000000000000000000000000000000000000000000000148061196157506001600160e01b031982167f5b5e139f00000000000000000000000000000000000000000000000000000000145b806104ac57507f01ffc9a7000000000000000000000000000000000000000000000000000000006001600160e01b03198316146104ac565b6119a1611c13565b6001600160a01b038281166000908152600b6020526040902054166119ca576119ca828361143b565b61069c838383612052565b61069c83838361210a565b60006119ef6002848418612ad5565b61080190848416612a93565b600a5460ff166108185760405162461bcd60e51b815260206004820152601460248201527f5061757361626c653a206e6f742070617573656400000000000000000000000060448201526064016105fb565b611a578383612116565b611a646000848484611c66565b61069c5760405162461bcd60e51b815260206004820152603260248201527f4552433732313a207472616e7366657220746f206e6f6e20455243373231526560448201527131b2b4bb32b91034b6b83632b6b2b73a32b960711b60648201526084016105fb565b60006104ac8261097a565b816001600160a01b0316836001600160a01b031614158015611af85750600081115b1561069c576001600160a01b03831615611b86576001600160a01b0383166000908152600c602052604081208190611b339061227985612285565b91509150846001600160a01b03167fdec2bacdd2f05b59de34da9b523dff8be42e5e38e818c82fdb0bae774387a7248383604051611b7b929190918252602082015260400190565b60405180910390a250505b6001600160a01b0382161561069c576001600160a01b0382166000908152600c602052604081208190611bbc906122b385612285565b91509150836001600160a01b03167fdec2bacdd2f05b59de34da9b523dff8be42e5e38e818c82fdb0bae774387a7248383604051611c04929190918252602082015260400190565b60405180910390a25050505050565b600a5460ff16156108185760405162461bcd60e51b815260206004820152601060248201527f5061757361626c653a207061757365640000000000000000000000000000000060448201526064016105fb565b60006001600160a01b0384163b15611da757604051630a85bd0160e11b81526001600160a01b0385169063150b7a0290611caa903390899088908890600401612afd565b6020604051808303816000875af1925050508015611ce5575060408051601f3d908101601f19168201909252611ce291810190612b39565b60015b611d8d573d808015611d13576040519150601f19603f3d011682016040523d82523d6000602084013e611d18565b606091505b508051600003611d855760405162461bcd60e51b815260206004820152603260248201527f4552433732313a207472616e7366657220746f206e6f6e20455243373231526560448201527131b2b4bb32b91034b6b83632b6b2b73a32b960711b60648201526084016105fb565b805181602001fd5b6001600160e01b031916630a85bd0160e11b149050610f46565b506001610f46565b6000807f7fffffffffffffffffffffffffffffff5d576e7357a4501ddfe92f46681b20a0831115611de65750600090506003611e93565b8460ff16601b14158015611dfe57508460ff16601c14155b15611e0f5750600090506004611e93565b6040805160008082526020820180845289905260ff881692820192909252606081018690526080810185905260019060a0016020604051602081039080840390855afa158015611e63573d6000803e3d6000fd5b5050604051601f1901519150506001600160a01b038116611e8c57600060019250925050611e93565b9150600090505b94509492505050565b6000816004811115611eb057611eb0612b56565b03611eb85750565b6001816004811115611ecc57611ecc612b56565b03611f195760405162461bcd60e51b815260206004820152601860248201527f45434453413a20696e76616c6964207369676e6174757265000000000000000060448201526064016105fb565b6002816004811115611f2d57611f2d612b56565b03611f7a5760405162461bcd60e51b815260206004820152601f60248201527f45434453413a20696e76616c6964207369676e6174757265206c656e6774680060448201526064016105fb565b6003816004811115611f8e57611f8e612b56565b03611fe65760405162461bcd60e51b815260206004820152602260248201527f45434453413a20696e76616c6964207369676e6174757265202773272076616c604482015261756560f01b60648201526084016105fb565b6004816004811115611ffa57611ffa612b56565b03610daf5760405162461bcd60e51b815260206004820152602260248201527f45434453413a20696e76616c6964207369676e6174757265202776272076616c604482015261756560f01b60648201526084016105fb565b6001600160a01b0383166120ad576120a881600880546000838152600960205260408120829055600182018355919091527ff3f7a9fe364faab93b216da50a3214154f22a0a2b415b23a84c8169e8b636ee30155565b6120d0565b816001600160a01b0316836001600160a01b0316146120d0576120d083826122bf565b6001600160a01b0382166120e75761069c8161235c565b826001600160a01b0316826001600160a01b03161461069c5761069c828261240b565b61069c8383600161244f565b6001600160a01b03821661216c5760405162461bcd60e51b815260206004820181905260248201527f4552433732313a206d696e7420746f20746865207a65726f206164647265737360448201526064016105fb565b6000818152600260205260409020546001600160a01b0316156121d15760405162461bcd60e51b815260206004820152601c60248201527f4552433732313a20746f6b656e20616c7265616479206d696e7465640000000060448201526064016105fb565b6121dd60008383611999565b6001600160a01b0382166000908152600360205260408120805460019290612206908490612a93565b9091555050600081815260026020526040808220805473ffffffffffffffffffffffffffffffffffffffff19166001600160a01b03861690811790915590518392907fddf252ad1be2c89b69c2b068fc378daa952ba7f163c4a11628f55a4df523b3ef908290a4610847600083836119d5565b60006108018284612a80565b6000806122a7856122a261229888611568565b868863ffffffff16565b6124bf565b91509150935093915050565b60006108018284612a93565b600060016122cc8461097a565b6122d69190612a80565b600083815260076020526040902054909150808214612329576001600160a01b03841660009081526006602090815260408083208584528252808320548484528184208190558352600790915290208190555b5060009182526007602090815260408084208490556001600160a01b039094168352600681528383209183525290812055565b60085460009061236e90600190612a80565b6000838152600960205260408120546008805493945090928490811061239657612396612a25565b9060005260206000200154905080600883815481106123b7576123b7612a25565b60009182526020808320909101929092558281526009909152604080822084905585825281205560088054806123ef576123ef612b6c565b6001900381819060005260206000200160009055905550505050565b60006124168361097a565b6001600160a01b039093166000908152600660209081526040808320868452825280832085905593825260079052919091209190915550565b6001600160a01b03831661246e5761246b600d6122b383612285565b50505b6001600160a01b03821661248d5761248a600d61227983612285565b50505b6001600160a01b038381166000908152600b602052604080822054858416835291205461069c92918216911683611ad6565b81546000908190816124d086611568565b905060008211801561250e575043866124ea600185612a80565b815481106124fa576124fa612a25565b60009182526020909120015463ffffffff16145b1561256e5761251c856125e5565b86612528600185612a80565b8154811061253857612538612a25565b9060005260206000200160000160046101000a8154816001600160e01b0302191690836001600160e01b031602179055506125dc565b85600001604051806040016040528061258643612668565b63ffffffff16815260200161259a886125e5565b6001600160e01b0390811690915282546001810184556000938452602093849020835194909301519091166401000000000263ffffffff909316929092179101555b95939450505050565b60006001600160e01b038211156126645760405162461bcd60e51b815260206004820152602760248201527f53616665436173743a2076616c756520646f65736e27742066697420696e203260448201527f323420626974730000000000000000000000000000000000000000000000000060648201526084016105fb565b5090565b600063ffffffff8211156126645760405162461bcd60e51b815260206004820152602660248201527f53616665436173743a2076616c756520646f65736e27742066697420696e203360448201527f322062697473000000000000000000000000000000000000000000000000000060648201526084016105fb565b6001600160e01b031981168114610daf57600080fd5b60006020828403121561270c57600080fd5b8135610801816126e4565b60005b8381101561273257818101518382015260200161271a565b50506000910152565b60008151808452612753816020860160208601612717565b601f01601f19169290920160200192915050565b602081526000610801602083018461273b565b60006020828403121561278c57600080fd5b5035919050565b80356001600160a01b03811681146127aa57600080fd5b919050565b600080604083850312156127c257600080fd5b6127cb83612793565b946020939093013593505050565b6000806000606084860312156127ee57600080fd5b6127f784612793565b925061280560208501612793565b9150604084013590509250925092565b60006020828403121561282757600080fd5b61080182612793565b6000806040838503121561284357600080fd5b61284c83612793565b91506020830135801515811461286157600080fd5b809150509250929050565b634e487b7160e01b600052604160045260246000fd5b6000806000806080858703121561289857600080fd5b6128a185612793565b93506128af60208601612793565b925060408501359150606085013567ffffffffffffffff808211156128d357600080fd5b818701915087601f8301126128e757600080fd5b8135818111156128f9576128f961286c565b604051601f8201601f19908116603f011681019083821181831017156129215761292161286c565b816040528281528a602084870101111561293a57600080fd5b82602086016020830137600060208483010152809550505050505092959194509250565b60008060008060008060c0878903121561297757600080fd5b61298087612793565b95506020870135945060408701359350606087013560ff811681146129a457600080fd5b9598949750929560808101359460a0909101359350915050565b600080604083850312156129d157600080fd5b6129da83612793565b91506129e860208401612793565b90509250929050565b600181811c90821680612a0557607f821691505b6020821081036117c357634e487b7160e01b600052602260045260246000fd5b634e487b7160e01b600052603260045260246000fd5b60008351612a4d818460208801612717565b835190830190612a61818360208801612717565b01949350505050565b634e487b7160e01b600052601160045260246000fd5b818103818111156104ac576104ac612a6a565b808201808211156104ac576104ac612a6a565b600060018201612ab857612ab8612a6a565b5060010190565b634e487b7160e01b600052601260045260246000fd5b600082612ae457612ae4612abf565b500490565b600082612af857612af8612abf565b500690565b60006001600160a01b03808716835280861660208401525083604083015260806060830152612b2f608083018461273b565b9695505050505050565b600060208284031215612b4b57600080fd5b8151610801816126e4565b634e487b7160e01b600052602160045260246000fd5b634e487b7160e01b600052603160045260246000fdfea2646970667358221220f816359b5d6ad5700123beb9856ce048a9f797e47e1b4f3d23052b472e393a8464736f6c63430008100033"
}