{
  "address": "0x5081a39b8A5f0E35a8D959395a630b68B74Dd30f",
  "abi": [
    {
      "inputs": [
        {
          "internalType": "contract ISenate",
          "name": "_senate",
          "type": "address"
        }
      ],
      "stateMutability": "nonpayable",
      "type": "constructor"
    },
    {
      "anonymous": false,
      "inputs": [
        {
          "indexed": true,
          "internalType": "address",
          "name": "owner",
          "type": "address"
        },
        {
          "indexed": true,
          "internalType": "address",
          "name": "approved",
          "type": "address"
        },
        {
          "indexed": true,
          "internalType": "uint256",
          "name": "tokenId",
          "type": "uint256"
        }
      ],
      "name": "Approval",
      "type": "event"
    },
    {
      "anonymous": false,
      "inputs": [
        {
          "indexed": true,
          "internalType": "address",
          "name": "owner",
          "type": "address"
        },
        {
          "indexed": true,
          "internalType": "address",
          "name": "operator",
          "type": "address"
        },
        {
          "indexed": false,
          "internalType": "bool",
          "name": "approved",
          "type": "bool"
        }
      ],
      "name": "ApprovalForAll",
      "type": "event"
    },
    {
      "anonymous": false,
      "inputs": [
        {
          "indexed": true,
          "internalType": "address",
          "name": "delegator",
          "type": "address"
        },
        {
          "indexed": true,
          "internalType": "address",
          "name": "fromDelegate",
          "type": "address"
        },
        {
          "indexed": true,
          "internalType": "address",
          "name": "toDelegate",
          "type": "address"
        }
      ],
      "name": "DelegateChanged",
      "type": "event"
    },
    {
      "anonymous": false,
      "inputs": [
        {
          "indexed": true,
          "internalType": "address",
          "name": "delegate",
          "type": "address"
        },
        {
          "indexed": false,
          "internalType": "uint256",
          "name": "previousBalance",
          "type": "uint256"
        },
        {
          "indexed": false,
          "internalType": "uint256",
          "name": "newBalance",
          "type": "uint256"
        }
      ],
      "name": "DelegateVotesChanged",
      "type": "event"
    },
    {
      "anonymous": false,
      "inputs": [
        {
          "indexed": true,
          "internalType": "address",
          "name": "previousOwner",
          "type": "address"
        },
        {
          "indexed": true,
          "internalType": "address",
          "name": "newOwner",
          "type": "address"
        }
      ],
      "name": "OwnershipTransferred",
      "type": "event"
    },
    {
      "anonymous": false,
      "inputs": [
        {
          "indexed": false,
          "internalType": "address",
          "name": "account",
          "type": "address"
        }
      ],
      "name": "Paused",
      "type": "event"
    },
    {
      "anonymous": false,
      "inputs": [
        {
          "indexed": true,
          "internalType": "address",
          "name": "oldSenate",
          "type": "address"
        },
        {
          "indexed": true,
          "internalType": "address",
          "name": "newSenate",
          "type": "address"
        }
      ],
      "name": "SenateChanged",
      "type": "event"
    },
    {
      "anonymous": false,
      "inputs": [
        {
          "indexed": true,
          "internalType": "address",
          "name": "from",
          "type": "address"
        },
        {
          "indexed": true,
          "internalType": "address",
          "name": "to",
          "type": "address"
        },
        {
          "indexed": true,
          "internalType": "uint256",
          "name": "tokenId",
          "type": "uint256"
        }
      ],
      "name": "Transfer",
      "type": "event"
    },
    {
      "anonymous": false,
      "inputs": [
        {
          "indexed": false,
          "internalType": "address",
          "name": "account",
          "type": "address"
        }
      ],
      "name": "Unpaused",
      "type": "event"
    },
    {
      "inputs": [],
      "name": "DOMAIN_SEPARATOR",
      "outputs": [
        {
          "internalType": "bytes32",
          "name": "",
          "type": "bytes32"
        }
      ],
      "stateMutability": "view",
      "type": "function"
    },
    {
      "inputs": [
        {
          "internalType": "address",
          "name": "to",
          "type": "address"
        },
        {
          "internalType": "uint256",
          "name": "tokenId",
          "type": "uint256"
        }
      ],
      "name": "approve",
      "outputs": [],
      "stateMutability": "nonpayable",
      "type": "function"
    },
    {
      "inputs": [
        {
          "internalType": "address",
          "name": "owner",
          "type": "address"
        }
      ],
      "name": "balanceOf",
      "outputs": [
        {
          "internalType": "uint256",
          "name": "",
          "type": "uint256"
        }
      ],
      "stateMutability": "view",
      "type": "function"
    },
    {
      "inputs": [
        {
          "internalType": "address",
          "name": "delegatee",
          "type": "address"
        }
      ],
      "name": "delegate",
      "outputs": [],
      "stateMutability": "nonpayable",
      "type": "function"
    },
    {
      "inputs": [
        {
          "internalType": "address",
          "name": "delegatee",
          "type": "address"
        },
        {
          "internalType": "uint256",
          "name": "nonce",
          "type": "uint256"
        },
        {
          "internalType": "uint256",
          "name": "expiry",
          "type": "uint256"
        },
        {
          "internalType": "uint8",
          "name": "v",
          "type": "uint8"
        },
        {
          "internalType": "bytes32",
          "name": "r",
          "type": "bytes32"
        },
        {
          "internalType": "bytes32",
          "name": "s",
          "type": "bytes32"
        }
      ],
      "name": "delegateBySig",
      "outputs": [],
      "stateMutability": "nonpayable",
      "type": "function"
    },
    {
      "inputs": [
        {
          "internalType": "address",
          "name": "account",
          "type": "address"
        }
      ],
      "name": "delegates",
      "outputs": [
        {
          "internalType": "address",
          "name": "",
          "type": "address"
        }
      ],
      "stateMutability": "view",
      "type": "function"
    },
    {
      "inputs": [
        {
          "internalType": "uint256",
          "name": "tokenId",
          "type": "uint256"
        }
      ],
      "name": "getApproved",
      "outputs": [
        {
          "internalType": "address",
          "name": "",
          "type": "address"
        }
      ],
      "stateMutability": "view",
      "type": "function"
    },
    {
      "inputs": [
        {
          "internalType": "uint256",
          "name": "blockNumber",
          "type": "uint256"
        }
      ],
      "name": "getPastTotalSupply",
      "outputs": [
        {
          "internalType": "uint256",
          "name": "",
          "type": "uint256"
        }
      ],
      "stateMutability": "view",
      "type": "function"
    },
    {
      "inputs": [
        {
          "internalType": "address",
          "name": "account",
          "type": "address"
        },
        {
          "internalType": "uint256",
          "name": "blockNumber",
          "type": "uint256"
        }
      ],
      "name": "getPastVotes",
      "outputs": [
        {
          "internalType": "uint256",
          "name": "",
          "type": "uint256"
        }
      ],
      "stateMutability": "view",
      "type": "function"
    },
    {
      "inputs": [],
      "name": "getSenateAddress",
      "outputs": [
        {
          "internalType": "address",
          "name": "",
          "type": "address"
        }
      ],
      "stateMutability": "view",
      "type": "function"
    },
    {
      "inputs": [],
      "name": "getSenateSnapshot",
      "outputs": [
        {
          "components": [
            {
              "internalType": "address",
              "name": "senator",
              "type": "address"
            },
            {
              "internalType": "uint256",
              "name": "votes",
              "type": "uint256"
            }
          ],
          "internalType": "struct ISenatorVotes.senateSnapshot[]",
          "name": "",
          "type": "tuple[]"
        }
      ],
      "stateMutability": "view",
      "type": "function"
    },
    {
      "inputs": [],
      "name": "getTotalSupply",
      "outputs": [
        {
          "internalType": "uint256",
          "name": "",
          "type": "uint256"
        }
      ],
      "stateMutability": "view",
      "type": "function"
    },
    {
      "inputs": [
        {
          "internalType": "address",
          "name": "account",
          "type": "address"
        }
      ],
      "name": "getVotes",
      "outputs": [
        {
          "internalType": "uint256",
          "name": "",
          "type": "uint256"
        }
      ],
      "stateMutability": "view",
      "type": "function"
    },
    {
      "inputs": [
        {
          "internalType": "address",
          "name": "owner",
          "type": "address"
        },
        {
          "internalType": "address",
          "name": "operator",
          "type": "address"
        }
      ],
      "name": "isApprovedForAll",
      "outputs": [
        {
          "internalType": "bool",
          "name": "",
          "type": "bool"
        }
      ],
      "stateMutability": "view",
      "type": "function"
    },
    {
      "inputs": [],
      "name": "name",
      "outputs": [
        {
          "internalType": "string",
          "name": "",
          "type": "string"
        }
      ],
      "stateMutability": "view",
      "type": "function"
    },
    {
      "inputs": [
        {
          "internalType": "address",
          "name": "owner",
          "type": "address"
        }
      ],
      "name": "nonces",
      "outputs": [
        {
          "internalType": "uint256",
          "name": "",
          "type": "uint256"
        }
      ],
      "stateMutability": "view",
      "type": "function"
    },
    {
      "inputs": [],
      "name": "owner",
      "outputs": [
        {
          "internalType": "address",
          "name": "",
          "type": "address"
        }
      ],
      "stateMutability": "view",
      "type": "function"
    },
    {
      "inputs": [
        {
          "internalType": "uint256",
          "name": "tokenId",
          "type": "uint256"
        }
      ],
      "name": "ownerOf",
      "outputs": [
        {
          "internalType": "address",
          "name": "",
          "type": "address"
        }
      ],
      "stateMutability": "view",
      "type": "function"
    },
    {
      "inputs": [],
      "name": "pause",
      "outputs": [],
      "stateMutability": "nonpayable",
      "type": "function"
    },
    {
      "inputs": [],
      "name": "paused",
      "outputs": [
        {
          "internalType": "bool",
          "name": "",
          "type": "bool"
        }
      ],
      "stateMutability": "view",
      "type": "function"
    },
    {
      "inputs": [],
      "name": "renounceOwnership",
      "outputs": [],
      "stateMutability": "nonpayable",
      "type": "function"
    },
    {
      "inputs": [
        {
          "internalType": "address",
          "name": "to",
          "type": "address"
        }
      ],
      "name": "safeMint",
      "outputs": [],
      "stateMutability": "nonpayable",
      "type": "function"
    },
    {
      "inputs": [
        {
          "internalType": "address",
          "name": "from",
          "type": "address"
        },
        {
          "internalType": "address",
          "name": "to",
          "type": "address"
        },
        {
          "internalType": "uint256",
          "name": "tokenId",
          "type": "uint256"
        }
      ],
      "name": "safeTransferFrom",
      "outputs": [],
      "stateMutability": "nonpayable",
      "type": "function"
    },
    {
      "inputs": [
        {
          "internalType": "address",
          "name": "from",
          "type": "address"
        },
        {
          "internalType": "address",
          "name": "to",
          "type": "address"
        },
        {
          "internalType": "uint256",
          "name": "tokenId",
          "type": "uint256"
        },
        {
          "internalType": "bytes",
          "name": "data",
          "type": "bytes"
        }
      ],
      "name": "safeTransferFrom",
      "outputs": [],
      "stateMutability": "nonpayable",
      "type": "function"
    },
    {
      "inputs": [],
      "name": "senate",
      "outputs": [
        {
          "internalType": "contract ISenate",
          "name": "",
          "type": "address"
        }
      ],
      "stateMutability": "view",
      "type": "function"
    },
    {
      "inputs": [
        {
          "internalType": "address",
          "name": "operator",
          "type": "address"
        },
        {
          "internalType": "bool",
          "name": "approved",
          "type": "bool"
        }
      ],
      "name": "setApprovalForAll",
      "outputs": [],
      "stateMutability": "nonpayable",
      "type": "function"
    },
    {
      "inputs": [
        {
          "internalType": "contract ISenate",
          "name": "_senate",
          "type": "address"
        }
      ],
      "name": "setSenate",
      "outputs": [],
      "stateMutability": "nonpayable",
      "type": "function"
    },
    {
      "inputs": [
        {
          "internalType": "bytes4",
          "name": "interfaceId",
          "type": "bytes4"
        }
      ],
      "name": "supportsInterface",
      "outputs": [
        {
          "internalType": "bool",
          "name": "",
          "type": "bool"
        }
      ],
      "stateMutability": "view",
      "type": "function"
    },
    {
      "inputs": [],
      "name": "symbol",
      "outputs": [
        {
          "internalType": "string",
          "name": "",
          "type": "string"
        }
      ],
      "stateMutability": "view",
      "type": "function"
    },
    {
      "inputs": [
        {
          "internalType": "uint256",
          "name": "index",
          "type": "uint256"
        }
      ],
      "name": "tokenByIndex",
      "outputs": [
        {
          "internalType": "uint256",
          "name": "",
          "type": "uint256"
        }
      ],
      "stateMutability": "view",
      "type": "function"
    },
    {
      "inputs": [
        {
          "internalType": "address",
          "name": "owner",
          "type": "address"
        },
        {
          "internalType": "uint256",
          "name": "index",
          "type": "uint256"
        }
      ],
      "name": "tokenOfOwnerByIndex",
      "outputs": [
        {
          "internalType": "uint256",
          "name": "",
          "type": "uint256"
        }
      ],
      "stateMutability": "view",
      "type": "function"
    },
    {
      "inputs": [
        {
          "internalType": "uint256",
          "name": "tokenId",
          "type": "uint256"
        }
      ],
      "name": "tokenURI",
      "outputs": [
        {
          "internalType": "string",
          "name": "",
          "type": "string"
        }
      ],
      "stateMutability": "view",
      "type": "function"
    },
    {
      "inputs": [],
      "name": "totalSupply",
      "outputs": [
        {
          "internalType": "uint256",
          "name": "",
          "type": "uint256"
        }
      ],
      "stateMutability": "view",
      "type": "function"
    },
    {
      "inputs": [
        {
          "internalType": "address",
          "name": "from",
          "type": "address"
        },
        {
          "internalType": "address",
          "name": "to",
          "type": "address"
        },
        {
          "internalType": "uint256",
          "name": "tokenId",
          "type": "uint256"
        }
      ],
      "name": "transferFrom",
      "outputs": [],
      "stateMutability": "nonpayable",
      "type": "function"
    },
    {
      "inputs": [
        {
          "internalType": "address",
          "name": "newOwner",
          "type": "address"
        }
      ],
      "name": "transferOwnership",
      "outputs": [],
      "stateMutability": "nonpayable",
      "type": "function"
    },
    {
      "inputs": [],
      "name": "unpause",
      "outputs": [],
      "stateMutability": "nonpayable",
      "type": "function"
    }
  ],
  "numDeployments": 28,
  "bytecode": "0x6101406040523480156200001257600080fd5b5060405162003ad338038062003ad383398101604081905262000035916200032b565b808060405180604001604052806006815260200165546f6b656e3160d01b815250604051806040016040528060018152602001603160f81b81525060405180604001604052806006815260200165546f6b656e3160d01b81525060405180604001604052806003815260200162544b3160e81b8152508160009081620000bc919062000402565b506001620000cb828262000402565b5050600a805460ff1916905550620000e33362000186565b815160209283012081519183019190912060e08290526101008190524660a0818152604080517f8b73c3c69bb8fe3d512ecc4cf759cc79239f7b179b0ffacaa9a75d522b39400f818801819052818301969096526060810194909452608080850193909352308483018190528151808603909301835260c094850190915281519190950120905291909152610120526200017d81620001e0565b50505062000507565b600a80546001600160a01b03838116610100818102610100600160a81b031985161790945560405193909204169182907f8be0079c531659141344cd1fd0a4f28419497f9722a3daafe3b4186f6b6457e090600090a35050565b600b546001600160a01b031615620002d957600b54604051630bcaebb360e21b81526001600160a01b0383811660048301526001921690632f2baecc90602401602060405180830381865afa1580156200023e573d6000803e3d6000fd5b505050506040513d601f19601f82011682018060405250810190620002649190620004e4565b6003811115620002785762000278620004ce565b03620002d95760405162461bcd60e51b815260206004820152602660248201527f53656e61746f72566f7465733a3a43757272656e742061637469766520696e2060448201526553656e61746560d01b606482015260840160405180910390fd5b600b80546001600160a01b038381166001600160a01b0319831681179093556040519116919082907ff99fbba862f227e12c769c916af8df441ea87c0f48e327186b68d5a2fbc9347690600090a35050565b6000602082840312156200033e57600080fd5b81516001600160a01b03811681146200035657600080fd5b9392505050565b634e487b7160e01b600052604160045260246000fd5b600181811c908216806200038857607f821691505b602082108103620003a957634e487b7160e01b600052602260045260246000fd5b50919050565b601f821115620003fd57600081815260208120601f850160051c81016020861015620003d85750805b601f850160051c820191505b81811015620003f957828155600101620003e4565b5050505b505050565b81516001600160401b038111156200041e576200041e6200035d565b62000436816200042f845462000373565b84620003af565b602080601f8311600181146200046e5760008415620004555750858301515b600019600386901b1c1916600185901b178555620003f9565b600085815260208120601f198616915b828110156200049f578886015182559484019460019091019084016200047e565b5085821015620004be5787850151600019600388901b60f8161c191681555b5050505050600190811b01905550565b634e487b7160e01b600052602160045260246000fd5b600060208284031215620004f757600080fd5b8151600481106200035657600080fd5b60805160a05160c05160e051610100516101205161357c620005576000396000611382015260006113d1015260006113ac015260006113050152600061132f01526000611359015261357c6000f3fe608060405234801561001057600080fd5b506004361061025c5760003560e01c8063715018a611610145578063ab0e5820116100bd578063c87b56dd1161008c578063e985e9c511610071578063e985e9c5146104d4578063ed78026e14610510578063f2fde38b1461052557600080fd5b8063c87b56dd146104b0578063e555b2eb146104c357600080fd5b8063ab0e58201461046f578063b88d4fde14610482578063c3cda52014610495578063c4e41b22146104a857600080fd5b80638e539e8c116101145780639ab24eb0116100f95780639ab24eb014610436578063a22cb46514610449578063a6e5b8e61461045c57600080fd5b80638e539e8c1461041b57806395d89b411461042e57600080fd5b8063715018a6146103e25780637ecebe00146103ea5780638456cb59146103fd5780638da5cb5b1461040557600080fd5b80633f4ba83a116101d8578063587cde1e116101a75780635c975abb1161018c5780635c975abb146103b15780636352211e146103bc57806370a08231146103cf57600080fd5b8063587cde1e146103725780635c19a95c1461039e57600080fd5b80633f4ba83a1461033157806340d097c31461033957806342842e0e1461034c5780634f6ccce71461035f57600080fd5b806318160ddd1161022f5780632f745c59116102145780632f745c59146103035780633644e515146103165780633a46b1a81461031e57600080fd5b806318160ddd146102de57806323b872dd146102f057600080fd5b806301ffc9a71461026157806306fdde0314610289578063081812fc1461029e578063095ea7b3146102c9575b600080fd5b61027461026f366004613040565b610538565b60405190151581526020015b60405180910390f35b610291610563565b60405161028091906130ad565b6102b16102ac3660046130c0565b6105f5565b6040516001600160a01b039091168152602001610280565b6102dc6102d73660046130ee565b61061c565b005b6008545b604051908152602001610280565b6102dc6102fe36600461311a565b610752565b6102e26103113660046130ee565b6107d9565b6102e2610881565b6102e261032c3660046130ee565b610890565b6102dc6108b9565b6102dc61034736600461315b565b6108cb565b6102dc61035a36600461311a565b6108fc565b6102e261036d3660046130c0565b610917565b6102b161038036600461315b565b6001600160a01b039081166000908152600c60205260409020541690565b6102dc6103ac36600461315b565b6109bb565b600a5460ff16610274565b6102b16103ca3660046130c0565b6109c6565b6102e26103dd36600461315b565b610a2b565b6102dc610ac5565b6102e26103f836600461315b565b610ad7565b6102dc610af5565b600a5461010090046001600160a01b03166102b1565b6102e26104293660046130c0565b610b05565b610291610b61565b6102e261044436600461315b565b610b70565b6102dc610457366004613178565b610ba0565b600b546102b1906001600160a01b031681565b6102dc61047d36600461315b565b610bab565b6102dc6104903660046131cc565b610bb7565b6102dc6104a33660046132ac565b610c45565b6102e2610d7b565b6102916104be3660046130c0565b610d85565b600b546001600160a01b03166102b1565b6102746104e236600461330e565b6001600160a01b03918216600090815260056020908152604080832093909416825291909152205460ff1690565b610518610df8565b604051610280919061333c565b6102dc61053336600461315b565b610f17565b60006001600160e01b031982166325c6185160e01b148061055d575061055d82610fa4565b92915050565b60606000805461057290613394565b80601f016020809104026020016040519081016040528092919081815260200182805461059e90613394565b80156105eb5780601f106105c0576101008083540402835291602001916105eb565b820191906000526020600020905b8154815290600101906020018083116105ce57829003601f168201915b5050505050905090565b600061060082610fc9565b506000908152600460205260409020546001600160a01b031690565b6000610627826109c6565b9050806001600160a01b0316836001600160a01b0316036106b55760405162461bcd60e51b815260206004820152602160248201527f4552433732313a20617070726f76616c20746f2063757272656e74206f776e6560448201527f720000000000000000000000000000000000000000000000000000000000000060648201526084015b60405180910390fd5b336001600160a01b03821614806106d157506106d181336104e2565b6107435760405162461bcd60e51b815260206004820152603e60248201527f4552433732313a20617070726f76652063616c6c6572206973206e6f7420746f60448201527f6b656e206f776e6572206e6f7220617070726f76656420666f7220616c6c000060648201526084016106ac565b61074d838361102d565b505050565b61075c338261109b565b6107ce5760405162461bcd60e51b815260206004820152602e60248201527f4552433732313a2063616c6c6572206973206e6f7420746f6b656e206f776e6560448201527f72206e6f7220617070726f76656400000000000000000000000000000000000060648201526084016106ac565b61074d83838361111a565b60006107e483610a2b565b82106108585760405162461bcd60e51b815260206004820152602b60248201527f455243373231456e756d657261626c653a206f776e657220696e646578206f7560448201527f74206f6620626f756e647300000000000000000000000000000000000000000060648201526084016106ac565b506001600160a01b03919091166000908152600660209081526040808320938352929052205490565b600061088b6112f8565b905090565b6001600160a01b0382166000908152600d602052604081206108b2908361141f565b9392505050565b6108c161153b565b6108c961159b565b565b6108d361153b565b60006108de60125490565b90506108ee601280546001019055565b6108f882826115ed565b5050565b61074d83838360405180602001604052806000815250610bb7565b600061092260085490565b82106109965760405162461bcd60e51b815260206004820152602c60248201527f455243373231456e756d657261626c653a20676c6f62616c20696e646578206f60448201527f7574206f6620626f756e6473000000000000000000000000000000000000000060648201526084016106ac565b600882815481106109a9576109a96133c8565b90600052602060002001549050919050565b336108f88183611607565b6000818152600260205260408120546001600160a01b03168061055d5760405162461bcd60e51b815260206004820152601860248201527f4552433732313a20696e76616c696420746f6b656e204944000000000000000060448201526064016106ac565b60006001600160a01b038216610aa95760405162461bcd60e51b815260206004820152602960248201527f4552433732313a2061646472657373207a65726f206973206e6f74206120766160448201527f6c6964206f776e6572000000000000000000000000000000000000000000000060648201526084016106ac565b506001600160a01b031660009081526003602052604090205490565b610acd61153b565b6108c96000611728565b6001600160a01b0381166000908152600f602052604081205461055d565b610afd61153b565b6108c9611799565b6000438210610b565760405162461bcd60e51b815260206004820152601a60248201527f566f7465733a20626c6f636b206e6f7420796574206d696e656400000000000060448201526064016106ac565b61055d600e8361141f565b60606001805461057290613394565b6001600160a01b0381166000908152600d60205260408120610b91906117d6565b6001600160e01b031692915050565b6108f8338383611810565b610bb4816118de565b50565b610bc1338361109b565b610c335760405162461bcd60e51b815260206004820152602e60248201527f4552433732313a2063616c6c6572206973206e6f7420746f6b656e206f776e6560448201527f72206e6f7220617070726f76656400000000000000000000000000000000000060648201526084016106ac565b610c3f84848484611a4d565b50505050565b83421115610c955760405162461bcd60e51b815260206004820152601860248201527f566f7465733a207369676e61747572652065787069726564000000000000000060448201526064016106ac565b604080517fe48329057bfd03d55e49b547132e39cffd9c1820ad7b9d4c5307691425d15adf60208201526001600160a01b038816918101919091526060810186905260808101859052600090610d0f90610d079060a00160405160208183030381529060405280519060200120611acb565b858585611b34565b9050610d1a81611b5c565b8614610d685760405162461bcd60e51b815260206004820152601460248201527f566f7465733a20696e76616c6964206e6f6e636500000000000000000000000060448201526064016106ac565b610d728188611607565b50505050505050565b600061088b611b82565b6060610d9082610fc9565b6000610da760408051602081019091526000815290565b90506000815111610dc757604051806020016040528060008152506108b2565b80610dd184611b9c565b604051602001610de29291906133de565b6040516020818303038152906040529392505050565b60606000610e066010611cd1565b67ffffffffffffffff811115610e1e57610e1e6131b6565b604051908082528060200260200182016040528015610e6357816020015b6040805180820190915260008082526020820152815260200190600190039081610e3c5790505b50905060005b610e736010611cd1565b811015610f11576040805180820190915280610e90601084611cdb565b6001600160a01b03168152602001610ed5600d6000610eb0601087611cdb565b6001600160a01b03166001600160a01b031681526020019081526020016000206117d6565b6001600160e01b0316815250828281518110610ef357610ef36133c8565b60200260200101819052508080610f0990613423565b915050610e69565b50919050565b610f1f61153b565b6001600160a01b038116610f9b5760405162461bcd60e51b815260206004820152602660248201527f4f776e61626c653a206e6577206f776e657220697320746865207a65726f206160448201527f646472657373000000000000000000000000000000000000000000000000000060648201526084016106ac565b610bb481611728565b60006001600160e01b031982166325c6185160e01b148061055d575061055d82611ce7565b6000818152600260205260409020546001600160a01b0316610bb45760405162461bcd60e51b815260206004820152601860248201527f4552433732313a20696e76616c696420746f6b656e204944000000000000000060448201526064016106ac565b600081815260046020526040902080546001600160a01b0319166001600160a01b0384169081179091558190611062826109c6565b6001600160a01b03167f8c5be1e5ebec7d5bd14f71427d1e84f3dd0314c0f7b2291e5b200ac8c7c3b92560405160405180910390a45050565b6000806110a7836109c6565b9050806001600160a01b0316846001600160a01b031614806110ee57506001600160a01b0380821660009081526005602090815260408083209388168352929052205460ff165b806111125750836001600160a01b0316611107846105f5565b6001600160a01b0316145b949350505050565b826001600160a01b031661112d826109c6565b6001600160a01b0316146111a95760405162461bcd60e51b815260206004820152602560248201527f4552433732313a207472616e736665722066726f6d20696e636f72726563742060448201527f6f776e657200000000000000000000000000000000000000000000000000000060648201526084016106ac565b6001600160a01b0382166112245760405162461bcd60e51b8152602060048201526024808201527f4552433732313a207472616e7366657220746f20746865207a65726f2061646460448201527f726573730000000000000000000000000000000000000000000000000000000060648201526084016106ac565b61122f838383611d25565b61123a60008261102d565b6001600160a01b038316600090815260036020526040812080546001929061126390849061343c565b90915550506001600160a01b038216600090815260036020526040812080546001929061129190849061344f565b909155505060008181526002602052604080822080546001600160a01b0319166001600160a01b0386811691821790925591518493918716917fddf252ad1be2c89b69c2b068fc378daa952ba7f163c4a11628f55a4df523b3ef91a461074d838383611d61565b6000306001600160a01b037f00000000000000000000000000000000000000000000000000000000000000001614801561135157507f000000000000000000000000000000000000000000000000000000000000000046145b1561137b57507f000000000000000000000000000000000000000000000000000000000000000090565b50604080517f00000000000000000000000000000000000000000000000000000000000000006020808301919091527f0000000000000000000000000000000000000000000000000000000000000000828401527f000000000000000000000000000000000000000000000000000000000000000060608301524660808301523060a0808401919091528351808403909101815260c0909201909252805191012090565b60004382106114705760405162461bcd60e51b815260206004820181905260248201527f436865636b706f696e74733a20626c6f636b206e6f7420796574206d696e656460448201526064016106ac565b600061147b83611d6c565b845490915060008160058111156114d957600061149784611dec565b6114a1908561343c565b60008981526020902090915081015463ffffffff90811690861610156114c9578091506114d7565b6114d481600161344f565b92505b505b60006114e788868585611f52565b905080156115235761150c886114fe60018461343c565b600091825260209091200190565b5464010000000090046001600160e01b0316611526565b60005b6001600160e01b031698975050505050505050565b600a546001600160a01b036101009091041633146108c95760405162461bcd60e51b815260206004820181905260248201527f4f776e61626c653a2063616c6c6572206973206e6f7420746865206f776e657260448201526064016106ac565b6115a3611fb0565b600a805460ff191690557f5db9ee0a495bf2e6ff9c91a7834c1ba4fdd244a5e8aa4e537bd38aeae4b073aa335b6040516001600160a01b03909116815260200160405180910390a1565b6108f8828260405180602001604052806000815250612002565b6001600160a01b038281166000818152600c602052604080822080548686166001600160a01b0319821681179092559151919094169392849290917f3134e8a2e6d97e929a7e54011ea5485d7d196dd5f0ba4d4ef95803e8e3fc257f9190a4600061167b828461167687612080565b61208b565b600b549091506001600160a01b031615610c3f57600b546001600160a01b0316636e27fc0e83856116ab88612080565b6040516001600160e01b031960e086901b1681526001600160a01b039384166004820152929091166024830152604482015283151560648201526000608482015260a4015b600060405180830381600087803b15801561170a57600080fd5b505af115801561171e573d6000803e3d6000fd5b5050505050505050565b600a80546001600160a01b038381166101008181027fffffffffffffffffffffff0000000000000000000000000000000000000000ff85161790945560405193909204169182907f8be0079c531659141344cd1fd0a4f28419497f9722a3daafe3b4186f6b6457e090600090a35050565b6117a1612214565b600a805460ff191660011790557f62e78cea01bee320cd4e420270b5ea74000d11b0c9f74754ebdbfc544b05a2586115d03390565b80546000908015611807576117f0836114fe60018461343c565b5464010000000090046001600160e01b03166108b2565b60009392505050565b816001600160a01b0316836001600160a01b0316036118715760405162461bcd60e51b815260206004820152601960248201527f4552433732313a20617070726f766520746f2063616c6c65720000000000000060448201526064016106ac565b6001600160a01b03838116600081815260056020908152604080832094871680845294825291829020805460ff191686151590811790915591519182527f17307eab39ab6107e8899845ad3d59bd9653f200f220920489ca2b5937696c31910160405180910390a3505050565b600b546001600160a01b0316156119fb57600b546040517f2f2baecc0000000000000000000000000000000000000000000000000000000081526001600160a01b0383811660048301526001921690632f2baecc90602401602060405180830381865afa158015611953573d6000803e3d6000fd5b505050506040513d601f19601f820116820180604052508101906119779190613478565b600381111561198857611988613462565b036119fb5760405162461bcd60e51b815260206004820152602660248201527f53656e61746f72566f7465733a3a43757272656e742061637469766520696e2060448201527f53656e617465000000000000000000000000000000000000000000000000000060648201526084016106ac565b600b80546001600160a01b038381166001600160a01b0319831681179093556040519116919082907ff99fbba862f227e12c769c916af8df441ea87c0f48e327186b68d5a2fbc9347690600090a35050565b611a5884848461111a565b611a6484848484612267565b610c3f5760405162461bcd60e51b815260206004820152603260248201527f4552433732313a207472616e7366657220746f206e6f6e20455243373231526560448201527131b2b4bb32b91034b6b83632b6b2b73a32b960711b60648201526084016106ac565b600061055d611ad86112f8565b836040517f19010000000000000000000000000000000000000000000000000000000000006020820152602281018390526042810182905260009060620160405160208183030381529060405280519060200120905092915050565b6000806000611b45878787876123b0565b91509150611b528161249d565b5095945050505050565b6001600160a01b0381166000908152600f60205260409020805460018101825590610f11565b6000611b8e600e6117d6565b6001600160e01b0316905090565b606081600003611bdf57505060408051808201909152600181527f3000000000000000000000000000000000000000000000000000000000000000602082015290565b8160005b8115611c095780611bf381613423565b9150611c029050600a836134af565b9150611be3565b60008167ffffffffffffffff811115611c2457611c246131b6565b6040519080825280601f01601f191660200182016040528015611c4e576020820181803683370190505b5090505b841561111257611c6360018361343c565b9150611c70600a866134c3565b611c7b90603061344f565b60f81b818381518110611c9057611c906133c8565b60200101907effffffffffffffffffffffffffffffffffffffffffffffffffffffffffffff1916908160001a905350611cca600a866134af565b9450611c52565b600061055d825490565b60006108b28383612653565b60006001600160e01b031982167f780e9d6300000000000000000000000000000000000000000000000000000000148061055d575061055d8261267d565b611d2d612214565b6001600160a01b038281166000908152600c602052604090205416611d5657611d568283611607565b61074d838383612718565b61074d8383836127d0565b600063ffffffff821115611de85760405162461bcd60e51b815260206004820152602660248201527f53616665436173743a2076616c756520646f65736e27742066697420696e203360448201527f322062697473000000000000000000000000000000000000000000000000000060648201526084016106ac565b5090565b600081600003611dfe57506000919050565b600182608081901c15611e165760409190911b9060801c5b604081901c15611e2b5760209190911b9060401c5b602081901c15611e405760109190911b9060201c5b601081901c15611e555760089190911b9060101c5b600881901c15611e6a5760049190911b9060081c5b600481901c15611e7f5760029190911b9060041c5b600281901c15611e9157600182901b91505b6001828581611ea257611ea2613499565b048301901c91506001828581611eba57611eba613499565b048301901c91506001828581611ed257611ed2613499565b048301901c91506001828581611eea57611eea613499565b048301901c91506001828581611f0257611f02613499565b048301901c91506001828581611f1a57611f1a613499565b048301901c91506001828581611f3257611f32613499565b048301901c915061111282838681611f4c57611f4c613499565b046127dc565b60005b81831015611fa8576000611f6984846127f2565b60008781526020902090915063ffffffff86169082015463ffffffff161115611f9457809250611fa2565b611f9f81600161344f565b93505b50611f55565b509392505050565b600a5460ff166108c95760405162461bcd60e51b815260206004820152601460248201527f5061757361626c653a206e6f742070617573656400000000000000000000000060448201526064016106ac565b61200c838361280d565b6120196000848484612267565b61074d5760405162461bcd60e51b815260206004820152603260248201527f4552433732313a207472616e7366657220746f206e6f6e20455243373231526560448201527131b2b4bb32b91034b6b83632b6b2b73a32b960711b60648201526084016106ac565b600061055d82610a2b565b6000826001600160a01b0316846001600160a01b0316141580156120af5750600082115b156108b2576001600160a01b03841615612162576001600160a01b0384166000908152600d6020526040812081906120ea906129638661296f565b801515945090925090506120ff6010876129a7565b8015612109575080155b1561211b576121196010876129c9565b505b60408051838152602081018390526001600160a01b038816917fdec2bacdd2f05b59de34da9b523dff8be42e5e38e818c82fdb0bae774387a724910160405180910390a250505b6001600160a01b038316156108b2576001600160a01b0383166000908152600d602052604081208190612198906129de8661296f565b90925090506121a86010876129a7565b1580156121b55750600081115b156121c7576121c56010876129ea565b505b60408051838152602081018390526001600160a01b038716917fdec2bacdd2f05b59de34da9b523dff8be42e5e38e818c82fdb0bae774387a724910160405180910390a250509392505050565b600a5460ff16156108c95760405162461bcd60e51b815260206004820152601060248201527f5061757361626c653a207061757365640000000000000000000000000000000060448201526064016106ac565b60006001600160a01b0384163b156123a857604051630a85bd0160e11b81526001600160a01b0385169063150b7a02906122ab9033908990889088906004016134d7565b6020604051808303816000875af19250505080156122e6575060408051601f3d908101601f191682019092526122e391810190613513565b60015b61238e573d808015612314576040519150601f19603f3d011682016040523d82523d6000602084013e612319565b606091505b5080516000036123865760405162461bcd60e51b815260206004820152603260248201527f4552433732313a207472616e7366657220746f206e6f6e20455243373231526560448201527131b2b4bb32b91034b6b83632b6b2b73a32b960711b60648201526084016106ac565b805181602001fd5b6001600160e01b031916630a85bd0160e11b149050611112565b506001611112565b6000807f7fffffffffffffffffffffffffffffff5d576e7357a4501ddfe92f46681b20a08311156123e75750600090506003612494565b8460ff16601b141580156123ff57508460ff16601c14155b156124105750600090506004612494565b6040805160008082526020820180845289905260ff881692820192909252606081018690526080810185905260019060a0016020604051602081039080840390855afa158015612464573d6000803e3d6000fd5b5050604051601f1901519150506001600160a01b03811661248d57600060019250925050612494565b9150600090505b94509492505050565b60008160048111156124b1576124b1613462565b036124b95750565b60018160048111156124cd576124cd613462565b0361251a5760405162461bcd60e51b815260206004820152601860248201527f45434453413a20696e76616c6964207369676e6174757265000000000000000060448201526064016106ac565b600281600481111561252e5761252e613462565b0361257b5760405162461bcd60e51b815260206004820152601f60248201527f45434453413a20696e76616c6964207369676e6174757265206c656e6774680060448201526064016106ac565b600381600481111561258f5761258f613462565b036125e75760405162461bcd60e51b815260206004820152602260248201527f45434453413a20696e76616c6964207369676e6174757265202773272076616c604482015261756560f01b60648201526084016106ac565b60048160048111156125fb576125fb613462565b03610bb45760405162461bcd60e51b815260206004820152602260248201527f45434453413a20696e76616c6964207369676e6174757265202776272076616c604482015261756560f01b60648201526084016106ac565b600082600001828154811061266a5761266a6133c8565b9060005260206000200154905092915050565b60006001600160e01b031982167f80ac58cd0000000000000000000000000000000000000000000000000000000014806126e057506001600160e01b031982167f5b5e139f00000000000000000000000000000000000000000000000000000000145b8061055d57507f01ffc9a7000000000000000000000000000000000000000000000000000000006001600160e01b031983161461055d565b6001600160a01b0383166127735761276e81600880546000838152600960205260408120829055600182018355919091527ff3f7a9fe364faab93b216da50a3214154f22a0a2b415b23a84c8169e8b636ee30155565b612796565b816001600160a01b0316836001600160a01b0316146127965761279683826129ff565b6001600160a01b0382166127ad5761074d81612a9c565b826001600160a01b0316826001600160a01b03161461074d5761074d8282612b4b565b61074d83836001612b8f565b60008183106127eb57816108b2565b5090919050565b600061280160028484186134af565b6108b29084841661344f565b6001600160a01b0382166128635760405162461bcd60e51b815260206004820181905260248201527f4552433732313a206d696e7420746f20746865207a65726f206164647265737360448201526064016106ac565b6000818152600260205260409020546001600160a01b0316156128c85760405162461bcd60e51b815260206004820152601c60248201527f4552433732313a20746f6b656e20616c7265616479206d696e7465640000000060448201526064016106ac565b6128d460008383611d25565b6001600160a01b03821660009081526003602052604081208054600192906128fd90849061344f565b909155505060008181526002602052604080822080546001600160a01b0319166001600160a01b03861690811790915590518392907fddf252ad1be2c89b69c2b068fc378daa952ba7f163c4a11628f55a4df523b3ef908290a46108f860008383611d61565b60006108b2828461343c565b60008061299a85612995612982886117d6565b6001600160e01b0316868863ffffffff16565b612c92565b915091505b935093915050565b6001600160a01b038116600090815260018301602052604081205415156108b2565b60006108b2836001600160a01b038416612cc6565b60006108b2828461344f565b60006108b2836001600160a01b038416612db9565b60006001612a0c84610a2b565b612a16919061343c565b600083815260076020526040902054909150808214612a69576001600160a01b03841660009081526006602090815260408083208584528252808320548484528184208190558352600790915290208190555b5060009182526007602090815260408084208490556001600160a01b039094168352600681528383209183525290812055565b600854600090612aae9060019061343c565b60008381526009602052604081205460088054939450909284908110612ad657612ad66133c8565b906000526020600020015490508060088381548110612af757612af76133c8565b6000918252602080832090910192909255828152600990915260408082208490558582528120556008805480612b2f57612b2f613530565b6001900381819060005260206000200160009055905550505050565b6000612b5683610a2b565b6001600160a01b039093166000908152600660209081526040808320868452825280832085905593825260079052919091209190915550565b6001600160a01b038316612bae57612bab600e6129de8361296f565b50505b6001600160a01b038216612bcd57612bca600e6129638361296f565b50505b6000612c15612bf4856001600160a01b039081166000908152600c60205260409020541690565b6001600160a01b038086166000908152600c6020526040902054168461208b565b600b549091506001600160a01b031615610c3f57600b546040517f6e27fc0e0000000000000000000000000000000000000000000000000000000081526001600160a01b03868116600483015285811660248301526044820185905283151560648301526001608483015290911690636e27fc0e9060a4016116f0565b600080612cb084612ca243611d6c565b612cab86612e08565b612e87565b6001600160e01b03918216969116945092505050565b60008181526001830160205260408120548015612daf576000612cea60018361343c565b8554909150600090612cfe9060019061343c565b9050818114612d63576000866000018281548110612d1e57612d1e6133c8565b9060005260206000200154905080876000018481548110612d4157612d416133c8565b6000918252602080832090910192909255918252600188019052604090208390555b8554869080612d7457612d74613530565b60019003818190600052602060002001600090559055856001016000868152602001908152602001600020600090556001935050505061055d565b600091505061055d565b6000818152600183016020526040812054612e005750815460018181018455600084815260208082209093018490558454848252828601909352604090209190915561055d565b50600061055d565b60006001600160e01b03821115611de85760405162461bcd60e51b815260206004820152602760248201527f53616665436173743a2076616c756520646f65736e27742066697420696e203260448201527f323420626974730000000000000000000000000000000000000000000000000060648201526084016106ac565b825460009081908015612fd0576000612ea5876114fe60018561343c565b60408051808201909152905463ffffffff8082168084526401000000009092046001600160e01b031660208401529192509087161015612f275760405162461bcd60e51b815260206004820152601760248201527f436865636b706f696e743a20696e76616c6964206b657900000000000000000060448201526064016106ac565b805163ffffffff808816911603612f705784612f48886114fe60018661343c565b80546001600160e01b03929092166401000000000263ffffffff909216919091179055612fc0565b6040805180820190915263ffffffff80881682526001600160e01b0380881660208085019182528b54600181018d5560008d81529190912094519151909216640100000000029216919091179101555b60200151925083915061299f9050565b50506040805180820190915263ffffffff80851682526001600160e01b0380851660208085019182528854600181018a5560008a81529182209551925190931664010000000002919093161792019190915590508161299f565b6001600160e01b031981168114610bb457600080fd5b60006020828403121561305257600080fd5b81356108b28161302a565b60005b83811015613078578181015183820152602001613060565b50506000910152565b6000815180845261309981602086016020860161305d565b601f01601f19169290920160200192915050565b6020815260006108b26020830184613081565b6000602082840312156130d257600080fd5b5035919050565b6001600160a01b0381168114610bb457600080fd5b6000806040838503121561310157600080fd5b823561310c816130d9565b946020939093013593505050565b60008060006060848603121561312f57600080fd5b833561313a816130d9565b9250602084013561314a816130d9565b929592945050506040919091013590565b60006020828403121561316d57600080fd5b81356108b2816130d9565b6000806040838503121561318b57600080fd5b8235613196816130d9565b9150602083013580151581146131ab57600080fd5b809150509250929050565b634e487b7160e01b600052604160045260246000fd5b600080600080608085870312156131e257600080fd5b84356131ed816130d9565b935060208501356131fd816130d9565b925060408501359150606085013567ffffffffffffffff8082111561322157600080fd5b818701915087601f83011261323557600080fd5b813581811115613247576132476131b6565b604051601f8201601f19908116603f0116810190838211818310171561326f5761326f6131b6565b816040528281528a602084870101111561328857600080fd5b82602086016020830137600060208483010152809550505050505092959194509250565b60008060008060008060c087890312156132c557600080fd5b86356132d0816130d9565b95506020870135945060408701359350606087013560ff811681146132f457600080fd5b9598949750929560808101359460a0909101359350915050565b6000806040838503121561332157600080fd5b823561332c816130d9565b915060208301356131ab816130d9565b602080825282518282018190526000919060409081850190868401855b8281101561338757815180516001600160a01b03168552860151868501529284019290850190600101613359565b5091979650505050505050565b600181811c908216806133a857607f821691505b602082108103610f1157634e487b7160e01b600052602260045260246000fd5b634e487b7160e01b600052603260045260246000fd5b600083516133f081846020880161305d565b83519083019061340481836020880161305d565b01949350505050565b634e487b7160e01b600052601160045260246000fd5b6000600182016134355761343561340d565b5060010190565b8181038181111561055d5761055d61340d565b8082018082111561055d5761055d61340d565b634e487b7160e01b600052602160045260246000fd5b60006020828403121561348a57600080fd5b8151600481106108b257600080fd5b634e487b7160e01b600052601260045260246000fd5b6000826134be576134be613499565b500490565b6000826134d2576134d2613499565b500690565b60006001600160a01b038087168352808616602084015250836040830152608060608301526135096080830184613081565b9695505050505050565b60006020828403121561352557600080fd5b81516108b28161302a565b634e487b7160e01b600052603160045260246000fdfea26469706673582212202763dba4c2fca1f3829b085847d4408d5ef146ff15ae85fe31a8b8b203874c2c64736f6c63430008100033"
}