{
  "address": "0x3Aa5ebB10DC797CAC828524e59A333d0A371443c",
  "abi": [
    {
      "inputs": [
        {
          "internalType": "contract IVotes",
          "name": "_token",
          "type": "address"
        },
        {
          "internalType": "contract TimelockController",
          "name": "_timelock",
          "type": "address"
        },
        {
          "internalType": "uint256",
          "name": "_quorumPercentage",
          "type": "uint256"
        },
        {
          "internalType": "uint256",
          "name": "_votingPeriod",
          "type": "uint256"
        },
        {
          "internalType": "uint256",
          "name": "_votingDelay",
          "type": "uint256"
        }
      ],
      "stateMutability": "nonpayable",
      "type": "constructor"
    },
    {
      "inputs": [],
      "name": "Empty",
      "type": "error"
    },
    {
      "anonymous": false,
      "inputs": [
        {
          "indexed": true,
          "internalType": "address",
          "name": "previousOwner",
          "type": "address"
        },
        {
          "indexed": true,
          "internalType": "address",
          "name": "newOwner",
          "type": "address"
        }
      ],
      "name": "OwnershipTransferred",
      "type": "event"
    },
    {
      "anonymous": false,
      "inputs": [
        {
          "indexed": false,
          "internalType": "uint256",
          "name": "proposalId",
          "type": "uint256"
        }
      ],
      "name": "ProposalCanceled",
      "type": "event"
    },
    {
      "anonymous": false,
      "inputs": [
        {
          "indexed": false,
          "internalType": "uint256",
          "name": "proposalId",
          "type": "uint256"
        },
        {
          "indexed": false,
          "internalType": "address",
          "name": "proposer",
          "type": "address"
        },
        {
          "indexed": false,
          "internalType": "address[]",
          "name": "targets",
          "type": "address[]"
        },
        {
          "indexed": false,
          "internalType": "uint256[]",
          "name": "values",
          "type": "uint256[]"
        },
        {
          "indexed": false,
          "internalType": "string[]",
          "name": "signatures",
          "type": "string[]"
        },
        {
          "indexed": false,
          "internalType": "bytes[]",
          "name": "calldatas",
          "type": "bytes[]"
        },
        {
          "indexed": false,
          "internalType": "uint256",
          "name": "startBlock",
          "type": "uint256"
        },
        {
          "indexed": false,
          "internalType": "uint256",
          "name": "endBlock",
          "type": "uint256"
        },
        {
          "indexed": false,
          "internalType": "string",
          "name": "description",
          "type": "string"
        }
      ],
      "name": "ProposalCreated",
      "type": "event"
    },
    {
      "anonymous": false,
      "inputs": [
        {
          "indexed": false,
          "internalType": "uint256",
          "name": "proposalId",
          "type": "uint256"
        }
      ],
      "name": "ProposalExecuted",
      "type": "event"
    },
    {
      "anonymous": false,
      "inputs": [
        {
          "indexed": false,
          "internalType": "uint256",
          "name": "proposalId",
          "type": "uint256"
        },
        {
          "indexed": false,
          "internalType": "uint256",
          "name": "eta",
          "type": "uint256"
        }
      ],
      "name": "ProposalQueued",
      "type": "event"
    },
    {
      "anonymous": false,
      "inputs": [
        {
          "indexed": false,
          "internalType": "uint256",
          "name": "oldProposalThreshold",
          "type": "uint256"
        },
        {
          "indexed": false,
          "internalType": "uint256",
          "name": "newProposalThreshold",
          "type": "uint256"
        }
      ],
      "name": "ProposalThresholdSet",
      "type": "event"
    },
    {
      "anonymous": false,
      "inputs": [
        {
          "indexed": false,
          "internalType": "uint256",
          "name": "oldQuorumNumerator",
          "type": "uint256"
        },
        {
          "indexed": false,
          "internalType": "uint256",
          "name": "newQuorumNumerator",
          "type": "uint256"
        }
      ],
      "name": "QuorumNumeratorUpdated",
      "type": "event"
    },
    {
      "anonymous": false,
      "inputs": [
        {
          "indexed": false,
          "internalType": "address",
          "name": "oldTimelock",
          "type": "address"
        },
        {
          "indexed": false,
          "internalType": "address",
          "name": "newTimelock",
          "type": "address"
        }
      ],
      "name": "TimelockChange",
      "type": "event"
    },
    {
      "anonymous": false,
      "inputs": [
        {
          "indexed": true,
          "internalType": "address",
          "name": "voter",
          "type": "address"
        },
        {
          "indexed": false,
          "internalType": "uint256",
          "name": "proposalId",
          "type": "uint256"
        },
        {
          "indexed": false,
          "internalType": "uint8",
          "name": "support",
          "type": "uint8"
        },
        {
          "indexed": false,
          "internalType": "uint256",
          "name": "weight",
          "type": "uint256"
        },
        {
          "indexed": false,
          "internalType": "string",
          "name": "reason",
          "type": "string"
        }
      ],
      "name": "VoteCast",
      "type": "event"
    },
    {
      "anonymous": false,
      "inputs": [
        {
          "indexed": true,
          "internalType": "address",
          "name": "voter",
          "type": "address"
        },
        {
          "indexed": false,
          "internalType": "uint256",
          "name": "proposalId",
          "type": "uint256"
        },
        {
          "indexed": false,
          "internalType": "uint8",
          "name": "support",
          "type": "uint8"
        },
        {
          "indexed": false,
          "internalType": "uint256",
          "name": "weight",
          "type": "uint256"
        },
        {
          "indexed": false,
          "internalType": "string",
          "name": "reason",
          "type": "string"
        },
        {
          "indexed": false,
          "internalType": "bytes",
          "name": "params",
          "type": "bytes"
        }
      ],
      "name": "VoteCastWithParams",
      "type": "event"
    },
    {
      "anonymous": false,
      "inputs": [
        {
          "indexed": false,
          "internalType": "uint256",
          "name": "oldVotingDelay",
          "type": "uint256"
        },
        {
          "indexed": false,
          "internalType": "uint256",
          "name": "newVotingDelay",
          "type": "uint256"
        }
      ],
      "name": "VotingDelaySet",
      "type": "event"
    },
    {
      "anonymous": false,
      "inputs": [
        {
          "indexed": false,
          "internalType": "uint256",
          "name": "oldVotingPeriod",
          "type": "uint256"
        },
        {
          "indexed": false,
          "internalType": "uint256",
          "name": "newVotingPeriod",
          "type": "uint256"
        }
      ],
      "name": "VotingPeriodSet",
      "type": "event"
    },
    {
      "inputs": [],
      "name": "BALLOT_TYPEHASH",
      "outputs": [
        {
          "internalType": "bytes32",
          "name": "",
          "type": "bytes32"
        }
      ],
      "stateMutability": "view",
      "type": "function"
    },
    {
      "inputs": [],
      "name": "COUNTING_MODE",
      "outputs": [
        {
          "internalType": "string",
          "name": "",
          "type": "string"
        }
      ],
      "stateMutability": "pure",
      "type": "function"
    },
    {
      "inputs": [],
      "name": "EXTENDED_BALLOT_TYPEHASH",
      "outputs": [
        {
          "internalType": "bytes32",
          "name": "",
          "type": "bytes32"
        }
      ],
      "stateMutability": "view",
      "type": "function"
    },
    {
      "inputs": [
        {
          "internalType": "uint256",
          "name": "proposalId",
          "type": "uint256"
        }
      ],
      "name": "cancel",
      "outputs": [],
      "stateMutability": "nonpayable",
      "type": "function"
    },
    {
      "inputs": [
        {
          "internalType": "uint256",
          "name": "proposalId",
          "type": "uint256"
        },
        {
          "internalType": "uint8",
          "name": "support",
          "type": "uint8"
        }
      ],
      "name": "castVote",
      "outputs": [
        {
          "internalType": "uint256",
          "name": "",
          "type": "uint256"
        }
      ],
      "stateMutability": "nonpayable",
      "type": "function"
    },
    {
      "inputs": [
        {
          "internalType": "uint256",
          "name": "proposalId",
          "type": "uint256"
        },
        {
          "internalType": "uint8",
          "name": "support",
          "type": "uint8"
        },
        {
          "internalType": "uint8",
          "name": "v",
          "type": "uint8"
        },
        {
          "internalType": "bytes32",
          "name": "r",
          "type": "bytes32"
        },
        {
          "internalType": "bytes32",
          "name": "s",
          "type": "bytes32"
        }
      ],
      "name": "castVoteBySig",
      "outputs": [
        {
          "internalType": "uint256",
          "name": "",
          "type": "uint256"
        }
      ],
      "stateMutability": "nonpayable",
      "type": "function"
    },
    {
      "inputs": [
        {
          "internalType": "uint256",
          "name": "proposalId",
          "type": "uint256"
        },
        {
          "internalType": "uint8",
          "name": "support",
          "type": "uint8"
        },
        {
          "internalType": "string",
          "name": "reason",
          "type": "string"
        }
      ],
      "name": "castVoteWithReason",
      "outputs": [
        {
          "internalType": "uint256",
          "name": "",
          "type": "uint256"
        }
      ],
      "stateMutability": "nonpayable",
      "type": "function"
    },
    {
      "inputs": [
        {
          "internalType": "uint256",
          "name": "proposalId",
          "type": "uint256"
        },
        {
          "internalType": "uint8",
          "name": "support",
          "type": "uint8"
        },
        {
          "internalType": "string",
          "name": "reason",
          "type": "string"
        },
        {
          "internalType": "bytes",
          "name": "params",
          "type": "bytes"
        }
      ],
      "name": "castVoteWithReasonAndParams",
      "outputs": [
        {
          "internalType": "uint256",
          "name": "",
          "type": "uint256"
        }
      ],
      "stateMutability": "nonpayable",
      "type": "function"
    },
    {
      "inputs": [
        {
          "internalType": "uint256",
          "name": "proposalId",
          "type": "uint256"
        },
        {
          "internalType": "uint8",
          "name": "support",
          "type": "uint8"
        },
        {
          "internalType": "string",
          "name": "reason",
          "type": "string"
        },
        {
          "internalType": "bytes",
          "name": "params",
          "type": "bytes"
        },
        {
          "internalType": "uint8",
          "name": "v",
          "type": "uint8"
        },
        {
          "internalType": "bytes32",
          "name": "r",
          "type": "bytes32"
        },
        {
          "internalType": "bytes32",
          "name": "s",
          "type": "bytes32"
        }
      ],
      "name": "castVoteWithReasonAndParamsBySig",
      "outputs": [
        {
          "internalType": "uint256",
          "name": "",
          "type": "uint256"
        }
      ],
      "stateMutability": "nonpayable",
      "type": "function"
    },
    {
      "inputs": [
        {
          "internalType": "address[]",
          "name": "targets",
          "type": "address[]"
        },
        {
          "internalType": "uint256[]",
          "name": "values",
          "type": "uint256[]"
        },
        {
          "internalType": "bytes[]",
          "name": "calldatas",
          "type": "bytes[]"
        },
        {
          "internalType": "bytes32",
          "name": "descriptionHash",
          "type": "bytes32"
        }
      ],
      "name": "execute",
      "outputs": [
        {
          "internalType": "uint256",
          "name": "",
          "type": "uint256"
        }
      ],
      "stateMutability": "payable",
      "type": "function"
    },
    {
      "inputs": [
        {
          "internalType": "uint256",
          "name": "proposalId",
          "type": "uint256"
        }
      ],
      "name": "execute",
      "outputs": [],
      "stateMutability": "payable",
      "type": "function"
    },
    {
      "inputs": [
        {
          "internalType": "uint256",
          "name": "proposalId",
          "type": "uint256"
        }
      ],
      "name": "getActions",
      "outputs": [
        {
          "internalType": "address[]",
          "name": "targets",
          "type": "address[]"
        },
        {
          "internalType": "uint256[]",
          "name": "values",
          "type": "uint256[]"
        },
        {
          "internalType": "string[]",
          "name": "signatures",
          "type": "string[]"
        },
        {
          "internalType": "bytes[]",
          "name": "calldatas",
          "type": "bytes[]"
        }
      ],
      "stateMutability": "view",
      "type": "function"
    },
    {
      "inputs": [
        {
          "internalType": "uint256",
          "name": "proposalId",
          "type": "uint256"
        },
        {
          "internalType": "address",
          "name": "voter",
          "type": "address"
        }
      ],
      "name": "getReceipt",
      "outputs": [
        {
          "components": [
            {
              "internalType": "bool",
              "name": "hasVoted",
              "type": "bool"
            },
            {
              "internalType": "uint8",
              "name": "support",
              "type": "uint8"
            },
            {
              "internalType": "uint96",
              "name": "votes",
              "type": "uint96"
            }
          ],
          "internalType": "struct IGovernorCompatibilityBravo.Receipt",
          "name": "",
          "type": "tuple"
        }
      ],
      "stateMutability": "view",
      "type": "function"
    },
    {
      "inputs": [
        {
          "internalType": "address",
          "name": "account",
          "type": "address"
        },
        {
          "internalType": "uint256",
          "name": "blockNumber",
          "type": "uint256"
        }
      ],
      "name": "getVotes",
      "outputs": [
        {
          "internalType": "uint256",
          "name": "",
          "type": "uint256"
        }
      ],
      "stateMutability": "view",
      "type": "function"
    },
    {
      "inputs": [
        {
          "internalType": "address",
          "name": "account",
          "type": "address"
        },
        {
          "internalType": "uint256",
          "name": "blockNumber",
          "type": "uint256"
        },
        {
          "internalType": "bytes",
          "name": "params",
          "type": "bytes"
        }
      ],
      "name": "getVotesWithParams",
      "outputs": [
        {
          "internalType": "uint256",
          "name": "",
          "type": "uint256"
        }
      ],
      "stateMutability": "view",
      "type": "function"
    },
    {
      "inputs": [
        {
          "internalType": "uint256",
          "name": "proposalId",
          "type": "uint256"
        },
        {
          "internalType": "address",
          "name": "account",
          "type": "address"
        }
      ],
      "name": "hasVoted",
      "outputs": [
        {
          "internalType": "bool",
          "name": "",
          "type": "bool"
        }
      ],
      "stateMutability": "view",
      "type": "function"
    },
    {
      "inputs": [
        {
          "internalType": "address[]",
          "name": "targets",
          "type": "address[]"
        },
        {
          "internalType": "uint256[]",
          "name": "values",
          "type": "uint256[]"
        },
        {
          "internalType": "bytes[]",
          "name": "calldatas",
          "type": "bytes[]"
        },
        {
          "internalType": "bytes32",
          "name": "descriptionHash",
          "type": "bytes32"
        }
      ],
      "name": "hashProposal",
      "outputs": [
        {
          "internalType": "uint256",
          "name": "",
          "type": "uint256"
        }
      ],
      "stateMutability": "pure",
      "type": "function"
    },
    {
      "inputs": [],
      "name": "name",
      "outputs": [
        {
          "internalType": "string",
          "name": "",
          "type": "string"
        }
      ],
      "stateMutability": "view",
      "type": "function"
    },
    {
      "inputs": [
        {
          "internalType": "address",
          "name": "",
          "type": "address"
        },
        {
          "internalType": "address",
          "name": "",
          "type": "address"
        },
        {
          "internalType": "uint256[]",
          "name": "",
          "type": "uint256[]"
        },
        {
          "internalType": "uint256[]",
          "name": "",
          "type": "uint256[]"
        },
        {
          "internalType": "bytes",
          "name": "",
          "type": "bytes"
        }
      ],
      "name": "onERC1155BatchReceived",
      "outputs": [
        {
          "internalType": "bytes4",
          "name": "",
          "type": "bytes4"
        }
      ],
      "stateMutability": "nonpayable",
      "type": "function"
    },
    {
      "inputs": [
        {
          "internalType": "address",
          "name": "",
          "type": "address"
        },
        {
          "internalType": "address",
          "name": "",
          "type": "address"
        },
        {
          "internalType": "uint256",
          "name": "",
          "type": "uint256"
        },
        {
          "internalType": "uint256",
          "name": "",
          "type": "uint256"
        },
        {
          "internalType": "bytes",
          "name": "",
          "type": "bytes"
        }
      ],
      "name": "onERC1155Received",
      "outputs": [
        {
          "internalType": "bytes4",
          "name": "",
          "type": "bytes4"
        }
      ],
      "stateMutability": "nonpayable",
      "type": "function"
    },
    {
      "inputs": [
        {
          "internalType": "address",
          "name": "",
          "type": "address"
        },
        {
          "internalType": "address",
          "name": "",
          "type": "address"
        },
        {
          "internalType": "uint256",
          "name": "",
          "type": "uint256"
        },
        {
          "internalType": "bytes",
          "name": "",
          "type": "bytes"
        }
      ],
      "name": "onERC721Received",
      "outputs": [
        {
          "internalType": "bytes4",
          "name": "",
          "type": "bytes4"
        }
      ],
      "stateMutability": "nonpayable",
      "type": "function"
    },
    {
      "inputs": [],
      "name": "owner",
      "outputs": [
        {
          "internalType": "address",
          "name": "",
          "type": "address"
        }
      ],
      "stateMutability": "view",
      "type": "function"
    },
    {
      "inputs": [
        {
          "internalType": "uint256",
          "name": "proposalId",
          "type": "uint256"
        }
      ],
      "name": "proposalDeadline",
      "outputs": [
        {
          "internalType": "uint256",
          "name": "",
          "type": "uint256"
        }
      ],
      "stateMutability": "view",
      "type": "function"
    },
    {
      "inputs": [
        {
          "internalType": "uint256",
          "name": "proposalId",
          "type": "uint256"
        }
      ],
      "name": "proposalEta",
      "outputs": [
        {
          "internalType": "uint256",
          "name": "",
          "type": "uint256"
        }
      ],
      "stateMutability": "view",
      "type": "function"
    },
    {
      "inputs": [
        {
          "internalType": "uint256",
          "name": "proposalId",
          "type": "uint256"
        }
      ],
      "name": "proposalSnapshot",
      "outputs": [
        {
          "internalType": "uint256",
          "name": "",
          "type": "uint256"
        }
      ],
      "stateMutability": "view",
      "type": "function"
    },
    {
      "inputs": [],
      "name": "proposalThreshold",
      "outputs": [
        {
          "internalType": "uint256",
          "name": "",
          "type": "uint256"
        }
      ],
      "stateMutability": "view",
      "type": "function"
    },
    {
      "inputs": [
        {
          "internalType": "uint256",
          "name": "proposalId",
          "type": "uint256"
        }
      ],
      "name": "proposals",
      "outputs": [
        {
          "internalType": "uint256",
          "name": "id",
          "type": "uint256"
        },
        {
          "internalType": "address",
          "name": "proposer",
          "type": "address"
        },
        {
          "internalType": "uint256",
          "name": "eta",
          "type": "uint256"
        },
        {
          "internalType": "uint256",
          "name": "startBlock",
          "type": "uint256"
        },
        {
          "internalType": "uint256",
          "name": "endBlock",
          "type": "uint256"
        },
        {
          "internalType": "uint256",
          "name": "forVotes",
          "type": "uint256"
        },
        {
          "internalType": "uint256",
          "name": "againstVotes",
          "type": "uint256"
        },
        {
          "internalType": "uint256",
          "name": "abstainVotes",
          "type": "uint256"
        },
        {
          "internalType": "bool",
          "name": "canceled",
          "type": "bool"
        },
        {
          "internalType": "bool",
          "name": "executed",
          "type": "bool"
        }
      ],
      "stateMutability": "view",
      "type": "function"
    },
    {
      "inputs": [
        {
          "internalType": "address[]",
          "name": "targets",
          "type": "address[]"
        },
        {
          "internalType": "uint256[]",
          "name": "values",
          "type": "uint256[]"
        },
        {
          "internalType": "bytes[]",
          "name": "calldatas",
          "type": "bytes[]"
        },
        {
          "internalType": "string",
          "name": "description",
          "type": "string"
        }
      ],
      "name": "propose",
      "outputs": [
        {
          "internalType": "uint256",
          "name": "",
          "type": "uint256"
        }
      ],
      "stateMutability": "nonpayable",
      "type": "function"
    },
    {
      "inputs": [
        {
          "internalType": "address[]",
          "name": "targets",
          "type": "address[]"
        },
        {
          "internalType": "uint256[]",
          "name": "values",
          "type": "uint256[]"
        },
        {
          "internalType": "string[]",
          "name": "signatures",
          "type": "string[]"
        },
        {
          "internalType": "bytes[]",
          "name": "calldatas",
          "type": "bytes[]"
        },
        {
          "internalType": "string",
          "name": "description",
          "type": "string"
        }
      ],
      "name": "propose",
      "outputs": [
        {
          "internalType": "uint256",
          "name": "",
          "type": "uint256"
        }
      ],
      "stateMutability": "nonpayable",
      "type": "function"
    },
    {
      "inputs": [
        {
          "internalType": "address[]",
          "name": "targets",
          "type": "address[]"
        },
        {
          "internalType": "uint256[]",
          "name": "values",
          "type": "uint256[]"
        },
        {
          "internalType": "bytes[]",
          "name": "calldatas",
          "type": "bytes[]"
        },
        {
          "internalType": "bytes32",
          "name": "descriptionHash",
          "type": "bytes32"
        }
      ],
      "name": "queue",
      "outputs": [
        {
          "internalType": "uint256",
          "name": "",
          "type": "uint256"
        }
      ],
      "stateMutability": "nonpayable",
      "type": "function"
    },
    {
      "inputs": [
        {
          "internalType": "uint256",
          "name": "proposalId",
          "type": "uint256"
        }
      ],
      "name": "queue",
      "outputs": [],
      "stateMutability": "nonpayable",
      "type": "function"
    },
    {
      "inputs": [
        {
          "internalType": "uint256",
          "name": "blockNumber",
          "type": "uint256"
        }
      ],
      "name": "quorum",
      "outputs": [
        {
          "internalType": "uint256",
          "name": "",
          "type": "uint256"
        }
      ],
      "stateMutability": "view",
      "type": "function"
    },
    {
      "inputs": [],
      "name": "quorumDenominator",
      "outputs": [
        {
          "internalType": "uint256",
          "name": "",
          "type": "uint256"
        }
      ],
      "stateMutability": "view",
      "type": "function"
    },
    {
      "inputs": [
        {
          "internalType": "uint256",
          "name": "blockNumber",
          "type": "uint256"
        }
      ],
      "name": "quorumNumerator",
      "outputs": [
        {
          "internalType": "uint256",
          "name": "",
          "type": "uint256"
        }
      ],
      "stateMutability": "view",
      "type": "function"
    },
    {
      "inputs": [],
      "name": "quorumNumerator",
      "outputs": [
        {
          "internalType": "uint256",
          "name": "",
          "type": "uint256"
        }
      ],
      "stateMutability": "view",
      "type": "function"
    },
    {
      "inputs": [],
      "name": "quorumVotes",
      "outputs": [
        {
          "internalType": "uint256",
          "name": "",
          "type": "uint256"
        }
      ],
      "stateMutability": "view",
      "type": "function"
    },
    {
      "inputs": [
        {
          "internalType": "address",
          "name": "target",
          "type": "address"
        },
        {
          "internalType": "uint256",
          "name": "value",
          "type": "uint256"
        },
        {
          "internalType": "bytes",
          "name": "data",
          "type": "bytes"
        }
      ],
      "name": "relay",
      "outputs": [],
      "stateMutability": "nonpayable",
      "type": "function"
    },
    {
      "inputs": [],
      "name": "renounceOwnership",
      "outputs": [],
      "stateMutability": "nonpayable",
      "type": "function"
    },
    {
      "inputs": [
        {
          "internalType": "uint256",
          "name": "newProposalThreshold",
          "type": "uint256"
        }
      ],
      "name": "setProposalThreshold",
      "outputs": [],
      "stateMutability": "nonpayable",
      "type": "function"
    },
    {
      "inputs": [
        {
          "internalType": "uint256",
          "name": "newVotingDelay",
          "type": "uint256"
        }
      ],
      "name": "setVotingDelay",
      "outputs": [],
      "stateMutability": "nonpayable",
      "type": "function"
    },
    {
      "inputs": [
        {
          "internalType": "uint256",
          "name": "newVotingPeriod",
          "type": "uint256"
        }
      ],
      "name": "setVotingPeriod",
      "outputs": [],
      "stateMutability": "nonpayable",
      "type": "function"
    },
    {
      "inputs": [
        {
          "internalType": "uint256",
          "name": "proposalId",
          "type": "uint256"
        }
      ],
      "name": "state",
      "outputs": [
        {
          "internalType": "enum IGovernor.ProposalState",
          "name": "",
          "type": "uint8"
        }
      ],
      "stateMutability": "view",
      "type": "function"
    },
    {
      "inputs": [
        {
          "internalType": "bytes4",
          "name": "interfaceId",
          "type": "bytes4"
        }
      ],
      "name": "supportsInterface",
      "outputs": [
        {
          "internalType": "bool",
          "name": "",
          "type": "bool"
        }
      ],
      "stateMutability": "view",
      "type": "function"
    },
    {
      "inputs": [],
      "name": "timelock",
      "outputs": [
        {
          "internalType": "address",
          "name": "",
          "type": "address"
        }
      ],
      "stateMutability": "view",
      "type": "function"
    },
    {
      "inputs": [],
      "name": "token",
      "outputs": [
        {
          "internalType": "contract IVotes",
          "name": "",
          "type": "address"
        }
      ],
      "stateMutability": "view",
      "type": "function"
    },
    {
      "inputs": [
        {
          "internalType": "address",
          "name": "newOwner",
          "type": "address"
        }
      ],
      "name": "transferOwnership",
      "outputs": [],
      "stateMutability": "nonpayable",
      "type": "function"
    },
    {
      "inputs": [
        {
          "internalType": "uint256",
          "name": "newQuorumNumerator",
          "type": "uint256"
        }
      ],
      "name": "updateQuorumNumerator",
      "outputs": [],
      "stateMutability": "nonpayable",
      "type": "function"
    },
    {
      "inputs": [
        {
          "internalType": "contract TimelockController",
          "name": "newTimelock",
          "type": "address"
        }
      ],
      "name": "updateTimelock",
      "outputs": [],
      "stateMutability": "nonpayable",
      "type": "function"
    },
    {
      "inputs": [],
      "name": "version",
      "outputs": [
        {
          "internalType": "string",
          "name": "",
          "type": "string"
        }
      ],
      "stateMutability": "view",
      "type": "function"
    },
    {
      "inputs": [],
      "name": "votingDelay",
      "outputs": [
        {
          "internalType": "uint256",
          "name": "",
          "type": "uint256"
        }
      ],
      "stateMutability": "view",
      "type": "function"
    },
    {
      "inputs": [],
      "name": "votingPeriod",
      "outputs": [
        {
          "internalType": "uint256",
          "name": "",
          "type": "uint256"
        }
      ],
      "stateMutability": "view",
      "type": "function"
    },
    {
      "stateMutability": "payable",
      "type": "receive"
    }
  ],
  "numDeployments": 8,
  "bytecode": "0x6101606040523480156200001257600080fd5b506040516200645d3803806200645d8339810160408190526200003591620007cc565b838386838560016040518060400160405280600d81526020016c2937bcb0b623b7bb32b93737b960991b81525080620000736200017860201b60201c565b815160209283012081519183019190912060e08290526101008190524660a0818152604080517f8b73c3c69bb8fe3d512ecc4cf759cc79239f7b179b0ffacaa9a75d522b39400f818801819052818301969096526060810194909452608080850193909352308483018190528151808603909301835260c094850190915281519190950120905291909152610120526000620001108282620008c9565b506200011e90508362000193565b6200012982620001d4565b62000134816200027b565b5050506001600160a01b0316610140526200014f81620002bc565b506200015b8162000434565b5062000167336200049d565b50506001600d5550620009d3915050565b6040805180820190915260018152603160f81b602082015290565b60045460408051918252602082018390527fc565b045403dc03c2eea82b81a0465edad9e2e7fc4d97e11421c209da93d7a93910160405180910390a1600455565b600081116200023a5760405162461bcd60e51b815260206004820152602760248201527f476f7665726e6f7253657474696e67733a20766f74696e6720706572696f6420604482015266746f6f206c6f7760c81b60648201526084015b60405180910390fd5b60055460408051918252602082018390527f7e3f7f0708a84de9203036abaa450dccc85ad5ff52f78c170f3edb55cf5e8828910160405180910390a1600555565b60065460408051918252602082018390527fccb45da8d5717e6c4544694297c4ba5cf151d455c9bb0ed4fc7a38411bc05461910160405180910390a1600655565b6064811115620003415760405162461bcd60e51b815260206004820152604360248201527f476f7665726e6f72566f74657351756f72756d4672616374696f6e3a2071756f60448201527f72756d4e756d657261746f72206f7665722071756f72756d44656e6f6d696e616064820152623a37b960e91b608482015260a40162000231565b60006200034d620004ef565b905080158015906200035f5750600954155b15620003da5760096000016040518060400160405280600063ffffffff16815260200162000398846200051e60201b6200262a1760201c565b6001600160e01b0390811690915282546001810184556000938452602093849020835194909301519091166401000000000263ffffffff909316929092179101555b620003f58260096200058d60201b620026ad1790919060201c565b505060408051828152602081018490527f0553476bf02ef2726e8ce5ced78d63e26e602e4a2257b1f559418e24b4633997910160405180910390a15050565b600a54604080516001600160a01b03928316815291831660208301527f08f74ea46ef7894f65eabfb5e6e695de773a000b47c529ab559178069b226401910160405180910390a1600a80546001600160a01b0319166001600160a01b0392909216919091179055565b600c80546001600160a01b038381166001600160a01b0319831681179093556040519116919082907f8be0079c531659141344cd1fd0a4f28419497f9722a3daafe3b4186f6b6457e090600090a35050565b600954600090156200051757620005126009620006e960201b620027d81760201c565b905090565b5060085490565b60006001600160e01b03821115620005895760405162461bcd60e51b815260206004820152602760248201527f53616665436173743a2076616c756520646f65736e27742066697420696e20326044820152663234206269747360c81b606482015260840162000231565b5090565b8154600090819081620005a086620006e9565b9050600082118015620005e457504386620005bd60018562000995565b81548110620005d057620005d0620009bd565b60009182526020909120015463ffffffff16145b15620006585762000600856200051e60201b6200262a1760201c565b866200060e60018562000995565b81548110620006215762000621620009bd565b9060005260206000200160000160046101000a8154816001600160e01b0302191690836001600160e01b03160217905550620006e0565b8560000160405180604001604052806200067d436200074c60201b620028341760201c565b63ffffffff1681526020016200069e886200051e60201b6200262a1760201c565b6001600160e01b0390811690915282546001810184556000938452602093849020835194909301519091166401000000000263ffffffff909316929092179101555b95939450505050565b805460009080156200073957826200070360018362000995565b81548110620007165762000716620009bd565b60009182526020909120015464010000000090046001600160e01b03166200073c565b60005b6001600160e01b03169392505050565b600063ffffffff821115620005895760405162461bcd60e51b815260206004820152602660248201527f53616665436173743a2076616c756520646f65736e27742066697420696e203360448201526532206269747360d01b606482015260840162000231565b6001600160a01b0381168114620007c957600080fd5b50565b600080600080600060a08688031215620007e557600080fd5b8551620007f281620007b3565b60208701519095506200080581620007b3565b6040870151606088015160809098015196999198509695945092505050565b634e487b7160e01b600052604160045260246000fd5b600181811c908216806200084f57607f821691505b6020821081036200087057634e487b7160e01b600052602260045260246000fd5b50919050565b601f821115620008c457600081815260208120601f850160051c810160208610156200089f5750805b601f850160051c820191505b81811015620008c057828155600101620008ab565b5050505b505050565b81516001600160401b03811115620008e557620008e562000824565b620008fd81620008f684546200083a565b8462000876565b602080601f8311600181146200093557600084156200091c5750858301515b600019600386901b1c1916600185901b178555620008c0565b600085815260208120601f198616915b82811015620009665788860151825594840194600190910190840162000945565b5085821015620009855787850151600019600388901b60f8161c191681555b5050505050600190811b01905550565b81810381811115620009b757634e487b7160e01b600052601160045260246000fd5b92915050565b634e487b7160e01b600052603260045260246000fd5b60805160a05160c05160e051610100516101205161014051615a2162000a3c60003960008181610bb8015281816133f00152613718015260006138f801526000613947015260006139220152600061387b015260006138a5015260006138cf0152615a216000f3fe6080604052600436106103385760003560e01c80637d5e81e2116101b0578063da95691a116100ec578063eb9019d411610095578063f2fde38b1161006f578063f2fde38b14610b66578063f8ce560a14610b86578063fc0c546a14610ba6578063fe0d94c114610bda57600080fd5b8063eb9019d414610ae1578063ece40cc114610b01578063f23a6e6114610b2157600080fd5b8063deaaa7cc116100c6578063deaaa7cc146109b9578063e23a9a52146109ed578063ea0217cf14610ac157600080fd5b8063da95691a14610933578063dd4e2ba514610953578063ddf0b0091461099957600080fd5b8063ab58fb8e11610159578063c01f9e3711610133578063c01f9e37146108b5578063c28bc2fa146108d5578063c59057e4146108f5578063d33219b41461091557600080fd5b8063ab58fb8e1461083b578063b58131b01461085b578063bc197c811461087057600080fd5b80639a802a6d1161018a5780639a802a6d146107e6578063a7713a7014610806578063a890c9101461081b57600080fd5b80637d5e81e2146107805780638da5cb5b146107a057806397c3d334146107d257600080fd5b8063328dd9821161027f57806354fd4d501161022857806360c4247f1161020257806360c4247f1461070b57806370b0f6601461072b578063715018a61461074b5780637b3c71d31461076057600080fd5b806354fd4d501461068557806356781388146106cb5780635f398a14146106eb57600080fd5b80633e4f49e6116102595780633e4f49e6146105ee57806340e58ee51461061b578063438596321461063b57600080fd5b8063328dd982146105895780633932abb1146105b95780633bccf4fd146105ce57600080fd5b8063150b7a02116102e15780632656227d116102bb5780632656227d146105225780632d63f693146105355780632fe3e2611461055557600080fd5b8063150b7a0214610490578063160cbed7146104ed57806324bc1a641461050d57600080fd5b80630342018111610312578063034201811461042e57806306f3f9e61461044e57806306fdde031461046e57600080fd5b8063013cf08b1461036057806301ffc9a7146103db57806302a251a31461040b57600080fd5b3661035b5730610346610bed565b6001600160a01b03161461035957600080fd5b005b600080fd5b34801561036c57600080fd5b5061038061037b3660046149b4565b610c06565b604080519a8b526001600160a01b0390991660208b0152978901969096526060880194909452608087019290925260a086015260c085015260e084015215156101008301521515610120820152610140015b60405180910390f35b3480156103e757600080fd5b506103fb6103f63660046149cd565b610cb1565b60405190151581526020016103d2565b34801561041757600080fd5b50610420610cc2565b6040519081526020016103d2565b34801561043a57600080fd5b50610420610449366004614b06565b610ccd565b34801561045a57600080fd5b506103596104693660046149b4565b610dc5565b34801561047a57600080fd5b50610483610e84565b6040516103d29190614bfd565b34801561049c57600080fd5b506104d46104ab366004614c25565b7f150b7a0200000000000000000000000000000000000000000000000000000000949350505050565b6040516001600160e01b031990911681526020016103d2565b3480156104f957600080fd5b50610420610508366004614e04565b610f16565b34801561051957600080fd5b5061042061119c565b610420610530366004614e04565b6111ac565b34801561054157600080fd5b506104206105503660046149b4565b6112d3565b34801561056157600080fd5b506104207fb3b3f3b703cd84ce352197dcff232b1b5d3cfb2025ce47cf04742d0651f1af8881565b34801561059557600080fd5b506105a96105a43660046149b4565b61130c565b6040516103d29493929190614f5d565b3480156105c557600080fd5b5061042061159d565b3480156105da57600080fd5b506104206105e9366004614faa565b6115a8565b3480156105fa57600080fd5b5061060e6106093660046149b4565b61161e565b6040516103d2919061500e565b34801561062757600080fd5b506103596106363660046149b4565b611629565b34801561064757600080fd5b506103fb610656366004615036565b60008281526007602090815260408083206001600160a01b038516845260080190915290205460ff1692915050565b34801561069157600080fd5b5060408051808201909152600181527f31000000000000000000000000000000000000000000000000000000000000006020820152610483565b3480156106d757600080fd5b506104206106e6366004615066565b611957565b3480156106f757600080fd5b50610420610706366004615092565b6119cf565b34801561071757600080fd5b506104206107263660046149b4565b611a19565b34801561073757600080fd5b506103596107463660046149b4565b611ab9565b34801561075757600080fd5b50610359611b70565b34801561076c57600080fd5b5061042061077b366004615116565b611b84565b34801561078c57600080fd5b5061042061079b366004615170565b611c00565b3480156107ac57600080fd5b50600c546001600160a01b03165b6040516001600160a01b0390911681526020016103d2565b3480156107de57600080fd5b506064610420565b3480156107f257600080fd5b50610420610801366004615211565b611c0e565b34801561081257600080fd5b50610420611c1b565b34801561082757600080fd5b5061035961083636600461526a565b611c37565b34801561084757600080fd5b506104206108563660046149b4565b611cee565b34801561086757600080fd5b50610420611da1565b34801561087c57600080fd5b506104d461088b366004615287565b7fbc197c810000000000000000000000000000000000000000000000000000000095945050505050565b3480156108c157600080fd5b506104206108d03660046149b4565b611dac565b3480156108e157600080fd5b506103596108f036600461531b565b611ddc565b34801561090157600080fd5b50610420610910366004614e04565b611ed3565b34801561092157600080fd5b50600a546001600160a01b03166107ba565b34801561093f57600080fd5b5061042061094e3660046153df565b611f0d565b34801561095f57600080fd5b5060408051808201909152601a81527f737570706f72743d627261766f2671756f72756d3d627261766f0000000000006020820152610483565b3480156109a557600080fd5b506103596109b43660046149b4565b611f3c565b3480156109c557600080fd5b506104207f150214d74d59b7d1e90c73fc22ef3d991dd0a76b046543d4d80ab92d2a50328f81565b3480156109f957600080fd5b50610a8c610a08366004615036565b60408051606081018252600080825260208201819052918101919091525060009182526007602090815260408084206001600160a01b0393909316845260089092018152918190208151606081018352905460ff8082161515835261010082041693820193909352620100009092046bffffffffffffffffffffffff169082015290565b6040805182511515815260208084015160ff1690820152918101516bffffffffffffffffffffffff16908201526060016103d2565b348015610acd57600080fd5b50610359610adc3660046149b4565b6121aa565b348015610aed57600080fd5b50610420610afc366004615481565b612261565b348015610b0d57600080fd5b50610359610b1c3660046149b4565b61226d565b348015610b2d57600080fd5b506104d4610b3c3660046154ad565b7ff23a6e610000000000000000000000000000000000000000000000000000000095945050505050565b348015610b7257600080fd5b50610359610b8136600461526a565b612324565b348015610b9257600080fd5b50610420610ba13660046149b4565b6123b1565b348015610bb257600080fd5b506107ba7f000000000000000000000000000000000000000000000000000000000000000081565b610359610be83660046149b4565b6123bc565b6000610c01600a546001600160a01b031690565b905090565b8060008080808080808080610c1a8a611cee565b9750610c258b6112d3565b9650610c308b611dac565b60008c81526007602081905260408220805460058201546006830154938301546001600160a01b039092169e50949a50939850909650919450610c728d61161e565b90506002816007811115610c8857610c88614ff8565b1493506007816007811115610c9f57610c9f614ff8565b14925050509193959799509193959799565b6000610cbc826128b0565b92915050565b6000610c0160055490565b600080610d71610d697fb3b3f3b703cd84ce352197dcff232b1b5d3cfb2025ce47cf04742d0651f1af888c8c8c8c604051610d09929190615516565b60405180910390208b80519060200120604051602001610d4e959493929190948552602085019390935260ff9190911660408401526060830152608082015260a00190565b604051602081830303815290604052805190602001206128ee565b868686612957565b9050610db78a828b8b8b8080601f0160208091040260200160405190810160405280939291908181526020018383808284376000920191909152508d9250612975915050565b9a9950505050505050505050565b610dcd610bed565b6001600160a01b0316336001600160a01b031614610e325760405162461bcd60e51b815260206004820152601860248201527f476f7665726e6f723a206f6e6c79476f7665726e616e6365000000000000000060448201526064015b60405180910390fd5b30610e3b610bed565b6001600160a01b031614610e785760008036604051610e5b929190615516565b604051809103902090505b80610e716002612af5565b03610e6657505b610e8181612ba5565b50565b606060008054610e9390615526565b80601f0160208091040260200160405190810160405280929190818152602001828054610ebf90615526565b8015610f0c5780601f10610ee157610100808354040283529160200191610f0c565b820191906000526020600020905b815481529060010190602001808311610eef57829003601f168201915b5050505050905090565b600080610f2586868686611ed3565b90506004610f328261161e565b6007811115610f4357610f43614ff8565b14610f9a5760405162461bcd60e51b815260206004820152602160248201527f476f7665726e6f723a2070726f706f73616c206e6f74207375636365737366756044820152601b60fa1b6064820152608401610e29565b600a54604080517ff27a0c9200000000000000000000000000000000000000000000000000000000815290516000926001600160a01b03169163f27a0c929160048083019260209291908290030181865afa158015610ffd573d6000803e3d6000fd5b505050506040513d601f19601f820116820180604052508101906110219190615560565b600a546040517fb1c5f4270000000000000000000000000000000000000000000000000000000081529192506001600160a01b03169063b1c5f42790611074908a908a908a906000908b90600401615579565b602060405180830381865afa158015611091573d6000803e3d6000fd5b505050506040513d601f19601f820116820180604052508101906110b59190615560565b6000838152600b602052604080822092909255600a5491517f8f2a0bb00000000000000000000000000000000000000000000000000000000081526001600160a01b0390921691638f2a0bb091611119918b918b918b91908b9089906004016155c7565b600060405180830381600087803b15801561113357600080fd5b505af1158015611147573d6000803e3d6000fd5b505050507f9a2e42fd6722813d69113e7d0079d3d940171428df7373df9c7f7617cfda28928282426111799190615635565b604080519283526020830191909152015b60405180910390a15095945050505050565b6000610c01610ba1600143615648565b6000806111bb86868686611ed3565b905060006111c88261161e565b905060048160078111156111de576111de614ff8565b14806111fb575060058160078111156111f9576111f9614ff8565b145b6112515760405162461bcd60e51b815260206004820152602160248201527f476f7665726e6f723a2070726f706f73616c206e6f74207375636365737366756044820152601b60fa1b6064820152608401610e29565b600082815260016020818152604092839020600201805460ff191690921790915590518381527f712ae1383f79ac853f8d882153778e0260ef8f03b504e2866e0593e04d2b291f910160405180910390a16112af8288888888612d0c565b6112bc8288888888612dad565b6112c98288888888612dba565b5095945050505050565b600081815260016020908152604080832081519283019091525467ffffffffffffffff16908190525b67ffffffffffffffff1692915050565b6060806060806000600760008781526020019081526020016000209050806001018160020182600301836004018380548060200260200160405190810160405280929190818152602001828054801561138e57602002820191906000526020600020905b81546001600160a01b03168152600190910190602001808311611370575b50505050509350828054806020026020016040519081016040528092919081815260200182805480156113e057602002820191906000526020600020905b8154815260200190600101908083116113cc575b5050505050925081805480602002602001604051908101604052809291908181526020016000905b828210156114b457838290600052602060002001805461142790615526565b80601f016020809104026020016040519081016040528092919081815260200182805461145390615526565b80156114a05780601f10611475576101008083540402835291602001916114a0565b820191906000526020600020905b81548152906001019060200180831161148357829003601f168201915b505050505081526020019060010190611408565b50505050915080805480602002602001604051908101604052809291908181526020016000905b828210156115875783829060005260206000200180546114fa90615526565b80601f016020809104026020016040519081016040528092919081815260200182805461152690615526565b80156115735780601f1061154857610100808354040283529160200191611573565b820191906000526020600020905b81548152906001019060200180831161155657829003601f168201915b5050505050815260200190600101906114db565b5050505090509450945094509450509193509193565b6000610c0160045490565b604080517f150214d74d59b7d1e90c73fc22ef3d991dd0a76b046543d4d80ab92d2a50328f602082015290810186905260ff8516606082015260009081906115f690610d6990608001610d4e565b905061161387828860405180602001604052806000815250612df3565b979650505050505050565b6000610cbc82612e16565b600081815260076020526040902080546001600160a01b0316336001600160a01b03161480611677575061165b611da1565b8154611675906001600160a01b0316610afc600143615648565b105b6116e95760405162461bcd60e51b815260206004820152602760248201527f476f7665726e6f72427261766f3a2070726f706f7365722061626f766520746860448201527f726573686f6c64000000000000000000000000000000000000000000000000006064820152608401610e29565b6119528160010180548060200260200160405190810160405280929190818152602001828054801561174457602002820191906000526020600020905b81546001600160a01b03168152600190910190602001808311611726575b50505050508260020180548060200260200160405190810160405280929190818152602001828054801561179757602002820191906000526020600020905b815481526020019060010190808311611783575b505050505061194884600301805480602002602001604051908101604052809291908181526020016000905b8282101561186f5783829060005260206000200180546117e290615526565b80601f016020809104026020016040519081016040528092919081815260200182805461180e90615526565b801561185b5780601f106118305761010080835404028352916020019161185b565b820191906000526020600020905b81548152906001019060200180831161183e57829003601f168201915b5050505050815260200190600101906117c3565b50505060048701805460408051602080840282018101909252828152935060009084015b8282101561193f5783829060005260206000200180546118b290615526565b80601f01602080910402602001604051908101604052809291908181526020018280546118de90615526565b801561192b5780601f106119005761010080835404028352916020019161192b565b820191906000526020600020905b81548152906001019060200180831161190e57829003601f168201915b505050505081526020019060010190611893565b50505050612f92565b84600901546130c5565b505050565b60008061196733610afc866112d3565b116119be5760405162461bcd60e51b815260206004820152602160248201527f476f7665726e6f723a3a766f74653a205a65726f20566f74696e6720506f77656044820152603960f91b6064820152608401610e29565b6119c883836130d3565b9392505050565b60008033905061161387828888888080601f0160208091040260200160405190810160405280939291908181526020018383808284376000920191909152508a9250612975915050565b600954600090808203611a30575050600854919050565b60006009611a3f600184615648565b81548110611a4f57611a4f61565b565b60009182526020918290206040805180820190915291015463ffffffff81168083526401000000009091046001600160e01b03169282019290925291508410611aa657602001516001600160e01b03169392505050565b611ab16009856130f4565b949350505050565b611ac1610bed565b6001600160a01b0316336001600160a01b031614611b215760405162461bcd60e51b815260206004820152601860248201527f476f7665726e6f723a206f6e6c79476f7665726e616e636500000000000000006044820152606401610e29565b30611b2a610bed565b6001600160a01b031614611b675760008036604051611b4a929190615516565b604051809103902090505b80611b606002612af5565b03611b5557505b610e8181613203565b611b78613244565b611b82600061329e565b565b600080611b9433610afc886112d3565b11611beb5760405162461bcd60e51b815260206004820152602160248201527f476f7665726e6f723a3a766f74653a205a65726f20566f74696e6720506f77656044820152603960f91b6064820152608401610e29565b611bf7858585856132fd565b95945050505050565b6000611bf785858585613345565b6000611ab18484846133ae565b60095460009015611c3057610c0160096127d8565b5060085490565b611c3f610bed565b6001600160a01b0316336001600160a01b031614611c9f5760405162461bcd60e51b815260206004820152601860248201527f476f7665726e6f723a206f6e6c79476f7665726e616e636500000000000000006044820152606401610e29565b30611ca8610bed565b6001600160a01b031614611ce55760008036604051611cc8929190615516565b604051809103902090505b80611cde6002612af5565b03611cd357505b610e818161345d565b600a546000828152600b60205260408082205490517fd45c44350000000000000000000000000000000000000000000000000000000081526004810191909152909182916001600160a01b039091169063d45c443590602401602060405180830381865afa158015611d64573d6000803e3d6000fd5b505050506040513d601f19601f82011682018060405250810190611d889190615560565b905080600114611d9857806119c8565b60009392505050565b6000610c0160065490565b600081815260016020818152604080842081519283019091529091015467ffffffffffffffff16908190526112fc565b611de4610bed565b6001600160a01b0316336001600160a01b031614611e445760405162461bcd60e51b815260206004820152601860248201527f476f7665726e6f723a206f6e6c79476f7665726e616e636500000000000000006044820152606401610e29565b30611e4d610bed565b6001600160a01b031614611e8a5760008036604051611e6d929190615516565b604051809103902090505b80611e836002612af5565b03611e7857505b611ecc8483838080601f0160208091040260200160405190810160405280939291908181526020018383808284376000920191909152508892506134d3915050565b5050505050565b600084848484604051602001611eec9493929190615671565b60408051601f19818403018152919052805160209091012095945050505050565b6000611f1d3387878787876134f9565b611f328686611f2c8787612f92565b85611c00565b9695505050505050565b600081815260076020908152604091829020600181018054845181850281018501909552808552919361195293909290830182828015611fa557602002820191906000526020600020905b81546001600160a01b03168152600190910190602001808311611f87575b505050505082600201805480602002602001604051908101604052809291908181526020018280548015611ff857602002820191906000526020600020905b815481526020019060010190808311611fe4575b50505050506121a084600301805480602002602001604051908101604052809291908181526020016000905b828210156120d057838290600052602060002001805461204390615526565b80601f016020809104026020016040519081016040528092919081815260200182805461206f90615526565b80156120bc5780601f10612091576101008083540402835291602001916120bc565b820191906000526020600020905b81548152906001019060200180831161209f57829003601f168201915b505050505081526020019060010190612024565b50505060048701805460408051602080840282018101909252828152935060009084015b8282101561193f57838290600052602060002001805461211390615526565b80601f016020809104026020016040519081016040528092919081815260200182805461213f90615526565b801561218c5780601f106121615761010080835404028352916020019161218c565b820191906000526020600020905b81548152906001019060200180831161216f57829003601f168201915b5050505050815260200190600101906120f4565b8460090154610f16565b6121b2610bed565b6001600160a01b0316336001600160a01b0316146122125760405162461bcd60e51b815260206004820152601860248201527f476f7665726e6f723a206f6e6c79476f7665726e616e636500000000000000006044820152606401610e29565b3061221b610bed565b6001600160a01b031614612258576000803660405161223b929190615516565b604051809103902090505b806122516002612af5565b0361224657505b610e81816135c3565b60006119c8838361367a565b612275610bed565b6001600160a01b0316336001600160a01b0316146122d55760405162461bcd60e51b815260206004820152601860248201527f476f7665726e6f723a206f6e6c79476f7665726e616e636500000000000000006044820152606401610e29565b306122de610bed565b6001600160a01b03161461231b57600080366040516122fe929190615516565b604051809103902090505b806123146002612af5565b0361230957505b610e818161369b565b61232c613244565b6001600160a01b0381166123a85760405162461bcd60e51b815260206004820152602660248201527f4f776e61626c653a206e6577206f776e657220697320746865207a65726f206160448201527f64647265737300000000000000000000000000000000000000000000000000006064820152608401610e29565b610e818161329e565b6000610cbc826136dc565b60008181526007602090815260409182902060018101805484518185028101850190955280855291936119529390929083018282801561242557602002820191906000526020600020905b81546001600160a01b03168152600190910190602001808311612407575b50505050508260020180548060200260200160405190810160405280929190818152602001828054801561247857602002820191906000526020600020905b815481526020019060010190808311612464575b505050505061262084600301805480602002602001604051908101604052809291908181526020016000905b828210156125505783829060005260206000200180546124c390615526565b80601f01602080910402602001604051908101604052809291908181526020018280546124ef90615526565b801561253c5780601f106125115761010080835404028352916020019161253c565b820191906000526020600020905b81548152906001019060200180831161251f57829003601f168201915b5050505050815260200190600101906124a4565b50505060048701805460408051602080840282018101909252828152935060009084015b8282101561193f57838290600052602060002001805461259390615526565b80601f01602080910402602001604051908101604052809291908181526020018280546125bf90615526565b801561260c5780601f106125e15761010080835404028352916020019161260c565b820191906000526020600020905b8154815290600101906020018083116125ef57829003601f168201915b505050505081526020019060010190612574565b84600901546111ac565b60006001600160e01b038211156126a95760405162461bcd60e51b815260206004820152602760248201527f53616665436173743a2076616c756520646f65736e27742066697420696e203260448201527f32342062697473000000000000000000000000000000000000000000000000006064820152608401610e29565b5090565b81546000908190816126be866127d8565b90506000821180156126fc575043866126d8600185615648565b815481106126e8576126e861565b565b60009182526020909120015463ffffffff16145b1561275c5761270a8561262a565b86612716600185615648565b815481106127265761272661565b565b9060005260206000200160000160046101000a8154816001600160e01b0302191690836001600160e01b031602179055506127ca565b85600001604051806040016040528061277443612834565b63ffffffff1681526020016127888861262a565b6001600160e01b0390811690915282546001810184556000938452602093849020835194909301519091166401000000000263ffffffff909316929092179101555b9250839150505b9250929050565b8054600090801561282157826127ef600183615648565b815481106127ff576127ff61565b565b60009182526020909120015464010000000090046001600160e01b0316612824565b60005b6001600160e01b03169392505050565b600063ffffffff8211156126a95760405162461bcd60e51b815260206004820152602660248201527f53616665436173743a2076616c756520646f65736e27742066697420696e203360448201527f32206269747300000000000000000000000000000000000000000000000000006064820152608401610e29565b60006001600160e01b031982167f6e665ced000000000000000000000000000000000000000000000000000000001480610cbc5750610cbc8261379f565b6000610cbc6128fb61386e565b836040517f19010000000000000000000000000000000000000000000000000000000000006020820152602281018390526042810182905260009060620160405160208183030381529060405280519060200120905092915050565b600080600061296887878787613995565b915091506112c981613a82565b600085815260016020819052604082209061298f8861161e565b60078111156129a0576129a0614ff8565b14612a135760405162461bcd60e51b815260206004820152602360248201527f476f7665726e6f723a20766f7465206e6f742063757272656e746c792061637460448201527f69766500000000000000000000000000000000000000000000000000000000006064820152608401610e29565b6040805160208101909152815467ffffffffffffffff1690819052600090612a3d908890866133ae565b9050612a4c8888888488613c38565b8351600003612aa157866001600160a01b03167fb8e138887d0aa13bab447e82de9d5c1777041ecd21ca36ba824ff1e6c07ddda489888489604051612a9494939291906156bc565b60405180910390a2611613565b866001600160a01b03167fe2babfbac5889a709b63bb7f598b324e08bc5a4fb9ec647fb3cbc9ec07eb87128988848989604051612ae29594939291906156e4565b60405180910390a2979650505050505050565b6000612b108254600f81810b600160801b909204900b131590565b15612b47576040517f3db2a12a00000000000000000000000000000000000000000000000000000000815260040160405180910390fd5b508054600f0b6000818152600180840160205260408220805492905583547fffffffffffffffffffffffffffffffff000000000000000000000000000000001692016fffffffffffffffffffffffffffffffff169190911790915590565b6064811115612c425760405162461bcd60e51b815260206004820152604360248201527f476f7665726e6f72566f74657351756f72756d4672616374696f6e3a2071756f60448201527f72756d4e756d657261746f72206f7665722071756f72756d44656e6f6d696e6160648201527f746f720000000000000000000000000000000000000000000000000000000000608482015260a401610e29565b6000612c4c611c1b565b90508015801590612c5d5750600954155b15612cc257604080518082019091526000815260099060208101612c808461262a565b6001600160e01b0390811690915282546001810184556000938452602093849020835194909301519091166401000000000263ffffffff909316929092179101555b612ccd6009836126ad565b505060408051828152602081018490527f0553476bf02ef2726e8ce5ced78d63e26e602e4a2257b1f559418e24b4633997910160405180910390a15050565b30612d15610bed565b6001600160a01b031614611ecc5760005b8451811015612da557306001600160a01b0316858281518110612d4b57612d4b61565b565b60200260200101516001600160a01b031603612d9557612d95838281518110612d7657612d7661565b565b6020026020010151805190602001206002613e0390919063ffffffff16565b612d9e8161572a565b9050612d26565b505050505050565b611ecc8585858585613e48565b30612dc3610bed565b6001600160a01b031614611ecc57600254600f81810b600160801b909204900b1315611ecc576000600255611ecc565b6000611bf785858585612e1160408051602081019091526000815290565b612975565b600080612e2283613ed5565b90506004816007811115612e3857612e38614ff8565b14612e435792915050565b6000838152600b602052604090205480612e5e575092915050565b600a546040517f2ab0f529000000000000000000000000000000000000000000000000000000008152600481018390526001600160a01b0390911690632ab0f52990602401602060405180830381865afa158015612ec0573d6000803e3d6000fd5b505050506040513d601f19601f82011682018060405250810190612ee49190615743565b15612ef3575060079392505050565b600a546040517f584b153e000000000000000000000000000000000000000000000000000000008152600481018390526001600160a01b039091169063584b153e90602401602060405180830381865afa158015612f55573d6000803e3d6000fd5b505050506040513d601f19601f82011682018060405250810190612f799190615743565b15612f88575060059392505050565b5060029392505050565b60606000825167ffffffffffffffff811115612fb057612fb0614a4f565b604051908082528060200260200182016040528015612fe357816020015b6060815260200190600190039081612fce5790505b50905060005b84518110156130bd578481815181106130045761300461565b565b602002602001015151600014613074578481815181106130265761302661565b565b6020026020010151805190602001208482815181106130475761304761565b565b6020026020010151604051602001613060929190615765565b60405160208183030381529060405261308f565b8381815181106130865761308661565b565b60200260200101515b8282815181106130a1576130a161565b565b6020026020010181905250806130b69061572a565b9050612fe9565b509392505050565b6000611bf785858585613fe7565b600080339050611ab184828560405180602001604052806000815250612df3565b60004382106131455760405162461bcd60e51b815260206004820181905260248201527f436865636b706f696e74733a20626c6f636b206e6f7420796574206d696e65646044820152606401610e29565b825460005b818110156131aa57600061315e82846140b2565b9050848660000182815481106131765761317661565b565b60009182526020909120015463ffffffff161115613196578092506131a4565b6131a1816001615635565b91505b5061314a565b81156131ee57846131bc600184615648565b815481106131cc576131cc61565b565b60009182526020909120015464010000000090046001600160e01b03166131f1565b60005b6001600160e01b031695945050505050565b60045460408051918252602082018390527fc565b045403dc03c2eea82b81a0465edad9e2e7fc4d97e11421c209da93d7a93910160405180910390a1600455565b600c546001600160a01b03163314611b825760405162461bcd60e51b815260206004820181905260248201527f4f776e61626c653a2063616c6c6572206973206e6f7420746865206f776e65726044820152606401610e29565b600c80546001600160a01b0383811673ffffffffffffffffffffffffffffffffffffffff19831681179093556040519116919082907f8be0079c531659141344cd1fd0a4f28419497f9722a3daafe3b4186f6b6457e090600090a35050565b600080339050611f3286828787878080601f016020809104026020016040519081016040528093929190818152602001838380828437600092019190915250612df392505050565b60006133a2338686865167ffffffffffffffff81111561336757613367614a4f565b60405190808252806020026020018201604052801561339a57816020015b60608152602001906001900390816133855790505b5087876134f9565b611bf7858585856140cd565b6040517f3a46b1a80000000000000000000000000000000000000000000000000000000081526001600160a01b038481166004830152602482018490526000917f000000000000000000000000000000000000000000000000000000000000000090911690633a46b1a890604401602060405180830381865afa158015613439573d6000803e3d6000fd5b505050506040513d601f19601f82011682018060405250810190611ab19190615560565b600a54604080516001600160a01b03928316815291831660208301527f08f74ea46ef7894f65eabfb5e6e695de773a000b47c529ab559178069b226401910160405180910390a1600a805473ffffffffffffffffffffffffffffffffffffffff19166001600160a01b0392909216919091179055565b6060611ab18484846040518060600160405280602981526020016159c360299139614430565b80516020820120600061351787876135118888612f92565b85611ed3565b60008181526007602052604090206009810154919250906135b857805473ffffffffffffffffffffffffffffffffffffffff19166001600160a01b038a16178155875161356d90600183019060208b01906147de565b50865161358390600283019060208a019061484c565b5085516135999060038301906020890190614887565b5084516135af90600483019060208801906148d9565b50600981018390555b505050505050505050565b600081116136395760405162461bcd60e51b815260206004820152602760248201527f476f7665726e6f7253657474696e67733a20766f74696e6720706572696f642060448201527f746f6f206c6f77000000000000000000000000000000000000000000000000006064820152608401610e29565b60055460408051918252602082018390527f7e3f7f0708a84de9203036abaa450dccc85ad5ff52f78c170f3edb55cf5e8828910160405180910390a1600555565b60006119c8838361369660408051602081019091526000815290565b6133ae565b60065460408051918252602082018390527fccb45da8d5717e6c4544694297c4ba5cf151d455c9bb0ed4fc7a38411bc05461910160405180910390a1600655565b600060646136e983611a19565b6040517f8e539e8c000000000000000000000000000000000000000000000000000000008152600481018590527f00000000000000000000000000000000000000000000000000000000000000006001600160a01b031690638e539e8c90602401602060405180830381865afa158015613767573d6000803e3d6000fd5b505050506040513d601f19601f8201168201806040525081019061378b9190615560565b6137959190615795565b610cbc91906157b4565b60006001600160e01b031982167fbf26d89700000000000000000000000000000000000000000000000000000000148061380257506001600160e01b031982167f79dd796f00000000000000000000000000000000000000000000000000000000145b8061383657506001600160e01b031982167f4e2312e000000000000000000000000000000000000000000000000000000000145b80610cbc57507f01ffc9a7000000000000000000000000000000000000000000000000000000006001600160e01b0319831614610cbc565b6000306001600160a01b037f0000000000000000000000000000000000000000000000000000000000000000161480156138c757507f000000000000000000000000000000000000000000000000000000000000000046145b156138f157507f000000000000000000000000000000000000000000000000000000000000000090565b50604080517f00000000000000000000000000000000000000000000000000000000000000006020808301919091527f0000000000000000000000000000000000000000000000000000000000000000828401527f000000000000000000000000000000000000000000000000000000000000000060608301524660808301523060a0808401919091528351808403909101815260c0909201909252805191012090565b6000807f7fffffffffffffffffffffffffffffff5d576e7357a4501ddfe92f46681b20a08311156139cc5750600090506003613a79565b8460ff16601b141580156139e457508460ff16601c14155b156139f55750600090506004613a79565b6040805160008082526020820180845289905260ff881692820192909252606081018690526080810185905260019060a0016020604051602081039080840390855afa158015613a49573d6000803e3d6000fd5b5050604051601f1901519150506001600160a01b038116613a7257600060019250925050613a79565b9150600090505b94509492505050565b6000816004811115613a9657613a96614ff8565b03613a9e5750565b6001816004811115613ab257613ab2614ff8565b03613aff5760405162461bcd60e51b815260206004820152601860248201527f45434453413a20696e76616c6964207369676e617475726500000000000000006044820152606401610e29565b6002816004811115613b1357613b13614ff8565b03613b605760405162461bcd60e51b815260206004820152601f60248201527f45434453413a20696e76616c6964207369676e6174757265206c656e677468006044820152606401610e29565b6003816004811115613b7457613b74614ff8565b03613bcc5760405162461bcd60e51b815260206004820152602260248201527f45434453413a20696e76616c6964207369676e6174757265202773272076616c604482015261756560f01b6064820152608401610e29565b6004816004811115613be057613be0614ff8565b03610e815760405162461bcd60e51b815260206004820152602260248201527f45434453413a20696e76616c6964207369676e6174757265202776272076616c604482015261756560f01b6064820152608401610e29565b60008581526007602090815260408083206001600160a01b038816845260088101909252909120805460ff1615613cd75760405162461bcd60e51b815260206004820152602d60248201527f476f7665726e6f72436f6d7061746962696c697479427261766f3a20766f746560448201527f20616c72656164792063617374000000000000000000000000000000000000006064820152608401610e29565b805460ff86166101000261ffff19909116176001178155613cf78461456d565b81546bffffffffffffffffffffffff9190911662010000026dffffffffffffffffffffffff00001990911617815560ff8516613d4c5783826006016000828254613d419190615635565b90915550613dfa9050565b60001960ff861601613d6c5783826005016000828254613d419190615635565b60011960ff861601613d8c5783826007016000828254613d419190615635565b60405162461bcd60e51b815260206004820152602d60248201527f476f7665726e6f72436f6d7061746962696c697479427261766f3a20696e766160448201527f6c696420766f74652074797065000000000000000000000000000000000000006064820152608401610e29565b50505050505050565b8154600160801b90819004600f0b6000818152600180860160205260409091209390935583546fffffffffffffffffffffffffffffffff908116939091011602179055565b600a546040517fe38335e50000000000000000000000000000000000000000000000000000000081526001600160a01b039091169063e38335e5903490613e9c908890889088906000908990600401615579565b6000604051808303818588803b158015613eb557600080fd5b505af1158015613ec9573d6000803e3d6000fd5b50505050505050505050565b6000818152600160205260408120600281015460ff1615613ef95750600792915050565b6002810154610100900460ff1615613f145750600292915050565b6000613f1f846112d3565b905080600003613f715760405162461bcd60e51b815260206004820152601d60248201527f476f7665726e6f723a20756e6b6e6f776e2070726f706f73616c2069640000006044820152606401610e29565b438110613f82575060009392505050565b6000613f8d85611dac565b9050438110613fa157506001949350505050565b613faa856145f1565b8015613fcc575060008581526007602052604090206006810154600590910154115b15613fdc57506004949350505050565b506003949350505050565b600080613ff686868686614619565b6000818152600b602052604090205490915015611bf757600a546000828152600b6020526040908190205490517fc4d252f50000000000000000000000000000000000000000000000000000000081526001600160a01b039092169163c4d252f5916140689160040190815260200190565b600060405180830381600087803b15801561408257600080fd5b505af1158015614096573d6000803e3d6000fd5b5050506000828152600b60205260408120555095945050505050565b60006140c160028484186157b4565b6119c890848416615635565b60006140d7611da1565b6140e633610afc600143615648565b101561415a5760405162461bcd60e51b815260206004820152603160248201527f476f7665726e6f723a2070726f706f73657220766f7465732062656c6f77207060448201527f726f706f73616c207468726573686f6c640000000000000000000000000000006064820152608401610e29565b600061416f8686868680519060200120611ed3565b905084518651146141cc5760405162461bcd60e51b815260206004820152602160248201527f476f7665726e6f723a20696e76616c69642070726f706f73616c206c656e67746044820152600d60fb1b6064820152608401610e29565b83518651146142275760405162461bcd60e51b815260206004820152602160248201527f476f7665726e6f723a20696e76616c69642070726f706f73616c206c656e67746044820152600d60fb1b6064820152608401610e29565b60008651116142785760405162461bcd60e51b815260206004820152601860248201527f476f7665726e6f723a20656d7074792070726f706f73616c00000000000000006044820152606401610e29565b6000818152600160209081526040918290208251918201909252815467ffffffffffffffff1690819052156143155760405162461bcd60e51b815260206004820152602160248201527f476f7665726e6f723a2070726f706f73616c20616c726561647920657869737460448201527f73000000000000000000000000000000000000000000000000000000000000006064820152608401610e29565b600061432761432261159d565b614725565b61433043614725565b61433a91906157d6565b90506000614349614322610cc2565b61435390836157d6565b835467ffffffffffffffff191667ffffffffffffffff8416178455905060018301805467ffffffffffffffff191667ffffffffffffffff83161790557f7d84a6263ae0d98d3329bd7b46bb4e8d6f98cd35a7adb45c274c8b7fd5ebd5e084338b8b8d5167ffffffffffffffff8111156143ce576143ce614a4f565b60405190808252806020026020018201604052801561440157816020015b60608152602001906001900390816143ec5790505b508c88888e60405161441b999897969594939291906157fe565b60405180910390a15091979650505050505050565b6060824710156144a85760405162461bcd60e51b815260206004820152602660248201527f416464726573733a20696e73756666696369656e742062616c616e636520666f60448201527f722063616c6c00000000000000000000000000000000000000000000000000006064820152608401610e29565b6001600160a01b0385163b6144ff5760405162461bcd60e51b815260206004820152601d60248201527f416464726573733a2063616c6c20746f206e6f6e2d636f6e74726163740000006044820152606401610e29565b600080866001600160a01b0316858760405161451b91906158a0565b60006040518083038185875af1925050503d8060008114614558576040519150601f19603f3d011682016040523d82523d6000602084013e61455d565b606091505b50915091506116138282866147a5565b60006bffffffffffffffffffffffff8211156126a95760405162461bcd60e51b815260206004820152602660248201527f53616665436173743a2076616c756520646f65736e27742066697420696e203960448201527f36206269747300000000000000000000000000000000000000000000000000006064820152608401610e29565b60008181526007602052604081206005810154614610610ba1856112d3565b11159392505050565b60008061462886868686611ed3565b905060006146358261161e565b9050600281600781111561464b5761464b614ff8565b1415801561466b5750600681600781111561466857614668614ff8565b14155b80156146895750600781600781111561468657614686614ff8565b14155b6146d55760405162461bcd60e51b815260206004820152601d60248201527f476f7665726e6f723a2070726f706f73616c206e6f74206163746976650000006044820152606401610e29565b60008281526001602052604090819020600201805461ff001916610100179055517f789cf55be980739dad1d0699b93b58e806b51c9d96619bfa8fe0a28abaa7b30c9061118a9084815260200190565b600067ffffffffffffffff8211156126a95760405162461bcd60e51b815260206004820152602660248201527f53616665436173743a2076616c756520646f65736e27742066697420696e203660448201527f34206269747300000000000000000000000000000000000000000000000000006064820152608401610e29565b606083156147b45750816119c8565b8251156147c45782518084602001fd5b8160405162461bcd60e51b8152600401610e299190614bfd565b828054828255906000526020600020908101928215614840579160200282015b82811115614840578251825473ffffffffffffffffffffffffffffffffffffffff19166001600160a01b039091161782556020909201916001909101906147fe565b506126a992915061492b565b828054828255906000526020600020908101928215614840579160200282015b8281111561484057825182559160200191906001019061486c565b8280548282559060005260206000209081019282156148cd579160200282015b828111156148cd57825182906148bd9082615902565b50916020019190600101906148a7565b506126a9929150614940565b82805482825590600052602060002090810192821561491f579160200282015b8281111561491f578251829061490f9082615902565b50916020019190600101906148f9565b506126a992915061495d565b5b808211156126a9576000815560010161492c565b808211156126a9576000614954828261497a565b50600101614940565b808211156126a9576000614971828261497a565b5060010161495d565b50805461498690615526565b6000825580601f10614996575050565b601f016020900490600052602060002090810190610e81919061492b565b6000602082840312156149c657600080fd5b5035919050565b6000602082840312156149df57600080fd5b81356001600160e01b0319811681146119c857600080fd5b803560ff81168114614a0857600080fd5b919050565b60008083601f840112614a1f57600080fd5b50813567ffffffffffffffff811115614a3757600080fd5b6020830191508360208285010111156127d157600080fd5b634e487b7160e01b600052604160045260246000fd5b604051601f8201601f1916810167ffffffffffffffff81118282101715614a8e57614a8e614a4f565b604052919050565b600082601f830112614aa757600080fd5b813567ffffffffffffffff811115614ac157614ac1614a4f565b614ad4601f8201601f1916602001614a65565b818152846020838601011115614ae957600080fd5b816020850160208301376000918101602001919091529392505050565b60008060008060008060008060e0898b031215614b2257600080fd5b88359750614b3260208a016149f7565b9650604089013567ffffffffffffffff80821115614b4f57600080fd5b614b5b8c838d01614a0d565b909850965060608b0135915080821115614b7457600080fd5b50614b818b828c01614a96565b945050614b9060808a016149f7565b925060a0890135915060c089013590509295985092959890939650565b60005b83811015614bc8578181015183820152602001614bb0565b50506000910152565b60008151808452614be9816020860160208601614bad565b601f01601f19169290920160200192915050565b6020815260006119c86020830184614bd1565b6001600160a01b0381168114610e8157600080fd5b60008060008060808587031215614c3b57600080fd5b8435614c4681614c10565b93506020850135614c5681614c10565b925060408501359150606085013567ffffffffffffffff811115614c7957600080fd5b614c8587828801614a96565b91505092959194509250565b600067ffffffffffffffff821115614cab57614cab614a4f565b5060051b60200190565b600082601f830112614cc657600080fd5b81356020614cdb614cd683614c91565b614a65565b82815260059290921b84018101918181019086841115614cfa57600080fd5b8286015b84811015614d1e578035614d1181614c10565b8352918301918301614cfe565b509695505050505050565b600082601f830112614d3a57600080fd5b81356020614d4a614cd683614c91565b82815260059290921b84018101918181019086841115614d6957600080fd5b8286015b84811015614d1e5780358352918301918301614d6d565b600082601f830112614d9557600080fd5b81356020614da5614cd683614c91565b82815260059290921b84018101918181019086841115614dc457600080fd5b8286015b84811015614d1e57803567ffffffffffffffff811115614de85760008081fd5b614df68986838b0101614a96565b845250918301918301614dc8565b60008060008060808587031215614e1a57600080fd5b843567ffffffffffffffff80821115614e3257600080fd5b614e3e88838901614cb5565b95506020870135915080821115614e5457600080fd5b614e6088838901614d29565b94506040870135915080821115614e7657600080fd5b50614e8387828801614d84565b949793965093946060013593505050565b600081518084526020808501945080840160005b83811015614ecd5781516001600160a01b031687529582019590820190600101614ea8565b509495945050505050565b600081518084526020808501945080840160005b83811015614ecd57815187529582019590820190600101614eec565b600081518084526020808501808196508360051b8101915082860160005b85811015614f50578284038952614f3e848351614bd1565b98850198935090840190600101614f26565b5091979650505050505050565b608081526000614f706080830187614e94565b8281036020840152614f828187614ed8565b90508281036040840152614f968186614f08565b905082810360608401526116138185614f08565b600080600080600060a08688031215614fc257600080fd5b85359450614fd2602087016149f7565b9350614fe0604087016149f7565b94979396509394606081013594506080013592915050565b634e487b7160e01b600052602160045260246000fd5b602081016008831061503057634e487b7160e01b600052602160045260246000fd5b91905290565b6000806040838503121561504957600080fd5b82359150602083013561505b81614c10565b809150509250929050565b6000806040838503121561507957600080fd5b82359150615089602084016149f7565b90509250929050565b6000806000806000608086880312156150aa57600080fd5b853594506150ba602087016149f7565b9350604086013567ffffffffffffffff808211156150d757600080fd5b6150e389838a01614a0d565b909550935060608801359150808211156150fc57600080fd5b5061510988828901614a96565b9150509295509295909350565b6000806000806060858703121561512c57600080fd5b8435935061513c602086016149f7565b9250604085013567ffffffffffffffff81111561515857600080fd5b61516487828801614a0d565b95989497509550505050565b6000806000806080858703121561518657600080fd5b843567ffffffffffffffff8082111561519e57600080fd5b6151aa88838901614cb5565b955060208701359150808211156151c057600080fd5b6151cc88838901614d29565b945060408701359150808211156151e257600080fd5b6151ee88838901614d84565b9350606087013591508082111561520457600080fd5b50614c8587828801614a96565b60008060006060848603121561522657600080fd5b833561523181614c10565b925060208401359150604084013567ffffffffffffffff81111561525457600080fd5b61526086828701614a96565b9150509250925092565b60006020828403121561527c57600080fd5b81356119c881614c10565b600080600080600060a0868803121561529f57600080fd5b85356152aa81614c10565b945060208601356152ba81614c10565b9350604086013567ffffffffffffffff808211156152d757600080fd5b6152e389838a01614d29565b945060608801359150808211156152f957600080fd5b61530589838a01614d29565b935060808801359150808211156150fc57600080fd5b6000806000806060858703121561533157600080fd5b843561533c81614c10565b935060208501359250604085013567ffffffffffffffff81111561515857600080fd5b600082601f83011261537057600080fd5b81356020615380614cd683614c91565b82815260059290921b8401810191818101908684111561539f57600080fd5b8286015b84811015614d1e57803567ffffffffffffffff8111156153c35760008081fd5b6153d18986838b0101614a96565b8452509183019183016153a3565b600080600080600060a086880312156153f757600080fd5b853567ffffffffffffffff8082111561540f57600080fd5b61541b89838a01614cb5565b9650602088013591508082111561543157600080fd5b61543d89838a01614d29565b9550604088013591508082111561545357600080fd5b61545f89838a0161535f565b9450606088013591508082111561547557600080fd5b61530589838a01614d84565b6000806040838503121561549457600080fd5b823561549f81614c10565b946020939093013593505050565b600080600080600060a086880312156154c557600080fd5b85356154d081614c10565b945060208601356154e081614c10565b93506040860135925060608601359150608086013567ffffffffffffffff81111561550a57600080fd5b61510988828901614a96565b8183823760009101908152919050565b600181811c9082168061553a57607f821691505b60208210810361555a57634e487b7160e01b600052602260045260246000fd5b50919050565b60006020828403121561557257600080fd5b5051919050565b60a08152600061558c60a0830188614e94565b828103602084015261559e8188614ed8565b905082810360408401526155b28187614f08565b60608401959095525050608001529392505050565b60c0815260006155da60c0830189614e94565b82810360208401526155ec8189614ed8565b905082810360408401526156008188614f08565b60608401969096525050608081019290925260a0909101529392505050565b634e487b7160e01b600052601160045260246000fd5b80820180821115610cbc57610cbc61561f565b81810381811115610cbc57610cbc61561f565b634e487b7160e01b600052603260045260246000fd5b6080815260006156846080830187614e94565b82810360208401526156968187614ed8565b905082810360408401526156aa8186614f08565b91505082606083015295945050505050565b84815260ff84166020820152826040820152608060608201526000611f326080830184614bd1565b85815260ff8516602082015283604082015260a06060820152600061570c60a0830185614bd1565b828103608084015261571e8185614bd1565b98975050505050505050565b60006001820161573c5761573c61561f565b5060010190565b60006020828403121561575557600080fd5b815180151581146119c857600080fd5b6001600160e01b03198316815260008251615787816004850160208701614bad565b919091016004019392505050565b60008160001904831182151516156157af576157af61561f565b500290565b6000826157d157634e487b7160e01b600052601260045260246000fd5b500490565b67ffffffffffffffff8181168382160190808211156157f7576157f761561f565b5092915050565b60006101208b83526001600160a01b038b1660208401528060408401526158278184018b614e94565b9050828103606084015261583b818a614ed8565b9050828103608084015261584f8189614f08565b905082810360a08401526158638188614f08565b67ffffffffffffffff87811660c0860152861660e085015283810361010085015290506158908185614bd1565b9c9b505050505050505050505050565b600082516158b2818460208701614bad565b9190910192915050565b601f82111561195257600081815260208120601f850160051c810160208610156158e35750805b601f850160051c820191505b81811015612da5578281556001016158ef565b815167ffffffffffffffff81111561591c5761591c614a4f565b6159308161592a8454615526565b846158bc565b602080601f831160018114615965576000841561594d5750858301515b600019600386901b1c1916600185901b178555612da5565b600085815260208120601f198616915b8281101561599457888601518255948401946001909101908401615975565b50858210156159b25787850151600019600388901b60f8161c191681555b5050505050600190811b0190555056fe416464726573733a206c6f772d6c6576656c2063616c6c20776974682076616c7565206661696c6564a2646970667358221220b7634e742d07b96b67ffb9729cef1223f86c694d6f5381f5013ba2ada9f945e664736f6c63430008100033"
}