{
  "address": "0x9A9f2CCfdE556A7E9Ff0848998Aa4a0CFD8863AE",
  "abi": [
    {
      "inputs": [
        {
          "internalType": "contract ISenate",
          "name": "_senate",
          "type": "address"
        }
      ],
      "stateMutability": "nonpayable",
      "type": "constructor"
    },
    {
      "anonymous": false,
      "inputs": [
        {
          "indexed": true,
          "internalType": "address",
          "name": "owner",
          "type": "address"
        },
        {
          "indexed": true,
          "internalType": "address",
          "name": "approved",
          "type": "address"
        },
        {
          "indexed": true,
          "internalType": "uint256",
          "name": "tokenId",
          "type": "uint256"
        }
      ],
      "name": "Approval",
      "type": "event"
    },
    {
      "anonymous": false,
      "inputs": [
        {
          "indexed": true,
          "internalType": "address",
          "name": "owner",
          "type": "address"
        },
        {
          "indexed": true,
          "internalType": "address",
          "name": "operator",
          "type": "address"
        },
        {
          "indexed": false,
          "internalType": "bool",
          "name": "approved",
          "type": "bool"
        }
      ],
      "name": "ApprovalForAll",
      "type": "event"
    },
    {
      "anonymous": false,
      "inputs": [
        {
          "indexed": true,
          "internalType": "address",
          "name": "delegator",
          "type": "address"
        },
        {
          "indexed": true,
          "internalType": "address",
          "name": "fromDelegate",
          "type": "address"
        },
        {
          "indexed": true,
          "internalType": "address",
          "name": "toDelegate",
          "type": "address"
        }
      ],
      "name": "DelegateChanged",
      "type": "event"
    },
    {
      "anonymous": false,
      "inputs": [
        {
          "indexed": true,
          "internalType": "address",
          "name": "delegate",
          "type": "address"
        },
        {
          "indexed": false,
          "internalType": "uint256",
          "name": "previousBalance",
          "type": "uint256"
        },
        {
          "indexed": false,
          "internalType": "uint256",
          "name": "newBalance",
          "type": "uint256"
        }
      ],
      "name": "DelegateVotesChanged",
      "type": "event"
    },
    {
      "anonymous": false,
      "inputs": [
        {
          "indexed": true,
          "internalType": "address",
          "name": "previousOwner",
          "type": "address"
        },
        {
          "indexed": true,
          "internalType": "address",
          "name": "newOwner",
          "type": "address"
        }
      ],
      "name": "OwnershipTransferred",
      "type": "event"
    },
    {
      "anonymous": false,
      "inputs": [
        {
          "indexed": false,
          "internalType": "address",
          "name": "account",
          "type": "address"
        }
      ],
      "name": "Paused",
      "type": "event"
    },
    {
      "anonymous": false,
      "inputs": [
        {
          "indexed": true,
          "internalType": "address",
          "name": "oldSenate",
          "type": "address"
        },
        {
          "indexed": true,
          "internalType": "address",
          "name": "newSenate",
          "type": "address"
        }
      ],
      "name": "SenateChanged",
      "type": "event"
    },
    {
      "anonymous": false,
      "inputs": [
        {
          "indexed": true,
          "internalType": "address",
          "name": "from",
          "type": "address"
        },
        {
          "indexed": true,
          "internalType": "address",
          "name": "to",
          "type": "address"
        },
        {
          "indexed": true,
          "internalType": "uint256",
          "name": "tokenId",
          "type": "uint256"
        }
      ],
      "name": "Transfer",
      "type": "event"
    },
    {
      "anonymous": false,
      "inputs": [
        {
          "indexed": false,
          "internalType": "address",
          "name": "account",
          "type": "address"
        }
      ],
      "name": "Unpaused",
      "type": "event"
    },
    {
      "inputs": [],
      "name": "DOMAIN_SEPARATOR",
      "outputs": [
        {
          "internalType": "bytes32",
          "name": "",
          "type": "bytes32"
        }
      ],
      "stateMutability": "view",
      "type": "function"
    },
    {
      "inputs": [
        {
          "internalType": "address",
          "name": "to",
          "type": "address"
        },
        {
          "internalType": "uint256",
          "name": "tokenId",
          "type": "uint256"
        }
      ],
      "name": "approve",
      "outputs": [],
      "stateMutability": "nonpayable",
      "type": "function"
    },
    {
      "inputs": [
        {
          "internalType": "address",
          "name": "owner",
          "type": "address"
        }
      ],
      "name": "balanceOf",
      "outputs": [
        {
          "internalType": "uint256",
          "name": "",
          "type": "uint256"
        }
      ],
      "stateMutability": "view",
      "type": "function"
    },
    {
      "inputs": [
        {
          "internalType": "address",
          "name": "delegatee",
          "type": "address"
        }
      ],
      "name": "delegate",
      "outputs": [],
      "stateMutability": "nonpayable",
      "type": "function"
    },
    {
      "inputs": [
        {
          "internalType": "address",
          "name": "delegatee",
          "type": "address"
        },
        {
          "internalType": "uint256",
          "name": "nonce",
          "type": "uint256"
        },
        {
          "internalType": "uint256",
          "name": "expiry",
          "type": "uint256"
        },
        {
          "internalType": "uint8",
          "name": "v",
          "type": "uint8"
        },
        {
          "internalType": "bytes32",
          "name": "r",
          "type": "bytes32"
        },
        {
          "internalType": "bytes32",
          "name": "s",
          "type": "bytes32"
        }
      ],
      "name": "delegateBySig",
      "outputs": [],
      "stateMutability": "nonpayable",
      "type": "function"
    },
    {
      "inputs": [
        {
          "internalType": "address",
          "name": "account",
          "type": "address"
        }
      ],
      "name": "delegates",
      "outputs": [
        {
          "internalType": "address",
          "name": "",
          "type": "address"
        }
      ],
      "stateMutability": "view",
      "type": "function"
    },
    {
      "inputs": [
        {
          "internalType": "uint256",
          "name": "tokenId",
          "type": "uint256"
        }
      ],
      "name": "getApproved",
      "outputs": [
        {
          "internalType": "address",
          "name": "",
          "type": "address"
        }
      ],
      "stateMutability": "view",
      "type": "function"
    },
    {
      "inputs": [
        {
          "internalType": "uint256",
          "name": "blockNumber",
          "type": "uint256"
        }
      ],
      "name": "getPastTotalSupply",
      "outputs": [
        {
          "internalType": "uint256",
          "name": "",
          "type": "uint256"
        }
      ],
      "stateMutability": "view",
      "type": "function"
    },
    {
      "inputs": [
        {
          "internalType": "address",
          "name": "account",
          "type": "address"
        },
        {
          "internalType": "uint256",
          "name": "blockNumber",
          "type": "uint256"
        }
      ],
      "name": "getPastVotes",
      "outputs": [
        {
          "internalType": "uint256",
          "name": "",
          "type": "uint256"
        }
      ],
      "stateMutability": "view",
      "type": "function"
    },
    {
      "inputs": [],
      "name": "getSenateAddress",
      "outputs": [
        {
          "internalType": "address",
          "name": "",
          "type": "address"
        }
      ],
      "stateMutability": "view",
      "type": "function"
    },
    {
      "inputs": [],
      "name": "getSenateSnapshot",
      "outputs": [
        {
          "components": [
            {
              "internalType": "address",
              "name": "senator",
              "type": "address"
            },
            {
              "internalType": "uint256",
              "name": "votes",
              "type": "uint256"
            }
          ],
          "internalType": "struct ISenatorVotes.senateSnapshot[]",
          "name": "",
          "type": "tuple[]"
        }
      ],
      "stateMutability": "view",
      "type": "function"
    },
    {
      "inputs": [],
      "name": "getTotalSupply",
      "outputs": [
        {
          "internalType": "uint256",
          "name": "",
          "type": "uint256"
        }
      ],
      "stateMutability": "view",
      "type": "function"
    },
    {
      "inputs": [
        {
          "internalType": "address",
          "name": "account",
          "type": "address"
        }
      ],
      "name": "getVotes",
      "outputs": [
        {
          "internalType": "uint256",
          "name": "",
          "type": "uint256"
        }
      ],
      "stateMutability": "view",
      "type": "function"
    },
    {
      "inputs": [
        {
          "internalType": "address",
          "name": "owner",
          "type": "address"
        },
        {
          "internalType": "address",
          "name": "operator",
          "type": "address"
        }
      ],
      "name": "isApprovedForAll",
      "outputs": [
        {
          "internalType": "bool",
          "name": "",
          "type": "bool"
        }
      ],
      "stateMutability": "view",
      "type": "function"
    },
    {
      "inputs": [],
      "name": "name",
      "outputs": [
        {
          "internalType": "string",
          "name": "",
          "type": "string"
        }
      ],
      "stateMutability": "view",
      "type": "function"
    },
    {
      "inputs": [
        {
          "internalType": "address",
          "name": "owner",
          "type": "address"
        }
      ],
      "name": "nonces",
      "outputs": [
        {
          "internalType": "uint256",
          "name": "",
          "type": "uint256"
        }
      ],
      "stateMutability": "view",
      "type": "function"
    },
    {
      "inputs": [],
      "name": "owner",
      "outputs": [
        {
          "internalType": "address",
          "name": "",
          "type": "address"
        }
      ],
      "stateMutability": "view",
      "type": "function"
    },
    {
      "inputs": [
        {
          "internalType": "uint256",
          "name": "tokenId",
          "type": "uint256"
        }
      ],
      "name": "ownerOf",
      "outputs": [
        {
          "internalType": "address",
          "name": "",
          "type": "address"
        }
      ],
      "stateMutability": "view",
      "type": "function"
    },
    {
      "inputs": [],
      "name": "pause",
      "outputs": [],
      "stateMutability": "nonpayable",
      "type": "function"
    },
    {
      "inputs": [],
      "name": "paused",
      "outputs": [
        {
          "internalType": "bool",
          "name": "",
          "type": "bool"
        }
      ],
      "stateMutability": "view",
      "type": "function"
    },
    {
      "inputs": [],
      "name": "renounceOwnership",
      "outputs": [],
      "stateMutability": "nonpayable",
      "type": "function"
    },
    {
      "inputs": [
        {
          "internalType": "address",
          "name": "to",
          "type": "address"
        }
      ],
      "name": "safeMint",
      "outputs": [],
      "stateMutability": "nonpayable",
      "type": "function"
    },
    {
      "inputs": [
        {
          "internalType": "address",
          "name": "from",
          "type": "address"
        },
        {
          "internalType": "address",
          "name": "to",
          "type": "address"
        },
        {
          "internalType": "uint256",
          "name": "tokenId",
          "type": "uint256"
        }
      ],
      "name": "safeTransferFrom",
      "outputs": [],
      "stateMutability": "nonpayable",
      "type": "function"
    },
    {
      "inputs": [
        {
          "internalType": "address",
          "name": "from",
          "type": "address"
        },
        {
          "internalType": "address",
          "name": "to",
          "type": "address"
        },
        {
          "internalType": "uint256",
          "name": "tokenId",
          "type": "uint256"
        },
        {
          "internalType": "bytes",
          "name": "data",
          "type": "bytes"
        }
      ],
      "name": "safeTransferFrom",
      "outputs": [],
      "stateMutability": "nonpayable",
      "type": "function"
    },
    {
      "inputs": [],
      "name": "senate",
      "outputs": [
        {
          "internalType": "contract ISenate",
          "name": "",
          "type": "address"
        }
      ],
      "stateMutability": "view",
      "type": "function"
    },
    {
      "inputs": [
        {
          "internalType": "address",
          "name": "operator",
          "type": "address"
        },
        {
          "internalType": "bool",
          "name": "approved",
          "type": "bool"
        }
      ],
      "name": "setApprovalForAll",
      "outputs": [],
      "stateMutability": "nonpayable",
      "type": "function"
    },
    {
      "inputs": [
        {
          "internalType": "contract ISenate",
          "name": "_senate",
          "type": "address"
        }
      ],
      "name": "setSenate",
      "outputs": [],
      "stateMutability": "nonpayable",
      "type": "function"
    },
    {
      "inputs": [
        {
          "internalType": "bytes4",
          "name": "interfaceId",
          "type": "bytes4"
        }
      ],
      "name": "supportsInterface",
      "outputs": [
        {
          "internalType": "bool",
          "name": "",
          "type": "bool"
        }
      ],
      "stateMutability": "view",
      "type": "function"
    },
    {
      "inputs": [],
      "name": "symbol",
      "outputs": [
        {
          "internalType": "string",
          "name": "",
          "type": "string"
        }
      ],
      "stateMutability": "view",
      "type": "function"
    },
    {
      "inputs": [
        {
          "internalType": "uint256",
          "name": "index",
          "type": "uint256"
        }
      ],
      "name": "tokenByIndex",
      "outputs": [
        {
          "internalType": "uint256",
          "name": "",
          "type": "uint256"
        }
      ],
      "stateMutability": "view",
      "type": "function"
    },
    {
      "inputs": [
        {
          "internalType": "address",
          "name": "owner",
          "type": "address"
        },
        {
          "internalType": "uint256",
          "name": "index",
          "type": "uint256"
        }
      ],
      "name": "tokenOfOwnerByIndex",
      "outputs": [
        {
          "internalType": "uint256",
          "name": "",
          "type": "uint256"
        }
      ],
      "stateMutability": "view",
      "type": "function"
    },
    {
      "inputs": [
        {
          "internalType": "uint256",
          "name": "tokenId",
          "type": "uint256"
        }
      ],
      "name": "tokenURI",
      "outputs": [
        {
          "internalType": "string",
          "name": "",
          "type": "string"
        }
      ],
      "stateMutability": "view",
      "type": "function"
    },
    {
      "inputs": [],
      "name": "totalSupply",
      "outputs": [
        {
          "internalType": "uint256",
          "name": "",
          "type": "uint256"
        }
      ],
      "stateMutability": "view",
      "type": "function"
    },
    {
      "inputs": [
        {
          "internalType": "address",
          "name": "from",
          "type": "address"
        },
        {
          "internalType": "address",
          "name": "to",
          "type": "address"
        },
        {
          "internalType": "uint256",
          "name": "tokenId",
          "type": "uint256"
        }
      ],
      "name": "transferFrom",
      "outputs": [],
      "stateMutability": "nonpayable",
      "type": "function"
    },
    {
      "inputs": [
        {
          "internalType": "address",
          "name": "newOwner",
          "type": "address"
        }
      ],
      "name": "transferOwnership",
      "outputs": [],
      "stateMutability": "nonpayable",
      "type": "function"
    },
    {
      "inputs": [],
      "name": "unpause",
      "outputs": [],
      "stateMutability": "nonpayable",
      "type": "function"
    }
  ],
  "numDeployments": 2,
  "bytecode": "0x6101406040523480156200001257600080fd5b5060405162003ad238038062003ad283398101604081905262000035916200032b565b808060405180604001604052806006815260200165546f6b656e3160d01b815250604051806040016040528060018152602001603160f81b81525060405180604001604052806006815260200165546f6b656e3160d01b81525060405180604001604052806003815260200162544b3160e81b8152508160009081620000bc919062000402565b506001620000cb828262000402565b5050600a805460ff1916905550620000e33362000186565b815160209283012081519183019190912060e08290526101008190524660a0818152604080517f8b73c3c69bb8fe3d512ecc4cf759cc79239f7b179b0ffacaa9a75d522b39400f818801819052818301969096526060810194909452608080850193909352308483018190528151808603909301835260c094850190915281519190950120905291909152610120526200017d81620001e0565b50505062000507565b600a80546001600160a01b03838116610100818102610100600160a81b031985161790945560405193909204169182907f8be0079c531659141344cd1fd0a4f28419497f9722a3daafe3b4186f6b6457e090600090a35050565b600b546001600160a01b031615620002d957600b54604051630bcaebb360e21b81526001600160a01b0383811660048301526001921690632f2baecc90602401602060405180830381865afa1580156200023e573d6000803e3d6000fd5b505050506040513d601f19601f82011682018060405250810190620002649190620004e4565b6003811115620002785762000278620004ce565b03620002d95760405162461bcd60e51b815260206004820152602660248201527f53656e61746f72566f7465733a3a43757272656e742061637469766520696e2060448201526553656e61746560d01b606482015260840160405180910390fd5b600b80546001600160a01b038381166001600160a01b0319831681179093556040519116919082907ff99fbba862f227e12c769c916af8df441ea87c0f48e327186b68d5a2fbc9347690600090a35050565b6000602082840312156200033e57600080fd5b81516001600160a01b03811681146200035657600080fd5b9392505050565b634e487b7160e01b600052604160045260246000fd5b600181811c908216806200038857607f821691505b602082108103620003a957634e487b7160e01b600052602260045260246000fd5b50919050565b601f821115620003fd57600081815260208120601f850160051c81016020861015620003d85750805b601f850160051c820191505b81811015620003f957828155600101620003e4565b5050505b505050565b81516001600160401b038111156200041e576200041e6200035d565b62000436816200042f845462000373565b84620003af565b602080601f8311600181146200046e5760008415620004555750858301515b600019600386901b1c1916600185901b178555620003f9565b600085815260208120601f198616915b828110156200049f578886015182559484019460019091019084016200047e565b5085821015620004be5787850151600019600388901b60f8161c191681555b5050505050600190811b01905550565b634e487b7160e01b600052602160045260246000fd5b600060208284031215620004f757600080fd5b8151600481106200035657600080fd5b60805160a05160c05160e051610100516101205161357b620005576000396000611381015260006113d0015260006113ab015260006113040152600061132e01526000611358015261357b6000f3fe608060405234801561001057600080fd5b506004361061025c5760003560e01c8063715018a611610145578063ab0e5820116100bd578063c87b56dd1161008c578063e985e9c511610071578063e985e9c5146104d4578063ed78026e14610510578063f2fde38b1461052557600080fd5b8063c87b56dd146104b0578063e555b2eb146104c357600080fd5b8063ab0e58201461046f578063b88d4fde14610482578063c3cda52014610495578063c4e41b22146104a857600080fd5b80638e539e8c116101145780639ab24eb0116100f95780639ab24eb014610436578063a22cb46514610449578063a6e5b8e61461045c57600080fd5b80638e539e8c1461041b57806395d89b411461042e57600080fd5b8063715018a6146103e25780637ecebe00146103ea5780638456cb59146103fd5780638da5cb5b1461040557600080fd5b80633f4ba83a116101d8578063587cde1e116101a75780635c975abb1161018c5780635c975abb146103b15780636352211e146103bc57806370a08231146103cf57600080fd5b8063587cde1e146103725780635c19a95c1461039e57600080fd5b80633f4ba83a1461033157806340d097c31461033957806342842e0e1461034c5780634f6ccce71461035f57600080fd5b806318160ddd1161022f5780632f745c59116102145780632f745c59146103035780633644e515146103165780633a46b1a81461031e57600080fd5b806318160ddd146102de57806323b872dd146102f057600080fd5b806301ffc9a71461026157806306fdde0314610289578063081812fc1461029e578063095ea7b3146102c9575b600080fd5b61027461026f36600461303f565b610538565b60405190151581526020015b60405180910390f35b610291610549565b60405161028091906130ac565b6102b16102ac3660046130bf565b6105db565b6040516001600160a01b039091168152602001610280565b6102dc6102d73660046130ed565b610602565b005b6008545b604051908152602001610280565b6102dc6102fe366004613119565b610738565b6102e26103113660046130ed565b6107bf565b6102e2610867565b6102e261032c3660046130ed565b610876565b6102dc61089f565b6102dc61034736600461315a565b6108b1565b6102dc61035a366004613119565b6108e2565b6102e261036d3660046130bf565b6108fd565b6102b161038036600461315a565b6001600160a01b039081166000908152600c60205260409020541690565b6102dc6103ac36600461315a565b6109a1565b600a5460ff16610274565b6102b16103ca3660046130bf565b6109ac565b6102e26103dd36600461315a565b610a11565b6102dc610aab565b6102e26103f836600461315a565b610abd565b6102dc610adb565b600a5461010090046001600160a01b03166102b1565b6102e26104293660046130bf565b610aeb565b610291610b47565b6102e261044436600461315a565b610b56565b6102dc610457366004613177565b610b86565b600b546102b1906001600160a01b031681565b6102dc61047d36600461315a565b610b91565b6102dc6104903660046131cb565b610b9d565b6102dc6104a33660046132ab565b610c2b565b6102e2610d61565b6102916104be3660046130bf565b610d6b565b600b546001600160a01b03166102b1565b6102746104e236600461330d565b6001600160a01b03918216600090815260056020908152604080832093909416825291909152205460ff1690565b610518610dde565b604051610280919061333b565b6102dc61053336600461315a565b610efd565b600061054382610f8a565b92915050565b60606000805461055890613393565b80601f016020809104026020016040519081016040528092919081815260200182805461058490613393565b80156105d15780601f106105a6576101008083540402835291602001916105d1565b820191906000526020600020905b8154815290600101906020018083116105b457829003601f168201915b5050505050905090565b60006105e682610fc8565b506000908152600460205260409020546001600160a01b031690565b600061060d826109ac565b9050806001600160a01b0316836001600160a01b03160361069b5760405162461bcd60e51b815260206004820152602160248201527f4552433732313a20617070726f76616c20746f2063757272656e74206f776e6560448201527f720000000000000000000000000000000000000000000000000000000000000060648201526084015b60405180910390fd5b336001600160a01b03821614806106b757506106b781336104e2565b6107295760405162461bcd60e51b815260206004820152603e60248201527f4552433732313a20617070726f76652063616c6c6572206973206e6f7420746f60448201527f6b656e206f776e6572206e6f7220617070726f76656420666f7220616c6c00006064820152608401610692565b610733838361102c565b505050565b610742338261109a565b6107b45760405162461bcd60e51b815260206004820152602e60248201527f4552433732313a2063616c6c6572206973206e6f7420746f6b656e206f776e6560448201527f72206e6f7220617070726f7665640000000000000000000000000000000000006064820152608401610692565b610733838383611119565b60006107ca83610a11565b821061083e5760405162461bcd60e51b815260206004820152602b60248201527f455243373231456e756d657261626c653a206f776e657220696e646578206f7560448201527f74206f6620626f756e64730000000000000000000000000000000000000000006064820152608401610692565b506001600160a01b03919091166000908152600660209081526040808320938352929052205490565b60006108716112f7565b905090565b6001600160a01b0382166000908152600d60205260408120610898908361141e565b9392505050565b6108a761153a565b6108af61159a565b565b6108b961153a565b60006108c460125490565b90506108d4601280546001019055565b6108de82826115ec565b5050565b61073383838360405180602001604052806000815250610b9d565b600061090860085490565b821061097c5760405162461bcd60e51b815260206004820152602c60248201527f455243373231456e756d657261626c653a20676c6f62616c20696e646578206f60448201527f7574206f6620626f756e647300000000000000000000000000000000000000006064820152608401610692565b6008828154811061098f5761098f6133c7565b90600052602060002001549050919050565b336108de8183611606565b6000818152600260205260408120546001600160a01b0316806105435760405162461bcd60e51b815260206004820152601860248201527f4552433732313a20696e76616c696420746f6b656e20494400000000000000006044820152606401610692565b60006001600160a01b038216610a8f5760405162461bcd60e51b815260206004820152602960248201527f4552433732313a2061646472657373207a65726f206973206e6f74206120766160448201527f6c6964206f776e657200000000000000000000000000000000000000000000006064820152608401610692565b506001600160a01b031660009081526003602052604090205490565b610ab361153a565b6108af6000611727565b6001600160a01b0381166000908152600f6020526040812054610543565b610ae361153a565b6108af611798565b6000438210610b3c5760405162461bcd60e51b815260206004820152601a60248201527f566f7465733a20626c6f636b206e6f7420796574206d696e65640000000000006044820152606401610692565b610543600e8361141e565b60606001805461055890613393565b6001600160a01b0381166000908152600d60205260408120610b77906117d5565b6001600160e01b031692915050565b6108de33838361180f565b610b9a816118dd565b50565b610ba7338361109a565b610c195760405162461bcd60e51b815260206004820152602e60248201527f4552433732313a2063616c6c6572206973206e6f7420746f6b656e206f776e6560448201527f72206e6f7220617070726f7665640000000000000000000000000000000000006064820152608401610692565b610c2584848484611a4c565b50505050565b83421115610c7b5760405162461bcd60e51b815260206004820152601860248201527f566f7465733a207369676e6174757265206578706972656400000000000000006044820152606401610692565b604080517fe48329057bfd03d55e49b547132e39cffd9c1820ad7b9d4c5307691425d15adf60208201526001600160a01b038816918101919091526060810186905260808101859052600090610cf590610ced9060a00160405160208183030381529060405280519060200120611aca565b858585611b33565b9050610d0081611b5b565b8614610d4e5760405162461bcd60e51b815260206004820152601460248201527f566f7465733a20696e76616c6964206e6f6e63650000000000000000000000006044820152606401610692565b610d588188611606565b50505050505050565b6000610871611b81565b6060610d7682610fc8565b6000610d8d60408051602081019091526000815290565b90506000815111610dad5760405180602001604052806000815250610898565b80610db784611b9b565b604051602001610dc89291906133dd565b6040516020818303038152906040529392505050565b60606000610dec6010611cd0565b67ffffffffffffffff811115610e0457610e046131b5565b604051908082528060200260200182016040528015610e4957816020015b6040805180820190915260008082526020820152815260200190600190039081610e225790505b50905060005b610e596010611cd0565b811015610ef7576040805180820190915280610e76601084611cda565b6001600160a01b03168152602001610ebb600d6000610e96601087611cda565b6001600160a01b03166001600160a01b031681526020019081526020016000206117d5565b6001600160e01b0316815250828281518110610ed957610ed96133c7565b60200260200101819052508080610eef90613422565b915050610e4f565b50919050565b610f0561153a565b6001600160a01b038116610f815760405162461bcd60e51b815260206004820152602660248201527f4f776e61626c653a206e6577206f776e657220697320746865207a65726f206160448201527f64647265737300000000000000000000000000000000000000000000000000006064820152608401610692565b610b9a81611727565b60006001600160e01b031982167f25c61851000000000000000000000000000000000000000000000000000000001480610543575061054382611ce6565b6000818152600260205260409020546001600160a01b0316610b9a5760405162461bcd60e51b815260206004820152601860248201527f4552433732313a20696e76616c696420746f6b656e20494400000000000000006044820152606401610692565b600081815260046020526040902080546001600160a01b0319166001600160a01b0384169081179091558190611061826109ac565b6001600160a01b03167f8c5be1e5ebec7d5bd14f71427d1e84f3dd0314c0f7b2291e5b200ac8c7c3b92560405160405180910390a45050565b6000806110a6836109ac565b9050806001600160a01b0316846001600160a01b031614806110ed57506001600160a01b0380821660009081526005602090815260408083209388168352929052205460ff165b806111115750836001600160a01b0316611106846105db565b6001600160a01b0316145b949350505050565b826001600160a01b031661112c826109ac565b6001600160a01b0316146111a85760405162461bcd60e51b815260206004820152602560248201527f4552433732313a207472616e736665722066726f6d20696e636f72726563742060448201527f6f776e65720000000000000000000000000000000000000000000000000000006064820152608401610692565b6001600160a01b0382166112235760405162461bcd60e51b8152602060048201526024808201527f4552433732313a207472616e7366657220746f20746865207a65726f2061646460448201527f72657373000000000000000000000000000000000000000000000000000000006064820152608401610692565b61122e838383611d24565b61123960008261102c565b6001600160a01b038316600090815260036020526040812080546001929061126290849061343b565b90915550506001600160a01b038216600090815260036020526040812080546001929061129090849061344e565b909155505060008181526002602052604080822080546001600160a01b0319166001600160a01b0386811691821790925591518493918716917fddf252ad1be2c89b69c2b068fc378daa952ba7f163c4a11628f55a4df523b3ef91a4610733838383611d60565b6000306001600160a01b037f00000000000000000000000000000000000000000000000000000000000000001614801561135057507f000000000000000000000000000000000000000000000000000000000000000046145b1561137a57507f000000000000000000000000000000000000000000000000000000000000000090565b50604080517f00000000000000000000000000000000000000000000000000000000000000006020808301919091527f0000000000000000000000000000000000000000000000000000000000000000828401527f000000000000000000000000000000000000000000000000000000000000000060608301524660808301523060a0808401919091528351808403909101815260c0909201909252805191012090565b600043821061146f5760405162461bcd60e51b815260206004820181905260248201527f436865636b706f696e74733a20626c6f636b206e6f7420796574206d696e65646044820152606401610692565b600061147a83611d6b565b845490915060008160058111156114d857600061149684611deb565b6114a0908561343b565b60008981526020902090915081015463ffffffff90811690861610156114c8578091506114d6565b6114d381600161344e565b92505b505b60006114e688868585611f51565b905080156115225761150b886114fd60018461343b565b600091825260209091200190565b5464010000000090046001600160e01b0316611525565b60005b6001600160e01b031698975050505050505050565b600a546001600160a01b036101009091041633146108af5760405162461bcd60e51b815260206004820181905260248201527f4f776e61626c653a2063616c6c6572206973206e6f7420746865206f776e65726044820152606401610692565b6115a2611faf565b600a805460ff191690557f5db9ee0a495bf2e6ff9c91a7834c1ba4fdd244a5e8aa4e537bd38aeae4b073aa335b6040516001600160a01b03909116815260200160405180910390a1565b6108de828260405180602001604052806000815250612001565b6001600160a01b038281166000818152600c602052604080822080548686166001600160a01b0319821681179092559151919094169392849290917f3134e8a2e6d97e929a7e54011ea5485d7d196dd5f0ba4d4ef95803e8e3fc257f9190a4600061167a82846116758761207f565b61208a565b600b549091506001600160a01b031615610c2557600b546001600160a01b0316636e27fc0e83856116aa8861207f565b6040516001600160e01b031960e086901b1681526001600160a01b039384166004820152929091166024830152604482015283151560648201526000608482015260a4015b600060405180830381600087803b15801561170957600080fd5b505af115801561171d573d6000803e3d6000fd5b5050505050505050565b600a80546001600160a01b038381166101008181027fffffffffffffffffffffff0000000000000000000000000000000000000000ff85161790945560405193909204169182907f8be0079c531659141344cd1fd0a4f28419497f9722a3daafe3b4186f6b6457e090600090a35050565b6117a0612213565b600a805460ff191660011790557f62e78cea01bee320cd4e420270b5ea74000d11b0c9f74754ebdbfc544b05a2586115cf3390565b80546000908015611806576117ef836114fd60018461343b565b5464010000000090046001600160e01b0316610898565b60009392505050565b816001600160a01b0316836001600160a01b0316036118705760405162461bcd60e51b815260206004820152601960248201527f4552433732313a20617070726f766520746f2063616c6c6572000000000000006044820152606401610692565b6001600160a01b03838116600081815260056020908152604080832094871680845294825291829020805460ff191686151590811790915591519182527f17307eab39ab6107e8899845ad3d59bd9653f200f220920489ca2b5937696c31910160405180910390a3505050565b600b546001600160a01b0316156119fa57600b546040517f2f2baecc0000000000000000000000000000000000000000000000000000000081526001600160a01b0383811660048301526001921690632f2baecc90602401602060405180830381865afa158015611952573d6000803e3d6000fd5b505050506040513d601f19601f820116820180604052508101906119769190613477565b600381111561198757611987613461565b036119fa5760405162461bcd60e51b815260206004820152602660248201527f53656e61746f72566f7465733a3a43757272656e742061637469766520696e2060448201527f53656e61746500000000000000000000000000000000000000000000000000006064820152608401610692565b600b80546001600160a01b038381166001600160a01b0319831681179093556040519116919082907ff99fbba862f227e12c769c916af8df441ea87c0f48e327186b68d5a2fbc9347690600090a35050565b611a57848484611119565b611a6384848484612266565b610c255760405162461bcd60e51b815260206004820152603260248201527f4552433732313a207472616e7366657220746f206e6f6e20455243373231526560448201527131b2b4bb32b91034b6b83632b6b2b73a32b960711b6064820152608401610692565b6000610543611ad76112f7565b836040517f19010000000000000000000000000000000000000000000000000000000000006020820152602281018390526042810182905260009060620160405160208183030381529060405280519060200120905092915050565b6000806000611b44878787876123af565b91509150611b518161249c565b5095945050505050565b6001600160a01b0381166000908152600f60205260409020805460018101825590610ef7565b6000611b8d600e6117d5565b6001600160e01b0316905090565b606081600003611bde57505060408051808201909152600181527f3000000000000000000000000000000000000000000000000000000000000000602082015290565b8160005b8115611c085780611bf281613422565b9150611c019050600a836134ae565b9150611be2565b60008167ffffffffffffffff811115611c2357611c236131b5565b6040519080825280601f01601f191660200182016040528015611c4d576020820181803683370190505b5090505b841561111157611c6260018361343b565b9150611c6f600a866134c2565b611c7a90603061344e565b60f81b818381518110611c8f57611c8f6133c7565b60200101907effffffffffffffffffffffffffffffffffffffffffffffffffffffffffffff1916908160001a905350611cc9600a866134ae565b9450611c51565b6000610543825490565b60006108988383612652565b60006001600160e01b031982167f780e9d6300000000000000000000000000000000000000000000000000000000148061054357506105438261267c565b611d2c612213565b6001600160a01b038281166000908152600c602052604090205416611d5557611d558283611606565b610733838383612717565b6107338383836127cf565b600063ffffffff821115611de75760405162461bcd60e51b815260206004820152602660248201527f53616665436173743a2076616c756520646f65736e27742066697420696e203360448201527f32206269747300000000000000000000000000000000000000000000000000006064820152608401610692565b5090565b600081600003611dfd57506000919050565b600182608081901c15611e155760409190911b9060801c5b604081901c15611e2a5760209190911b9060401c5b602081901c15611e3f5760109190911b9060201c5b601081901c15611e545760089190911b9060101c5b600881901c15611e695760049190911b9060081c5b600481901c15611e7e5760029190911b9060041c5b600281901c15611e9057600182901b91505b6001828581611ea157611ea1613498565b048301901c91506001828581611eb957611eb9613498565b048301901c91506001828581611ed157611ed1613498565b048301901c91506001828581611ee957611ee9613498565b048301901c91506001828581611f0157611f01613498565b048301901c91506001828581611f1957611f19613498565b048301901c91506001828581611f3157611f31613498565b048301901c915061111182838681611f4b57611f4b613498565b046127db565b60005b81831015611fa7576000611f6884846127f1565b60008781526020902090915063ffffffff86169082015463ffffffff161115611f9357809250611fa1565b611f9e81600161344e565b93505b50611f54565b509392505050565b600a5460ff166108af5760405162461bcd60e51b815260206004820152601460248201527f5061757361626c653a206e6f74207061757365640000000000000000000000006044820152606401610692565b61200b838361280c565b6120186000848484612266565b6107335760405162461bcd60e51b815260206004820152603260248201527f4552433732313a207472616e7366657220746f206e6f6e20455243373231526560448201527131b2b4bb32b91034b6b83632b6b2b73a32b960711b6064820152608401610692565b600061054382610a11565b6000826001600160a01b0316846001600160a01b0316141580156120ae5750600082115b15610898576001600160a01b03841615612161576001600160a01b0384166000908152600d6020526040812081906120e9906129628661296e565b801515945090925090506120fe6010876129a6565b8015612108575080155b1561211a576121186010876129c8565b505b60408051838152602081018390526001600160a01b038816917fdec2bacdd2f05b59de34da9b523dff8be42e5e38e818c82fdb0bae774387a724910160405180910390a250505b6001600160a01b03831615610898576001600160a01b0383166000908152600d602052604081208190612197906129dd8661296e565b90925090506121a76010876129a6565b1580156121b45750600081115b156121c6576121c46010876129e9565b505b60408051838152602081018390526001600160a01b038716917fdec2bacdd2f05b59de34da9b523dff8be42e5e38e818c82fdb0bae774387a724910160405180910390a250509392505050565b600a5460ff16156108af5760405162461bcd60e51b815260206004820152601060248201527f5061757361626c653a20706175736564000000000000000000000000000000006044820152606401610692565b60006001600160a01b0384163b156123a757604051630a85bd0160e11b81526001600160a01b0385169063150b7a02906122aa9033908990889088906004016134d6565b6020604051808303816000875af19250505080156122e5575060408051601f3d908101601f191682019092526122e291810190613512565b60015b61238d573d808015612313576040519150601f19603f3d011682016040523d82523d6000602084013e612318565b606091505b5080516000036123855760405162461bcd60e51b815260206004820152603260248201527f4552433732313a207472616e7366657220746f206e6f6e20455243373231526560448201527131b2b4bb32b91034b6b83632b6b2b73a32b960711b6064820152608401610692565b805181602001fd5b6001600160e01b031916630a85bd0160e11b149050611111565b506001611111565b6000807f7fffffffffffffffffffffffffffffff5d576e7357a4501ddfe92f46681b20a08311156123e65750600090506003612493565b8460ff16601b141580156123fe57508460ff16601c14155b1561240f5750600090506004612493565b6040805160008082526020820180845289905260ff881692820192909252606081018690526080810185905260019060a0016020604051602081039080840390855afa158015612463573d6000803e3d6000fd5b5050604051601f1901519150506001600160a01b03811661248c57600060019250925050612493565b9150600090505b94509492505050565b60008160048111156124b0576124b0613461565b036124b85750565b60018160048111156124cc576124cc613461565b036125195760405162461bcd60e51b815260206004820152601860248201527f45434453413a20696e76616c6964207369676e617475726500000000000000006044820152606401610692565b600281600481111561252d5761252d613461565b0361257a5760405162461bcd60e51b815260206004820152601f60248201527f45434453413a20696e76616c6964207369676e6174757265206c656e677468006044820152606401610692565b600381600481111561258e5761258e613461565b036125e65760405162461bcd60e51b815260206004820152602260248201527f45434453413a20696e76616c6964207369676e6174757265202773272076616c604482015261756560f01b6064820152608401610692565b60048160048111156125fa576125fa613461565b03610b9a5760405162461bcd60e51b815260206004820152602260248201527f45434453413a20696e76616c6964207369676e6174757265202776272076616c604482015261756560f01b6064820152608401610692565b6000826000018281548110612669576126696133c7565b9060005260206000200154905092915050565b60006001600160e01b031982167f80ac58cd0000000000000000000000000000000000000000000000000000000014806126df57506001600160e01b031982167f5b5e139f00000000000000000000000000000000000000000000000000000000145b8061054357507f01ffc9a7000000000000000000000000000000000000000000000000000000006001600160e01b0319831614610543565b6001600160a01b0383166127725761276d81600880546000838152600960205260408120829055600182018355919091527ff3f7a9fe364faab93b216da50a3214154f22a0a2b415b23a84c8169e8b636ee30155565b612795565b816001600160a01b0316836001600160a01b0316146127955761279583826129fe565b6001600160a01b0382166127ac5761073381612a9b565b826001600160a01b0316826001600160a01b031614610733576107338282612b4a565b61073383836001612b8e565b60008183106127ea5781610898565b5090919050565b600061280060028484186134ae565b6108989084841661344e565b6001600160a01b0382166128625760405162461bcd60e51b815260206004820181905260248201527f4552433732313a206d696e7420746f20746865207a65726f20616464726573736044820152606401610692565b6000818152600260205260409020546001600160a01b0316156128c75760405162461bcd60e51b815260206004820152601c60248201527f4552433732313a20746f6b656e20616c7265616479206d696e746564000000006044820152606401610692565b6128d360008383611d24565b6001600160a01b03821660009081526003602052604081208054600192906128fc90849061344e565b909155505060008181526002602052604080822080546001600160a01b0319166001600160a01b03861690811790915590518392907fddf252ad1be2c89b69c2b068fc378daa952ba7f163c4a11628f55a4df523b3ef908290a46108de60008383611d60565b6000610898828461343b565b60008061299985612994612981886117d5565b6001600160e01b0316868863ffffffff16565b612c91565b915091505b935093915050565b6001600160a01b03811660009081526001830160205260408120541515610898565b6000610898836001600160a01b038416612cc5565b6000610898828461344e565b6000610898836001600160a01b038416612db8565b60006001612a0b84610a11565b612a15919061343b565b600083815260076020526040902054909150808214612a68576001600160a01b03841660009081526006602090815260408083208584528252808320548484528184208190558352600790915290208190555b5060009182526007602090815260408084208490556001600160a01b039094168352600681528383209183525290812055565b600854600090612aad9060019061343b565b60008381526009602052604081205460088054939450909284908110612ad557612ad56133c7565b906000526020600020015490508060088381548110612af657612af66133c7565b6000918252602080832090910192909255828152600990915260408082208490558582528120556008805480612b2e57612b2e61352f565b6001900381819060005260206000200160009055905550505050565b6000612b5583610a11565b6001600160a01b039093166000908152600660209081526040808320868452825280832085905593825260079052919091209190915550565b6001600160a01b038316612bad57612baa600e6129dd8361296e565b50505b6001600160a01b038216612bcc57612bc9600e6129628361296e565b50505b6000612c14612bf3856001600160a01b039081166000908152600c60205260409020541690565b6001600160a01b038086166000908152600c6020526040902054168461208a565b600b549091506001600160a01b031615610c2557600b546040517f6e27fc0e0000000000000000000000000000000000000000000000000000000081526001600160a01b03868116600483015285811660248301526044820185905283151560648301526001608483015290911690636e27fc0e9060a4016116ef565b600080612caf84612ca143611d6b565b612caa86612e07565b612e86565b6001600160e01b03918216969116945092505050565b60008181526001830160205260408120548015612dae576000612ce960018361343b565b8554909150600090612cfd9060019061343b565b9050818114612d62576000866000018281548110612d1d57612d1d6133c7565b9060005260206000200154905080876000018481548110612d4057612d406133c7565b6000918252602080832090910192909255918252600188019052604090208390555b8554869080612d7357612d7361352f565b600190038181906000526020600020016000905590558560010160008681526020019081526020016000206000905560019350505050610543565b6000915050610543565b6000818152600183016020526040812054612dff57508154600181810184556000848152602080822090930184905584548482528286019093526040902091909155610543565b506000610543565b60006001600160e01b03821115611de75760405162461bcd60e51b815260206004820152602760248201527f53616665436173743a2076616c756520646f65736e27742066697420696e203260448201527f32342062697473000000000000000000000000000000000000000000000000006064820152608401610692565b825460009081908015612fcf576000612ea4876114fd60018561343b565b60408051808201909152905463ffffffff8082168084526401000000009092046001600160e01b031660208401529192509087161015612f265760405162461bcd60e51b815260206004820152601760248201527f436865636b706f696e743a20696e76616c6964206b65790000000000000000006044820152606401610692565b805163ffffffff808816911603612f6f5784612f47886114fd60018661343b565b80546001600160e01b03929092166401000000000263ffffffff909216919091179055612fbf565b6040805180820190915263ffffffff80881682526001600160e01b0380881660208085019182528b54600181018d5560008d81529190912094519151909216640100000000029216919091179101555b60200151925083915061299e9050565b50506040805180820190915263ffffffff80851682526001600160e01b0380851660208085019182528854600181018a5560008a81529182209551925190931664010000000002919093161792019190915590508161299e565b6001600160e01b031981168114610b9a57600080fd5b60006020828403121561305157600080fd5b813561089881613029565b60005b8381101561307757818101518382015260200161305f565b50506000910152565b6000815180845261309881602086016020860161305c565b601f01601f19169290920160200192915050565b6020815260006108986020830184613080565b6000602082840312156130d157600080fd5b5035919050565b6001600160a01b0381168114610b9a57600080fd5b6000806040838503121561310057600080fd5b823561310b816130d8565b946020939093013593505050565b60008060006060848603121561312e57600080fd5b8335613139816130d8565b92506020840135613149816130d8565b929592945050506040919091013590565b60006020828403121561316c57600080fd5b8135610898816130d8565b6000806040838503121561318a57600080fd5b8235613195816130d8565b9150602083013580151581146131aa57600080fd5b809150509250929050565b634e487b7160e01b600052604160045260246000fd5b600080600080608085870312156131e157600080fd5b84356131ec816130d8565b935060208501356131fc816130d8565b925060408501359150606085013567ffffffffffffffff8082111561322057600080fd5b818701915087601f83011261323457600080fd5b813581811115613246576132466131b5565b604051601f8201601f19908116603f0116810190838211818310171561326e5761326e6131b5565b816040528281528a602084870101111561328757600080fd5b82602086016020830137600060208483010152809550505050505092959194509250565b60008060008060008060c087890312156132c457600080fd5b86356132cf816130d8565b95506020870135945060408701359350606087013560ff811681146132f357600080fd5b9598949750929560808101359460a0909101359350915050565b6000806040838503121561332057600080fd5b823561332b816130d8565b915060208301356131aa816130d8565b602080825282518282018190526000919060409081850190868401855b8281101561338657815180516001600160a01b03168552860151868501529284019290850190600101613358565b5091979650505050505050565b600181811c908216806133a757607f821691505b602082108103610ef757634e487b7160e01b600052602260045260246000fd5b634e487b7160e01b600052603260045260246000fd5b600083516133ef81846020880161305c565b83519083019061340381836020880161305c565b01949350505050565b634e487b7160e01b600052601160045260246000fd5b6000600182016134345761343461340c565b5060010190565b818103818111156105435761054361340c565b808201808211156105435761054361340c565b634e487b7160e01b600052602160045260246000fd5b60006020828403121561348957600080fd5b81516004811061089857600080fd5b634e487b7160e01b600052601260045260246000fd5b6000826134bd576134bd613498565b500490565b6000826134d1576134d1613498565b500690565b60006001600160a01b038087168352808616602084015250836040830152608060608301526135086080830184613080565b9695505050505050565b60006020828403121561352457600080fd5b815161089881613029565b634e487b7160e01b600052603160045260246000fdfea2646970667358221220c412966bdb3d6cad5db728408c9ad107e99ade103b2440cf70743a5c937c9e2e64736f6c63430008100033"
}