{
  "address": "0x21dF544947ba3E8b3c32561399E88B52Dc8b2823",
  "abi": [
    {
      "inputs": [
        {
          "internalType": "contract TimelockController",
          "name": "_timelock",
          "type": "address"
        },
        {
          "internalType": "contract Senate",
          "name": "_senate",
          "type": "address"
        }
      ],
      "stateMutability": "nonpayable",
      "type": "constructor"
    },
    {
      "inputs": [],
      "name": "Empty",
      "type": "error"
    },
    {
      "anonymous": false,
      "inputs": [
        {
          "indexed": false,
          "internalType": "uint256",
          "name": "proposalId",
          "type": "uint256"
        }
      ],
      "name": "ProposalCanceled",
      "type": "event"
    },
    {
      "anonymous": false,
      "inputs": [
        {
          "indexed": false,
          "internalType": "uint256",
          "name": "proposalId",
          "type": "uint256"
        },
        {
          "indexed": false,
          "internalType": "address",
          "name": "proposer",
          "type": "address"
        },
        {
          "indexed": false,
          "internalType": "address[]",
          "name": "targets",
          "type": "address[]"
        },
        {
          "indexed": false,
          "internalType": "uint256[]",
          "name": "values",
          "type": "uint256[]"
        },
        {
          "indexed": false,
          "internalType": "string[]",
          "name": "signatures",
          "type": "string[]"
        },
        {
          "indexed": false,
          "internalType": "bytes[]",
          "name": "calldatas",
          "type": "bytes[]"
        },
        {
          "indexed": false,
          "internalType": "uint256",
          "name": "startBlock",
          "type": "uint256"
        },
        {
          "indexed": false,
          "internalType": "uint256",
          "name": "endBlock",
          "type": "uint256"
        },
        {
          "indexed": false,
          "internalType": "string",
          "name": "description",
          "type": "string"
        }
      ],
      "name": "ProposalCreated",
      "type": "event"
    },
    {
      "anonymous": false,
      "inputs": [
        {
          "indexed": false,
          "internalType": "uint256",
          "name": "proposalId",
          "type": "uint256"
        }
      ],
      "name": "ProposalExecuted",
      "type": "event"
    },
    {
      "anonymous": false,
      "inputs": [
        {
          "indexed": false,
          "internalType": "uint256",
          "name": "proposalId",
          "type": "uint256"
        },
        {
          "indexed": false,
          "internalType": "uint256",
          "name": "eta",
          "type": "uint256"
        }
      ],
      "name": "ProposalQueued",
      "type": "event"
    },
    {
      "anonymous": false,
      "inputs": [
        {
          "indexed": false,
          "internalType": "address",
          "name": "oldSenate",
          "type": "address"
        },
        {
          "indexed": false,
          "internalType": "address",
          "name": "newSenate",
          "type": "address"
        }
      ],
      "name": "SenateChange",
      "type": "event"
    },
    {
      "anonymous": false,
      "inputs": [
        {
          "indexed": false,
          "internalType": "address",
          "name": "oldTimelock",
          "type": "address"
        },
        {
          "indexed": false,
          "internalType": "address",
          "name": "newTimelock",
          "type": "address"
        }
      ],
      "name": "TimelockChange",
      "type": "event"
    },
    {
      "anonymous": false,
      "inputs": [
        {
          "indexed": true,
          "internalType": "address",
          "name": "voter",
          "type": "address"
        },
        {
          "indexed": false,
          "internalType": "uint256",
          "name": "proposalId",
          "type": "uint256"
        },
        {
          "indexed": false,
          "internalType": "uint8",
          "name": "support",
          "type": "uint8"
        },
        {
          "indexed": false,
          "internalType": "uint256",
          "name": "weight",
          "type": "uint256"
        },
        {
          "indexed": false,
          "internalType": "string",
          "name": "reason",
          "type": "string"
        }
      ],
      "name": "VoteCast",
      "type": "event"
    },
    {
      "anonymous": false,
      "inputs": [
        {
          "indexed": true,
          "internalType": "address",
          "name": "voter",
          "type": "address"
        },
        {
          "indexed": false,
          "internalType": "uint256",
          "name": "proposalId",
          "type": "uint256"
        },
        {
          "indexed": false,
          "internalType": "uint8",
          "name": "support",
          "type": "uint8"
        },
        {
          "indexed": false,
          "internalType": "uint256",
          "name": "weight",
          "type": "uint256"
        },
        {
          "indexed": false,
          "internalType": "string",
          "name": "reason",
          "type": "string"
        },
        {
          "indexed": false,
          "internalType": "bytes",
          "name": "params",
          "type": "bytes"
        }
      ],
      "name": "VoteCastWithParams",
      "type": "event"
    },
    {
      "inputs": [],
      "name": "BALLOT_TYPEHASH",
      "outputs": [
        {
          "internalType": "bytes32",
          "name": "",
          "type": "bytes32"
        }
      ],
      "stateMutability": "view",
      "type": "function"
    },
    {
      "inputs": [],
      "name": "COUNTING_MODE",
      "outputs": [
        {
          "internalType": "string",
          "name": "",
          "type": "string"
        }
      ],
      "stateMutability": "pure",
      "type": "function"
    },
    {
      "inputs": [],
      "name": "EXTENDED_BALLOT_TYPEHASH",
      "outputs": [
        {
          "internalType": "bytes32",
          "name": "",
          "type": "bytes32"
        }
      ],
      "stateMutability": "view",
      "type": "function"
    },
    {
      "inputs": [
        {
          "internalType": "uint256",
          "name": "proposalId",
          "type": "uint256"
        }
      ],
      "name": "cancel",
      "outputs": [],
      "stateMutability": "nonpayable",
      "type": "function"
    },
    {
      "inputs": [
        {
          "internalType": "uint256",
          "name": "proposalId",
          "type": "uint256"
        },
        {
          "internalType": "uint8",
          "name": "support",
          "type": "uint8"
        }
      ],
      "name": "castVote",
      "outputs": [
        {
          "internalType": "uint256",
          "name": "",
          "type": "uint256"
        }
      ],
      "stateMutability": "nonpayable",
      "type": "function"
    },
    {
      "inputs": [
        {
          "internalType": "uint256",
          "name": "proposalId",
          "type": "uint256"
        },
        {
          "internalType": "uint8",
          "name": "support",
          "type": "uint8"
        },
        {
          "internalType": "uint8",
          "name": "v",
          "type": "uint8"
        },
        {
          "internalType": "bytes32",
          "name": "r",
          "type": "bytes32"
        },
        {
          "internalType": "bytes32",
          "name": "s",
          "type": "bytes32"
        }
      ],
      "name": "castVoteBySig",
      "outputs": [
        {
          "internalType": "uint256",
          "name": "",
          "type": "uint256"
        }
      ],
      "stateMutability": "nonpayable",
      "type": "function"
    },
    {
      "inputs": [
        {
          "internalType": "uint256",
          "name": "proposalId",
          "type": "uint256"
        },
        {
          "internalType": "uint8",
          "name": "support",
          "type": "uint8"
        },
        {
          "internalType": "string",
          "name": "reason",
          "type": "string"
        }
      ],
      "name": "castVoteWithReason",
      "outputs": [
        {
          "internalType": "uint256",
          "name": "",
          "type": "uint256"
        }
      ],
      "stateMutability": "nonpayable",
      "type": "function"
    },
    {
      "inputs": [
        {
          "internalType": "uint256",
          "name": "proposalId",
          "type": "uint256"
        },
        {
          "internalType": "uint8",
          "name": "support",
          "type": "uint8"
        },
        {
          "internalType": "string",
          "name": "reason",
          "type": "string"
        },
        {
          "internalType": "bytes",
          "name": "params",
          "type": "bytes"
        }
      ],
      "name": "castVoteWithReasonAndParams",
      "outputs": [
        {
          "internalType": "uint256",
          "name": "",
          "type": "uint256"
        }
      ],
      "stateMutability": "nonpayable",
      "type": "function"
    },
    {
      "inputs": [
        {
          "internalType": "uint256",
          "name": "proposalId",
          "type": "uint256"
        },
        {
          "internalType": "uint8",
          "name": "support",
          "type": "uint8"
        },
        {
          "internalType": "string",
          "name": "reason",
          "type": "string"
        },
        {
          "internalType": "bytes",
          "name": "params",
          "type": "bytes"
        },
        {
          "internalType": "uint8",
          "name": "v",
          "type": "uint8"
        },
        {
          "internalType": "bytes32",
          "name": "r",
          "type": "bytes32"
        },
        {
          "internalType": "bytes32",
          "name": "s",
          "type": "bytes32"
        }
      ],
      "name": "castVoteWithReasonAndParamsBySig",
      "outputs": [
        {
          "internalType": "uint256",
          "name": "",
          "type": "uint256"
        }
      ],
      "stateMutability": "nonpayable",
      "type": "function"
    },
    {
      "inputs": [
        {
          "internalType": "address[]",
          "name": "targets",
          "type": "address[]"
        },
        {
          "internalType": "uint256[]",
          "name": "values",
          "type": "uint256[]"
        },
        {
          "internalType": "bytes[]",
          "name": "calldatas",
          "type": "bytes[]"
        },
        {
          "internalType": "bytes32",
          "name": "descriptionHash",
          "type": "bytes32"
        }
      ],
      "name": "execute",
      "outputs": [
        {
          "internalType": "uint256",
          "name": "",
          "type": "uint256"
        }
      ],
      "stateMutability": "payable",
      "type": "function"
    },
    {
      "inputs": [
        {
          "internalType": "uint256",
          "name": "proposalId",
          "type": "uint256"
        }
      ],
      "name": "execute",
      "outputs": [],
      "stateMutability": "payable",
      "type": "function"
    },
    {
      "inputs": [
        {
          "internalType": "uint256",
          "name": "proposalId",
          "type": "uint256"
        }
      ],
      "name": "getActions",
      "outputs": [
        {
          "internalType": "address[]",
          "name": "targets",
          "type": "address[]"
        },
        {
          "internalType": "uint256[]",
          "name": "values",
          "type": "uint256[]"
        },
        {
          "internalType": "string[]",
          "name": "signatures",
          "type": "string[]"
        },
        {
          "internalType": "bytes[]",
          "name": "calldatas",
          "type": "bytes[]"
        }
      ],
      "stateMutability": "view",
      "type": "function"
    },
    {
      "inputs": [
        {
          "internalType": "uint256",
          "name": "proposalId",
          "type": "uint256"
        },
        {
          "internalType": "address",
          "name": "voter",
          "type": "address"
        }
      ],
      "name": "getReceipt",
      "outputs": [
        {
          "components": [
            {
              "internalType": "bool",
              "name": "hasVoted",
              "type": "bool"
            },
            {
              "internalType": "uint8",
              "name": "support",
              "type": "uint8"
            },
            {
              "internalType": "uint96",
              "name": "votes",
              "type": "uint96"
            }
          ],
          "internalType": "struct IChancellorCompatibilityBravo.Receipt",
          "name": "",
          "type": "tuple"
        }
      ],
      "stateMutability": "view",
      "type": "function"
    },
    {
      "inputs": [],
      "name": "getSettings",
      "outputs": [
        {
          "internalType": "uint256",
          "name": "currProposalThreshold",
          "type": "uint256"
        },
        {
          "internalType": "uint256",
          "name": "currVotingDelay",
          "type": "uint256"
        },
        {
          "internalType": "uint256",
          "name": "currVotingPeriod",
          "type": "uint256"
        },
        {
          "internalType": "bytes",
          "name": "senatorRepresentations",
          "type": "bytes"
        },
        {
          "internalType": "uint256",
          "name": "votingPower",
          "type": "uint256"
        },
        {
          "internalType": "bool",
          "name": "validSenator",
          "type": "bool"
        },
        {
          "internalType": "bool",
          "name": "validMembers",
          "type": "bool"
        }
      ],
      "stateMutability": "view",
      "type": "function"
    },
    {
      "inputs": [
        {
          "internalType": "address",
          "name": "account",
          "type": "address"
        },
        {
          "internalType": "uint256",
          "name": "blockNumber",
          "type": "uint256"
        }
      ],
      "name": "getVotes",
      "outputs": [
        {
          "internalType": "uint256",
          "name": "",
          "type": "uint256"
        }
      ],
      "stateMutability": "view",
      "type": "function"
    },
    {
      "inputs": [
        {
          "internalType": "address",
          "name": "account",
          "type": "address"
        },
        {
          "internalType": "uint256",
          "name": "blockNumber",
          "type": "uint256"
        },
        {
          "internalType": "bytes",
          "name": "params",
          "type": "bytes"
        }
      ],
      "name": "getVotesWithParams",
      "outputs": [
        {
          "internalType": "uint256",
          "name": "",
          "type": "uint256"
        }
      ],
      "stateMutability": "view",
      "type": "function"
    },
    {
      "inputs": [
        {
          "internalType": "uint256",
          "name": "proposalId",
          "type": "uint256"
        },
        {
          "internalType": "address",
          "name": "account",
          "type": "address"
        }
      ],
      "name": "hasVoted",
      "outputs": [
        {
          "internalType": "bool",
          "name": "",
          "type": "bool"
        }
      ],
      "stateMutability": "view",
      "type": "function"
    },
    {
      "inputs": [
        {
          "internalType": "address[]",
          "name": "targets",
          "type": "address[]"
        },
        {
          "internalType": "uint256[]",
          "name": "values",
          "type": "uint256[]"
        },
        {
          "internalType": "bytes[]",
          "name": "calldatas",
          "type": "bytes[]"
        },
        {
          "internalType": "bytes32",
          "name": "descriptionHash",
          "type": "bytes32"
        }
      ],
      "name": "hashProposal",
      "outputs": [
        {
          "internalType": "uint256",
          "name": "",
          "type": "uint256"
        }
      ],
      "stateMutability": "pure",
      "type": "function"
    },
    {
      "inputs": [],
      "name": "name",
      "outputs": [
        {
          "internalType": "string",
          "name": "",
          "type": "string"
        }
      ],
      "stateMutability": "view",
      "type": "function"
    },
    {
      "inputs": [
        {
          "internalType": "address",
          "name": "",
          "type": "address"
        },
        {
          "internalType": "address",
          "name": "",
          "type": "address"
        },
        {
          "internalType": "uint256[]",
          "name": "",
          "type": "uint256[]"
        },
        {
          "internalType": "uint256[]",
          "name": "",
          "type": "uint256[]"
        },
        {
          "internalType": "bytes",
          "name": "",
          "type": "bytes"
        }
      ],
      "name": "onERC1155BatchReceived",
      "outputs": [
        {
          "internalType": "bytes4",
          "name": "",
          "type": "bytes4"
        }
      ],
      "stateMutability": "nonpayable",
      "type": "function"
    },
    {
      "inputs": [
        {
          "internalType": "address",
          "name": "",
          "type": "address"
        },
        {
          "internalType": "address",
          "name": "",
          "type": "address"
        },
        {
          "internalType": "uint256",
          "name": "",
          "type": "uint256"
        },
        {
          "internalType": "uint256",
          "name": "",
          "type": "uint256"
        },
        {
          "internalType": "bytes",
          "name": "",
          "type": "bytes"
        }
      ],
      "name": "onERC1155Received",
      "outputs": [
        {
          "internalType": "bytes4",
          "name": "",
          "type": "bytes4"
        }
      ],
      "stateMutability": "nonpayable",
      "type": "function"
    },
    {
      "inputs": [
        {
          "internalType": "address",
          "name": "",
          "type": "address"
        },
        {
          "internalType": "address",
          "name": "",
          "type": "address"
        },
        {
          "internalType": "uint256",
          "name": "",
          "type": "uint256"
        },
        {
          "internalType": "bytes",
          "name": "",
          "type": "bytes"
        }
      ],
      "name": "onERC721Received",
      "outputs": [
        {
          "internalType": "bytes4",
          "name": "",
          "type": "bytes4"
        }
      ],
      "stateMutability": "nonpayable",
      "type": "function"
    },
    {
      "inputs": [
        {
          "internalType": "uint256",
          "name": "proposalId",
          "type": "uint256"
        }
      ],
      "name": "proposalDeadline",
      "outputs": [
        {
          "internalType": "uint256",
          "name": "",
          "type": "uint256"
        }
      ],
      "stateMutability": "view",
      "type": "function"
    },
    {
      "inputs": [
        {
          "internalType": "uint256",
          "name": "proposalId",
          "type": "uint256"
        }
      ],
      "name": "proposalEta",
      "outputs": [
        {
          "internalType": "uint256",
          "name": "",
          "type": "uint256"
        }
      ],
      "stateMutability": "view",
      "type": "function"
    },
    {
      "inputs": [
        {
          "internalType": "uint256",
          "name": "proposalId",
          "type": "uint256"
        }
      ],
      "name": "proposalRepresentations",
      "outputs": [
        {
          "internalType": "uint32[]",
          "name": "",
          "type": "uint32[]"
        }
      ],
      "stateMutability": "view",
      "type": "function"
    },
    {
      "inputs": [
        {
          "internalType": "uint256",
          "name": "proposalId",
          "type": "uint256"
        }
      ],
      "name": "proposalSnapshot",
      "outputs": [
        {
          "internalType": "uint256",
          "name": "",
          "type": "uint256"
        }
      ],
      "stateMutability": "view",
      "type": "function"
    },
    {
      "inputs": [],
      "name": "proposalThreshold",
      "outputs": [
        {
          "internalType": "uint256",
          "name": "",
          "type": "uint256"
        }
      ],
      "stateMutability": "view",
      "type": "function"
    },
    {
      "inputs": [
        {
          "internalType": "uint256",
          "name": "proposalId",
          "type": "uint256"
        }
      ],
      "name": "proposals",
      "outputs": [
        {
          "internalType": "uint256",
          "name": "id",
          "type": "uint256"
        },
        {
          "internalType": "address",
          "name": "proposer",
          "type": "address"
        },
        {
          "internalType": "uint256",
          "name": "eta",
          "type": "uint256"
        },
        {
          "internalType": "uint256",
          "name": "startBlock",
          "type": "uint256"
        },
        {
          "internalType": "uint256",
          "name": "endBlock",
          "type": "uint256"
        },
        {
          "internalType": "uint256",
          "name": "forVotes",
          "type": "uint256"
        },
        {
          "internalType": "uint256",
          "name": "againstVotes",
          "type": "uint256"
        },
        {
          "internalType": "uint256",
          "name": "abstainVotes",
          "type": "uint256"
        },
        {
          "internalType": "bool",
          "name": "canceled",
          "type": "bool"
        },
        {
          "internalType": "bool",
          "name": "executed",
          "type": "bool"
        }
      ],
      "stateMutability": "view",
      "type": "function"
    },
    {
      "inputs": [
        {
          "internalType": "address[]",
          "name": "targets",
          "type": "address[]"
        },
        {
          "internalType": "uint256[]",
          "name": "values",
          "type": "uint256[]"
        },
        {
          "internalType": "bytes[]",
          "name": "calldatas",
          "type": "bytes[]"
        },
        {
          "internalType": "string",
          "name": "description",
          "type": "string"
        }
      ],
      "name": "propose",
      "outputs": [
        {
          "internalType": "uint256",
          "name": "",
          "type": "uint256"
        }
      ],
      "stateMutability": "nonpayable",
      "type": "function"
    },
    {
      "inputs": [
        {
          "internalType": "address[]",
          "name": "targets",
          "type": "address[]"
        },
        {
          "internalType": "uint256[]",
          "name": "values",
          "type": "uint256[]"
        },
        {
          "internalType": "string[]",
          "name": "signatures",
          "type": "string[]"
        },
        {
          "internalType": "bytes[]",
          "name": "calldatas",
          "type": "bytes[]"
        },
        {
          "internalType": "string",
          "name": "description",
          "type": "string"
        }
      ],
      "name": "propose",
      "outputs": [
        {
          "internalType": "uint256",
          "name": "",
          "type": "uint256"
        }
      ],
      "stateMutability": "nonpayable",
      "type": "function"
    },
    {
      "inputs": [
        {
          "internalType": "address[]",
          "name": "targets",
          "type": "address[]"
        },
        {
          "internalType": "uint256[]",
          "name": "values",
          "type": "uint256[]"
        },
        {
          "internalType": "bytes[]",
          "name": "calldatas",
          "type": "bytes[]"
        },
        {
          "internalType": "bytes32",
          "name": "descriptionHash",
          "type": "bytes32"
        }
      ],
      "name": "queue",
      "outputs": [
        {
          "internalType": "uint256",
          "name": "",
          "type": "uint256"
        }
      ],
      "stateMutability": "nonpayable",
      "type": "function"
    },
    {
      "inputs": [
        {
          "internalType": "uint256",
          "name": "proposalId",
          "type": "uint256"
        }
      ],
      "name": "queue",
      "outputs": [],
      "stateMutability": "nonpayable",
      "type": "function"
    },
    {
      "inputs": [
        {
          "internalType": "uint256",
          "name": "blockNumber",
          "type": "uint256"
        }
      ],
      "name": "quorum",
      "outputs": [
        {
          "internalType": "uint256",
          "name": "",
          "type": "uint256"
        }
      ],
      "stateMutability": "view",
      "type": "function"
    },
    {
      "inputs": [
        {
          "internalType": "uint256",
          "name": "proposalId",
          "type": "uint256"
        }
      ],
      "name": "quorumReached",
      "outputs": [
        {
          "internalType": "bool",
          "name": "",
          "type": "bool"
        }
      ],
      "stateMutability": "view",
      "type": "function"
    },
    {
      "inputs": [],
      "name": "quorumVotes",
      "outputs": [
        {
          "internalType": "uint256",
          "name": "",
          "type": "uint256"
        }
      ],
      "stateMutability": "view",
      "type": "function"
    },
    {
      "inputs": [
        {
          "internalType": "address",
          "name": "target",
          "type": "address"
        },
        {
          "internalType": "uint256",
          "name": "value",
          "type": "uint256"
        },
        {
          "internalType": "bytes",
          "name": "data",
          "type": "bytes"
        }
      ],
      "name": "relay",
      "outputs": [],
      "stateMutability": "nonpayable",
      "type": "function"
    },
    {
      "inputs": [],
      "name": "senate",
      "outputs": [
        {
          "internalType": "address",
          "name": "",
          "type": "address"
        }
      ],
      "stateMutability": "view",
      "type": "function"
    },
    {
      "inputs": [
        {
          "internalType": "uint256",
          "name": "proposalId",
          "type": "uint256"
        }
      ],
      "name": "state",
      "outputs": [
        {
          "internalType": "enum IChancellor.ProposalState",
          "name": "",
          "type": "uint8"
        }
      ],
      "stateMutability": "view",
      "type": "function"
    },
    {
      "inputs": [
        {
          "internalType": "bytes4",
          "name": "interfaceId",
          "type": "bytes4"
        }
      ],
      "name": "supportsInterface",
      "outputs": [
        {
          "internalType": "bool",
          "name": "",
          "type": "bool"
        }
      ],
      "stateMutability": "view",
      "type": "function"
    },
    {
      "inputs": [],
      "name": "timelock",
      "outputs": [
        {
          "internalType": "address",
          "name": "",
          "type": "address"
        }
      ],
      "stateMutability": "view",
      "type": "function"
    },
    {
      "inputs": [
        {
          "internalType": "contract Senate",
          "name": "newSenate",
          "type": "address"
        }
      ],
      "name": "updateSenate",
      "outputs": [],
      "stateMutability": "nonpayable",
      "type": "function"
    },
    {
      "inputs": [
        {
          "internalType": "contract TimelockController",
          "name": "newTimelock",
          "type": "address"
        }
      ],
      "name": "updateTimelock",
      "outputs": [],
      "stateMutability": "nonpayable",
      "type": "function"
    },
    {
      "inputs": [],
      "name": "version",
      "outputs": [
        {
          "internalType": "string",
          "name": "",
          "type": "string"
        }
      ],
      "stateMutability": "view",
      "type": "function"
    },
    {
      "inputs": [],
      "name": "votingDelay",
      "outputs": [
        {
          "internalType": "uint256",
          "name": "",
          "type": "uint256"
        }
      ],
      "stateMutability": "view",
      "type": "function"
    },
    {
      "inputs": [],
      "name": "votingPeriod",
      "outputs": [
        {
          "internalType": "uint256",
          "name": "",
          "type": "uint256"
        }
      ],
      "stateMutability": "view",
      "type": "function"
    },
    {
      "stateMutability": "payable",
      "type": "receive"
    }
  ],
  "numDeployments": 15,
  "bytecode": "0x6101406040523480156200001257600080fd5b5060405162005b9c38038062005b9c833981016040819052620000359162000238565b8181604051806040016040528060118152602001702932b83ab13634b1a1b430b731b2b637b960791b81525080620000726200013260201b60201c565b815160209283012081519183019190912060e08290526101008190524660a0818152604080517f8b73c3c69bb8fe3d512ecc4cf759cc79239f7b179b0ffacaa9a75d522b39400f818801819052818301969096526060810194909452608080850193909352308483018190528151808603909301835260c0948501909152815191909501209052919091526101205260006200010f82826200031c565b506200011d9050816200014d565b506200012981620001b6565b505050620003e8565b6040805180820190915260018152603160f81b602082015290565b600554604080516001600160a01b03928316815291831660208301527f304e188ff78544bf68047712e88b34e09b3e2f53411c33ea1f31c8db03239552910160405180910390a1600580546001600160a01b0319166001600160a01b0392909216919091179055565b600654604080516001600160a01b03928316815291831660208301527f08f74ea46ef7894f65eabfb5e6e695de773a000b47c529ab559178069b226401910160405180910390a1600680546001600160a01b0319166001600160a01b0392909216919091179055565b6001600160a01b03811681146200023557600080fd5b50565b600080604083850312156200024c57600080fd5b825162000259816200021f565b60208401519092506200026c816200021f565b809150509250929050565b634e487b7160e01b600052604160045260246000fd5b600181811c90821680620002a257607f821691505b602082108103620002c357634e487b7160e01b600052602260045260246000fd5b50919050565b601f8211156200031757600081815260208120601f850160051c81016020861015620002f25750805b601f850160051c820191505b818110156200031357828155600101620002fe565b5050505b505050565b81516001600160401b0381111562000338576200033862000277565b62000350816200034984546200028d565b84620002c9565b602080601f8311600181146200038857600084156200036f5750858301515b600019600386901b1c1916600185901b17855562000313565b600085815260208120601f198616915b82811015620003b95788860151825594840194600190910190840162000398565b5085821015620003d85787850151600019600388901b60f8161c191681555b5050505050600190811b01905550565b60805160a05160c05160e0516101005161012051615764620004386000396000613233015260006132820152600061325d015260006131b6015260006131e00152600061320a01526157646000f3fe6080604052600436106102f65760003560e01c80637d5e81e21161018f578063d33219b4116100e1578063deaaa7cc1161008a578063f23a6e6111610064578063f23a6e6114610a96578063f8ce560a14610adb578063fe0d94c114610afb57600080fd5b8063deaaa7cc1461096e578063e23a9a52146109a2578063eb9019d414610a7657600080fd5b8063da95691a116100bb578063da95691a146108e8578063dd4e2ba514610908578063ddf0b0091461094e57600080fd5b8063d33219b41461087d578063d4a8dd981461089b578063d70e1c23146108bb57600080fd5b8063ab58fb8e11610143578063c01f9e371161011d578063c01f9e371461081d578063c28bc2fa1461083d578063c59057e41461085d57600080fd5b8063ab58fb8e146107a3578063b58131b0146107c3578063bc197c81146107d857600080fd5b80639a802a6d116101745780639a802a6d14610731578063a6e5b8e614610751578063a890c9101461078357600080fd5b80637d5e81e2146106e957806385b4bb531461070957600080fd5b80632fe3e2611161024857806340e58ee5116101fc57806356781388116101d657806356781388146106895780635f398a14146106a95780637b3c71d3146106c957600080fd5b806340e58ee5146105d957806343859632146105f957806354fd4d501461064357600080fd5b80633932abb11161022d5780633932abb1146105775780633bccf4fd1461058c5780633e4f49e6146105ac57600080fd5b80632fe3e26114610513578063328dd9821461054757600080fd5b8063150b7a02116102aa57806324bc1a641161028457806324bc1a64146104cb5780632656227d146104e05780632d63f693146104f357600080fd5b8063150b7a021461042e578063160cbed71461048b5780631cced893146104ab57600080fd5b806302a251a3116102db57806302a251a3146103c957806303420181146103ec57806306fdde031461040c57600080fd5b8063013cf08b1461031e57806301ffc9a71461039957600080fd5b366103195730610304610b0e565b6001600160a01b03161461031757600080fd5b005b600080fd5b34801561032a57600080fd5b5061033e61033936600461457b565b610b27565b604080519a8b526001600160a01b0390991660208b0152978901969096526060880194909452608087019290925260a086015260c085015260e084015215156101008301521515610120820152610140015b60405180910390f35b3480156103a557600080fd5b506103b96103b4366004614594565b610bd0565b6040519015158152602001610390565b3480156103d557600080fd5b506103de610be1565b604051908152602001610390565b3480156103f857600080fd5b506103de6104073660046146e2565b610beb565b34801561041857600080fd5b50610421610ce3565b60405161039091906147d9565b34801561043a57600080fd5b50610472610449366004614801565b7f150b7a0200000000000000000000000000000000000000000000000000000000949350505050565b6040516001600160e01b03199091168152602001610390565b34801561049757600080fd5b506103de6104a63660046149db565b610d75565b3480156104b757600080fd5b506103176104c6366004614a6b565b611002565b3480156104d757600080fd5b506103de6110bc565b6103de6104ee3660046149db565b6110cc565b3480156104ff57600080fd5b506103de61050e36600461457b565b6113a1565b34801561051f57600080fd5b506103de7fb3b3f3b703cd84ce352197dcff232b1b5d3cfb2025ce47cf04742d0651f1af8881565b34801561055357600080fd5b5061056761056236600461457b565b6113dd565b6040516103909493929190614b51565b34801561058357600080fd5b506103de61166e565b34801561059857600080fd5b506103de6105a7366004614b9e565b611678565b3480156105b857600080fd5b506105cc6105c736600461457b565b6116ee565b6040516103909190614c02565b3480156105e557600080fd5b506103176105f436600461457b565b6116f9565b34801561060557600080fd5b506103b9610614366004614c2a565b60008281526004602090815260408083206001600160a01b038516845260080190915290205460ff1692915050565b34801561064f57600080fd5b5060408051808201909152600181527f31000000000000000000000000000000000000000000000000000000000000006020820152610421565b34801561069557600080fd5b506103de6106a4366004614c5a565b611a27565b3480156106b557600080fd5b506103de6106c4366004614c86565b611a50565b3480156106d557600080fd5b506103de6106e4366004614d0a565b611a9a565b3480156106f557600080fd5b506103de610704366004614d64565b611aec565b34801561071557600080fd5b5061071e611b03565b6040516103909796959493929190614e05565b34801561073d57600080fd5b506103de61074c366004614e4b565b611bb0565b34801561075d57600080fd5b506005546001600160a01b03165b6040516001600160a01b039091168152602001610390565b34801561078f57600080fd5b5061031761079e366004614a6b565b611bc7565b3480156107af57600080fd5b506103de6107be36600461457b565b611c7e565b3480156107cf57600080fd5b506103de611d31565b3480156107e457600080fd5b506104726107f3366004614ea4565b7fbc197c810000000000000000000000000000000000000000000000000000000095945050505050565b34801561082957600080fd5b506103de61083836600461457b565b611d3b565b34801561084957600080fd5b50610317610858366004614f38565b611d6b565b34801561086957600080fd5b506103de6108783660046149db565b611e62565b34801561088957600080fd5b506006546001600160a01b031661076b565b3480156108a757600080fd5b506103b96108b636600461457b565b611e9c565b3480156108c757600080fd5b506108db6108d636600461457b565b611ea7565b6040516103909190614f7c565b3480156108f457600080fd5b506103de610903366004615046565b611f50565b34801561091457600080fd5b5060408051808201909152601a81527f737570706f72743d627261766f2671756f72756d3d627261766f0000000000006020820152610421565b34801561095a57600080fd5b5061031761096936600461457b565b611f75565b34801561097a57600080fd5b506103de7f150214d74d59b7d1e90c73fc22ef3d991dd0a76b046543d4d80ab92d2a50328f81565b3480156109ae57600080fd5b50610a416109bd366004614c2a565b60408051606081018252600080825260208201819052918101919091525060009182526004602090815260408084206001600160a01b0393909316845260089092018152918190208151606081018352905460ff8082161515835261010082041693820193909352620100009092046bffffffffffffffffffffffff169082015290565b6040805182511515815260208084015160ff1690820152918101516bffffffffffffffffffffffff1690820152606001610390565b348015610a8257600080fd5b506103de610a913660046150e8565b6121e3565b348015610aa257600080fd5b50610472610ab1366004615114565b7ff23a6e610000000000000000000000000000000000000000000000000000000095945050505050565b348015610ae757600080fd5b506103de610af636600461457b565b612204565b610317610b0936600461457b565b61220f565b6000610b226006546001600160a01b031690565b905090565b8060008080808080808080610b3b8a611c7e565b9750610b468b6113a1565b9650610b518b611d3b565b60008c815260046020526040812080546005820154600683015460078401546001600160a01b039093169e50949a509850929650919450610b918d6116ee565b90506002816007811115610ba757610ba7614bec565b1493506007816007811115610bbe57610bbe614bec565b14925050509193959799509193959799565b6000610bdb8261247d565b92915050565b6000610b226124bb565b600080610c8f610c877fb3b3f3b703cd84ce352197dcff232b1b5d3cfb2025ce47cf04742d0651f1af888c8c8c8c604051610c2792919061517d565b60405180910390208b80519060200120604051602001610c6c959493929190948552602085019390935260ff9190911660408401526060830152608082015260a00190565b60405160208183030381529060405280519060200120612542565b8686866125ab565b9050610cd58a828b8b8b8080601f0160208091040260200160405190810160405280939291908181526020018383808284376000920191909152508d92506125c9915050565b9a9950505050505050505050565b606060008054610cf29061518d565b80601f0160208091040260200160405190810160405280929190818152602001828054610d1e9061518d565b8015610d6b5780601f10610d4057610100808354040283529160200191610d6b565b820191906000526020600020905b815481529060010190602001808311610d4e57829003601f168201915b5050505050905090565b600080610d8486868686611e62565b90506004610d91826116ee565b6007811115610da257610da2614bec565b14610e005760405162461bcd60e51b815260206004820152602360248201527f4368616e63656c6c6f723a2070726f706f73616c206e6f742073756363657373604482015262199d5b60ea1b60648201526084015b60405180910390fd5b600654604080517ff27a0c9200000000000000000000000000000000000000000000000000000000815290516000926001600160a01b03169163f27a0c929160048083019260209291908290030181865afa158015610e63573d6000803e3d6000fd5b505050506040513d601f19601f82011682018060405250810190610e8791906151c1565b6006546040517fb1c5f4270000000000000000000000000000000000000000000000000000000081529192506001600160a01b03169063b1c5f42790610eda908a908a908a906000908b906004016151da565b602060405180830381865afa158015610ef7573d6000803e3d6000fd5b505050506040513d601f19601f82011682018060405250810190610f1b91906151c1565b6000838152600760205260408082209290925560065491517f8f2a0bb00000000000000000000000000000000000000000000000000000000081526001600160a01b0390921691638f2a0bb091610f7f918b918b918b91908b908990600401615228565b600060405180830381600087803b158015610f9957600080fd5b505af1158015610fad573d6000803e3d6000fd5b505050507f9a2e42fd6722813d69113e7d0079d3d940171428df7373df9c7f7617cfda2892828242610fdf9190615296565b604080519283526020830191909152015b60405180910390a15095945050505050565b61100a610b0e565b6001600160a01b0316336001600160a01b03161461106a5760405162461bcd60e51b815260206004820152601a60248201527f4368616e63656c6c6f723a206f6e6c794368616e63656c6c6f720000000000006044820152606401610df7565b30611073610b0e565b6001600160a01b0316146110b0576000803660405161109392919061517d565b604051809103902090505b806110a9600261274c565b0361109e57505b6110b9816127fc565b50565b6000610b22610af66001436152a9565b6000806110db86868686611e62565b90506111846001600083815260200190815260200160002060010180546111019061518d565b80601f016020809104026020016040519081016040528092919081815260200182805461112d9061518d565b801561117a5780601f1061114f5761010080835404028352916020019161117a565b820191906000526020600020905b81548152906001019060200180831161115d57829003601f168201915b5050505050612865565b6111f65760405162461bcd60e51b815260206004820152602760248201527f4368616e63656c6c6f723a3a50726f706f73616c206861766520696e6170742060448201527f6d656d62657273000000000000000000000000000000000000000000000000006064820152608401610df7565b600081815260016020526040902054611217906001600160a01b03166128f0565b6112895760405162461bcd60e51b815260206004820152602a60248201527f4368616e63656c6c6f723a3a50726f706f7365722042616e6e6564206f72205160448201527f756172616e74696e6564000000000000000000000000000000000000000000006064820152608401610df7565b6000611294826116ee565b905060048160078111156112aa576112aa614bec565b14806112c7575060058160078111156112c5576112c5614bec565b145b61131f5760405162461bcd60e51b815260206004820152602360248201527f4368616e63656c6c6f723a2070726f706f73616c206e6f742073756363657373604482015262199d5b60ea1b6064820152608401610df7565b600082815260016020818152604092839020600401805460ff191690921790915590518381527f712ae1383f79ac853f8d882153778e0260ef8f03b504e2866e0593e04d2b291f910160405180910390a161137d828888888861293c565b61138a82888888886129dd565b61139782888888886129ea565b5095945050505050565b600081815260016020908152604080832081519283019091526002015467ffffffffffffffff16908190525b67ffffffffffffffff1692915050565b6060806060806000600460008781526020019081526020016000209050806001018160020182600301836004018380548060200260200160405190810160405280929190818152602001828054801561145f57602002820191906000526020600020905b81546001600160a01b03168152600190910190602001808311611441575b50505050509350828054806020026020016040519081016040528092919081815260200182805480156114b157602002820191906000526020600020905b81548152602001906001019080831161149d575b5050505050925081805480602002602001604051908101604052809291908181526020016000905b828210156115855783829060005260206000200180546114f89061518d565b80601f01602080910402602001604051908101604052809291908181526020018280546115249061518d565b80156115715780601f1061154657610100808354040283529160200191611571565b820191906000526020600020905b81548152906001019060200180831161155457829003601f168201915b5050505050815260200190600101906114d9565b50505050915080805480602002602001604051908101604052809291908181526020016000905b828210156116585783829060005260206000200180546115cb9061518d565b80601f01602080910402602001604051908101604052809291908181526020018280546115f79061518d565b80156116445780601f1061161957610100808354040283529160200191611644565b820191906000526020600020905b81548152906001019060200180831161162757829003601f168201915b5050505050815260200190600101906115ac565b5050505090509450945094509450509193509193565b6000610b22612a23565b604080517f150214d74d59b7d1e90c73fc22ef3d991dd0a76b046543d4d80ab92d2a50328f602082015290810186905260ff8516606082015260009081906116c690610c8790608001610c6c565b90506116e387828860405180602001604052806000815250612a86565b979650505050505050565b6000610bdb82612aa9565b600081815260046020526040902080546001600160a01b0316336001600160a01b03161480611747575061172b611d31565b8154611745906001600160a01b0316610a916001436152a9565b105b6117b95760405162461bcd60e51b815260206004820152602760248201527f476f7665726e6f72427261766f3a2070726f706f7365722061626f766520746860448201527f726573686f6c64000000000000000000000000000000000000000000000000006064820152608401610df7565b611a228160010180548060200260200160405190810160405280929190818152602001828054801561181457602002820191906000526020600020905b81546001600160a01b031681526001909101906020018083116117f6575b50505050508260020180548060200260200160405190810160405280929190818152602001828054801561186757602002820191906000526020600020905b815481526020019060010190808311611853575b5050505050611a1884600301805480602002602001604051908101604052809291908181526020016000905b8282101561193f5783829060005260206000200180546118b29061518d565b80601f01602080910402602001604051908101604052809291908181526020018280546118de9061518d565b801561192b5780601f106119005761010080835404028352916020019161192b565b820191906000526020600020905b81548152906001019060200180831161190e57829003601f168201915b505050505081526020019060010190611893565b50505060048701805460408051602080840282018101909252828152935060009084015b82821015611a0f5783829060005260206000200180546119829061518d565b80601f01602080910402602001604051908101604052809291908181526020018280546119ae9061518d565b80156119fb5780601f106119d0576101008083540402835291602001916119fb565b820191906000526020600020905b8154815290600101906020018083116119de57829003601f168201915b505050505081526020019060010190611963565b50505050612c25565b8460090154612d58565b505050565b600080339050611a4884828560405180602001604052806000815250612a86565b949350505050565b6000803390506116e387828888888080601f0160208091040260200160405190810160405280939291908181526020018383808284376000920191909152508a92506125c9915050565b600080339050611ae286828787878080601f016020809104026020016040519081016040528093929190818152602001838380828437600092019190915250612a8692505050565b9695505050505050565b6000611afa85858585612d66565b95945050505050565b6005546040517f7706d1f6000000000000000000000000000000000000000000000000000000008152336004820152600091829182916060918391829182916001600160a01b031690637706d1f690602401600060405180830381865afa158015611b72573d6000803e3d6000fd5b505050506040513d6000823e601f3d908101601f19168201604052611b9a91908101906152cc565b959d949c50929a50909850965094509092509050565b6000611bbd848484612dcf565b90505b9392505050565b611bcf610b0e565b6001600160a01b0316336001600160a01b031614611c2f5760405162461bcd60e51b815260206004820152601a60248201527f4368616e63656c6c6f723a206f6e6c794368616e63656c6c6f720000000000006044820152606401610df7565b30611c38610b0e565b6001600160a01b031614611c755760008036604051611c5892919061517d565b604051809103902090505b80611c6e600261274c565b03611c6357505b6110b981612e59565b6006546000828152600760205260408082205490517fd45c44350000000000000000000000000000000000000000000000000000000081526004810191909152909182916001600160a01b039091169063d45c443590602401602060405180830381865afa158015611cf4573d6000803e3d6000fd5b505050506040513d601f19601f82011682018060405250810190611d1891906151c1565b905080600114611d285780611bc0565b60009392505050565b6000610b22612ec2565b600081815260016020908152604080832081519283019091526003015467ffffffffffffffff16908190526113cd565b611d73610b0e565b6001600160a01b0316336001600160a01b031614611dd35760405162461bcd60e51b815260206004820152601a60248201527f4368616e63656c6c6f723a206f6e6c794368616e63656c6c6f720000000000006044820152606401610df7565b30611ddc610b0e565b6001600160a01b031614611e195760008036604051611dfc92919061517d565b604051809103902090505b80611e12600261274c565b03611e0757505b611e5b8483838080601f016020809104026020016040519081016040528093929190818152602001838380828437600092019190915250889250612f25915050565b5050505050565b600084848484604051602001611e7b949392919061538d565b60408051601f19818403018152919052805160209091012095945050505050565b6000610bdb82612f4b565b6060610bdb600160008481526020019081526020016000206001018054611ecd9061518d565b80601f0160208091040260200160405190810160405280929190818152602001828054611ef99061518d565b8015611f465780601f10611f1b57610100808354040283529160200191611f46565b820191906000526020600020905b815481529060010190602001808311611f2957829003601f168201915b5050505050612f73565b6000611f60338787878787613027565b611ae28686611f6f8787612c25565b85611aec565b6000818152600460209081526040918290206001810180548451818502810185019095528085529193611a2293909290830182828015611fde57602002820191906000526020600020905b81546001600160a01b03168152600190910190602001808311611fc0575b50505050508260020180548060200260200160405190810160405280929190818152602001828054801561203157602002820191906000526020600020905b81548152602001906001019080831161201d575b50505050506121d984600301805480602002602001604051908101604052809291908181526020016000905b8282101561210957838290600052602060002001805461207c9061518d565b80601f01602080910402602001604051908101604052809291908181526020018280546120a89061518d565b80156120f55780601f106120ca576101008083540402835291602001916120f5565b820191906000526020600020905b8154815290600101906020018083116120d857829003601f168201915b50505050508152602001906001019061205d565b50505060048701805460408051602080840282018101909252828152935060009084015b82821015611a0f57838290600052602060002001805461214c9061518d565b80601f01602080910402602001604051908101604052809291908181526020018280546121789061518d565b80156121c55780601f1061219a576101008083540402835291602001916121c5565b820191906000526020600020905b8154815290600101906020018083116121a857829003601f168201915b50505050508152602001906001019061212d565b8460090154610d75565b6000611bc083836121ff60408051602081019091526000815290565b612dcf565b6000610bdb826130e4565b6000818152600460209081526040918290206001810180548451818502810185019095528085529193611a229390929083018282801561227857602002820191906000526020600020905b81546001600160a01b0316815260019091019060200180831161225a575b5050505050826002018054806020026020016040519081016040528092919081815260200182805480156122cb57602002820191906000526020600020905b8154815260200190600101908083116122b7575b505050505061247384600301805480602002602001604051908101604052809291908181526020016000905b828210156123a35783829060005260206000200180546123169061518d565b80601f01602080910402602001604051908101604052809291908181526020018280546123429061518d565b801561238f5780601f106123645761010080835404028352916020019161238f565b820191906000526020600020905b81548152906001019060200180831161237257829003601f168201915b5050505050815260200190600101906122f7565b50505060048701805460408051602080840282018101909252828152935060009084015b82821015611a0f5783829060005260206000200180546123e69061518d565b80601f01602080910402602001604051908101604052809291908181526020018280546124129061518d565b801561245f5780601f106124345761010080835404028352916020019161245f565b820191906000526020600020905b81548152906001019060200180831161244257829003601f168201915b5050505050815260200190600101906123c7565b84600901546110cc565b60006001600160e01b031982167f6e665ced000000000000000000000000000000000000000000000000000000001480610bdb5750610bdb8261316b565b600554604080517f02a251a300000000000000000000000000000000000000000000000000000000815290516000926001600160a01b0316916302a251a39160048083019260209291908290030181865afa15801561251e573d6000803e3d6000fd5b505050506040513d601f19601f82011682018060405250810190610b2291906151c1565b6000610bdb61254f6131a9565b836040517f19010000000000000000000000000000000000000000000000000000000000006020820152602281018390526042810182905260009060620160405160208183030381529060405280519060200120905092915050565b60008060006125bc878787876132d0565b91509150611397816133bd565b60008581526001602081905260408220906125e3886116ee565b60078111156125f4576125f4614bec565b146126675760405162461bcd60e51b815260206004820152602560248201527f4368616e63656c6c6f723a20766f7465206e6f742063757272656e746c79206160448201527f63746976650000000000000000000000000000000000000000000000000000006064820152608401610df7565b6040805160208101909152600282015467ffffffffffffffff169081905260009061269490889086612dcf565b90506126a38888888488613573565b83516000036126f857866001600160a01b03167fb8e138887d0aa13bab447e82de9d5c1777041ecd21ca36ba824ff1e6c07ddda4898884896040516126eb94939291906153d8565b60405180910390a26116e3565b866001600160a01b03167fe2babfbac5889a709b63bb7f598b324e08bc5a4fb9ec647fb3cbc9ec07eb87128988848989604051612739959493929190615400565b60405180910390a2979650505050505050565b60006127678254600f81810b600160801b909204900b131590565b1561279e576040517f3db2a12a00000000000000000000000000000000000000000000000000000000815260040160405180910390fd5b508054600f0b6000818152600180840160205260408220805492905583547fffffffffffffffffffffffffffffffff000000000000000000000000000000001692016fffffffffffffffffffffffffffffffff169190911790915590565b600554604080516001600160a01b03928316815291831660208301527f304e188ff78544bf68047712e88b34e09b3e2f53411c33ea1f31c8db03239552910160405180910390a1600580546001600160a01b0319166001600160a01b0392909216919091179055565b6005546040517f9f6defe20000000000000000000000000000000000000000000000000000000081526000916001600160a01b031690639f6defe2906128af9085906004016147d9565b602060405180830381865afa1580156128cc573d6000803e3d6000fd5b505050506040513d601f19601f82011682018060405250810190610bdb9190615446565b6005546040517fc30d34f80000000000000000000000000000000000000000000000000000000081526001600160a01b038381166004830152600092169063c30d34f8906024016128af565b30612945610b0e565b6001600160a01b031614611e5b5760005b84518110156129d557306001600160a01b031685828151811061297b5761297b615461565b60200260200101516001600160a01b0316036129c5576129c58382815181106129a6576129a6615461565b602002602001015180519060200120600261373e90919063ffffffff16565b6129ce81615477565b9050612956565b505050505050565b611e5b8585858585613783565b306129f3610b0e565b6001600160a01b031614611e5b57600254600f81810b600160801b909204900b1315611e5b576000600255611e5b565b600554604080517f3932abb100000000000000000000000000000000000000000000000000000000815290516000926001600160a01b031691633932abb19160048083019260209291908290030181865afa15801561251e573d6000803e3d6000fd5b6000611afa85858585612aa460408051602081019091526000815290565b6125c9565b600080612ab583613810565b90506004816007811115612acb57612acb614bec565b14612ad65792915050565b60008381526007602052604090205480612af1575092915050565b6006546040517f2ab0f529000000000000000000000000000000000000000000000000000000008152600481018390526001600160a01b0390911690632ab0f52990602401602060405180830381865afa158015612b53573d6000803e3d6000fd5b505050506040513d601f19601f82011682018060405250810190612b779190615446565b15612b86575060079392505050565b6006546040517f584b153e000000000000000000000000000000000000000000000000000000008152600481018390526001600160a01b039091169063584b153e90602401602060405180830381865afa158015612be8573d6000803e3d6000fd5b505050506040513d601f19601f82011682018060405250810190612c0c9190615446565b15612c1b575060059392505050565b5060029392505050565b60606000825167ffffffffffffffff811115612c4357612c4361461d565b604051908082528060200260200182016040528015612c7657816020015b6060815260200190600190039081612c615790505b50905060005b8451811015612d5057848181518110612c9757612c97615461565b602002602001015151600014612d0757848181518110612cb957612cb9615461565b602002602001015180519060200120848281518110612cda57612cda615461565b6020026020010151604051602001612cf3929190615490565b604051602081830303815290604052612d22565b838181518110612d1957612d19615461565b60200260200101515b828281518110612d3457612d34615461565b602002602001018190525080612d4990615477565b9050612c7c565b509392505050565b6000611afa85858585613922565b6000612dc3338686865167ffffffffffffffff811115612d8857612d8861461d565b604051908082528060200260200182016040528015612dbb57816020015b6060815260200190600190039081612da65790505b508787613027565b611afa858585856139ed565b6005546000906001600160a01b031663f8ef763b8585612dfa60408051602081019091526000815290565b6040518463ffffffff1660e01b8152600401612e18939291906154c0565b602060405180830381865afa158015612e35573d6000803e3d6000fd5b505050506040513d601f19601f82011682018060405250810190611bbd91906151c1565b600654604080516001600160a01b03928316815291831660208301527f08f74ea46ef7894f65eabfb5e6e695de773a000b47c529ab559178069b226401910160405180910390a1600680546001600160a01b0319166001600160a01b0392909216919091179055565b600554604080517fb58131b000000000000000000000000000000000000000000000000000000000815290516000926001600160a01b03169163b58131b09160048083019260209291908290030181865afa15801561251e573d6000803e3d6000fd5b6060611bbd84848460405180606001604052806029815260200161570660299139613b5c565b60008181526004602052604081206005810154612f6a610af6856113a1565b11159392505050565b606060048251612f8391906154e8565b67ffffffffffffffff811115612f9b57612f9b61461d565b604051908082528060200260200182016040528015612fc4578160200160208202803683370190505b50905060005b815181101561302157612fe8612fe182600461550a565b8490613c99565b828281518110612ffa57612ffa615461565b63ffffffff909216602092830291909101909101528061301981615477565b915050612fca565b50919050565b805160208201206000613045878761303f8888612c25565b85611e62565b60008181526004602052604090206009810154919250906130d95780546001600160a01b0319166001600160a01b038a16178155875161308e90600183019060208b01906143b2565b5086516130a490600283019060208a0190614413565b5085516130ba906003830190602089019061444e565b5084516130d090600483019060208801906144a0565b50600981018390555b505050505050505050565b6005546040517ff8ce560a000000000000000000000000000000000000000000000000000000008152600481018390526000916001600160a01b03169063f8ce560a90602401602060405180830381865afa158015613147573d6000803e3d6000fd5b505050506040513d601f19601f82011682018060405250810190610bdb91906151c1565b60006001600160e01b031982167fa6e5b8e6000000000000000000000000000000000000000000000000000000001480610bdb5750610bdb82613cff565b6000306001600160a01b037f00000000000000000000000000000000000000000000000000000000000000001614801561320257507f000000000000000000000000000000000000000000000000000000000000000046145b1561322c57507f000000000000000000000000000000000000000000000000000000000000000090565b50604080517f00000000000000000000000000000000000000000000000000000000000000006020808301919091527f0000000000000000000000000000000000000000000000000000000000000000828401527f000000000000000000000000000000000000000000000000000000000000000060608301524660808301523060a0808401919091528351808403909101815260c0909201909252805191012090565b6000807f7fffffffffffffffffffffffffffffff5d576e7357a4501ddfe92f46681b20a083111561330757506000905060036133b4565b8460ff16601b1415801561331f57508460ff16601c14155b1561333057506000905060046133b4565b6040805160008082526020820180845289905260ff881692820192909252606081018690526080810185905260019060a0016020604051602081039080840390855afa158015613384573d6000803e3d6000fd5b5050604051601f1901519150506001600160a01b0381166133ad576000600192509250506133b4565b9150600090505b94509492505050565b60008160048111156133d1576133d1614bec565b036133d95750565b60018160048111156133ed576133ed614bec565b0361343a5760405162461bcd60e51b815260206004820152601860248201527f45434453413a20696e76616c6964207369676e617475726500000000000000006044820152606401610df7565b600281600481111561344e5761344e614bec565b0361349b5760405162461bcd60e51b815260206004820152601f60248201527f45434453413a20696e76616c6964207369676e6174757265206c656e677468006044820152606401610df7565b60038160048111156134af576134af614bec565b036135075760405162461bcd60e51b815260206004820152602260248201527f45434453413a20696e76616c6964207369676e6174757265202773272076616c604482015261756560f01b6064820152608401610df7565b600481600481111561351b5761351b614bec565b036110b95760405162461bcd60e51b815260206004820152602260248201527f45434453413a20696e76616c6964207369676e6174757265202776272076616c604482015261756560f01b6064820152608401610df7565b60008581526004602090815260408083206001600160a01b038816845260088101909252909120805460ff16156136125760405162461bcd60e51b815260206004820152602f60248201527f4368616e63656c6c6f72436f6d7061746962696c697479427261766f3a20766f60448201527f746520616c7265616479206361737400000000000000000000000000000000006064820152608401610df7565b805460ff86166101000261ffff1990911617600117815561363284613dce565b81546bffffffffffffffffffffffff9190911662010000026dffffffffffffffffffffffff00001990911617815560ff8516613687578382600601600082825461367c9190615296565b909155506137359050565b60001960ff8616016136a7578382600501600082825461367c9190615296565b60011960ff8616016136c7578382600701600082825461367c9190615296565b60405162461bcd60e51b815260206004820152602f60248201527f4368616e63656c6c6f72436f6d7061746962696c697479427261766f3a20696e60448201527f76616c696420766f7465207479706500000000000000000000000000000000006064820152608401610df7565b50505050505050565b8154600160801b90819004600f0b6000818152600180860160205260409091209390935583546fffffffffffffffffffffffffffffffff908116939091011602179055565b6006546040517fe38335e50000000000000000000000000000000000000000000000000000000081526001600160a01b039091169063e38335e59034906137d79088908890889060009089906004016151da565b6000604051808303818588803b1580156137f057600080fd5b505af1158015613804573d6000803e3d6000fd5b50505050505050505050565b6000818152600160205260408120600481015460ff16156138345750600792915050565b6004810154610100900460ff161561384f5750600292915050565b600061385a846113a1565b9050806000036138ac5760405162461bcd60e51b815260206004820152601f60248201527f4368616e63656c6c6f723a20756e6b6e6f776e2070726f706f73616c206964006044820152606401610df7565b4381106138bd575060009392505050565b60006138c885611d3b565b90504381106138dc57506001949350505050565b6138e585612f4b565b8015613907575060008581526004602052604090206006810154600590910154115b1561391757506004949350505050565b506003949350505050565b60008061393186868686613e56565b60008181526007602052604090205490915015611afa57600654600082815260076020526040908190205490517fc4d252f50000000000000000000000000000000000000000000000000000000081526001600160a01b039092169163c4d252f5916139a39160040190815260200190565b600060405180830381600087803b1580156139bd57600080fd5b505af11580156139d1573d6000803e3d6000fd5b5050506000828152600760205260408120555095945050505050565b600080600080600080600080613a01611b03565b965096509650965096509650965081613a825760405162461bcd60e51b815260206004820152602b60248201527f4368616e63656c6c6f723a3a53656e61746f7220696e2071756172616e74696e60448201527f65206f722062616e6e65640000000000000000000000000000000000000000006064820152608401610df7565b80613af55760405162461bcd60e51b815260206004820152603860248201527f4368616e63656c6c6f723a3a53656e61746f7220726570726573656e7473206f60448201527f6e65206f72206d6f726520696e617074204d656d6265727300000000000000006064820152608401610df7565b613b4c8c8c8c8c6040518060a001604052808d8152602001613b168d613f62565b67ffffffffffffffff168152602001613b2e8c613f62565b67ffffffffffffffff1681526020018a815260200189815250613fe2565b9c9b505050505050505050505050565b606082471015613bd45760405162461bcd60e51b815260206004820152602660248201527f416464726573733a20696e73756666696369656e742062616c616e636520666f60448201527f722063616c6c00000000000000000000000000000000000000000000000000006064820152608401610df7565b6001600160a01b0385163b613c2b5760405162461bcd60e51b815260206004820152601d60248201527f416464726573733a2063616c6c20746f206e6f6e2d636f6e74726163740000006044820152606401610df7565b600080866001600160a01b03168587604051613c479190615529565b60006040518083038185875af1925050503d8060008114613c84576040519150601f19603f3d011682016040523d82523d6000602084013e613c89565b606091505b50915091506116e3828286614379565b6000613ca6826004615296565b83511015613cf65760405162461bcd60e51b815260206004820152601460248201527f746f55696e7433325f6f75744f66426f756e64730000000000000000000000006044820152606401610df7565b50016004015190565b60006001600160e01b031982167f3a9263c4000000000000000000000000000000000000000000000000000000001480613d6257506001600160e01b031982167ffc69c23c00000000000000000000000000000000000000000000000000000000145b80613d9657506001600160e01b031982167f4e2312e000000000000000000000000000000000000000000000000000000000145b80610bdb57507f01ffc9a7000000000000000000000000000000000000000000000000000000006001600160e01b0319831614610bdb565b60006bffffffffffffffffffffffff821115613e525760405162461bcd60e51b815260206004820152602660248201527f53616665436173743a2076616c756520646f65736e27742066697420696e203960448201527f36206269747300000000000000000000000000000000000000000000000000006064820152608401610df7565b5090565b600080613e6586868686611e62565b90506000613e72826116ee565b90506002816007811115613e8857613e88614bec565b14158015613ea857506006816007811115613ea557613ea5614bec565b14155b8015613ec657506007816007811115613ec357613ec3614bec565b14155b613f125760405162461bcd60e51b815260206004820152601f60248201527f4368616e63656c6c6f723a2070726f706f73616c206e6f7420616374697665006044820152606401610df7565b60008281526001602052604090819020600401805461ff001916610100179055517f789cf55be980739dad1d0699b93b58e806b51c9d96619bfa8fe0a28abaa7b30c90610ff09084815260200190565b600067ffffffffffffffff821115613e525760405162461bcd60e51b815260206004820152602660248201527f53616665436173743a2076616c756520646f65736e27742066697420696e203660448201527f34206269747300000000000000000000000000000000000000000000000000006064820152608401610df7565b60008160000151826080015110156140625760405162461bcd60e51b815260206004820152603360248201527f4368616e63656c6c6f723a2070726f706f73657220766f7465732062656c6f7760448201527f2070726f706f73616c207468726573686f6c64000000000000000000000000006064820152608401610df7565b60006140778787878780519060200120611e62565b905085518751146140d65760405162461bcd60e51b815260206004820152602360248201527f4368616e63656c6c6f723a20696e76616c69642070726f706f73616c206c656e6044820152620cee8d60eb1b6064820152608401610df7565b84518751146141335760405162461bcd60e51b815260206004820152602360248201527f4368616e63656c6c6f723a20696e76616c69642070726f706f73616c206c656e6044820152620cee8d60eb1b6064820152608401610df7565b60008751116141845760405162461bcd60e51b815260206004820152601a60248201527f4368616e63656c6c6f723a20656d7074792070726f706f73616c0000000000006044820152606401610df7565b600081815260016020908152604091829020825191820190925260029091015467ffffffffffffffff1690819052156142255760405162461bcd60e51b815260206004820152602360248201527f4368616e63656c6c6f723a2070726f706f73616c20616c72656164792065786960448201527f73747300000000000000000000000000000000000000000000000000000000006064820152608401610df7565b6000836020015161423543613f62565b61423f9190615545565b905060008460400151826142539190615545565b600084815260016020526040902080546001600160a01b03191633178155600201805467ffffffffffffffff851667ffffffffffffffff199091161790559050600083815260016020819052604090912060038101805467ffffffffffffffff851667ffffffffffffffff1990911617905560608701519101906142d790826155b3565b507f7d84a6263ae0d98d3329bd7b46bb4e8d6f98cd35a7adb45c274c8b7fd5ebd5e083338b8b8d5167ffffffffffffffff8111156143175761431761461d565b60405190808252806020026020018201604052801561434a57816020015b60608152602001906001900390816143355790505b508c88888e60405161436499989796959493929190615673565b60405180910390a15090979650505050505050565b60608315614388575081611bc0565b8251156143985782518084602001fd5b8160405162461bcd60e51b8152600401610df791906147d9565b828054828255906000526020600020908101928215614407579160200282015b8281111561440757825182546001600160a01b0319166001600160a01b039091161782556020909201916001909101906143d2565b50613e529291506144f2565b828054828255906000526020600020908101928215614407579160200282015b82811115614407578251825591602001919060010190614433565b828054828255906000526020600020908101928215614494579160200282015b82811115614494578251829061448490826155b3565b509160200191906001019061446e565b50613e52929150614507565b8280548282559060005260206000209081019282156144e6579160200282015b828111156144e657825182906144d690826155b3565b50916020019190600101906144c0565b50613e52929150614524565b5b80821115613e5257600081556001016144f3565b80821115613e5257600061451b8282614541565b50600101614507565b80821115613e525760006145388282614541565b50600101614524565b50805461454d9061518d565b6000825580601f1061455d575050565b601f0160209004906000526020600020908101906110b991906144f2565b60006020828403121561458d57600080fd5b5035919050565b6000602082840312156145a657600080fd5b81356001600160e01b031981168114611bc057600080fd5b803560ff811681146145cf57600080fd5b919050565b60008083601f8401126145e657600080fd5b50813567ffffffffffffffff8111156145fe57600080fd5b60208301915083602082850101111561461657600080fd5b9250929050565b634e487b7160e01b600052604160045260246000fd5b604051601f8201601f1916810167ffffffffffffffff8111828210171561465c5761465c61461d565b604052919050565b600067ffffffffffffffff82111561467e5761467e61461d565b50601f01601f191660200190565b600082601f83011261469d57600080fd5b81356146b06146ab82614664565b614633565b8181528460208386010111156146c557600080fd5b816020850160208301376000918101602001919091529392505050565b60008060008060008060008060e0898b0312156146fe57600080fd5b8835975061470e60208a016145be565b9650604089013567ffffffffffffffff8082111561472b57600080fd5b6147378c838d016145d4565b909850965060608b013591508082111561475057600080fd5b5061475d8b828c0161468c565b94505061476c60808a016145be565b925060a0890135915060c089013590509295985092959890939650565b60005b838110156147a457818101518382015260200161478c565b50506000910152565b600081518084526147c5816020860160208601614789565b601f01601f19169290920160200192915050565b602081526000611bc060208301846147ad565b6001600160a01b03811681146110b957600080fd5b6000806000806080858703121561481757600080fd5b8435614822816147ec565b93506020850135614832816147ec565b925060408501359150606085013567ffffffffffffffff81111561485557600080fd5b6148618782880161468c565b91505092959194509250565b600067ffffffffffffffff8211156148875761488761461d565b5060051b60200190565b600082601f8301126148a257600080fd5b813560206148b26146ab8361486d565b82815260059290921b840181019181810190868411156148d157600080fd5b8286015b848110156148f55780356148e8816147ec565b83529183019183016148d5565b509695505050505050565b600082601f83011261491157600080fd5b813560206149216146ab8361486d565b82815260059290921b8401810191818101908684111561494057600080fd5b8286015b848110156148f55780358352918301918301614944565b600082601f83011261496c57600080fd5b8135602061497c6146ab8361486d565b82815260059290921b8401810191818101908684111561499b57600080fd5b8286015b848110156148f557803567ffffffffffffffff8111156149bf5760008081fd5b6149cd8986838b010161468c565b84525091830191830161499f565b600080600080608085870312156149f157600080fd5b843567ffffffffffffffff80821115614a0957600080fd5b614a1588838901614891565b95506020870135915080821115614a2b57600080fd5b614a3788838901614900565b94506040870135915080821115614a4d57600080fd5b50614a5a8782880161495b565b949793965093946060013593505050565b600060208284031215614a7d57600080fd5b8135611bc0816147ec565b600081518084526020808501945080840160005b83811015614ac15781516001600160a01b031687529582019590820190600101614a9c565b509495945050505050565b600081518084526020808501945080840160005b83811015614ac157815187529582019590820190600101614ae0565b600081518084526020808501808196508360051b8101915082860160005b85811015614b44578284038952614b328483516147ad565b98850198935090840190600101614b1a565b5091979650505050505050565b608081526000614b646080830187614a88565b8281036020840152614b768187614acc565b90508281036040840152614b8a8186614afc565b905082810360608401526116e38185614afc565b600080600080600060a08688031215614bb657600080fd5b85359450614bc6602087016145be565b9350614bd4604087016145be565b94979396509394606081013594506080013592915050565b634e487b7160e01b600052602160045260246000fd5b6020810160088310614c2457634e487b7160e01b600052602160045260246000fd5b91905290565b60008060408385031215614c3d57600080fd5b823591506020830135614c4f816147ec565b809150509250929050565b60008060408385031215614c6d57600080fd5b82359150614c7d602084016145be565b90509250929050565b600080600080600060808688031215614c9e57600080fd5b85359450614cae602087016145be565b9350604086013567ffffffffffffffff80821115614ccb57600080fd5b614cd789838a016145d4565b90955093506060880135915080821115614cf057600080fd5b50614cfd8882890161468c565b9150509295509295909350565b60008060008060608587031215614d2057600080fd5b84359350614d30602086016145be565b9250604085013567ffffffffffffffff811115614d4c57600080fd5b614d58878288016145d4565b95989497509550505050565b60008060008060808587031215614d7a57600080fd5b843567ffffffffffffffff80821115614d9257600080fd5b614d9e88838901614891565b95506020870135915080821115614db457600080fd5b614dc088838901614900565b94506040870135915080821115614dd657600080fd5b614de28883890161495b565b93506060870135915080821115614df857600080fd5b506148618782880161468c565b87815286602082015285604082015260e060608201526000614e2a60e08301876147ad565b60808301959095525091151560a0830152151560c090910152949350505050565b600080600060608486031215614e6057600080fd5b8335614e6b816147ec565b925060208401359150604084013567ffffffffffffffff811115614e8e57600080fd5b614e9a8682870161468c565b9150509250925092565b600080600080600060a08688031215614ebc57600080fd5b8535614ec7816147ec565b94506020860135614ed7816147ec565b9350604086013567ffffffffffffffff80821115614ef457600080fd5b614f0089838a01614900565b94506060880135915080821115614f1657600080fd5b614f2289838a01614900565b93506080880135915080821115614cf057600080fd5b60008060008060608587031215614f4e57600080fd5b8435614f59816147ec565b935060208501359250604085013567ffffffffffffffff811115614d4c57600080fd5b6020808252825182820181905260009190848201906040850190845b81811015614fba57835163ffffffff1683529284019291840191600101614f98565b50909695505050505050565b600082601f830112614fd757600080fd5b81356020614fe76146ab8361486d565b82815260059290921b8401810191818101908684111561500657600080fd5b8286015b848110156148f557803567ffffffffffffffff81111561502a5760008081fd5b6150388986838b010161468c565b84525091830191830161500a565b600080600080600060a0868803121561505e57600080fd5b853567ffffffffffffffff8082111561507657600080fd5b61508289838a01614891565b9650602088013591508082111561509857600080fd5b6150a489838a01614900565b955060408801359150808211156150ba57600080fd5b6150c689838a01614fc6565b945060608801359150808211156150dc57600080fd5b614f2289838a0161495b565b600080604083850312156150fb57600080fd5b8235615106816147ec565b946020939093013593505050565b600080600080600060a0868803121561512c57600080fd5b8535615137816147ec565b94506020860135615147816147ec565b93506040860135925060608601359150608086013567ffffffffffffffff81111561517157600080fd5b614cfd8882890161468c565b8183823760009101908152919050565b600181811c908216806151a157607f821691505b60208210810361302157634e487b7160e01b600052602260045260246000fd5b6000602082840312156151d357600080fd5b5051919050565b60a0815260006151ed60a0830188614a88565b82810360208401526151ff8188614acc565b905082810360408401526152138187614afc565b60608401959095525050608001529392505050565b60c08152600061523b60c0830189614a88565b828103602084015261524d8189614acc565b905082810360408401526152618188614afc565b60608401969096525050608081019290925260a0909101529392505050565b634e487b7160e01b600052601160045260246000fd5b80820180821115610bdb57610bdb615280565b81810381811115610bdb57610bdb615280565b805180151581146145cf57600080fd5b600080600080600080600060e0888a0312156152e757600080fd5b875196506020880151955060408801519450606088015167ffffffffffffffff81111561531357600080fd5b8801601f81018a1361532457600080fd5b80516153326146ab82614664565b8181528b602083850101111561534757600080fd5b615358826020830160208601614789565b8096505050506080880151925061537160a089016152bc565b915061537f60c089016152bc565b905092959891949750929550565b6080815260006153a06080830187614a88565b82810360208401526153b28187614acc565b905082810360408401526153c68186614afc565b91505082606083015295945050505050565b84815260ff84166020820152826040820152608060608201526000611ae260808301846147ad565b85815260ff8516602082015283604082015260a06060820152600061542860a08301856147ad565b828103608084015261543a81856147ad565b98975050505050505050565b60006020828403121561545857600080fd5b611bc0826152bc565b634e487b7160e01b600052603260045260246000fd5b60006001820161548957615489615280565b5060010190565b6001600160e01b031983168152600082516154b2816004850160208701614789565b919091016004019392505050565b6001600160a01b0384168152826020820152606060408201526000611afa60608301846147ad565b60008261550557634e487b7160e01b600052601260045260246000fd5b500490565b600081600019048311821515161561552457615524615280565b500290565b6000825161553b818460208701614789565b9190910192915050565b67ffffffffffffffff81811683821601908082111561556657615566615280565b5092915050565b601f821115611a2257600081815260208120601f850160051c810160208610156155945750805b601f850160051c820191505b818110156129d5578281556001016155a0565b815167ffffffffffffffff8111156155cd576155cd61461d565b6155e1816155db845461518d565b8461556d565b602080601f83116001811461561657600084156155fe5750858301515b600019600386901b1c1916600185901b1785556129d5565b600085815260208120601f198616915b8281101561564557888601518255948401946001909101908401615626565b50858210156156635787850151600019600388901b60f8161c191681555b5050505050600190811b01905550565b60006101208b83526001600160a01b038b16602084015280604084015261569c8184018b614a88565b905082810360608401526156b0818a614acc565b905082810360808401526156c48189614afc565b905082810360a08401526156d88188614afc565b67ffffffffffffffff87811660c0860152861660e08501528381036101008501529050613b4c81856147ad56fe416464726573733a206c6f772d6c6576656c2063616c6c20776974682076616c7565206661696c6564a264697066735822122068035732abf26c4110cf21bce41508f274b889dc7ce7d48cb6c1ced73bee535b64736f6c63430008100033"
}