{
  "address": "0x202CCe504e04bEd6fC0521238dDf04Bc9E8E15aB",
  "abi": [
    {
      "inputs": [],
      "stateMutability": "nonpayable",
      "type": "constructor"
    },
    {
      "anonymous": false,
      "inputs": [
        {
          "indexed": true,
          "internalType": "address",
          "name": "owner",
          "type": "address"
        },
        {
          "indexed": true,
          "internalType": "address",
          "name": "approved",
          "type": "address"
        },
        {
          "indexed": true,
          "internalType": "uint256",
          "name": "tokenId",
          "type": "uint256"
        }
      ],
      "name": "Approval",
      "type": "event"
    },
    {
      "anonymous": false,
      "inputs": [
        {
          "indexed": true,
          "internalType": "address",
          "name": "owner",
          "type": "address"
        },
        {
          "indexed": true,
          "internalType": "address",
          "name": "operator",
          "type": "address"
        },
        {
          "indexed": false,
          "internalType": "bool",
          "name": "approved",
          "type": "bool"
        }
      ],
      "name": "ApprovalForAll",
      "type": "event"
    },
    {
      "anonymous": false,
      "inputs": [
        {
          "indexed": true,
          "internalType": "address",
          "name": "delegator",
          "type": "address"
        },
        {
          "indexed": true,
          "internalType": "address",
          "name": "fromDelegate",
          "type": "address"
        },
        {
          "indexed": true,
          "internalType": "address",
          "name": "toDelegate",
          "type": "address"
        }
      ],
      "name": "DelegateChanged",
      "type": "event"
    },
    {
      "anonymous": false,
      "inputs": [
        {
          "indexed": true,
          "internalType": "address",
          "name": "delegate",
          "type": "address"
        },
        {
          "indexed": false,
          "internalType": "uint256",
          "name": "previousBalance",
          "type": "uint256"
        },
        {
          "indexed": false,
          "internalType": "uint256",
          "name": "newBalance",
          "type": "uint256"
        }
      ],
      "name": "DelegateVotesChanged",
      "type": "event"
    },
    {
      "anonymous": false,
      "inputs": [
        {
          "indexed": false,
          "internalType": "uint8",
          "name": "version",
          "type": "uint8"
        }
      ],
      "name": "Initialized",
      "type": "event"
    },
    {
      "anonymous": false,
      "inputs": [
        {
          "indexed": true,
          "internalType": "address",
          "name": "previousOwner",
          "type": "address"
        },
        {
          "indexed": true,
          "internalType": "address",
          "name": "newOwner",
          "type": "address"
        }
      ],
      "name": "OwnershipTransferred",
      "type": "event"
    },
    {
      "anonymous": false,
      "inputs": [
        {
          "indexed": false,
          "internalType": "address",
          "name": "account",
          "type": "address"
        }
      ],
      "name": "Paused",
      "type": "event"
    },
    {
      "anonymous": false,
      "inputs": [
        {
          "indexed": true,
          "internalType": "address",
          "name": "oldSenate",
          "type": "address"
        },
        {
          "indexed": true,
          "internalType": "address",
          "name": "newSenate",
          "type": "address"
        }
      ],
      "name": "SenateChanged",
      "type": "event"
    },
    {
      "anonymous": false,
      "inputs": [
        {
          "indexed": true,
          "internalType": "address",
          "name": "from",
          "type": "address"
        },
        {
          "indexed": true,
          "internalType": "address",
          "name": "to",
          "type": "address"
        },
        {
          "indexed": true,
          "internalType": "uint256",
          "name": "tokenId",
          "type": "uint256"
        }
      ],
      "name": "Transfer",
      "type": "event"
    },
    {
      "anonymous": false,
      "inputs": [
        {
          "indexed": false,
          "internalType": "address",
          "name": "account",
          "type": "address"
        }
      ],
      "name": "Unpaused",
      "type": "event"
    },
    {
      "inputs": [],
      "name": "DOMAIN_SEPARATOR",
      "outputs": [
        {
          "internalType": "bytes32",
          "name": "",
          "type": "bytes32"
        }
      ],
      "stateMutability": "view",
      "type": "function"
    },
    {
      "inputs": [
        {
          "internalType": "address",
          "name": "to",
          "type": "address"
        },
        {
          "internalType": "uint256",
          "name": "tokenId",
          "type": "uint256"
        }
      ],
      "name": "approve",
      "outputs": [],
      "stateMutability": "nonpayable",
      "type": "function"
    },
    {
      "inputs": [
        {
          "internalType": "address",
          "name": "owner",
          "type": "address"
        }
      ],
      "name": "balanceOf",
      "outputs": [
        {
          "internalType": "uint256",
          "name": "",
          "type": "uint256"
        }
      ],
      "stateMutability": "view",
      "type": "function"
    },
    {
      "inputs": [
        {
          "internalType": "address",
          "name": "delegatee",
          "type": "address"
        }
      ],
      "name": "delegate",
      "outputs": [],
      "stateMutability": "nonpayable",
      "type": "function"
    },
    {
      "inputs": [
        {
          "internalType": "address",
          "name": "delegatee",
          "type": "address"
        },
        {
          "internalType": "uint256",
          "name": "nonce",
          "type": "uint256"
        },
        {
          "internalType": "uint256",
          "name": "expiry",
          "type": "uint256"
        },
        {
          "internalType": "uint8",
          "name": "v",
          "type": "uint8"
        },
        {
          "internalType": "bytes32",
          "name": "r",
          "type": "bytes32"
        },
        {
          "internalType": "bytes32",
          "name": "s",
          "type": "bytes32"
        }
      ],
      "name": "delegateBySig",
      "outputs": [],
      "stateMutability": "nonpayable",
      "type": "function"
    },
    {
      "inputs": [
        {
          "internalType": "address",
          "name": "account",
          "type": "address"
        }
      ],
      "name": "delegates",
      "outputs": [
        {
          "internalType": "address",
          "name": "",
          "type": "address"
        }
      ],
      "stateMutability": "view",
      "type": "function"
    },
    {
      "inputs": [
        {
          "internalType": "uint256",
          "name": "tokenId",
          "type": "uint256"
        }
      ],
      "name": "getApproved",
      "outputs": [
        {
          "internalType": "address",
          "name": "",
          "type": "address"
        }
      ],
      "stateMutability": "view",
      "type": "function"
    },
    {
      "inputs": [
        {
          "internalType": "uint256",
          "name": "blockNumber",
          "type": "uint256"
        }
      ],
      "name": "getPastTotalSupply",
      "outputs": [
        {
          "internalType": "uint256",
          "name": "",
          "type": "uint256"
        }
      ],
      "stateMutability": "view",
      "type": "function"
    },
    {
      "inputs": [
        {
          "internalType": "address",
          "name": "account",
          "type": "address"
        },
        {
          "internalType": "uint256",
          "name": "blockNumber",
          "type": "uint256"
        }
      ],
      "name": "getPastVotes",
      "outputs": [
        {
          "internalType": "uint256",
          "name": "",
          "type": "uint256"
        }
      ],
      "stateMutability": "view",
      "type": "function"
    },
    {
      "inputs": [],
      "name": "getSenateAddress",
      "outputs": [
        {
          "internalType": "address",
          "name": "",
          "type": "address"
        }
      ],
      "stateMutability": "view",
      "type": "function"
    },
    {
      "inputs": [],
      "name": "getSenateSnapshot",
      "outputs": [
        {
          "components": [
            {
              "internalType": "address",
              "name": "senator",
              "type": "address"
            },
            {
              "internalType": "uint256",
              "name": "votes",
              "type": "uint256"
            }
          ],
          "internalType": "struct ISenatorVotesUpgradeable.senateSnapshot[]",
          "name": "",
          "type": "tuple[]"
        }
      ],
      "stateMutability": "view",
      "type": "function"
    },
    {
      "inputs": [],
      "name": "getTotalSupply",
      "outputs": [
        {
          "internalType": "uint256",
          "name": "",
          "type": "uint256"
        }
      ],
      "stateMutability": "view",
      "type": "function"
    },
    {
      "inputs": [
        {
          "internalType": "address",
          "name": "account",
          "type": "address"
        }
      ],
      "name": "getVotes",
      "outputs": [
        {
          "internalType": "uint256",
          "name": "",
          "type": "uint256"
        }
      ],
      "stateMutability": "view",
      "type": "function"
    },
    {
      "inputs": [
        {
          "internalType": "contract ISenateUpgradeable",
          "name": "_senate",
          "type": "address"
        }
      ],
      "name": "initialize",
      "outputs": [],
      "stateMutability": "nonpayable",
      "type": "function"
    },
    {
      "inputs": [
        {
          "internalType": "address",
          "name": "owner",
          "type": "address"
        },
        {
          "internalType": "address",
          "name": "operator",
          "type": "address"
        }
      ],
      "name": "isApprovedForAll",
      "outputs": [
        {
          "internalType": "bool",
          "name": "",
          "type": "bool"
        }
      ],
      "stateMutability": "view",
      "type": "function"
    },
    {
      "inputs": [],
      "name": "name",
      "outputs": [
        {
          "internalType": "string",
          "name": "",
          "type": "string"
        }
      ],
      "stateMutability": "view",
      "type": "function"
    },
    {
      "inputs": [
        {
          "internalType": "address",
          "name": "owner",
          "type": "address"
        }
      ],
      "name": "nonces",
      "outputs": [
        {
          "internalType": "uint256",
          "name": "",
          "type": "uint256"
        }
      ],
      "stateMutability": "view",
      "type": "function"
    },
    {
      "inputs": [],
      "name": "owner",
      "outputs": [
        {
          "internalType": "address",
          "name": "",
          "type": "address"
        }
      ],
      "stateMutability": "view",
      "type": "function"
    },
    {
      "inputs": [
        {
          "internalType": "uint256",
          "name": "tokenId",
          "type": "uint256"
        }
      ],
      "name": "ownerOf",
      "outputs": [
        {
          "internalType": "address",
          "name": "",
          "type": "address"
        }
      ],
      "stateMutability": "view",
      "type": "function"
    },
    {
      "inputs": [],
      "name": "pause",
      "outputs": [],
      "stateMutability": "nonpayable",
      "type": "function"
    },
    {
      "inputs": [],
      "name": "paused",
      "outputs": [
        {
          "internalType": "bool",
          "name": "",
          "type": "bool"
        }
      ],
      "stateMutability": "view",
      "type": "function"
    },
    {
      "inputs": [],
      "name": "renounceOwnership",
      "outputs": [],
      "stateMutability": "nonpayable",
      "type": "function"
    },
    {
      "inputs": [
        {
          "internalType": "address",
          "name": "to",
          "type": "address"
        }
      ],
      "name": "safeMint",
      "outputs": [],
      "stateMutability": "nonpayable",
      "type": "function"
    },
    {
      "inputs": [
        {
          "internalType": "address",
          "name": "from",
          "type": "address"
        },
        {
          "internalType": "address",
          "name": "to",
          "type": "address"
        },
        {
          "internalType": "uint256",
          "name": "tokenId",
          "type": "uint256"
        }
      ],
      "name": "safeTransferFrom",
      "outputs": [],
      "stateMutability": "nonpayable",
      "type": "function"
    },
    {
      "inputs": [
        {
          "internalType": "address",
          "name": "from",
          "type": "address"
        },
        {
          "internalType": "address",
          "name": "to",
          "type": "address"
        },
        {
          "internalType": "uint256",
          "name": "tokenId",
          "type": "uint256"
        },
        {
          "internalType": "bytes",
          "name": "data",
          "type": "bytes"
        }
      ],
      "name": "safeTransferFrom",
      "outputs": [],
      "stateMutability": "nonpayable",
      "type": "function"
    },
    {
      "inputs": [],
      "name": "senate",
      "outputs": [
        {
          "internalType": "contract ISenateUpgradeable",
          "name": "",
          "type": "address"
        }
      ],
      "stateMutability": "view",
      "type": "function"
    },
    {
      "inputs": [
        {
          "internalType": "address",
          "name": "operator",
          "type": "address"
        },
        {
          "internalType": "bool",
          "name": "approved",
          "type": "bool"
        }
      ],
      "name": "setApprovalForAll",
      "outputs": [],
      "stateMutability": "nonpayable",
      "type": "function"
    },
    {
      "inputs": [
        {
          "internalType": "contract ISenateUpgradeable",
          "name": "_senate",
          "type": "address"
        }
      ],
      "name": "setSenate",
      "outputs": [],
      "stateMutability": "nonpayable",
      "type": "function"
    },
    {
      "inputs": [
        {
          "internalType": "bytes4",
          "name": "interfaceId",
          "type": "bytes4"
        }
      ],
      "name": "supportsInterface",
      "outputs": [
        {
          "internalType": "bool",
          "name": "",
          "type": "bool"
        }
      ],
      "stateMutability": "view",
      "type": "function"
    },
    {
      "inputs": [],
      "name": "symbol",
      "outputs": [
        {
          "internalType": "string",
          "name": "",
          "type": "string"
        }
      ],
      "stateMutability": "view",
      "type": "function"
    },
    {
      "inputs": [
        {
          "internalType": "uint256",
          "name": "index",
          "type": "uint256"
        }
      ],
      "name": "tokenByIndex",
      "outputs": [
        {
          "internalType": "uint256",
          "name": "",
          "type": "uint256"
        }
      ],
      "stateMutability": "view",
      "type": "function"
    },
    {
      "inputs": [
        {
          "internalType": "address",
          "name": "owner",
          "type": "address"
        },
        {
          "internalType": "uint256",
          "name": "index",
          "type": "uint256"
        }
      ],
      "name": "tokenOfOwnerByIndex",
      "outputs": [
        {
          "internalType": "uint256",
          "name": "",
          "type": "uint256"
        }
      ],
      "stateMutability": "view",
      "type": "function"
    },
    {
      "inputs": [
        {
          "internalType": "uint256",
          "name": "tokenId",
          "type": "uint256"
        }
      ],
      "name": "tokenURI",
      "outputs": [
        {
          "internalType": "string",
          "name": "",
          "type": "string"
        }
      ],
      "stateMutability": "view",
      "type": "function"
    },
    {
      "inputs": [],
      "name": "totalSupply",
      "outputs": [
        {
          "internalType": "uint256",
          "name": "",
          "type": "uint256"
        }
      ],
      "stateMutability": "view",
      "type": "function"
    },
    {
      "inputs": [
        {
          "internalType": "address",
          "name": "from",
          "type": "address"
        },
        {
          "internalType": "address",
          "name": "to",
          "type": "address"
        },
        {
          "internalType": "uint256",
          "name": "tokenId",
          "type": "uint256"
        }
      ],
      "name": "transferFrom",
      "outputs": [],
      "stateMutability": "nonpayable",
      "type": "function"
    },
    {
      "inputs": [
        {
          "internalType": "address",
          "name": "newOwner",
          "type": "address"
        }
      ],
      "name": "transferOwnership",
      "outputs": [],
      "stateMutability": "nonpayable",
      "type": "function"
    },
    {
      "inputs": [],
      "name": "unpause",
      "outputs": [],
      "stateMutability": "nonpayable",
      "type": "function"
    }
  ],
  "numDeployments": 21,
  "bytecode": "0x60806040523480156200001157600080fd5b506200001c62000022565b620000e4565b600054610100900460ff16156200008f5760405162461bcd60e51b815260206004820152602760248201527f496e697469616c697a61626c653a20636f6e747261637420697320696e697469604482015266616c697a696e6760c81b606482015260840160405180910390fd5b60005460ff9081161015620000e2576000805460ff191660ff9081179091556040519081527f7f26b83ff96e1f2b6a682f133852f6798a09c465da95921460cefb38474024989060200160405180910390a15b565b613d7880620000f46000396000f3fe608060405234801561001057600080fd5b50600436106102775760003560e01c8063715018a611610160578063ab0e5820116100d8578063c87b56dd1161008c578063e985e9c511610071578063e985e9c514610500578063ed78026e1461053c578063f2fde38b1461055157600080fd5b8063c87b56dd146104db578063e555b2eb146104ee57600080fd5b8063c3cda520116100bd578063c3cda520146104ad578063c4d66de8146104c0578063c4e41b22146104d357600080fd5b8063ab0e582014610487578063b88d4fde1461049a57600080fd5b80638e539e8c1161012f5780639ab24eb0116101145780639ab24eb01461044d578063a22cb46514610460578063a6e5b8e61461047357600080fd5b80638e539e8c1461043257806395d89b411461044557600080fd5b8063715018a6146103fe5780637ecebe00146104065780638456cb59146104195780638da5cb5b1461042157600080fd5b80633f4ba83a116101f3578063587cde1e116101c25780635c975abb116101a75780635c975abb146103cd5780636352211e146103d857806370a08231146103eb57600080fd5b8063587cde1e1461038d5780635c19a95c146103ba57600080fd5b80633f4ba83a1461034c57806340d097c31461035457806342842e0e146103675780634f6ccce71461037a57600080fd5b806318160ddd1161024a5780632f745c591161022f5780632f745c591461031e5780633644e515146103315780633a46b1a81461033957600080fd5b806318160ddd146102f957806323b872dd1461030b57600080fd5b806301ffc9a71461027c57806306fdde03146102a4578063081812fc146102b9578063095ea7b3146102e4575b600080fd5b61028f61028a36600461370e565b610564565b60405190151581526020015b60405180910390f35b6102ac610575565b60405161029b919061377b565b6102cc6102c736600461378e565b610607565b6040516001600160a01b03909116815260200161029b565b6102f76102f23660046137bc565b61062e565b005b6099545b60405190815260200161029b565b6102f76103193660046137e8565b610764565b6102fd61032c3660046137bc565b6107eb565b6102fd610893565b6102fd6103473660046137bc565b6108a2565b6102f76108cc565b6102f7610362366004613829565b6108de565b6102f76103753660046137e8565b610911565b6102fd61038836600461378e565b61092c565b6102cc61039b366004613829565b6001600160a01b03908116600090815261016260205260409020541690565b6102f76103c8366004613829565b6109d0565b60c95460ff1661028f565b6102cc6103e636600461378e565b6109db565b6102fd6103f9366004613829565b610a40565b6102f7610ada565b6102fd610414366004613829565b610aec565b6102f7610b0b565b60fb546001600160a01b03166102cc565b6102fd61044036600461378e565b610b1b565b6102ac610b78565b6102fd61045b366004613829565b610b87565b6102f761046e366004613846565b610bb8565b610161546102cc906001600160a01b031681565b6102f7610495366004613829565b610bc3565b6102f76104a836600461389a565b610bcf565b6102f76104bb36600461397a565b610c5d565b6102f76104ce366004613829565b610d93565b6102fd610fb4565b6102ac6104e936600461378e565b610fbe565b610161546001600160a01b03166102cc565b61028f61050e3660046139dc565b6001600160a01b039182166000908152606a6020908152604080832093909416825291909152205460ff1690565b610544611031565b60405161029b9190613a0a565b6102f761055f366004613829565b611155565b600061056f826111e2565b92915050565b60606065805461058490613a62565b80601f01602080910402602001604051908101604052809291908181526020018280546105b090613a62565b80156105fd5780601f106105d2576101008083540402835291602001916105fd565b820191906000526020600020905b8154815290600101906020018083116105e057829003601f168201915b5050505050905090565b600061061282611220565b506000908152606960205260409020546001600160a01b031690565b6000610639826109db565b9050806001600160a01b0316836001600160a01b0316036106c75760405162461bcd60e51b815260206004820152602160248201527f4552433732313a20617070726f76616c20746f2063757272656e74206f776e6560448201527f720000000000000000000000000000000000000000000000000000000000000060648201526084015b60405180910390fd5b336001600160a01b03821614806106e357506106e3813361050e565b6107555760405162461bcd60e51b815260206004820152603e60248201527f4552433732313a20617070726f76652063616c6c6572206973206e6f7420746f60448201527f6b656e206f776e6572206e6f7220617070726f76656420666f7220616c6c000060648201526084016106be565b61075f8383611284565b505050565b61076e33826112f2565b6107e05760405162461bcd60e51b815260206004820152602e60248201527f4552433732313a2063616c6c6572206973206e6f7420746f6b656e206f776e6560448201527f72206e6f7220617070726f76656400000000000000000000000000000000000060648201526084016106be565b61075f838383611371565b60006107f683610a40565b821061086a5760405162461bcd60e51b815260206004820152602b60248201527f455243373231456e756d657261626c653a206f776e657220696e646578206f7560448201527f74206f6620626f756e647300000000000000000000000000000000000000000060648201526084016106be565b506001600160a01b03919091166000908152609760209081526040808320938352929052205490565b600061089d61154f565b905090565b6001600160a01b0382166000908152610163602052604081206108c590836115cc565b9392505050565b6108d46116e8565b6108dc611742565b565b6108e66116e8565b60006108f26101c65490565b90506109036101c680546001019055565b61090d8282611794565b5050565b61075f83838360405180602001604052806000815250610bcf565b600061093760995490565b82106109ab5760405162461bcd60e51b815260206004820152602c60248201527f455243373231456e756d657261626c653a20676c6f62616c20696e646578206f60448201527f7574206f6620626f756e6473000000000000000000000000000000000000000060648201526084016106be565b609982815481106109be576109be613a96565b90600052602060002001549050919050565b3361090d81836117ae565b6000818152606760205260408120546001600160a01b03168061056f5760405162461bcd60e51b815260206004820152601860248201527f4552433732313a20696e76616c696420746f6b656e204944000000000000000060448201526064016106be565b60006001600160a01b038216610abe5760405162461bcd60e51b815260206004820152602960248201527f4552433732313a2061646472657373207a65726f206973206e6f74206120766160448201527f6c6964206f776e6572000000000000000000000000000000000000000000000060648201526084016106be565b506001600160a01b031660009081526068602052604090205490565b610ae26116e8565b6108dc60006118d2565b6001600160a01b0381166000908152610165602052604081205461056f565b610b136116e8565b6108dc611924565b6000438210610b6c5760405162461bcd60e51b815260206004820152601a60248201527f566f7465733a20626c6f636b206e6f7420796574206d696e656400000000000060448201526064016106be565b61056f610164836115cc565b60606066805461058490613a62565b6001600160a01b038116600090815261016360205260408120610ba990611961565b6001600160e01b031692915050565b61090d33838361199b565b610bcc81611a69565b50565b610bd933836112f2565b610c4b5760405162461bcd60e51b815260206004820152602e60248201527f4552433732313a2063616c6c6572206973206e6f7420746f6b656e206f776e6560448201527f72206e6f7220617070726f76656400000000000000000000000000000000000060648201526084016106be565b610c5784848484611bdb565b50505050565b83421115610cad5760405162461bcd60e51b815260206004820152601860248201527f566f7465733a207369676e61747572652065787069726564000000000000000060448201526064016106be565b604080517fe48329057bfd03d55e49b547132e39cffd9c1820ad7b9d4c5307691425d15adf60208201526001600160a01b038816918101919091526060810186905260808101859052600090610d2790610d1f9060a00160405160208183030381529060405280519060200120611c59565b858585611cc2565b9050610d3281611cea565b8614610d805760405162461bcd60e51b815260206004820152601460248201527f566f7465733a20696e76616c6964206e6f6e636500000000000000000000000060448201526064016106be565b610d8a81886117ae565b50505050505050565b600054610100900460ff1615808015610db35750600054600160ff909116105b80610dcd5750303b158015610dcd575060005460ff166001145b610e3f5760405162461bcd60e51b815260206004820152602e60248201527f496e697469616c697a61626c653a20636f6e747261637420697320616c72656160448201527f647920696e697469616c697a656400000000000000000000000000000000000060648201526084016106be565b6000805460ff191660011790558015610e62576000805461ff0019166101001790555b610ed66040518060400160405280600681526020017f546f6b656e3500000000000000000000000000000000000000000000000000008152506040518060400160405280600381526020017f544b350000000000000000000000000000000000000000000000000000000000815250611d11565b610ede611d74565b610ee6611dcd565b610eee611e2e565b610f626040518060400160405280600681526020017f546f6b656e3600000000000000000000000000000000000000000000000000008152506040518060400160405280600181526020017f3100000000000000000000000000000000000000000000000000000000000000815250611e8f565b610f6b82611ef2565b801561090d576000805461ff0019169055604051600181527f7f26b83ff96e1f2b6a682f133852f6798a09c465da95921460cefb38474024989060200160405180910390a15050565b600061089d611f54565b6060610fc982611220565b6000610fe060408051602081019091526000815290565b9050600081511161100057604051806020016040528060008152506108c5565b8061100a84611f6f565b60405160200161101b929190613aac565b6040516020818303038152906040529392505050565b606060006110406101666120a4565b67ffffffffffffffff81111561105857611058613884565b60405190808252806020026020018201604052801561109d57816020015b60408051808201909152600080825260208201528152602001906001900390816110765790505b50905060005b6110ae6101666120a4565b81101561114f5760408051808201909152806110cc610166846120ae565b6001600160a01b0316815260200161111361016360006110ee610166876120ae565b6001600160a01b03166001600160a01b03168152602001908152602001600020611961565b6001600160e01b031681525082828151811061113157611131613a96565b6020026020010181905250808061114790613af1565b9150506110a3565b50919050565b61115d6116e8565b6001600160a01b0381166111d95760405162461bcd60e51b815260206004820152602660248201527f4f776e61626c653a206e6577206f776e657220697320746865207a65726f206160448201527f646472657373000000000000000000000000000000000000000000000000000060648201526084016106be565b610bcc816118d2565b60006001600160e01b031982167f25c6185100000000000000000000000000000000000000000000000000000000148061056f575061056f826120ba565b6000818152606760205260409020546001600160a01b0316610bcc5760405162461bcd60e51b815260206004820152601860248201527f4552433732313a20696e76616c696420746f6b656e204944000000000000000060448201526064016106be565b600081815260696020526040902080546001600160a01b0319166001600160a01b03841690811790915581906112b9826109db565b6001600160a01b03167f8c5be1e5ebec7d5bd14f71427d1e84f3dd0314c0f7b2291e5b200ac8c7c3b92560405160405180910390a45050565b6000806112fe836109db565b9050806001600160a01b0316846001600160a01b0316148061134557506001600160a01b038082166000908152606a602090815260408083209388168352929052205460ff165b806113695750836001600160a01b031661135e84610607565b6001600160a01b0316145b949350505050565b826001600160a01b0316611384826109db565b6001600160a01b0316146114005760405162461bcd60e51b815260206004820152602560248201527f4552433732313a207472616e736665722066726f6d20696e636f72726563742060448201527f6f776e657200000000000000000000000000000000000000000000000000000060648201526084016106be565b6001600160a01b03821661147b5760405162461bcd60e51b8152602060048201526024808201527f4552433732313a207472616e7366657220746f20746865207a65726f2061646460448201527f726573730000000000000000000000000000000000000000000000000000000060648201526084016106be565b6114868383836120f8565b611491600082611284565b6001600160a01b03831660009081526068602052604081208054600192906114ba908490613b0a565b90915550506001600160a01b03821660009081526068602052604081208054600192906114e8908490613b1d565b909155505060008181526067602052604080822080546001600160a01b0319166001600160a01b0386811691821790925591518493918716917fddf252ad1be2c89b69c2b068fc378daa952ba7f163c4a11628f55a4df523b3ef91a461075f838383612135565b600061089d7f8b73c3c69bb8fe3d512ecc4cf759cc79239f7b179b0ffacaa9a75d522b39400f61157f61012d5490565b61012e546040805160208101859052908101839052606081018290524660808201523060a082015260009060c0016040516020818303038152906040528051906020012090509392505050565b600043821061161d5760405162461bcd60e51b815260206004820181905260248201527f436865636b706f696e74733a20626c6f636b206e6f7420796574206d696e656460448201526064016106be565b600061162883612140565b84549091506000816005811115611686576000611644846121c0565b61164e9085613b0a565b60008981526020902090915081015463ffffffff908116908616101561167657809150611684565b611681816001613b1d565b92505b505b600061169488868585612326565b905080156116d0576116b9886116ab600184613b0a565b600091825260209091200190565b5464010000000090046001600160e01b03166116d3565b60005b6001600160e01b031698975050505050505050565b60fb546001600160a01b031633146108dc5760405162461bcd60e51b815260206004820181905260248201527f4f776e61626c653a2063616c6c6572206973206e6f7420746865206f776e657260448201526064016106be565b61174a612384565b60c9805460ff191690557f5db9ee0a495bf2e6ff9c91a7834c1ba4fdd244a5e8aa4e537bd38aeae4b073aa335b6040516001600160a01b03909116815260200160405180910390a1565b61090d8282604051806020016040528060008152506123d6565b6001600160a01b038281166000818152610162602052604080822080548686166001600160a01b0319821681179092559151919094169392849290917f3134e8a2e6d97e929a7e54011ea5485d7d196dd5f0ba4d4ef95803e8e3fc257f9190a46000611823828461181e87612454565b61245f565b610161549091506001600160a01b031615610c5757610161546001600160a01b0316636e27fc0e838561185588612454565b6040516001600160e01b031960e086901b1681526001600160a01b039384166004820152929091166024830152604482015283151560648201526000608482015260a4015b600060405180830381600087803b1580156118b457600080fd5b505af11580156118c8573d6000803e3d6000fd5b5050505050505050565b60fb80546001600160a01b038381166001600160a01b0319831681179093556040519116919082907f8be0079c531659141344cd1fd0a4f28419497f9722a3daafe3b4186f6b6457e090600090a35050565b61192c6125ee565b60c9805460ff191660011790557f62e78cea01bee320cd4e420270b5ea74000d11b0c9f74754ebdbfc544b05a2586117773390565b805460009080156119925761197b836116ab600184613b0a565b5464010000000090046001600160e01b03166108c5565b60009392505050565b816001600160a01b0316836001600160a01b0316036119fc5760405162461bcd60e51b815260206004820152601960248201527f4552433732313a20617070726f766520746f2063616c6c65720000000000000060448201526064016106be565b6001600160a01b038381166000818152606a6020908152604080832094871680845294825291829020805460ff191686151590811790915591519182527f17307eab39ab6107e8899845ad3d59bd9653f200f220920489ca2b5937696c31910160405180910390a3505050565b610161546001600160a01b031615611b8857610161546040517f2f2baecc0000000000000000000000000000000000000000000000000000000081526001600160a01b0383811660048301526001921690632f2baecc90602401602060405180830381865afa158015611ae0573d6000803e3d6000fd5b505050506040513d601f19601f82011682018060405250810190611b049190613b46565b6003811115611b1557611b15613b30565b03611b885760405162461bcd60e51b815260206004820152602660248201527f53656e61746f72566f7465733a3a43757272656e742061637469766520696e2060448201527f53656e617465000000000000000000000000000000000000000000000000000060648201526084016106be565b61016180546001600160a01b038381166001600160a01b0319831681179093556040519116919082907ff99fbba862f227e12c769c916af8df441ea87c0f48e327186b68d5a2fbc9347690600090a35050565b611be6848484611371565b611bf284848484612641565b610c575760405162461bcd60e51b815260206004820152603260248201527f4552433732313a207472616e7366657220746f206e6f6e20455243373231526560448201527131b2b4bb32b91034b6b83632b6b2b73a32b960711b60648201526084016106be565b600061056f611c6661154f565b836040517f19010000000000000000000000000000000000000000000000000000000000006020820152602281018390526042810182905260009060620160405160208183030381529060405280519060200120905092915050565b6000806000611cd38787878761278a565b91509150611ce081612877565b5095945050505050565b6001600160a01b03811660009081526101656020526040902080546001810182559061114f565b600054610100900460ff16611d6a5760405162461bcd60e51b815260206004820152602b6024820152600080516020613d2383398151915260448201526a6e697469616c697a696e6760a81b60648201526084016106be565b61090d8282612a2d565b600054610100900460ff166108dc5760405162461bcd60e51b815260206004820152602b6024820152600080516020613d2383398151915260448201526a6e697469616c697a696e6760a81b60648201526084016106be565b600054610100900460ff16611e265760405162461bcd60e51b815260206004820152602b6024820152600080516020613d2383398151915260448201526a6e697469616c697a696e6760a81b60648201526084016106be565b6108dc612a9f565b600054610100900460ff16611e875760405162461bcd60e51b815260206004820152602b6024820152600080516020613d2383398151915260448201526a6e697469616c697a696e6760a81b60648201526084016106be565b6108dc612b04565b600054610100900460ff16611ee85760405162461bcd60e51b815260206004820152602b6024820152600080516020613d2383398151915260448201526a6e697469616c697a696e6760a81b60648201526084016106be565b61090d8282612b66565b600054610100900460ff16611f4b5760405162461bcd60e51b815260206004820152602b6024820152600080516020613d2383398151915260448201526a6e697469616c697a696e6760a81b60648201526084016106be565b610bcc81612bdb565b6000611f61610164611961565b6001600160e01b0316905090565b606081600003611fb257505060408051808201909152600181527f3000000000000000000000000000000000000000000000000000000000000000602082015290565b8160005b8115611fdc5780611fc681613af1565b9150611fd59050600a83613b7d565b9150611fb6565b60008167ffffffffffffffff811115611ff757611ff7613884565b6040519080825280601f01601f191660200182016040528015612021576020820181803683370190505b5090505b841561136957612036600183613b0a565b9150612043600a86613b91565b61204e906030613b1d565b60f81b81838151811061206357612063613a96565b60200101907effffffffffffffffffffffffffffffffffffffffffffffffffffffffffffff1916908160001a90535061209d600a86613b7d565b9450612025565b600061056f825490565b60006108c58383612c3d565b60006001600160e01b031982167f780e9d6300000000000000000000000000000000000000000000000000000000148061056f575061056f82612c67565b6121006125ee565b6001600160a01b03828116600090815261016260205260409020541661212a5761212a82836117ae565b61075f838383612d02565b61075f838383612dba565b600063ffffffff8211156121bc5760405162461bcd60e51b815260206004820152602660248201527f53616665436173743a2076616c756520646f65736e27742066697420696e203360448201527f322062697473000000000000000000000000000000000000000000000000000060648201526084016106be565b5090565b6000816000036121d257506000919050565b600182608081901c156121ea5760409190911b9060801c5b604081901c156121ff5760209190911b9060401c5b602081901c156122145760109190911b9060201c5b601081901c156122295760089190911b9060101c5b600881901c1561223e5760049190911b9060081c5b600481901c156122535760029190911b9060041c5b600281901c1561226557600182901b91505b600182858161227657612276613b67565b048301901c9150600182858161228e5761228e613b67565b048301901c915060018285816122a6576122a6613b67565b048301901c915060018285816122be576122be613b67565b048301901c915060018285816122d6576122d6613b67565b048301901c915060018285816122ee576122ee613b67565b048301901c9150600182858161230657612306613b67565b048301901c91506113698283868161232057612320613b67565b04612dc6565b60005b8183101561237c57600061233d8484612ddc565b60008781526020902090915063ffffffff86169082015463ffffffff16111561236857809250612376565b612373816001613b1d565b93505b50612329565b509392505050565b60c95460ff166108dc5760405162461bcd60e51b815260206004820152601460248201527f5061757361626c653a206e6f742070617573656400000000000000000000000060448201526064016106be565b6123e08383612df7565b6123ed6000848484612641565b61075f5760405162461bcd60e51b815260206004820152603260248201527f4552433732313a207472616e7366657220746f206e6f6e20455243373231526560448201527131b2b4bb32b91034b6b83632b6b2b73a32b960711b60648201526084016106be565b600061056f82610a40565b6000826001600160a01b0316846001600160a01b0316141580156124835750600082115b156108c5576001600160a01b03841615612539576001600160a01b03841660009081526101636020526040812081906124bf90612f4d86612f59565b801515945090925090506124d561016687612f91565b80156124df575080155b156124f2576124f061016687612fb3565b505b60408051838152602081018390526001600160a01b038816917fdec2bacdd2f05b59de34da9b523dff8be42e5e38e818c82fdb0bae774387a724910160405180910390a250505b6001600160a01b038316156108c5576001600160a01b038316600090815261016360205260408120819061257090612fc886612f59565b909250905061258161016687612f91565b15801561258e5750600081115b156125a15761259f61016687612fd4565b505b60408051838152602081018390526001600160a01b038716917fdec2bacdd2f05b59de34da9b523dff8be42e5e38e818c82fdb0bae774387a724910160405180910390a250509392505050565b60c95460ff16156108dc5760405162461bcd60e51b815260206004820152601060248201527f5061757361626c653a207061757365640000000000000000000000000000000060448201526064016106be565b60006001600160a01b0384163b1561278257604051630a85bd0160e11b81526001600160a01b0385169063150b7a0290612685903390899088908890600401613ba5565b6020604051808303816000875af19250505080156126c0575060408051601f3d908101601f191682019092526126bd91810190613be1565b60015b612768573d8080156126ee576040519150601f19603f3d011682016040523d82523d6000602084013e6126f3565b606091505b5080516000036127605760405162461bcd60e51b815260206004820152603260248201527f4552433732313a207472616e7366657220746f206e6f6e20455243373231526560448201527131b2b4bb32b91034b6b83632b6b2b73a32b960711b60648201526084016106be565b805181602001fd5b6001600160e01b031916630a85bd0160e11b149050611369565b506001611369565b6000807f7fffffffffffffffffffffffffffffff5d576e7357a4501ddfe92f46681b20a08311156127c1575060009050600361286e565b8460ff16601b141580156127d957508460ff16601c14155b156127ea575060009050600461286e565b6040805160008082526020820180845289905260ff881692820192909252606081018690526080810185905260019060a0016020604051602081039080840390855afa15801561283e573d6000803e3d6000fd5b5050604051601f1901519150506001600160a01b0381166128675760006001925092505061286e565b9150600090505b94509492505050565b600081600481111561288b5761288b613b30565b036128935750565b60018160048111156128a7576128a7613b30565b036128f45760405162461bcd60e51b815260206004820152601860248201527f45434453413a20696e76616c6964207369676e6174757265000000000000000060448201526064016106be565b600281600481111561290857612908613b30565b036129555760405162461bcd60e51b815260206004820152601f60248201527f45434453413a20696e76616c6964207369676e6174757265206c656e6774680060448201526064016106be565b600381600481111561296957612969613b30565b036129c15760405162461bcd60e51b815260206004820152602260248201527f45434453413a20696e76616c6964207369676e6174757265202773272076616c604482015261756560f01b60648201526084016106be565b60048160048111156129d5576129d5613b30565b03610bcc5760405162461bcd60e51b815260206004820152602260248201527f45434453413a20696e76616c6964207369676e6174757265202776272076616c604482015261756560f01b60648201526084016106be565b600054610100900460ff16612a865760405162461bcd60e51b815260206004820152602b6024820152600080516020613d2383398151915260448201526a6e697469616c697a696e6760a81b60648201526084016106be565b6065612a928382613c4c565b50606661075f8282613c4c565b600054610100900460ff16612af85760405162461bcd60e51b815260206004820152602b6024820152600080516020613d2383398151915260448201526a6e697469616c697a696e6760a81b60648201526084016106be565b60c9805460ff19169055565b600054610100900460ff16612b5d5760405162461bcd60e51b815260206004820152602b6024820152600080516020613d2383398151915260448201526a6e697469616c697a696e6760a81b60648201526084016106be565b6108dc336118d2565b600054610100900460ff16612bbf5760405162461bcd60e51b815260206004820152602b6024820152600080516020613d2383398151915260448201526a6e697469616c697a696e6760a81b60648201526084016106be565b81516020928301208151919092012061012d9190915561012e55565b600054610100900460ff16612c345760405162461bcd60e51b815260206004820152602b6024820152600080516020613d2383398151915260448201526a6e697469616c697a696e6760a81b60648201526084016106be565b610bcc81612fe9565b6000826000018281548110612c5457612c54613a96565b9060005260206000200154905092915050565b60006001600160e01b031982167f80ac58cd000000000000000000000000000000000000000000000000000000001480612cca57506001600160e01b031982167f5b5e139f00000000000000000000000000000000000000000000000000000000145b8061056f57507f01ffc9a7000000000000000000000000000000000000000000000000000000006001600160e01b031983161461056f565b6001600160a01b038316612d5d57612d5881609980546000838152609a60205260408120829055600182018355919091527f72a152ddfb8e864297c917af52ea6c1c68aead0fee1a62673fcc7e0c94979d000155565b612d80565b816001600160a01b0316836001600160a01b031614612d8057612d80838261304b565b6001600160a01b038216612d975761075f816130e8565b826001600160a01b0316826001600160a01b03161461075f5761075f8282613197565b61075f838360016131db565b6000818310612dd557816108c5565b5090919050565b6000612deb6002848418613b7d565b6108c590848416613b1d565b6001600160a01b038216612e4d5760405162461bcd60e51b815260206004820181905260248201527f4552433732313a206d696e7420746f20746865207a65726f206164647265737360448201526064016106be565b6000818152606760205260409020546001600160a01b031615612eb25760405162461bcd60e51b815260206004820152601c60248201527f4552433732313a20746f6b656e20616c7265616479206d696e7465640000000060448201526064016106be565b612ebe600083836120f8565b6001600160a01b0382166000908152606860205260408120805460019290612ee7908490613b1d565b909155505060008181526067602052604080822080546001600160a01b0319166001600160a01b03861690811790915590518392907fddf252ad1be2c89b69c2b068fc378daa952ba7f163c4a11628f55a4df523b3ef908290a461090d60008383612135565b60006108c58284613b0a565b600080612f8485612f7f612f6c88611961565b6001600160e01b0316868863ffffffff16565b6132e4565b915091505b935093915050565b6001600160a01b038116600090815260018301602052604081205415156108c5565b60006108c5836001600160a01b038416613318565b60006108c58284613b1d565b60006108c5836001600160a01b03841661340b565b600054610100900460ff166130425760405162461bcd60e51b815260206004820152602b6024820152600080516020613d2383398151915260448201526a6e697469616c697a696e6760a81b60648201526084016106be565b610bcc8161345a565b6000600161305884610a40565b6130629190613b0a565b6000838152609860205260409020549091508082146130b5576001600160a01b03841660009081526097602090815260408083208584528252808320548484528184208190558352609890915290208190555b5060009182526098602090815260408084208490556001600160a01b039094168352609781528383209183525290812055565b6099546000906130fa90600190613b0a565b6000838152609a60205260408120546099805493945090928490811061312257613122613a96565b90600052602060002001549050806099838154811061314357613143613a96565b6000918252602080832090910192909255828152609a9091526040808220849055858252812055609980548061317b5761317b613d0c565b6001900381819060005260206000200160009055905550505050565b60006131a283610a40565b6001600160a01b039093166000908152609760209081526040808320868452825280832085905593825260989052919091209190915550565b6001600160a01b0383166131fb576131f8610164612fc883612f59565b50505b6001600160a01b03821661321b57613218610164612f4d83612f59565b50505b6000613265613243856001600160a01b03908116600090815261016260205260409020541690565b6001600160a01b0380861660009081526101626020526040902054168461245f565b610161549091506001600160a01b031615610c5757610161546040517f6e27fc0e0000000000000000000000000000000000000000000000000000000081526001600160a01b03868116600483015285811660248301526044820185905283151560648301526001608483015290911690636e27fc0e9060a40161189a565b600080613302846132f443612140565b6132fd866134d6565b613555565b6001600160e01b03918216969116945092505050565b6000818152600183016020526040812054801561340157600061333c600183613b0a565b855490915060009061335090600190613b0a565b90508181146133b557600086600001828154811061337057613370613a96565b906000526020600020015490508087600001848154811061339357613393613a96565b6000918252602080832090910192909255918252600188019052604090208390555b85548690806133c6576133c6613d0c565b60019003818190600052602060002001600090559055856001016000868152602001908152602001600020600090556001935050505061056f565b600091505061056f565b60008181526001830160205260408120546134525750815460018181018455600084815260208082209093018490558454848252828601909352604090209190915561056f565b50600061056f565b600054610100900460ff166134b35760405162461bcd60e51b815260206004820152602b6024820152600080516020613d2383398151915260448201526a6e697469616c697a696e6760a81b60648201526084016106be565b61016180546001600160a01b0319166001600160a01b0392909216919091179055565b60006001600160e01b038211156121bc5760405162461bcd60e51b815260206004820152602760248201527f53616665436173743a2076616c756520646f65736e27742066697420696e203260448201527f323420626974730000000000000000000000000000000000000000000000000060648201526084016106be565b82546000908190801561369e576000613573876116ab600185613b0a565b60408051808201909152905463ffffffff8082168084526401000000009092046001600160e01b0316602084015291925090871610156135f55760405162461bcd60e51b815260206004820152601760248201527f436865636b706f696e743a20696e76616c6964206b657900000000000000000060448201526064016106be565b805163ffffffff80881691160361363e5784613616886116ab600186613b0a565b80546001600160e01b03929092166401000000000263ffffffff90921691909117905561368e565b6040805180820190915263ffffffff80881682526001600160e01b0380881660208085019182528b54600181018d5560008d81529190912094519151909216640100000000029216919091179101555b602001519250839150612f899050565b50506040805180820190915263ffffffff80851682526001600160e01b0380851660208085019182528854600181018a5560008a815291822095519251909316640100000000029190931617920191909155905081612f89565b6001600160e01b031981168114610bcc57600080fd5b60006020828403121561372057600080fd5b81356108c5816136f8565b60005b8381101561374657818101518382015260200161372e565b50506000910152565b6000815180845261376781602086016020860161372b565b601f01601f19169290920160200192915050565b6020815260006108c5602083018461374f565b6000602082840312156137a057600080fd5b5035919050565b6001600160a01b0381168114610bcc57600080fd5b600080604083850312156137cf57600080fd5b82356137da816137a7565b946020939093013593505050565b6000806000606084860312156137fd57600080fd5b8335613808816137a7565b92506020840135613818816137a7565b929592945050506040919091013590565b60006020828403121561383b57600080fd5b81356108c5816137a7565b6000806040838503121561385957600080fd5b8235613864816137a7565b91506020830135801515811461387957600080fd5b809150509250929050565b634e487b7160e01b600052604160045260246000fd5b600080600080608085870312156138b057600080fd5b84356138bb816137a7565b935060208501356138cb816137a7565b925060408501359150606085013567ffffffffffffffff808211156138ef57600080fd5b818701915087601f83011261390357600080fd5b81358181111561391557613915613884565b604051601f8201601f19908116603f0116810190838211818310171561393d5761393d613884565b816040528281528a602084870101111561395657600080fd5b82602086016020830137600060208483010152809550505050505092959194509250565b60008060008060008060c0878903121561399357600080fd5b863561399e816137a7565b95506020870135945060408701359350606087013560ff811681146139c257600080fd5b9598949750929560808101359460a0909101359350915050565b600080604083850312156139ef57600080fd5b82356139fa816137a7565b91506020830135613879816137a7565b602080825282518282018190526000919060409081850190868401855b82811015613a5557815180516001600160a01b03168552860151868501529284019290850190600101613a27565b5091979650505050505050565b600181811c90821680613a7657607f821691505b60208210810361114f57634e487b7160e01b600052602260045260246000fd5b634e487b7160e01b600052603260045260246000fd5b60008351613abe81846020880161372b565b835190830190613ad281836020880161372b565b01949350505050565b634e487b7160e01b600052601160045260246000fd5b600060018201613b0357613b03613adb565b5060010190565b8181038181111561056f5761056f613adb565b8082018082111561056f5761056f613adb565b634e487b7160e01b600052602160045260246000fd5b600060208284031215613b5857600080fd5b8151600481106108c557600080fd5b634e487b7160e01b600052601260045260246000fd5b600082613b8c57613b8c613b67565b500490565b600082613ba057613ba0613b67565b500690565b60006001600160a01b03808716835280861660208401525083604083015260806060830152613bd7608083018461374f565b9695505050505050565b600060208284031215613bf357600080fd5b81516108c5816136f8565b601f82111561075f57600081815260208120601f850160051c81016020861015613c255750805b601f850160051c820191505b81811015613c4457828155600101613c31565b505050505050565b815167ffffffffffffffff811115613c6657613c66613884565b613c7a81613c748454613a62565b84613bfe565b602080601f831160018114613caf5760008415613c975750858301515b600019600386901b1c1916600185901b178555613c44565b600085815260208120601f198616915b82811015613cde57888601518255948401946001909101908401613cbf565b5085821015613cfc5787850151600019600388901b60f8161c191681555b5050505050600190811b01905550565b634e487b7160e01b600052603160045260246000fdfe496e697469616c697a61626c653a20636f6e7472616374206973206e6f742069a264697066735822122060053e3499c6b5dcae11bf269806bb17977f1f61678976fd4fb45edd60d84f1f64736f6c63430008100033"
}