{
  "address": "0xD8a5a9b31c3C0232E196d518E89Fd8bF83AcAd43",
  "abi": [
    {
      "inputs": [],
      "stateMutability": "nonpayable",
      "type": "constructor"
    },
    {
      "anonymous": false,
      "inputs": [
        {
          "indexed": true,
          "internalType": "bytes32",
          "name": "id",
          "type": "bytes32"
        },
        {
          "indexed": true,
          "internalType": "uint256",
          "name": "index",
          "type": "uint256"
        },
        {
          "indexed": false,
          "internalType": "address",
          "name": "target",
          "type": "address"
        },
        {
          "indexed": false,
          "internalType": "uint256",
          "name": "value",
          "type": "uint256"
        },
        {
          "indexed": false,
          "internalType": "bytes",
          "name": "data",
          "type": "bytes"
        }
      ],
      "name": "CallExecuted",
      "type": "event"
    },
    {
      "anonymous": false,
      "inputs": [
        {
          "indexed": true,
          "internalType": "bytes32",
          "name": "id",
          "type": "bytes32"
        },
        {
          "indexed": true,
          "internalType": "uint256",
          "name": "index",
          "type": "uint256"
        },
        {
          "indexed": false,
          "internalType": "address",
          "name": "target",
          "type": "address"
        },
        {
          "indexed": false,
          "internalType": "uint256",
          "name": "value",
          "type": "uint256"
        },
        {
          "indexed": false,
          "internalType": "bytes",
          "name": "data",
          "type": "bytes"
        },
        {
          "indexed": false,
          "internalType": "bytes32",
          "name": "predecessor",
          "type": "bytes32"
        },
        {
          "indexed": false,
          "internalType": "uint256",
          "name": "delay",
          "type": "uint256"
        }
      ],
      "name": "CallScheduled",
      "type": "event"
    },
    {
      "anonymous": false,
      "inputs": [
        {
          "indexed": true,
          "internalType": "bytes32",
          "name": "id",
          "type": "bytes32"
        }
      ],
      "name": "Cancelled",
      "type": "event"
    },
    {
      "anonymous": false,
      "inputs": [
        {
          "indexed": false,
          "internalType": "uint8",
          "name": "version",
          "type": "uint8"
        }
      ],
      "name": "Initialized",
      "type": "event"
    },
    {
      "anonymous": false,
      "inputs": [
        {
          "indexed": false,
          "internalType": "uint256",
          "name": "oldDuration",
          "type": "uint256"
        },
        {
          "indexed": false,
          "internalType": "uint256",
          "name": "newDuration",
          "type": "uint256"
        }
      ],
      "name": "MinDelayChange",
      "type": "event"
    },
    {
      "anonymous": false,
      "inputs": [
        {
          "indexed": true,
          "internalType": "bytes32",
          "name": "role",
          "type": "bytes32"
        },
        {
          "indexed": true,
          "internalType": "bytes32",
          "name": "previousAdminRole",
          "type": "bytes32"
        },
        {
          "indexed": true,
          "internalType": "bytes32",
          "name": "newAdminRole",
          "type": "bytes32"
        }
      ],
      "name": "RoleAdminChanged",
      "type": "event"
    },
    {
      "anonymous": false,
      "inputs": [
        {
          "indexed": true,
          "internalType": "bytes32",
          "name": "role",
          "type": "bytes32"
        },
        {
          "indexed": true,
          "internalType": "address",
          "name": "account",
          "type": "address"
        },
        {
          "indexed": true,
          "internalType": "address",
          "name": "sender",
          "type": "address"
        }
      ],
      "name": "RoleGranted",
      "type": "event"
    },
    {
      "anonymous": false,
      "inputs": [
        {
          "indexed": true,
          "internalType": "bytes32",
          "name": "role",
          "type": "bytes32"
        },
        {
          "indexed": true,
          "internalType": "address",
          "name": "account",
          "type": "address"
        },
        {
          "indexed": true,
          "internalType": "address",
          "name": "sender",
          "type": "address"
        }
      ],
      "name": "RoleRevoked",
      "type": "event"
    },
    {
      "inputs": [],
      "name": "CANCELLER_ROLE",
      "outputs": [
        {
          "internalType": "bytes32",
          "name": "",
          "type": "bytes32"
        }
      ],
      "stateMutability": "view",
      "type": "function"
    },
    {
      "inputs": [],
      "name": "DEFAULT_ADMIN_ROLE",
      "outputs": [
        {
          "internalType": "bytes32",
          "name": "",
          "type": "bytes32"
        }
      ],
      "stateMutability": "view",
      "type": "function"
    },
    {
      "inputs": [],
      "name": "EXECUTOR_ROLE",
      "outputs": [
        {
          "internalType": "bytes32",
          "name": "",
          "type": "bytes32"
        }
      ],
      "stateMutability": "view",
      "type": "function"
    },
    {
      "inputs": [],
      "name": "PROPOSER_ROLE",
      "outputs": [
        {
          "internalType": "bytes32",
          "name": "",
          "type": "bytes32"
        }
      ],
      "stateMutability": "view",
      "type": "function"
    },
    {
      "inputs": [],
      "name": "TIMELOCK_ADMIN_ROLE",
      "outputs": [
        {
          "internalType": "bytes32",
          "name": "",
          "type": "bytes32"
        }
      ],
      "stateMutability": "view",
      "type": "function"
    },
    {
      "inputs": [
        {
          "internalType": "bytes32",
          "name": "id",
          "type": "bytes32"
        }
      ],
      "name": "cancel",
      "outputs": [],
      "stateMutability": "nonpayable",
      "type": "function"
    },
    {
      "inputs": [
        {
          "internalType": "address",
          "name": "target",
          "type": "address"
        },
        {
          "internalType": "uint256",
          "name": "value",
          "type": "uint256"
        },
        {
          "internalType": "bytes",
          "name": "payload",
          "type": "bytes"
        },
        {
          "internalType": "bytes32",
          "name": "predecessor",
          "type": "bytes32"
        },
        {
          "internalType": "bytes32",
          "name": "salt",
          "type": "bytes32"
        }
      ],
      "name": "execute",
      "outputs": [],
      "stateMutability": "payable",
      "type": "function"
    },
    {
      "inputs": [
        {
          "internalType": "address[]",
          "name": "targets",
          "type": "address[]"
        },
        {
          "internalType": "uint256[]",
          "name": "values",
          "type": "uint256[]"
        },
        {
          "internalType": "bytes[]",
          "name": "payloads",
          "type": "bytes[]"
        },
        {
          "internalType": "bytes32",
          "name": "predecessor",
          "type": "bytes32"
        },
        {
          "internalType": "bytes32",
          "name": "salt",
          "type": "bytes32"
        }
      ],
      "name": "executeBatch",
      "outputs": [],
      "stateMutability": "payable",
      "type": "function"
    },
    {
      "inputs": [],
      "name": "getMinDelay",
      "outputs": [
        {
          "internalType": "uint256",
          "name": "duration",
          "type": "uint256"
        }
      ],
      "stateMutability": "view",
      "type": "function"
    },
    {
      "inputs": [
        {
          "internalType": "bytes32",
          "name": "role",
          "type": "bytes32"
        }
      ],
      "name": "getRoleAdmin",
      "outputs": [
        {
          "internalType": "bytes32",
          "name": "",
          "type": "bytes32"
        }
      ],
      "stateMutability": "view",
      "type": "function"
    },
    {
      "inputs": [
        {
          "internalType": "bytes32",
          "name": "id",
          "type": "bytes32"
        }
      ],
      "name": "getTimestamp",
      "outputs": [
        {
          "internalType": "uint256",
          "name": "timestamp",
          "type": "uint256"
        }
      ],
      "stateMutability": "view",
      "type": "function"
    },
    {
      "inputs": [
        {
          "internalType": "bytes32",
          "name": "role",
          "type": "bytes32"
        },
        {
          "internalType": "address",
          "name": "account",
          "type": "address"
        }
      ],
      "name": "grantRole",
      "outputs": [],
      "stateMutability": "nonpayable",
      "type": "function"
    },
    {
      "inputs": [
        {
          "internalType": "bytes32",
          "name": "role",
          "type": "bytes32"
        },
        {
          "internalType": "address",
          "name": "account",
          "type": "address"
        }
      ],
      "name": "hasRole",
      "outputs": [
        {
          "internalType": "bool",
          "name": "",
          "type": "bool"
        }
      ],
      "stateMutability": "view",
      "type": "function"
    },
    {
      "inputs": [
        {
          "internalType": "address",
          "name": "target",
          "type": "address"
        },
        {
          "internalType": "uint256",
          "name": "value",
          "type": "uint256"
        },
        {
          "internalType": "bytes",
          "name": "data",
          "type": "bytes"
        },
        {
          "internalType": "bytes32",
          "name": "predecessor",
          "type": "bytes32"
        },
        {
          "internalType": "bytes32",
          "name": "salt",
          "type": "bytes32"
        }
      ],
      "name": "hashOperation",
      "outputs": [
        {
          "internalType": "bytes32",
          "name": "hash",
          "type": "bytes32"
        }
      ],
      "stateMutability": "pure",
      "type": "function"
    },
    {
      "inputs": [
        {
          "internalType": "address[]",
          "name": "targets",
          "type": "address[]"
        },
        {
          "internalType": "uint256[]",
          "name": "values",
          "type": "uint256[]"
        },
        {
          "internalType": "bytes[]",
          "name": "payloads",
          "type": "bytes[]"
        },
        {
          "internalType": "bytes32",
          "name": "predecessor",
          "type": "bytes32"
        },
        {
          "internalType": "bytes32",
          "name": "salt",
          "type": "bytes32"
        }
      ],
      "name": "hashOperationBatch",
      "outputs": [
        {
          "internalType": "bytes32",
          "name": "hash",
          "type": "bytes32"
        }
      ],
      "stateMutability": "pure",
      "type": "function"
    },
    {
      "inputs": [
        {
          "internalType": "uint256",
          "name": "minDelay",
          "type": "uint256"
        },
        {
          "internalType": "address[]",
          "name": "proposers",
          "type": "address[]"
        },
        {
          "internalType": "address[]",
          "name": "executors",
          "type": "address[]"
        }
      ],
      "name": "initialize",
      "outputs": [],
      "stateMutability": "nonpayable",
      "type": "function"
    },
    {
      "inputs": [
        {
          "internalType": "bytes32",
          "name": "id",
          "type": "bytes32"
        }
      ],
      "name": "isOperation",
      "outputs": [
        {
          "internalType": "bool",
          "name": "registered",
          "type": "bool"
        }
      ],
      "stateMutability": "view",
      "type": "function"
    },
    {
      "inputs": [
        {
          "internalType": "bytes32",
          "name": "id",
          "type": "bytes32"
        }
      ],
      "name": "isOperationDone",
      "outputs": [
        {
          "internalType": "bool",
          "name": "done",
          "type": "bool"
        }
      ],
      "stateMutability": "view",
      "type": "function"
    },
    {
      "inputs": [
        {
          "internalType": "bytes32",
          "name": "id",
          "type": "bytes32"
        }
      ],
      "name": "isOperationPending",
      "outputs": [
        {
          "internalType": "bool",
          "name": "pending",
          "type": "bool"
        }
      ],
      "stateMutability": "view",
      "type": "function"
    },
    {
      "inputs": [
        {
          "internalType": "bytes32",
          "name": "id",
          "type": "bytes32"
        }
      ],
      "name": "isOperationReady",
      "outputs": [
        {
          "internalType": "bool",
          "name": "ready",
          "type": "bool"
        }
      ],
      "stateMutability": "view",
      "type": "function"
    },
    {
      "inputs": [
        {
          "internalType": "address",
          "name": "",
          "type": "address"
        },
        {
          "internalType": "address",
          "name": "",
          "type": "address"
        },
        {
          "internalType": "uint256[]",
          "name": "",
          "type": "uint256[]"
        },
        {
          "internalType": "uint256[]",
          "name": "",
          "type": "uint256[]"
        },
        {
          "internalType": "bytes",
          "name": "",
          "type": "bytes"
        }
      ],
      "name": "onERC1155BatchReceived",
      "outputs": [
        {
          "internalType": "bytes4",
          "name": "",
          "type": "bytes4"
        }
      ],
      "stateMutability": "nonpayable",
      "type": "function"
    },
    {
      "inputs": [
        {
          "internalType": "address",
          "name": "",
          "type": "address"
        },
        {
          "internalType": "address",
          "name": "",
          "type": "address"
        },
        {
          "internalType": "uint256",
          "name": "",
          "type": "uint256"
        },
        {
          "internalType": "uint256",
          "name": "",
          "type": "uint256"
        },
        {
          "internalType": "bytes",
          "name": "",
          "type": "bytes"
        }
      ],
      "name": "onERC1155Received",
      "outputs": [
        {
          "internalType": "bytes4",
          "name": "",
          "type": "bytes4"
        }
      ],
      "stateMutability": "nonpayable",
      "type": "function"
    },
    {
      "inputs": [
        {
          "internalType": "address",
          "name": "",
          "type": "address"
        },
        {
          "internalType": "address",
          "name": "",
          "type": "address"
        },
        {
          "internalType": "uint256",
          "name": "",
          "type": "uint256"
        },
        {
          "internalType": "bytes",
          "name": "",
          "type": "bytes"
        }
      ],
      "name": "onERC721Received",
      "outputs": [
        {
          "internalType": "bytes4",
          "name": "",
          "type": "bytes4"
        }
      ],
      "stateMutability": "nonpayable",
      "type": "function"
    },
    {
      "inputs": [
        {
          "internalType": "bytes32",
          "name": "role",
          "type": "bytes32"
        },
        {
          "internalType": "address",
          "name": "account",
          "type": "address"
        }
      ],
      "name": "renounceRole",
      "outputs": [],
      "stateMutability": "nonpayable",
      "type": "function"
    },
    {
      "inputs": [
        {
          "internalType": "bytes32",
          "name": "role",
          "type": "bytes32"
        },
        {
          "internalType": "address",
          "name": "account",
          "type": "address"
        }
      ],
      "name": "revokeRole",
      "outputs": [],
      "stateMutability": "nonpayable",
      "type": "function"
    },
    {
      "inputs": [
        {
          "internalType": "address",
          "name": "target",
          "type": "address"
        },
        {
          "internalType": "uint256",
          "name": "value",
          "type": "uint256"
        },
        {
          "internalType": "bytes",
          "name": "data",
          "type": "bytes"
        },
        {
          "internalType": "bytes32",
          "name": "predecessor",
          "type": "bytes32"
        },
        {
          "internalType": "bytes32",
          "name": "salt",
          "type": "bytes32"
        },
        {
          "internalType": "uint256",
          "name": "delay",
          "type": "uint256"
        }
      ],
      "name": "schedule",
      "outputs": [],
      "stateMutability": "nonpayable",
      "type": "function"
    },
    {
      "inputs": [
        {
          "internalType": "address[]",
          "name": "targets",
          "type": "address[]"
        },
        {
          "internalType": "uint256[]",
          "name": "values",
          "type": "uint256[]"
        },
        {
          "internalType": "bytes[]",
          "name": "payloads",
          "type": "bytes[]"
        },
        {
          "internalType": "bytes32",
          "name": "predecessor",
          "type": "bytes32"
        },
        {
          "internalType": "bytes32",
          "name": "salt",
          "type": "bytes32"
        },
        {
          "internalType": "uint256",
          "name": "delay",
          "type": "uint256"
        }
      ],
      "name": "scheduleBatch",
      "outputs": [],
      "stateMutability": "nonpayable",
      "type": "function"
    },
    {
      "inputs": [
        {
          "internalType": "bytes4",
          "name": "interfaceId",
          "type": "bytes4"
        }
      ],
      "name": "supportsInterface",
      "outputs": [
        {
          "internalType": "bool",
          "name": "",
          "type": "bool"
        }
      ],
      "stateMutability": "view",
      "type": "function"
    },
    {
      "inputs": [
        {
          "internalType": "uint256",
          "name": "newDelay",
          "type": "uint256"
        }
      ],
      "name": "updateDelay",
      "outputs": [],
      "stateMutability": "nonpayable",
      "type": "function"
    },
    {
      "stateMutability": "payable",
      "type": "receive"
    }
  ],
  "numDeployments": 2,
  "bytecode": "0x60806040523480156200001157600080fd5b506200001c62000022565b620000e4565b600054610100900460ff16156200008f5760405162461bcd60e51b815260206004820152602760248201527f496e697469616c697a61626c653a20636f6e747261637420697320696e697469604482015266616c697a696e6760c81b606482015260840160405180910390fd5b60005460ff9081161015620000e2576000805460ff191660ff9081179091556040519081527f7f26b83ff96e1f2b6a682f133852f6798a09c465da95921460cefb38474024989060200160405180910390a15b565b6126d880620000f46000396000f3fe6080604052600436106101c65760003560e01c80637fbc79c6116100f7578063b1c5f42711610095578063d547741f11610064578063d547741f14610604578063e38335e514610624578063f23a6e6114610637578063f27a0c921461067c57600080fd5b8063b1c5f42714610552578063bc197c8114610572578063c4d252f5146105b7578063d45c4435146105d757600080fd5b80638f61f4f5116100d15780638f61f4f51461048f57806391d14854146104c3578063a217fddf14610509578063b08e51c01461051e57600080fd5b80637fbc79c61461042f5780638065657f1461044f5780638f2a0bb01461046f57600080fd5b8063248a9ca31161016457806331d507501161013e57806331d50750146103af57806336568abe146103cf578063584b153e146103ef57806364d623531461040f57600080fd5b8063248a9ca31461032f5780632ab0f5291461035f5780632f2ff15d1461038f57600080fd5b80630d3cf6fc116101a05780630d3cf6fc1461026b578063134008d31461029f57806313bc9f20146102b2578063150b7a02146102d257600080fd5b806301d5062a146101d257806301ffc9a7146101f457806307bd02651461022957600080fd5b366101cd57005b600080fd5b3480156101de57600080fd5b506101f26101ed366004611c68565b610691565b005b34801561020057600080fd5b5061021461020f366004611cdd565b610726565b60405190151581526020015b60405180910390f35b34801561023557600080fd5b5061025d7fd8aa0f3194971a2a116679f7c2090f6939c8d4e01a2a8d7e41d55e5351469e6381565b604051908152602001610220565b34801561027757600080fd5b5061025d7f5f58e3a2316349923ce3780f8d587db2d72378aed66a8261c916544fa6846ca581565b6101f26102ad366004611d07565b61076a565b3480156102be57600080fd5b506102146102cd366004611d73565b610862565b3480156102de57600080fd5b506103166102ed366004611e43565b7f150b7a0200000000000000000000000000000000000000000000000000000000949350505050565b6040516001600160e01b03199091168152602001610220565b34801561033b57600080fd5b5061025d61034a366004611d73565b60009081526065602052604090206001015490565b34801561036b57600080fd5b5061021461037a366004611d73565b60009081526097602052604090205460011490565b34801561039b57600080fd5b506101f26103aa366004611eab565b610888565b3480156103bb57600080fd5b506102146103ca366004611d73565b6108b2565b3480156103db57600080fd5b506101f26103ea366004611eab565b6108cb565b3480156103fb57600080fd5b5061021461040a366004611d73565b61095c565b34801561041b57600080fd5b506101f261042a366004611d73565b610973565b34801561043b57600080fd5b506101f261044a366004611f6d565b610a29565b34801561045b57600080fd5b5061025d61046a366004611d07565b610b4f565b34801561047b57600080fd5b506101f261048a36600461201f565b610b8e565b34801561049b57600080fd5b5061025d7fb09aa5aeb3702cfd50b6b62bc4532604938f21248a27a1d5ca736082b6819cc181565b3480156104cf57600080fd5b506102146104de366004611eab565b60009182526065602090815260408084206001600160a01b0393909316845291905290205460ff1690565b34801561051557600080fd5b5061025d600081565b34801561052a57600080fd5b5061025d7ffd643c72710c63c0180259aba6b2d05451e3591a24e58b62239378085726f78381565b34801561055e57600080fd5b5061025d61056d3660046120d1565b610d58565b34801561057e57600080fd5b5061031661058d3660046121d5565b7fbc197c810000000000000000000000000000000000000000000000000000000095945050505050565b3480156105c357600080fd5b506101f26105d2366004611d73565b610d9d565b3480156105e357600080fd5b5061025d6105f2366004611d73565b60009081526097602052604090205490565b34801561061057600080fd5b506101f261061f366004611eab565b610e7e565b6101f26106323660046120d1565b610ea3565b34801561064357600080fd5b5061031661065236600461227f565b7ff23a6e610000000000000000000000000000000000000000000000000000000095945050505050565b34801561068857600080fd5b5060985461025d565b7fb09aa5aeb3702cfd50b6b62bc4532604938f21248a27a1d5ca736082b6819cc16106bb816110e8565b60006106cb898989898989610b4f565b90506106d781846110f5565b6000817f4cf4410cc57040e44862ef0f45f3dd5a5e02db8eb8add648d4b0e236f1d07dca8b8b8b8b8b8a6040516107139695949392919061230d565b60405180910390a3505050505050505050565b60006001600160e01b031982167f4e2312e0000000000000000000000000000000000000000000000000000000001480610764575061076482611209565b92915050565b600080527f7dc9f88e569f94faad6fa0d44dd44858caf3f34f1bd1c985800aedf5793aad8b6020527fa01e231ca478cf51f663e103939e98de36fa76d3e4e0b1de673dc711acc3a01b547fd8aa0f3194971a2a116679f7c2090f6939c8d4e01a2a8d7e41d55e5351469e639060ff166107e7576107e78133611270565b60006107f7888888888888610b4f565b905061080381856112f0565b61080f888888886113e5565b6000817fc2617efa69bab66782fa219543714338489c4e9e178271560a91b82c3f612b588a8a8a8a604051610847949392919061234b565b60405180910390a3610858816114c2565b5050505050505050565b6000818152609760205260408120546001811180156108815750428111155b9392505050565b6000828152606560205260409020600101546108a3816110e8565b6108ad838361153e565b505050565b60008181526097602052604081205481905b1192915050565b6001600160a01b038116331461094e5760405162461bcd60e51b815260206004820152602f60248201527f416363657373436f6e74726f6c3a2063616e206f6e6c792072656e6f756e636560448201527f20726f6c657320666f722073656c66000000000000000000000000000000000060648201526084015b60405180910390fd5b61095882826115e0565b5050565b6000818152609760205260408120546001906108c4565b3330146109e85760405162461bcd60e51b815260206004820152602b60248201527f54696d656c6f636b436f6e74726f6c6c65723a2063616c6c6572206d7573742060448201527f62652074696d656c6f636b0000000000000000000000000000000000000000006064820152608401610945565b60985460408051918252602082018390527f11c24f4ead16507c69ac467fbd5e4eed5fb5c699626d2cc6d66421df253886d5910160405180910390a1609855565b600054610100900460ff1615808015610a495750600054600160ff909116105b80610a635750303b158015610a63575060005460ff166001145b610ad55760405162461bcd60e51b815260206004820152602e60248201527f496e697469616c697a61626c653a20636f6e747261637420697320616c72656160448201527f647920696e697469616c697a65640000000000000000000000000000000000006064820152608401610945565b6000805460ff191660011790558015610af8576000805461ff0019166101001790555b610b03848484611663565b8015610b49576000805461ff0019169055604051600181527f7f26b83ff96e1f2b6a682f133852f6798a09c465da95921460cefb38474024989060200160405180910390a15b50505050565b6000868686868686604051602001610b6c9695949392919061230d565b6040516020818303038152906040528051906020012090509695505050505050565b7fb09aa5aeb3702cfd50b6b62bc4532604938f21248a27a1d5ca736082b6819cc1610bb8816110e8565b888714610c135760405162461bcd60e51b815260206004820152602360248201527f54696d656c6f636b436f6e74726f6c6c65723a206c656e677468206d69736d616044820152620e8c6d60eb1b6064820152608401610945565b888514610c6e5760405162461bcd60e51b815260206004820152602360248201527f54696d656c6f636b436f6e74726f6c6c65723a206c656e677468206d69736d616044820152620e8c6d60eb1b6064820152608401610945565b6000610c808b8b8b8b8b8b8b8b610d58565b9050610c8c81846110f5565b60005b8a811015610d4a5780827f4cf4410cc57040e44862ef0f45f3dd5a5e02db8eb8add648d4b0e236f1d07dca8e8e85818110610ccc57610ccc61237e565b9050602002016020810190610ce19190612394565b8d8d86818110610cf357610cf361237e565b905060200201358c8c87818110610d0c57610d0c61237e565b9050602002810190610d1e91906123af565b8c8b604051610d329695949392919061230d565b60405180910390a3610d438161240c565b9050610c8f565b505050505050505050505050565b60008888888888888888604051602001610d799897969594939291906124b7565b60405160208183030381529060405280519060200120905098975050505050505050565b7ffd643c72710c63c0180259aba6b2d05451e3591a24e58b62239378085726f783610dc7816110e8565b610dd08261095c565b610e425760405162461bcd60e51b815260206004820152603160248201527f54696d656c6f636b436f6e74726f6c6c65723a206f7065726174696f6e20636160448201527f6e6e6f742062652063616e63656c6c65640000000000000000000000000000006064820152608401610945565b6000828152609760205260408082208290555183917fbaa1eb22f2a492ba1a5fea61b8df4d27c6c8b5f3971e63bb58fa14ff72eedb7091a25050565b600082815260656020526040902060010154610e99816110e8565b6108ad83836115e0565b600080527f7dc9f88e569f94faad6fa0d44dd44858caf3f34f1bd1c985800aedf5793aad8b6020527fa01e231ca478cf51f663e103939e98de36fa76d3e4e0b1de673dc711acc3a01b547fd8aa0f3194971a2a116679f7c2090f6939c8d4e01a2a8d7e41d55e5351469e639060ff16610f2057610f208133611270565b878614610f7b5760405162461bcd60e51b815260206004820152602360248201527f54696d656c6f636b436f6e74726f6c6c65723a206c656e677468206d69736d616044820152620e8c6d60eb1b6064820152608401610945565b878414610fd65760405162461bcd60e51b815260206004820152602360248201527f54696d656c6f636b436f6e74726f6c6c65723a206c656e677468206d69736d616044820152620e8c6d60eb1b6064820152608401610945565b6000610fe88a8a8a8a8a8a8a8a610d58565b9050610ff481856112f0565b60005b898110156110d25760008b8b838181106110135761101361237e565b90506020020160208101906110289190612394565b905060008a8a8481811061103e5761103e61237e565b9050602002013590503660008a8a8681811061105c5761105c61237e565b905060200281019061106e91906123af565b9150915061107e848484846113e5565b84867fc2617efa69bab66782fa219543714338489c4e9e178271560a91b82c3f612b58868686866040516110b5949392919061234b565b60405180910390a350505050806110cb9061240c565b9050610ff7565b506110dc816114c2565b50505050505050505050565b6110f28133611270565b50565b6110fe826108b2565b156111715760405162461bcd60e51b815260206004820152602f60248201527f54696d656c6f636b436f6e74726f6c6c65723a206f7065726174696f6e20616c60448201527f7265616479207363686564756c656400000000000000000000000000000000006064820152608401610945565b6098548110156111e95760405162461bcd60e51b815260206004820152602660248201527f54696d656c6f636b436f6e74726f6c6c65723a20696e73756666696369656e7460448201527f2064656c617900000000000000000000000000000000000000000000000000006064820152608401610945565b6111f38142612571565b6000928352609760205260409092209190915550565b60006001600160e01b031982167f7965db0b00000000000000000000000000000000000000000000000000000000148061076457507f01ffc9a7000000000000000000000000000000000000000000000000000000006001600160e01b0319831614610764565b60008281526065602090815260408083206001600160a01b038516845290915290205460ff16610958576112ae816001600160a01b031660146116d9565b6112b98360206116d9565b6040516020016112ca9291906125a8565b60408051601f198184030181529082905262461bcd60e51b825261094591600401612629565b6112f982610862565b6113585760405162461bcd60e51b815260206004820152602a60248201527f54696d656c6f636b436f6e74726f6c6c65723a206f7065726174696f6e206973604482015269206e6f7420726561647960b01b6064820152608401610945565b80158061137357506000818152609760205260409020546001145b6109585760405162461bcd60e51b815260206004820152602660248201527f54696d656c6f636b436f6e74726f6c6c65723a206d697373696e67206465706560448201527f6e64656e637900000000000000000000000000000000000000000000000000006064820152608401610945565b6000846001600160a01b031684848460405161140292919061265c565b60006040518083038185875af1925050503d806000811461143f576040519150601f19603f3d011682016040523d82523d6000602084013e611444565b606091505b50509050806114bb5760405162461bcd60e51b815260206004820152603360248201527f54696d656c6f636b436f6e74726f6c6c65723a20756e6465726c79696e67207460448201527f72616e73616374696f6e207265766572746564000000000000000000000000006064820152608401610945565b5050505050565b6114cb81610862565b61152a5760405162461bcd60e51b815260206004820152602a60248201527f54696d656c6f636b436f6e74726f6c6c65723a206f7065726174696f6e206973604482015269206e6f7420726561647960b01b6064820152608401610945565b600090815260976020526040902060019055565b60008281526065602090815260408083206001600160a01b038516845290915290205460ff166109585760008281526065602090815260408083206001600160a01b03851684529091529020805460ff1916600117905561159c3390565b6001600160a01b0316816001600160a01b0316837f2f8788117e7eff1d82e926ec794901d17c78024a50270940304540a733656f0d60405160405180910390a45050565b60008281526065602090815260408083206001600160a01b038516845290915290205460ff16156109585760008281526065602090815260408083206001600160a01b0385168085529252808320805460ff1916905551339285917ff6391f5c32d9c69d2a47ea670b442974b53935d1edc7fd64eb21e047a839171b9190a45050565b600054610100900460ff166116ce5760405162461bcd60e51b815260206004820152602b60248201527f496e697469616c697a61626c653a20636f6e7472616374206973206e6f74206960448201526a6e697469616c697a696e6760a81b6064820152608401610945565b6108ad8383836118ba565b606060006116e883600261266c565b6116f3906002612571565b67ffffffffffffffff81111561170b5761170b611d8c565b6040519080825280601f01601f191660200182016040528015611735576020820181803683370190505b5090507f30000000000000000000000000000000000000000000000000000000000000008160008151811061176c5761176c61237e565b60200101906001600160f81b031916908160001a9053507f7800000000000000000000000000000000000000000000000000000000000000816001815181106117b7576117b761237e565b60200101906001600160f81b031916908160001a90535060006117db84600261266c565b6117e6906001612571565b90505b600181111561186b577f303132333435363738396162636465660000000000000000000000000000000085600f16601081106118275761182761237e565b1a60f81b82828151811061183d5761183d61237e565b60200101906001600160f81b031916908160001a90535060049490941c936118648161268b565b90506117e9565b5083156108815760405162461bcd60e51b815260206004820181905260248201527f537472696e67733a20686578206c656e67746820696e73756666696369656e746044820152606401610945565b600054610100900460ff166119255760405162461bcd60e51b815260206004820152602b60248201527f496e697469616c697a61626c653a20636f6e7472616374206973206e6f74206960448201526a6e697469616c697a696e6760a81b6064820152608401610945565b61194f7f5f58e3a2316349923ce3780f8d587db2d72378aed66a8261c916544fa6846ca580611bae565b6119997fb09aa5aeb3702cfd50b6b62bc4532604938f21248a27a1d5ca736082b6819cc17f5f58e3a2316349923ce3780f8d587db2d72378aed66a8261c916544fa6846ca5611bae565b6119e37fd8aa0f3194971a2a116679f7c2090f6939c8d4e01a2a8d7e41d55e5351469e637f5f58e3a2316349923ce3780f8d587db2d72378aed66a8261c916544fa6846ca5611bae565b611a2d7ffd643c72710c63c0180259aba6b2d05451e3591a24e58b62239378085726f7837f5f58e3a2316349923ce3780f8d587db2d72378aed66a8261c916544fa6846ca5611bae565b611a577f5f58e3a2316349923ce3780f8d587db2d72378aed66a8261c916544fa6846ca533611bf9565b611a817f5f58e3a2316349923ce3780f8d587db2d72378aed66a8261c916544fa6846ca530611bf9565b60005b8251811015611b1657611ad07fb09aa5aeb3702cfd50b6b62bc4532604938f21248a27a1d5ca736082b6819cc1848381518110611ac357611ac361237e565b6020026020010151611bf9565b611b067ffd643c72710c63c0180259aba6b2d05451e3591a24e58b62239378085726f783848381518110611ac357611ac361237e565b611b0f8161240c565b9050611a84565b5060005b8151811015611b6957611b597fd8aa0f3194971a2a116679f7c2090f6939c8d4e01a2a8d7e41d55e5351469e63838381518110611ac357611ac361237e565b611b628161240c565b9050611b1a565b5060988390556040805160008152602081018590527f11c24f4ead16507c69ac467fbd5e4eed5fb5c699626d2cc6d66421df253886d5910160405180910390a1505050565b600082815260656020526040808220600101805490849055905190918391839186917fbd79b86ffe0ab8e8776151514217cd7cacd52c909f66475c3af44e129f0b00ff9190a4505050565b610958828261153e565b80356001600160a01b0381168114611c1a57600080fd5b919050565b60008083601f840112611c3157600080fd5b50813567ffffffffffffffff811115611c4957600080fd5b602083019150836020828501011115611c6157600080fd5b9250929050565b600080600080600080600060c0888a031215611c8357600080fd5b611c8c88611c03565b965060208801359550604088013567ffffffffffffffff811115611caf57600080fd5b611cbb8a828b01611c1f565b989b979a50986060810135976080820135975060a09091013595509350505050565b600060208284031215611cef57600080fd5b81356001600160e01b03198116811461088157600080fd5b60008060008060008060a08789031215611d2057600080fd5b611d2987611c03565b955060208701359450604087013567ffffffffffffffff811115611d4c57600080fd5b611d5889828a01611c1f565b979a9699509760608101359660809091013595509350505050565b600060208284031215611d8557600080fd5b5035919050565b634e487b7160e01b600052604160045260246000fd5b604051601f8201601f1916810167ffffffffffffffff81118282101715611dcb57611dcb611d8c565b604052919050565b600082601f830112611de457600080fd5b813567ffffffffffffffff811115611dfe57611dfe611d8c565b611e11601f8201601f1916602001611da2565b818152846020838601011115611e2657600080fd5b816020850160208301376000918101602001919091529392505050565b60008060008060808587031215611e5957600080fd5b611e6285611c03565b9350611e7060208601611c03565b925060408501359150606085013567ffffffffffffffff811115611e9357600080fd5b611e9f87828801611dd3565b91505092959194509250565b60008060408385031215611ebe57600080fd5b82359150611ece60208401611c03565b90509250929050565b600067ffffffffffffffff821115611ef157611ef1611d8c565b5060051b60200190565b600082601f830112611f0c57600080fd5b81356020611f21611f1c83611ed7565b611da2565b82815260059290921b84018101918181019086841115611f4057600080fd5b8286015b84811015611f6257611f5581611c03565b8352918301918301611f44565b509695505050505050565b600080600060608486031215611f8257600080fd5b83359250602084013567ffffffffffffffff80821115611fa157600080fd5b611fad87838801611efb565b93506040860135915080821115611fc357600080fd5b50611fd086828701611efb565b9150509250925092565b60008083601f840112611fec57600080fd5b50813567ffffffffffffffff81111561200457600080fd5b6020830191508360208260051b8501011115611c6157600080fd5b600080600080600080600080600060c08a8c03121561203d57600080fd5b893567ffffffffffffffff8082111561205557600080fd5b6120618d838e01611fda565b909b50995060208c013591508082111561207a57600080fd5b6120868d838e01611fda565b909950975060408c013591508082111561209f57600080fd5b506120ac8c828d01611fda565b9a9d999c50979a969997986060880135976080810135975060a0013595509350505050565b60008060008060008060008060a0898b0312156120ed57600080fd5b883567ffffffffffffffff8082111561210557600080fd5b6121118c838d01611fda565b909a50985060208b013591508082111561212a57600080fd5b6121368c838d01611fda565b909850965060408b013591508082111561214f57600080fd5b5061215c8b828c01611fda565b999c989b509699959896976060870135966080013595509350505050565b600082601f83011261218b57600080fd5b8135602061219b611f1c83611ed7565b82815260059290921b840181019181810190868411156121ba57600080fd5b8286015b84811015611f6257803583529183019183016121be565b600080600080600060a086880312156121ed57600080fd5b6121f686611c03565b945061220460208701611c03565b9350604086013567ffffffffffffffff8082111561222157600080fd5b61222d89838a0161217a565b9450606088013591508082111561224357600080fd5b61224f89838a0161217a565b9350608088013591508082111561226557600080fd5b5061227288828901611dd3565b9150509295509295909350565b600080600080600060a0868803121561229757600080fd5b6122a086611c03565b94506122ae60208701611c03565b93506040860135925060608601359150608086013567ffffffffffffffff8111156122d857600080fd5b61227288828901611dd3565b81835281816020850137506000828201602090810191909152601f909101601f19169091010190565b6001600160a01b038716815285602082015260a06040820152600061233660a0830186886122e4565b60608301949094525060800152949350505050565b6001600160a01b03851681528360208201526060604082015260006123746060830184866122e4565b9695505050505050565b634e487b7160e01b600052603260045260246000fd5b6000602082840312156123a657600080fd5b61088182611c03565b6000808335601e198436030181126123c657600080fd5b83018035915067ffffffffffffffff8211156123e157600080fd5b602001915036819003821315611c6157600080fd5b634e487b7160e01b600052601160045260246000fd5b60006001820161241e5761241e6123f6565b5060010190565b81835260006020808501808196508560051b810191508460005b878110156124aa5782840389528135601e1988360301811261246057600080fd5b8701858101903567ffffffffffffffff81111561247c57600080fd5b80360382131561248b57600080fd5b6124968682846122e4565b9a87019a955050509084019060010161243f565b5091979650505050505050565b60a0808252810188905260008960c08301825b8b8110156124f8576001600160a01b036124e384611c03565b168252602092830192909101906001016124ca565b5083810360208501528881527f07ffffffffffffffffffffffffffffffffffffffffffffffffffffffffffffff89111561253157600080fd5b8860051b9150818a602083013701828103602090810160408501526125599082018789612425565b60608401959095525050608001529695505050505050565b80820180821115610764576107646123f6565b60005b8381101561259f578181015183820152602001612587565b50506000910152565b7f416363657373436f6e74726f6c3a206163636f756e74200000000000000000008152600083516125e0816017850160208801612584565b7f206973206d697373696e6720726f6c6520000000000000000000000000000000601791840191820152835161261d816028840160208801612584565b01602801949350505050565b6020815260008251806020840152612648816040850160208701612584565b601f01601f19169190910160400192915050565b8183823760009101908152919050565b6000816000190483118215151615612686576126866123f6565b500290565b60008161269a5761269a6123f6565b50600019019056fea264697066735822122059c5c853be5237b9717710d25fec5328fe7f4fe1348f30e13f75f0df474940e564736f6c63430008100033"
}