{
  "address": "0x71089Ba41e478702e1904692385Be3972B2cBf9e",
  "abi": [
    {
      "inputs": [],
      "stateMutability": "nonpayable",
      "type": "constructor"
    },
    {
      "anonymous": false,
      "inputs": [
        {
          "indexed": true,
          "internalType": "address",
          "name": "owner",
          "type": "address"
        },
        {
          "indexed": true,
          "internalType": "address",
          "name": "approved",
          "type": "address"
        },
        {
          "indexed": true,
          "internalType": "uint256",
          "name": "tokenId",
          "type": "uint256"
        }
      ],
      "name": "Approval",
      "type": "event"
    },
    {
      "anonymous": false,
      "inputs": [
        {
          "indexed": true,
          "internalType": "address",
          "name": "owner",
          "type": "address"
        },
        {
          "indexed": true,
          "internalType": "address",
          "name": "operator",
          "type": "address"
        },
        {
          "indexed": false,
          "internalType": "bool",
          "name": "approved",
          "type": "bool"
        }
      ],
      "name": "ApprovalForAll",
      "type": "event"
    },
    {
      "anonymous": false,
      "inputs": [
        {
          "indexed": true,
          "internalType": "address",
          "name": "delegator",
          "type": "address"
        },
        {
          "indexed": true,
          "internalType": "address",
          "name": "fromDelegate",
          "type": "address"
        },
        {
          "indexed": true,
          "internalType": "address",
          "name": "toDelegate",
          "type": "address"
        }
      ],
      "name": "DelegateChanged",
      "type": "event"
    },
    {
      "anonymous": false,
      "inputs": [
        {
          "indexed": true,
          "internalType": "address",
          "name": "delegate",
          "type": "address"
        },
        {
          "indexed": false,
          "internalType": "uint256",
          "name": "previousBalance",
          "type": "uint256"
        },
        {
          "indexed": false,
          "internalType": "uint256",
          "name": "newBalance",
          "type": "uint256"
        }
      ],
      "name": "DelegateVotesChanged",
      "type": "event"
    },
    {
      "anonymous": false,
      "inputs": [
        {
          "indexed": true,
          "internalType": "address",
          "name": "previousOwner",
          "type": "address"
        },
        {
          "indexed": true,
          "internalType": "address",
          "name": "newOwner",
          "type": "address"
        }
      ],
      "name": "OwnershipTransferred",
      "type": "event"
    },
    {
      "anonymous": false,
      "inputs": [
        {
          "indexed": false,
          "internalType": "address",
          "name": "account",
          "type": "address"
        }
      ],
      "name": "Paused",
      "type": "event"
    },
    {
      "anonymous": false,
      "inputs": [
        {
          "indexed": true,
          "internalType": "address",
          "name": "from",
          "type": "address"
        },
        {
          "indexed": true,
          "internalType": "address",
          "name": "to",
          "type": "address"
        },
        {
          "indexed": true,
          "internalType": "uint256",
          "name": "tokenId",
          "type": "uint256"
        }
      ],
      "name": "Transfer",
      "type": "event"
    },
    {
      "anonymous": false,
      "inputs": [
        {
          "indexed": false,
          "internalType": "address",
          "name": "account",
          "type": "address"
        }
      ],
      "name": "Unpaused",
      "type": "event"
    },
    {
      "inputs": [],
      "name": "DOMAIN_SEPARATOR",
      "outputs": [
        {
          "internalType": "bytes32",
          "name": "",
          "type": "bytes32"
        }
      ],
      "stateMutability": "view",
      "type": "function"
    },
    {
      "inputs": [
        {
          "internalType": "address",
          "name": "to",
          "type": "address"
        },
        {
          "internalType": "uint256",
          "name": "tokenId",
          "type": "uint256"
        }
      ],
      "name": "approve",
      "outputs": [],
      "stateMutability": "nonpayable",
      "type": "function"
    },
    {
      "inputs": [
        {
          "internalType": "address",
          "name": "owner",
          "type": "address"
        }
      ],
      "name": "balanceOf",
      "outputs": [
        {
          "internalType": "uint256",
          "name": "",
          "type": "uint256"
        }
      ],
      "stateMutability": "view",
      "type": "function"
    },
    {
      "inputs": [
        {
          "internalType": "address",
          "name": "delegatee",
          "type": "address"
        }
      ],
      "name": "delegate",
      "outputs": [],
      "stateMutability": "nonpayable",
      "type": "function"
    },
    {
      "inputs": [
        {
          "internalType": "address",
          "name": "delegatee",
          "type": "address"
        },
        {
          "internalType": "uint256",
          "name": "nonce",
          "type": "uint256"
        },
        {
          "internalType": "uint256",
          "name": "expiry",
          "type": "uint256"
        },
        {
          "internalType": "uint8",
          "name": "v",
          "type": "uint8"
        },
        {
          "internalType": "bytes32",
          "name": "r",
          "type": "bytes32"
        },
        {
          "internalType": "bytes32",
          "name": "s",
          "type": "bytes32"
        }
      ],
      "name": "delegateBySig",
      "outputs": [],
      "stateMutability": "nonpayable",
      "type": "function"
    },
    {
      "inputs": [
        {
          "internalType": "address",
          "name": "account",
          "type": "address"
        }
      ],
      "name": "delegates",
      "outputs": [
        {
          "internalType": "address",
          "name": "",
          "type": "address"
        }
      ],
      "stateMutability": "view",
      "type": "function"
    },
    {
      "inputs": [
        {
          "internalType": "uint256",
          "name": "tokenId",
          "type": "uint256"
        }
      ],
      "name": "getApproved",
      "outputs": [
        {
          "internalType": "address",
          "name": "",
          "type": "address"
        }
      ],
      "stateMutability": "view",
      "type": "function"
    },
    {
      "inputs": [
        {
          "internalType": "uint256",
          "name": "blockNumber",
          "type": "uint256"
        }
      ],
      "name": "getPastTotalSupply",
      "outputs": [
        {
          "internalType": "uint256",
          "name": "",
          "type": "uint256"
        }
      ],
      "stateMutability": "view",
      "type": "function"
    },
    {
      "inputs": [
        {
          "internalType": "address",
          "name": "account",
          "type": "address"
        },
        {
          "internalType": "uint256",
          "name": "blockNumber",
          "type": "uint256"
        }
      ],
      "name": "getPastVotes",
      "outputs": [
        {
          "internalType": "uint256",
          "name": "",
          "type": "uint256"
        }
      ],
      "stateMutability": "view",
      "type": "function"
    },
    {
      "inputs": [
        {
          "internalType": "address",
          "name": "account",
          "type": "address"
        }
      ],
      "name": "getVotes",
      "outputs": [
        {
          "internalType": "uint256",
          "name": "",
          "type": "uint256"
        }
      ],
      "stateMutability": "view",
      "type": "function"
    },
    {
      "inputs": [
        {
          "internalType": "address",
          "name": "owner",
          "type": "address"
        },
        {
          "internalType": "address",
          "name": "operator",
          "type": "address"
        }
      ],
      "name": "isApprovedForAll",
      "outputs": [
        {
          "internalType": "bool",
          "name": "",
          "type": "bool"
        }
      ],
      "stateMutability": "view",
      "type": "function"
    },
    {
      "inputs": [],
      "name": "name",
      "outputs": [
        {
          "internalType": "string",
          "name": "",
          "type": "string"
        }
      ],
      "stateMutability": "view",
      "type": "function"
    },
    {
      "inputs": [
        {
          "internalType": "address",
          "name": "owner",
          "type": "address"
        }
      ],
      "name": "nonces",
      "outputs": [
        {
          "internalType": "uint256",
          "name": "",
          "type": "uint256"
        }
      ],
      "stateMutability": "view",
      "type": "function"
    },
    {
      "inputs": [],
      "name": "owner",
      "outputs": [
        {
          "internalType": "address",
          "name": "",
          "type": "address"
        }
      ],
      "stateMutability": "view",
      "type": "function"
    },
    {
      "inputs": [
        {
          "internalType": "uint256",
          "name": "tokenId",
          "type": "uint256"
        }
      ],
      "name": "ownerOf",
      "outputs": [
        {
          "internalType": "address",
          "name": "",
          "type": "address"
        }
      ],
      "stateMutability": "view",
      "type": "function"
    },
    {
      "inputs": [],
      "name": "pause",
      "outputs": [],
      "stateMutability": "nonpayable",
      "type": "function"
    },
    {
      "inputs": [],
      "name": "paused",
      "outputs": [
        {
          "internalType": "bool",
          "name": "",
          "type": "bool"
        }
      ],
      "stateMutability": "view",
      "type": "function"
    },
    {
      "inputs": [],
      "name": "renounceOwnership",
      "outputs": [],
      "stateMutability": "nonpayable",
      "type": "function"
    },
    {
      "inputs": [
        {
          "internalType": "address",
          "name": "to",
          "type": "address"
        }
      ],
      "name": "safeMint",
      "outputs": [],
      "stateMutability": "nonpayable",
      "type": "function"
    },
    {
      "inputs": [
        {
          "internalType": "address",
          "name": "from",
          "type": "address"
        },
        {
          "internalType": "address",
          "name": "to",
          "type": "address"
        },
        {
          "internalType": "uint256",
          "name": "tokenId",
          "type": "uint256"
        }
      ],
      "name": "safeTransferFrom",
      "outputs": [],
      "stateMutability": "nonpayable",
      "type": "function"
    },
    {
      "inputs": [
        {
          "internalType": "address",
          "name": "from",
          "type": "address"
        },
        {
          "internalType": "address",
          "name": "to",
          "type": "address"
        },
        {
          "internalType": "uint256",
          "name": "tokenId",
          "type": "uint256"
        },
        {
          "internalType": "bytes",
          "name": "data",
          "type": "bytes"
        }
      ],
      "name": "safeTransferFrom",
      "outputs": [],
      "stateMutability": "nonpayable",
      "type": "function"
    },
    {
      "inputs": [
        {
          "internalType": "address",
          "name": "operator",
          "type": "address"
        },
        {
          "internalType": "bool",
          "name": "approved",
          "type": "bool"
        }
      ],
      "name": "setApprovalForAll",
      "outputs": [],
      "stateMutability": "nonpayable",
      "type": "function"
    },
    {
      "inputs": [
        {
          "internalType": "bytes4",
          "name": "interfaceId",
          "type": "bytes4"
        }
      ],
      "name": "supportsInterface",
      "outputs": [
        {
          "internalType": "bool",
          "name": "",
          "type": "bool"
        }
      ],
      "stateMutability": "view",
      "type": "function"
    },
    {
      "inputs": [],
      "name": "symbol",
      "outputs": [
        {
          "internalType": "string",
          "name": "",
          "type": "string"
        }
      ],
      "stateMutability": "view",
      "type": "function"
    },
    {
      "inputs": [
        {
          "internalType": "uint256",
          "name": "index",
          "type": "uint256"
        }
      ],
      "name": "tokenByIndex",
      "outputs": [
        {
          "internalType": "uint256",
          "name": "",
          "type": "uint256"
        }
      ],
      "stateMutability": "view",
      "type": "function"
    },
    {
      "inputs": [
        {
          "internalType": "address",
          "name": "owner",
          "type": "address"
        },
        {
          "internalType": "uint256",
          "name": "index",
          "type": "uint256"
        }
      ],
      "name": "tokenOfOwnerByIndex",
      "outputs": [
        {
          "internalType": "uint256",
          "name": "",
          "type": "uint256"
        }
      ],
      "stateMutability": "view",
      "type": "function"
    },
    {
      "inputs": [
        {
          "internalType": "uint256",
          "name": "tokenId",
          "type": "uint256"
        }
      ],
      "name": "tokenURI",
      "outputs": [
        {
          "internalType": "string",
          "name": "",
          "type": "string"
        }
      ],
      "stateMutability": "view",
      "type": "function"
    },
    {
      "inputs": [],
      "name": "totalSupply",
      "outputs": [
        {
          "internalType": "uint256",
          "name": "",
          "type": "uint256"
        }
      ],
      "stateMutability": "view",
      "type": "function"
    },
    {
      "inputs": [
        {
          "internalType": "address",
          "name": "from",
          "type": "address"
        },
        {
          "internalType": "address",
          "name": "to",
          "type": "address"
        },
        {
          "internalType": "uint256",
          "name": "tokenId",
          "type": "uint256"
        }
      ],
      "name": "transferFrom",
      "outputs": [],
      "stateMutability": "nonpayable",
      "type": "function"
    },
    {
      "inputs": [
        {
          "internalType": "address",
          "name": "newOwner",
          "type": "address"
        }
      ],
      "name": "transferOwnership",
      "outputs": [],
      "stateMutability": "nonpayable",
      "type": "function"
    },
    {
      "inputs": [],
      "name": "unpause",
      "outputs": [],
      "stateMutability": "nonpayable",
      "type": "function"
    }
  ],
  "numDeployments": 2,
  "bytecode": "0x61014080604052346200046257620000178162000467565b6006815265546f6b656e3360d01b602080830182815260405191936200003d8362000467565b60019182845285840190603160f81b8252604051956200005d8762000467565b600687528787015260405193620000748562000467565b6003855262544b3360e81b8886015286516001600160401b03979095908887116200044c576000968754918483811c9316801562000441575b8c841014620003445781908c601f94858111620003eb575b50508c908d8584116001146200038357508a9262000377575b5050600019600383901b1c191690841b1787555b815191898311620003635783548481811c9116801562000358575b8c8210146200034457908b828486959411620002ec575b50508b918311600114620002875788926200027b575b5050600019600383901b1c191690821b1790555b600a80546001600160a81b0319811633600881811b610100600160a81b031692909217909355604051959291901c6001600160a01b03167f8be0079c531659141344cd1fd0a4f28419497f9722a3daafe3b4186f6b6457e08787a351902093519020918360e052610100958387524660a0528201927f8b73c3c69bb8fe3d512ecc4cf759cc79239f7b179b0ffacaa9a75d522b39400f94858552604084015260608301524660808301523060a083015260a0825260c082019482861090861117620002675750836040525190206080523060c052610120908152612b5a928362000484843960805183612958015260a05183612a24015260c05183612929015260e051836129a7015251826129cd015251816129840152f35b634e487b7160e01b81526041600452602490fd5b0151905038806200013a565b8489528b89208594509190601f1984168a8e5b828210620002d45750508411620002ba575b505050811b0190556200014e565b015160001960f88460031b161c19169055388080620002ac565b83850151865588979095019493840193018e6200029a565b9091929350858a5283828b209181870160051c83019387106200033a575b91869588929594930160051c01915b8281106200032b57508d915062000124565b8b815586955087910162000319565b925081926200030a565b634e487b7160e01b89526022600452602489fd5b90607f16906200010d565b634e487b7160e01b88526041600452602488fd5b015190503880620000de565b9190879450601f1984168c8052838d20938d905b828210620003d15750508411620003b7575b505050811b018755620000f2565b015160001960f88460031b161c19169055388080620003a9565b8484015186558a9790950194938401939081019062000397565b909192508a805284828c209181860160051c830193861062000437575b918891869594930160051c01915b8281106200042857508e9150620000c5565b8c815585945088910162000416565b9250819262000408565b92607f1692620000ad565b634e487b7160e01b600052604160045260246000fd5b600080fd5b604081019081106001600160401b038211176200044c5760405256fe6080604081815260048036101561001557600080fd5b600092833560e01c90816301ffc9a7146113825750806306fdde03146112b7578063081812fc1461128f578063095ea7b31461111457806318160ddd146110f557806323b872dd146110cf5780632f745c59146110115780633644e51514610ff45780633a46b1a814610ec05780633f4ba83a14610e2357806340d097c314610bd357806342842e0e14610b775780634f6ccce714610ad3578063587cde1e14610a995780635c19a95c14610a755780635c975abb14610a515780636352211e14610a2157806370a08231146109fb578063715018a6146109995780637ecebe00146109625780638456cb59146109075780638da5cb5b146108dc5780638e539e8c146107b957806395d89b41146106a35780639ab24eb014610665578063a22cb46514610596578063b88d4fde146104e8578063c3cda52014610313578063c87b56dd146102a2578063e985e9c5146102505763f2fde38b1461017857600080fd5b3461024c57602036600319011261024c5761019161145d565b9161019a61154f565b6001600160a01b03908184169283156101fb5750610100600160a81b03600a549460081b16610100600160a81b0319851617600a55519260081c167f8be0079c531659141344cd1fd0a4f28419497f9722a3daafe3b4186f6b6457e08484a3f35b6020608492519162461bcd60e51b8352820152602660248201527f4f776e61626c653a206e6577206f776e657220697320746865207a65726f206160448201526564647265737360d01b6064820152fd5b8280fd5b50503461029e578060031936011261029e5760ff8160209361027061145d565b610278611478565b6001600160a01b0391821683526005875283832091168252855220549151911615158152f35b5080fd5b5091903461029e57602036600319011261029e576102e26102dd61030f943560005260026020526001600160a01b0360406000205416151590565b611def565b8181516102ee816114f5565b528051916102fb836114f5565b82525191829160208352602083019061141d565b0390f35b503461024c5760c036600319011261024c5761032d61145d565b9060243560443560643560ff811681036104e4578142116104a157855190602082017fe48329057bfd03d55e49b547132e39cffd9c1820ad7b9d4c5307691425d15adf81526001600160a01b03938488168985015285606085015260808401526080835260a083019267ffffffffffffffff938181108582111761048e578952519020906103b961291f565b92885192602084019461190160f01b8652602285015260428401526042835260808301908382109082111761047b579161040f9695949391610407938a5260a435926084359251902061286a565b9490946126f8565b83168652600e6020528486209081549160018301905503610438575090610435916115aa565b51f35b606490602085519162461bcd60e51b8352820152601460248201527f566f7465733a20696e76616c6964206e6f6e63650000000000000000000000006044820152fd5b634e487b7160e01b8a526041875260248afd5b634e487b7160e01b8b526041885260248bfd5b855162461bcd60e51b8152602081860152601860248201527f566f7465733a207369676e6174757265206578706972656400000000000000006044820152606490fd5b8680fd5b503461024c57608036600319011261024c5761050261145d565b61050a611478565b906044356064359367ffffffffffffffff85116104e457366023860112156104e4578401359261053984611533565b9261054687519485611511565b8484528736602487890101116105935760208661058e9760246104359a01838901378601015261057e6105798433611f76565b611e9d565b610589838383611fe4565b61247d565b611f0f565b80fd5b503461024c578160031936011261024c576105af61145d565b60243590811515809203610661576001600160a01b03169182331461061e5750338452600560205282842082855260205282842060ff1981541660ff831617905582519081527f17307eab39ab6107e8899845ad3d59bd9653f200f220920489ca2b5937696c3160203392a351f35b606490602085519162461bcd60e51b8352820152601960248201527f4552433732313a20617070726f766520746f2063616c6c6572000000000000006044820152fd5b8480fd5b50503461029e57602036600319011261029e5761069c816020936001600160a01b0361068f61145d565b168152600c8552206125b8565b9051908152f35b5091346105935780600319360112610593578151918160019283549384811c918186169586156107af575b602096878510811461079c578899509688969785829a52918260001461077557505060011461071a575b50505061030f929161070b910385611511565b5192828493845283019061141d565b91908693508083527fb10e2d527612073b26eecdfd717e6a320cf44b4afac2b0732d9fcbe2b7fa0cf65b82841061075d575050508201018161070b61030f6106f8565b8054848a018601528895508794909301928101610744565b60ff19168782015293151560051b8601909301935084925061070b915061030f90506106f8565b634e487b7160e01b835260228a52602483fd5b92607f16926106ce565b509134610593576020366003190112610593578235924384101561089957600d549382905b858210610841575050836108035750602092506001600160e01b0390915b5191168152f35b600019840193841161082e5750506001600160e01b03610824602093612530565b5054831c916107fc565b634e487b7160e01b825260119052602490fd5b9094600190610856818818831c828916611d55565b918363ffffffff61086685612530565b5054161115610879575050945b906107de565b90965081018091111561087357634e487b7160e01b845260118352602484fd5b606490602084519162461bcd60e51b8352820152601a60248201527f566f7465733a20626c6f636b206e6f7420796574206d696e65640000000000006044820152fd5b50503461029e578160031936011261029e576020906001600160a01b03600a5460081c169051908152f35b50503461029e578160031936011261029e5761092161154f565b610929612ab3565b600160ff19600a541617600a557f62e78cea01bee320cd4e420270b5ea74000d11b0c9f74754ebdbfc544b05a25860208251338152a151f35b50503461029e57602036600319011261029e57806020926001600160a01b0361098961145d565b168152600e845220549051908152f35b50503461029e578160031936011261029e576109b361154f565b816001600160a01b03600a5492610100600160a81b03198416600a55519260081c167f8be0079c531659141344cd1fd0a4f28419497f9722a3daafe3b4186f6b6457e08284a3f35b50503461029e57602036600319011261029e5760209061069c610a1c61145d565b611d78565b50913461059357602036600319011261059357506001600160a01b03610a4960209335611e3b565b915191168152f35b50503461029e578160031936011261029e5760209060ff600a541690519015158152f35b50503461029e57602036600319011261029e57610435610a9361145d565b336115aa565b50503461029e57602036600319011261029e57602091816001600160a01b039182610ac261145d565b168152600b85522054169051908152f35b5082346105935760203660031901126105935750803590600854821015610b0e57602083610b00846124e3565b91905490519160031b1c8152f35b608490602084519162461bcd60e51b8352820152602c60248201527f455243373231456e756d657261626c653a20676c6f62616c20696e646578206f60448201527f7574206f6620626f756e647300000000000000000000000000000000000000006064820152fd5b503461024c57610b863661148e565b91845193602085019085821067ffffffffffffffff831117610bc057509161058e93916104359593875287845261057e6105798433611f76565b634e487b7160e01b885260419052602487fd5b5091903461029e5760208060031936011261024c57610bf061145d565b610bf861154f565b600f549060018201600f55835192610c0f846114f5565b8584526001600160a01b03808316918215610de257610c448560005260026020526001600160a01b0360406000205416151590565b610da057610c50612ab3565b828852600b815281878920541615610d91575b6008548589526009825280888a2055600160401b811015610d7e5785610c92826001610cad94016008556124e3565b90919082549060031b600019811b9283911b16911916179055565b610cb684611d78565b83895260068252878920818a52825285888a205585895260078252878920558288526003815286882080549060018201809211610d6b5792600b610d669388878d7fddf252ad1be2c89b69c2b068fc378daa952ba7f163c4a11628f55a4df523b3ef818f6104359f9d9b9961058e9f9d9a5585825260028752808220856001600160a01b031982541617905551a4610d4c6125ea565b50508b80525280898b205416918a52888a20541690611a15565b61231a565b634e487b7160e01b8a5260118b5260248afd5b634e487b7160e01b895260418a52602489fd5b610d9b84806115aa565b610c63565b8860649188519162461bcd60e51b8352820152601c60248201527f4552433732313a20746f6b656e20616c7265616479206d696e746564000000006044820152fd5b888160649289519262461bcd60e51b845283015260248201527f4552433732313a206d696e7420746f20746865207a65726f20616464726573736044820152fd5b503461024c578260031936011261024c57610e3c61154f565b600a549060ff821615610e7d575060ff1916600a557f5db9ee0a495bf2e6ff9c91a7834c1ba4fdd244a5e8aa4e537bd38aeae4b073aa60208251338152a151f35b606490602084519162461bcd60e51b8352820152601460248201527f5061757361626c653a206e6f74207061757365640000000000000000000000006044820152fd5b503461024c578160031936011261024c57610ed961145d565b6001600160a01b03168352600c602052818320602480359243841015610fb45782549386905b858210610f5c57505083610f2457505050506001600160e01b03602092915191168152f35b60001984019592939192918611610f4c575050506108246020936001600160e01b0392612567565b634e487b7160e01b825260119052fd5b9094600190610f71818818831c828916611d55565b918363ffffffff610f82858a612567565b5054161115610f95575050945b90610eff565b909650810180911115610f8f57634e487b7160e01b8852601183528388fd5b60206064928187519362461bcd60e51b85528401528201527f436865636b706f696e74733a20626c6f636b206e6f7420796574206d696e65646044820152fd5b50503461029e578160031936011261029e5760209061069c61291f565b50913461059357816003193601126105935761102b61145d565b6024359061103881611d78565b8210156110665760209284926001600160a01b03849316825260068552828220908252845220549051908152f35b835162461bcd60e51b8152602081870152602b60248201527f455243373231456e756d657261626c653a206f776e657220696e646578206f7560448201527f74206f6620626f756e64730000000000000000000000000000000000000000006064820152608490fd5b50503461029e576104356110e23661148e565b916110f06105798433611f76565b611fe4565b50503461029e578160031936011261029e576020906008549051908152f35b503461024c578160031936011261024c5761112d61145d565b602435916001600160a01b0390818061114586611e3b565b1693169280841461124257803314908115611223575b50156111ba57838652602052838520805473ffffffffffffffffffffffffffffffffffffffff19168317905561119083611e3b565b169251927f8c5be1e5ebec7d5bd14f71427d1e84f3dd0314c0f7b2291e5b200ac8c7c3b9258585a4f35b608490602086519162461bcd60e51b8352820152603e60248201527f4552433732313a20617070726f76652063616c6c6572206973206e6f7420746f60448201527f6b656e206f776e6572206e6f7220617070726f76656420666f7220616c6c00006064820152fd5b90508652600560205284862033875260205260ff85872054163861115b565b855162461bcd60e51b8152602081840152602160248201527f4552433732313a20617070726f76616c20746f2063757272656e74206f776e656044820152603960f91b6064820152608490fd5b50913461059357602036600319011261059357506001600160a01b03610a4960209335611e60565b50913461059357806003193601126105935781519181825492600184811c91818616958615611378575b602096878510811461079c578899509688969785829a52918260001461077557505060011461131d5750505061030f929161070b910385611511565b91908693508280527f290decd9548b62a8d60345a988386fc84ba6bc95484008f6362f93160ef3e5635b828410611360575050508201018161070b61030f6106f8565b8054848a018601528895508794909301928101611347565b92607f16926112e1565b9250503461024c57602036600319011261024c573563ffffffff60e01b811680910361024c576020925063780e9d6360e01b81149081156113dd575b81156113cc575b5015158152f35b637487d9fb60e11b149050386113c5565b90506380ac58cd60e01b8114801561140d575b80156113fd575b906113be565b506301ffc9a760e01b81146113f7565b50635b5e139f60e01b81146113f0565b919082519283825260005b848110611449575050826000602080949584010152601f8019910116010190565b602081830181015184830182015201611428565b600435906001600160a01b038216820361147357565b600080fd5b602435906001600160a01b038216820361147357565b6060906003190112611473576001600160a01b0390600435828116810361147357916024359081168103611473579060443590565b6040810190811067ffffffffffffffff8211176114df57604052565b634e487b7160e01b600052604160045260246000fd5b6020810190811067ffffffffffffffff8211176114df57604052565b90601f8019910116810190811067ffffffffffffffff8211176114df57604052565b67ffffffffffffffff81116114df57601f01601f191660200190565b6001600160a01b03600a5460081c16330361156657565b606460405162461bcd60e51b815260206004820152602060248201527f4f776e61626c653a2063616c6c6572206973206e6f7420746865206f776e65726044820152fd5b91906001600160a01b039081841691600094838652611616602091600b835260409484868a2054168095878b209216978892836001600160a01b03198254161790557f3134e8a2e6d97e929a7e54011ea5485d7d196dd5f0ba4d4ef95803e8e3fc257f8b8951a4611d78565b918481141580611a0c575b61162f575b50505050509050565b80611835575b5083611642575b80611626565b838652600c815261165e83872092611659846125b8565b611d55565b90825461166a846125b8565b93811515806117fb575b156116ee5761168284612a4a565b9860001983019283116116da5750976116af6116c792600080516020612b0583398151915298999a612567565b509063ffffffff82549181199060201b169116179055565b8351928352820152a2803880808061163c565b634e487b7160e01b81526011600452602490fd5b63ffffffff8043116117a85761170385612a4a565b92875190611710826114c3565b8243168252858201936001600160e01b038096168552600160401b821015611794579061174291600182018155612567565b9b909b611780575051915163ffffffff9190921616911660201b63ffffffff19161790965593949293600080516020612b05833981519152936116c7565b634e487b7160e01b81526004819052602490fd5b634e487b7160e01b8d52604160045260248dfd5b865162461bcd60e51b815260048101859052602660248201527f53616665436173743a2076616c756520646f65736e27742066697420696e203360448201526532206269747360d01b6064820152608490fd5b5060001982018281116118215761181763ffffffff9183612567565b5054164314611674565b634e487b7160e01b8a52601160045260248afd5b808752600c8252838720611848816125b8565b8481039081116119f85781549161185e816125b8565b92801515806119d2575b156118c75761187683612a4a565b9160001982019182116118b357600080516020612b0583398151915294926116af8a95936118a393612567565b825191825285820152a238611635565b634e487b7160e01b8c52601160045260248cfd5b9063ffffffff9081431161197f576118de84612a4a565b918951936118eb856114c3565b8143168552888501926001600160e01b038095168452600160401b82101561196b579061191d91600182018155612567565b9490946119575751915163ffffffff9190921616911660201b63ffffffff1916179055600080516020612b058339815191529186916118a3565b634e487b7160e01b8e5260048e905260248efd5b634e487b7160e01b8f52604160045260248ffd5b885162461bcd60e51b815260048101889052602660248201527f53616665436173743a2076616c756520646f65736e27742066697420696e203360448201526532206269747360d01b6064820152608490fd5b5060001981018181116118b3576119ee63ffffffff9184612567565b5054164314611868565b634e487b7160e01b89526011600452602489fd5b50821515611621565b6001600160a01b0391821691168082141580611d4d575b611a34575050565b80611bfa575b5080611a435750565b6000818152600c6020526040812090611a5b826125b8565b90600182018092116116da578254611a72846125b8565b9381151580611bc0575b15611ac657611a8a84612a4a565b9260001983019283116116da5750600080516020612b0583398151915294926116af60409593611ab993612567565b82519182526020820152a2565b63ffffffff804311611b6c57611adb85612a4a565b9260405190611ae9826114c3565b824316825260208201936001600160e01b038096168552600160401b821015611b585790611b1c91600182018155612567565b959095611780575051915163ffffffff9190921616911660201b63ffffffff1916179055600080516020612b0583398151915291604091611ab9565b634e487b7160e01b87526041600452602487fd5b60405162461bcd60e51b815260206004820152602660248201527f53616665436173743a2076616c756520646f65736e27742066697420696e203360448201526532206269747360d01b6064820152608490fd5b506000198201828111611be657611bdc63ffffffff9183612567565b5054164314611a7c565b634e487b7160e01b84526011600452602484fd5b6000818152600c60205260408120611c11816125b8565b6000198082019290918311611be657805490611c2c816125b8565b9482151580611d15575b15611c8157611c4485612a4a565b9383019283116116da5750600080516020612b0583398151915294926116af60409593611c7093612567565b82519182526020820152a238611a3a565b925063ffffffff804311611b6c57611c9885612a4a565b9260405190611ca6826114c3565b824316825260208201936001600160e01b038096168552600160401b821015611b585790611cd991600182018155612567565b959095611780575051915163ffffffff9190921616911660201b63ffffffff1916179055600080516020612b0583398151915291604091611c70565b50838301838111611d3957611d2f63ffffffff9184612567565b5054164314611c36565b634e487b7160e01b82526011600452602482fd5b506001611a2c565b91908201809211611d6257565b634e487b7160e01b600052601160045260246000fd5b6001600160a01b03168015611d9857600052600360205260406000205490565b60405162461bcd60e51b815260206004820152602960248201527f4552433732313a2061646472657373207a65726f206973206e6f7420612076616044820152683634b21037bbb732b960b91b6064820152608490fd5b15611df657565b60405162461bcd60e51b815260206004820152601860248201527f4552433732313a20696e76616c696420746f6b656e20494400000000000000006044820152606490fd5b60005260026020526001600160a01b0360406000205416611e5d811515611def565b90565b611e836102dd8260005260026020526001600160a01b0360406000205416151590565b60005260046020526001600160a01b036040600020541690565b15611ea457565b60405162461bcd60e51b815260206004820152602e60248201527f4552433732313a2063616c6c6572206973206e6f7420746f6b656e206f776e6560448201527f72206e6f7220617070726f7665640000000000000000000000000000000000006064820152608490fd5b15611f1657565b60405162461bcd60e51b815260206004820152603260248201527f4552433732313a207472616e7366657220746f206e6f6e20455243373231526560448201527131b2b4bb32b91034b6b83632b6b2b73a32b960711b6064820152608490fd5b906001600160a01b038080611f8a84611e3b565b16931691838314938415611fbd575b508315611fa7575b50505090565b611fb391929350611e60565b1614388080611fa1565b909350600052600560205260406000208260005260205260ff604060002054169238611f99565b929190611ff082611e3b565b906001600160a01b0392839283871694859116036122c7578282169384156122765761201a612ab3565b600096858852602092600b845260409486868b20541615612267575b83159283156121c15750600854828b526009865280878c2055600160401b8110156121ad5782610c9282600161206f94016008556124e3565b83880361217f575b50808952600484528489206001600160a01b0319908181541690558661209c83611e3b565b1690828b8851937f8c5be1e5ebec7d5bd14f71427d1e84f3dd0314c0f7b2291e5b200ac8c7c3b9258286a4848b5260038652868b20805460001981019190821161216b5755888b5260038652868b208054906001820180921161216b57957fddf252ad1be2c89b69c2b068fc378daa952ba7f163c4a11628f55a4df523b3ef8d61215a9d9e9997958397958e95600b9b5586835260028a52858d842091825416179055a461215c575b83525282828220541693815220541690611a15565b565b6121646125ea565b5050612145565b634e487b7160e01b8d52601160045260248dfd5b61218890611d78565b878a5260068552858a20818b52855281868b2055818a5260078552858a205538612077565b634e487b7160e01b8b52604160045260248bfd5b8885036121cf575b5061206f565b6121d890611d78565b600019810190811161225357828b5260078652868b205481810361221a575b50828b528a87812055848b5260068652868b20908b5285528986812055386121c9565b858c5260068752878c20828d528752878c8181205491818984935260068b528181208582528b5220558c5260078752878c2055386121f7565b634e487b7160e01b8b52601160045260248bfd5b61227181806115aa565b612036565b60405162461bcd60e51b8152602060048201526024808201527f4552433732313a207472616e7366657220746f20746865207a65726f206164646044820152637265737360e01b6064820152608490fd5b60405162461bcd60e51b815260206004820152602560248201527f4552433732313a207472616e736665722066726f6d20696e636f72726563742060448201526437bbb732b960d91b6064820152608490fd5b9192600092909190803b1561247357612370946040518092630a85bd0160e11b9485835233600484015287602484015260448301526080606483015281876001600160a01b038260209b8c97608483019061141d565b0393165af1849181612433575b50612422575050503d60001461241a573d61239781611533565b906123a56040519283611511565b81528091833d92013e5b805191826124175760405162461bcd60e51b815260206004820152603260248201527f4552433732313a207472616e7366657220746f206e6f6e20455243373231526560448201527131b2b4bb32b91034b6b83632b6b2b73a32b960711b6064820152608490fd5b01fd5b5060606123af565b6001600160e01b0319161492509050565b9091508581813d831161246c575b61244b8183611511565b8101031261066157516001600160e01b03198116810361066157903861237d565b503d612441565b5050915050600190565b9293600093909291803b156124d8579484916123709660405180948193630a85bd0160e11b978884523360048501526001600160a01b0380921660248501526044840152608060648401528260209b8c97608483019061141d565b505050915050600190565b60085481101561251a5760086000527ff3f7a9fe364faab93b216da50a3214154f22a0a2b415b23a84c8169e8b636ee30190600090565b634e487b7160e01b600052603260045260246000fd5b600d5481101561251a57600d6000527fd7b6990105719101dabeb77144f2a3385c8033acd3af97e9423a695e81ad1eb50190600090565b805482101561251a5760005260206000200190600090565b600d5460008161259157506000919050565b60001982019182116116da57506125af6001600160e01b0391612530565b505460201c1690565b8054906000826125cb5750600092915050565b60001983019283116116da57506001600160e01b03916125af91612567565b6125f261257f565b9060018201809211611d6257600d5461260961257f565b90801515806126d3575b1561263d5761262184612a4a565b6000198201918211611d62576116af61263992612530565b9190565b63ffffffff804311611b6c5761265285612a4a565b6040519261265f846114c3565b824316845260208401906001600160e01b038093168252600160401b8110156114df578060016126929201600d55612530565b9390936126bd579351905163ffffffff9190941616921660201b63ffffffff19169190911790559190565b634e487b7160e01b600052600060045260246000fd5b506000198101818111611d62576126ee63ffffffff91612530565b5054164314612613565b600581101561285457806127095750565b600181036127565760405162461bcd60e51b815260206004820152601860248201527f45434453413a20696e76616c6964207369676e617475726500000000000000006044820152606490fd5b600281036127a35760405162461bcd60e51b815260206004820152601f60248201527f45434453413a20696e76616c6964207369676e6174757265206c656e677468006044820152606490fd5b600381036127fb5760405162461bcd60e51b815260206004820152602260248201527f45434453413a20696e76616c6964207369676e6174757265202773272076616c604482015261756560f01b6064820152608490fd5b60041461280457565b60405162461bcd60e51b815260206004820152602260248201527f45434453413a20696e76616c6964207369676e6174757265202776272076616c604482015261756560f01b6064820152608490fd5b634e487b7160e01b600052602160045260246000fd5b9291907f7fffffffffffffffffffffffffffffff5d576e7357a4501ddfe92f46681b20a083116129135760ff16601b81141580612908575b6128fc579160809493916020936040519384528484015260408301526060820152600093849182805260015afa156128ef5781516001600160a01b038116156128e9579190565b50600190565b50604051903d90823e3d90fd5b50505050600090600490565b50601c8114156128a2565b50505050600090600390565b6001600160a01b037f000000000000000000000000000000000000000000000000000000000000000016301480612a21575b1561297a577f000000000000000000000000000000000000000000000000000000000000000090565b60405160208101907f000000000000000000000000000000000000000000000000000000000000000082527f000000000000000000000000000000000000000000000000000000000000000060408201527f000000000000000000000000000000000000000000000000000000000000000060608201524660808201523060a082015260a0815260c0810181811067ffffffffffffffff8211176114df5760405251902090565b507f00000000000000000000000000000000000000000000000000000000000000004614612951565b6001600160e01b0390818111612a5e571690565b60405162461bcd60e51b815260206004820152602760248201527f53616665436173743a2076616c756520646f65736e27742066697420696e20326044820152663234206269747360c81b6064820152608490fd5b60ff600a5416612abf57565b60405162461bcd60e51b815260206004820152601060248201527f5061757361626c653a20706175736564000000000000000000000000000000006044820152606490fdfedec2bacdd2f05b59de34da9b523dff8be42e5e38e818c82fdb0bae774387a724a2646970667358221220727eb1612e689406e7e5fa38732370fdc8b20731b2f6ee0962221bc6e93df0b164736f6c63430008100033"
}