{
  "address": "0x1fA02b2d6A771842690194Cf62D91bdd92BfE28d",
  "abi": [
    {
      "inputs": [
        {
          "internalType": "contract TimelockController",
          "name": "_timelock",
          "type": "address"
        },
        {
          "internalType": "contract Senate",
          "name": "_senate",
          "type": "address"
        }
      ],
      "stateMutability": "nonpayable",
      "type": "constructor"
    },
    {
      "inputs": [],
      "name": "Empty",
      "type": "error"
    },
    {
      "anonymous": false,
      "inputs": [
        {
          "indexed": false,
          "internalType": "uint256",
          "name": "proposalId",
          "type": "uint256"
        }
      ],
      "name": "ProposalCanceled",
      "type": "event"
    },
    {
      "anonymous": false,
      "inputs": [
        {
          "indexed": false,
          "internalType": "uint256",
          "name": "proposalId",
          "type": "uint256"
        },
        {
          "indexed": false,
          "internalType": "address",
          "name": "proposer",
          "type": "address"
        },
        {
          "indexed": false,
          "internalType": "address[]",
          "name": "targets",
          "type": "address[]"
        },
        {
          "indexed": false,
          "internalType": "uint256[]",
          "name": "values",
          "type": "uint256[]"
        },
        {
          "indexed": false,
          "internalType": "string[]",
          "name": "signatures",
          "type": "string[]"
        },
        {
          "indexed": false,
          "internalType": "bytes[]",
          "name": "calldatas",
          "type": "bytes[]"
        },
        {
          "indexed": false,
          "internalType": "uint256",
          "name": "startBlock",
          "type": "uint256"
        },
        {
          "indexed": false,
          "internalType": "uint256",
          "name": "endBlock",
          "type": "uint256"
        },
        {
          "indexed": false,
          "internalType": "string",
          "name": "description",
          "type": "string"
        }
      ],
      "name": "ProposalCreated",
      "type": "event"
    },
    {
      "anonymous": false,
      "inputs": [
        {
          "indexed": false,
          "internalType": "uint256",
          "name": "proposalId",
          "type": "uint256"
        }
      ],
      "name": "ProposalExecuted",
      "type": "event"
    },
    {
      "anonymous": false,
      "inputs": [
        {
          "indexed": false,
          "internalType": "uint256",
          "name": "proposalId",
          "type": "uint256"
        },
        {
          "indexed": false,
          "internalType": "uint256",
          "name": "eta",
          "type": "uint256"
        }
      ],
      "name": "ProposalQueued",
      "type": "event"
    },
    {
      "anonymous": false,
      "inputs": [
        {
          "indexed": false,
          "internalType": "address",
          "name": "oldSenate",
          "type": "address"
        },
        {
          "indexed": false,
          "internalType": "address",
          "name": "newSenate",
          "type": "address"
        }
      ],
      "name": "SenateChange",
      "type": "event"
    },
    {
      "anonymous": false,
      "inputs": [
        {
          "indexed": false,
          "internalType": "address",
          "name": "oldTimelock",
          "type": "address"
        },
        {
          "indexed": false,
          "internalType": "address",
          "name": "newTimelock",
          "type": "address"
        }
      ],
      "name": "TimelockChange",
      "type": "event"
    },
    {
      "anonymous": false,
      "inputs": [
        {
          "indexed": true,
          "internalType": "address",
          "name": "voter",
          "type": "address"
        },
        {
          "indexed": false,
          "internalType": "uint256",
          "name": "proposalId",
          "type": "uint256"
        },
        {
          "indexed": false,
          "internalType": "uint8",
          "name": "support",
          "type": "uint8"
        },
        {
          "indexed": false,
          "internalType": "uint256",
          "name": "weight",
          "type": "uint256"
        },
        {
          "indexed": false,
          "internalType": "string",
          "name": "reason",
          "type": "string"
        }
      ],
      "name": "VoteCast",
      "type": "event"
    },
    {
      "anonymous": false,
      "inputs": [
        {
          "indexed": true,
          "internalType": "address",
          "name": "voter",
          "type": "address"
        },
        {
          "indexed": false,
          "internalType": "uint256",
          "name": "proposalId",
          "type": "uint256"
        },
        {
          "indexed": false,
          "internalType": "uint8",
          "name": "support",
          "type": "uint8"
        },
        {
          "indexed": false,
          "internalType": "uint256",
          "name": "weight",
          "type": "uint256"
        },
        {
          "indexed": false,
          "internalType": "string",
          "name": "reason",
          "type": "string"
        },
        {
          "indexed": false,
          "internalType": "bytes",
          "name": "params",
          "type": "bytes"
        }
      ],
      "name": "VoteCastWithParams",
      "type": "event"
    },
    {
      "inputs": [],
      "name": "BALLOT_TYPEHASH",
      "outputs": [
        {
          "internalType": "bytes32",
          "name": "",
          "type": "bytes32"
        }
      ],
      "stateMutability": "view",
      "type": "function"
    },
    {
      "inputs": [],
      "name": "COUNTING_MODE",
      "outputs": [
        {
          "internalType": "string",
          "name": "",
          "type": "string"
        }
      ],
      "stateMutability": "pure",
      "type": "function"
    },
    {
      "inputs": [],
      "name": "EXTENDED_BALLOT_TYPEHASH",
      "outputs": [
        {
          "internalType": "bytes32",
          "name": "",
          "type": "bytes32"
        }
      ],
      "stateMutability": "view",
      "type": "function"
    },
    {
      "inputs": [
        {
          "internalType": "uint256",
          "name": "proposalId",
          "type": "uint256"
        }
      ],
      "name": "cancel",
      "outputs": [],
      "stateMutability": "nonpayable",
      "type": "function"
    },
    {
      "inputs": [
        {
          "internalType": "uint256",
          "name": "proposalId",
          "type": "uint256"
        },
        {
          "internalType": "uint8",
          "name": "support",
          "type": "uint8"
        }
      ],
      "name": "castVote",
      "outputs": [
        {
          "internalType": "uint256",
          "name": "",
          "type": "uint256"
        }
      ],
      "stateMutability": "nonpayable",
      "type": "function"
    },
    {
      "inputs": [
        {
          "internalType": "uint256",
          "name": "proposalId",
          "type": "uint256"
        },
        {
          "internalType": "uint8",
          "name": "support",
          "type": "uint8"
        },
        {
          "internalType": "uint8",
          "name": "v",
          "type": "uint8"
        },
        {
          "internalType": "bytes32",
          "name": "r",
          "type": "bytes32"
        },
        {
          "internalType": "bytes32",
          "name": "s",
          "type": "bytes32"
        }
      ],
      "name": "castVoteBySig",
      "outputs": [
        {
          "internalType": "uint256",
          "name": "",
          "type": "uint256"
        }
      ],
      "stateMutability": "nonpayable",
      "type": "function"
    },
    {
      "inputs": [
        {
          "internalType": "uint256",
          "name": "proposalId",
          "type": "uint256"
        },
        {
          "internalType": "uint8",
          "name": "support",
          "type": "uint8"
        },
        {
          "internalType": "string",
          "name": "reason",
          "type": "string"
        }
      ],
      "name": "castVoteWithReason",
      "outputs": [
        {
          "internalType": "uint256",
          "name": "",
          "type": "uint256"
        }
      ],
      "stateMutability": "nonpayable",
      "type": "function"
    },
    {
      "inputs": [
        {
          "internalType": "uint256",
          "name": "proposalId",
          "type": "uint256"
        },
        {
          "internalType": "uint8",
          "name": "support",
          "type": "uint8"
        },
        {
          "internalType": "string",
          "name": "reason",
          "type": "string"
        },
        {
          "internalType": "bytes",
          "name": "params",
          "type": "bytes"
        }
      ],
      "name": "castVoteWithReasonAndParams",
      "outputs": [
        {
          "internalType": "uint256",
          "name": "",
          "type": "uint256"
        }
      ],
      "stateMutability": "nonpayable",
      "type": "function"
    },
    {
      "inputs": [
        {
          "internalType": "uint256",
          "name": "proposalId",
          "type": "uint256"
        },
        {
          "internalType": "uint8",
          "name": "support",
          "type": "uint8"
        },
        {
          "internalType": "string",
          "name": "reason",
          "type": "string"
        },
        {
          "internalType": "bytes",
          "name": "params",
          "type": "bytes"
        },
        {
          "internalType": "uint8",
          "name": "v",
          "type": "uint8"
        },
        {
          "internalType": "bytes32",
          "name": "r",
          "type": "bytes32"
        },
        {
          "internalType": "bytes32",
          "name": "s",
          "type": "bytes32"
        }
      ],
      "name": "castVoteWithReasonAndParamsBySig",
      "outputs": [
        {
          "internalType": "uint256",
          "name": "",
          "type": "uint256"
        }
      ],
      "stateMutability": "nonpayable",
      "type": "function"
    },
    {
      "inputs": [
        {
          "internalType": "address[]",
          "name": "targets",
          "type": "address[]"
        },
        {
          "internalType": "uint256[]",
          "name": "values",
          "type": "uint256[]"
        },
        {
          "internalType": "bytes[]",
          "name": "calldatas",
          "type": "bytes[]"
        },
        {
          "internalType": "bytes32",
          "name": "descriptionHash",
          "type": "bytes32"
        }
      ],
      "name": "execute",
      "outputs": [
        {
          "internalType": "uint256",
          "name": "",
          "type": "uint256"
        }
      ],
      "stateMutability": "payable",
      "type": "function"
    },
    {
      "inputs": [
        {
          "internalType": "uint256",
          "name": "proposalId",
          "type": "uint256"
        }
      ],
      "name": "execute",
      "outputs": [],
      "stateMutability": "payable",
      "type": "function"
    },
    {
      "inputs": [
        {
          "internalType": "uint256",
          "name": "proposalId",
          "type": "uint256"
        }
      ],
      "name": "getActions",
      "outputs": [
        {
          "internalType": "address[]",
          "name": "targets",
          "type": "address[]"
        },
        {
          "internalType": "uint256[]",
          "name": "values",
          "type": "uint256[]"
        },
        {
          "internalType": "string[]",
          "name": "signatures",
          "type": "string[]"
        },
        {
          "internalType": "bytes[]",
          "name": "calldatas",
          "type": "bytes[]"
        }
      ],
      "stateMutability": "view",
      "type": "function"
    },
    {
      "inputs": [
        {
          "internalType": "uint256",
          "name": "proposalId",
          "type": "uint256"
        },
        {
          "internalType": "address",
          "name": "voter",
          "type": "address"
        }
      ],
      "name": "getReceipt",
      "outputs": [
        {
          "components": [
            {
              "internalType": "bool",
              "name": "hasVoted",
              "type": "bool"
            },
            {
              "internalType": "uint8",
              "name": "support",
              "type": "uint8"
            },
            {
              "internalType": "uint96",
              "name": "votes",
              "type": "uint96"
            }
          ],
          "internalType": "struct IChancelorCompatibilityBravo.Receipt",
          "name": "",
          "type": "tuple"
        }
      ],
      "stateMutability": "view",
      "type": "function"
    },
    {
      "inputs": [],
      "name": "getSettings",
      "outputs": [
        {
          "internalType": "uint256",
          "name": "currProposalThreshold",
          "type": "uint256"
        },
        {
          "internalType": "uint256",
          "name": "currVotingDelay",
          "type": "uint256"
        },
        {
          "internalType": "uint256",
          "name": "currVotingPeriod",
          "type": "uint256"
        }
      ],
      "stateMutability": "view",
      "type": "function"
    },
    {
      "inputs": [
        {
          "internalType": "address",
          "name": "account",
          "type": "address"
        },
        {
          "internalType": "uint256",
          "name": "blockNumber",
          "type": "uint256"
        }
      ],
      "name": "getVotes",
      "outputs": [
        {
          "internalType": "uint256",
          "name": "",
          "type": "uint256"
        }
      ],
      "stateMutability": "view",
      "type": "function"
    },
    {
      "inputs": [
        {
          "internalType": "address",
          "name": "account",
          "type": "address"
        },
        {
          "internalType": "uint256",
          "name": "blockNumber",
          "type": "uint256"
        },
        {
          "internalType": "bytes",
          "name": "params",
          "type": "bytes"
        }
      ],
      "name": "getVotesWithParams",
      "outputs": [
        {
          "internalType": "uint256",
          "name": "",
          "type": "uint256"
        }
      ],
      "stateMutability": "view",
      "type": "function"
    },
    {
      "inputs": [
        {
          "internalType": "uint256",
          "name": "proposalId",
          "type": "uint256"
        },
        {
          "internalType": "address",
          "name": "account",
          "type": "address"
        }
      ],
      "name": "hasVoted",
      "outputs": [
        {
          "internalType": "bool",
          "name": "",
          "type": "bool"
        }
      ],
      "stateMutability": "view",
      "type": "function"
    },
    {
      "inputs": [
        {
          "internalType": "address[]",
          "name": "targets",
          "type": "address[]"
        },
        {
          "internalType": "uint256[]",
          "name": "values",
          "type": "uint256[]"
        },
        {
          "internalType": "bytes[]",
          "name": "calldatas",
          "type": "bytes[]"
        },
        {
          "internalType": "bytes32",
          "name": "descriptionHash",
          "type": "bytes32"
        }
      ],
      "name": "hashProposal",
      "outputs": [
        {
          "internalType": "uint256",
          "name": "",
          "type": "uint256"
        }
      ],
      "stateMutability": "pure",
      "type": "function"
    },
    {
      "inputs": [],
      "name": "name",
      "outputs": [
        {
          "internalType": "string",
          "name": "",
          "type": "string"
        }
      ],
      "stateMutability": "view",
      "type": "function"
    },
    {
      "inputs": [
        {
          "internalType": "address",
          "name": "",
          "type": "address"
        },
        {
          "internalType": "address",
          "name": "",
          "type": "address"
        },
        {
          "internalType": "uint256[]",
          "name": "",
          "type": "uint256[]"
        },
        {
          "internalType": "uint256[]",
          "name": "",
          "type": "uint256[]"
        },
        {
          "internalType": "bytes",
          "name": "",
          "type": "bytes"
        }
      ],
      "name": "onERC1155BatchReceived",
      "outputs": [
        {
          "internalType": "bytes4",
          "name": "",
          "type": "bytes4"
        }
      ],
      "stateMutability": "nonpayable",
      "type": "function"
    },
    {
      "inputs": [
        {
          "internalType": "address",
          "name": "",
          "type": "address"
        },
        {
          "internalType": "address",
          "name": "",
          "type": "address"
        },
        {
          "internalType": "uint256",
          "name": "",
          "type": "uint256"
        },
        {
          "internalType": "uint256",
          "name": "",
          "type": "uint256"
        },
        {
          "internalType": "bytes",
          "name": "",
          "type": "bytes"
        }
      ],
      "name": "onERC1155Received",
      "outputs": [
        {
          "internalType": "bytes4",
          "name": "",
          "type": "bytes4"
        }
      ],
      "stateMutability": "nonpayable",
      "type": "function"
    },
    {
      "inputs": [
        {
          "internalType": "address",
          "name": "",
          "type": "address"
        },
        {
          "internalType": "address",
          "name": "",
          "type": "address"
        },
        {
          "internalType": "uint256",
          "name": "",
          "type": "uint256"
        },
        {
          "internalType": "bytes",
          "name": "",
          "type": "bytes"
        }
      ],
      "name": "onERC721Received",
      "outputs": [
        {
          "internalType": "bytes4",
          "name": "",
          "type": "bytes4"
        }
      ],
      "stateMutability": "nonpayable",
      "type": "function"
    },
    {
      "inputs": [
        {
          "internalType": "uint256",
          "name": "proposalId",
          "type": "uint256"
        }
      ],
      "name": "proposalDeadline",
      "outputs": [
        {
          "internalType": "uint256",
          "name": "",
          "type": "uint256"
        }
      ],
      "stateMutability": "view",
      "type": "function"
    },
    {
      "inputs": [
        {
          "internalType": "uint256",
          "name": "proposalId",
          "type": "uint256"
        }
      ],
      "name": "proposalEta",
      "outputs": [
        {
          "internalType": "uint256",
          "name": "",
          "type": "uint256"
        }
      ],
      "stateMutability": "view",
      "type": "function"
    },
    {
      "inputs": [
        {
          "internalType": "uint256",
          "name": "proposalId",
          "type": "uint256"
        }
      ],
      "name": "proposalSnapshot",
      "outputs": [
        {
          "internalType": "uint256",
          "name": "",
          "type": "uint256"
        }
      ],
      "stateMutability": "view",
      "type": "function"
    },
    {
      "inputs": [],
      "name": "proposalThreshold",
      "outputs": [
        {
          "internalType": "uint256",
          "name": "",
          "type": "uint256"
        }
      ],
      "stateMutability": "view",
      "type": "function"
    },
    {
      "inputs": [
        {
          "internalType": "uint256",
          "name": "proposalId",
          "type": "uint256"
        }
      ],
      "name": "proposals",
      "outputs": [
        {
          "internalType": "uint256",
          "name": "id",
          "type": "uint256"
        },
        {
          "internalType": "address",
          "name": "proposer",
          "type": "address"
        },
        {
          "internalType": "uint256",
          "name": "eta",
          "type": "uint256"
        },
        {
          "internalType": "uint256",
          "name": "startBlock",
          "type": "uint256"
        },
        {
          "internalType": "uint256",
          "name": "endBlock",
          "type": "uint256"
        },
        {
          "internalType": "uint256",
          "name": "forVotes",
          "type": "uint256"
        },
        {
          "internalType": "uint256",
          "name": "againstVotes",
          "type": "uint256"
        },
        {
          "internalType": "uint256",
          "name": "abstainVotes",
          "type": "uint256"
        },
        {
          "internalType": "bool",
          "name": "canceled",
          "type": "bool"
        },
        {
          "internalType": "bool",
          "name": "executed",
          "type": "bool"
        }
      ],
      "stateMutability": "view",
      "type": "function"
    },
    {
      "inputs": [
        {
          "internalType": "address[]",
          "name": "targets",
          "type": "address[]"
        },
        {
          "internalType": "uint256[]",
          "name": "values",
          "type": "uint256[]"
        },
        {
          "internalType": "bytes[]",
          "name": "calldatas",
          "type": "bytes[]"
        },
        {
          "internalType": "string",
          "name": "description",
          "type": "string"
        }
      ],
      "name": "propose",
      "outputs": [
        {
          "internalType": "uint256",
          "name": "",
          "type": "uint256"
        }
      ],
      "stateMutability": "nonpayable",
      "type": "function"
    },
    {
      "inputs": [
        {
          "internalType": "address[]",
          "name": "targets",
          "type": "address[]"
        },
        {
          "internalType": "uint256[]",
          "name": "values",
          "type": "uint256[]"
        },
        {
          "internalType": "string[]",
          "name": "signatures",
          "type": "string[]"
        },
        {
          "internalType": "bytes[]",
          "name": "calldatas",
          "type": "bytes[]"
        },
        {
          "internalType": "string",
          "name": "description",
          "type": "string"
        }
      ],
      "name": "propose",
      "outputs": [
        {
          "internalType": "uint256",
          "name": "",
          "type": "uint256"
        }
      ],
      "stateMutability": "nonpayable",
      "type": "function"
    },
    {
      "inputs": [
        {
          "internalType": "address[]",
          "name": "targets",
          "type": "address[]"
        },
        {
          "internalType": "uint256[]",
          "name": "values",
          "type": "uint256[]"
        },
        {
          "internalType": "bytes[]",
          "name": "calldatas",
          "type": "bytes[]"
        },
        {
          "internalType": "bytes32",
          "name": "descriptionHash",
          "type": "bytes32"
        }
      ],
      "name": "queue",
      "outputs": [
        {
          "internalType": "uint256",
          "name": "",
          "type": "uint256"
        }
      ],
      "stateMutability": "nonpayable",
      "type": "function"
    },
    {
      "inputs": [
        {
          "internalType": "uint256",
          "name": "proposalId",
          "type": "uint256"
        }
      ],
      "name": "queue",
      "outputs": [],
      "stateMutability": "nonpayable",
      "type": "function"
    },
    {
      "inputs": [
        {
          "internalType": "uint256",
          "name": "blockNumber",
          "type": "uint256"
        }
      ],
      "name": "quorum",
      "outputs": [
        {
          "internalType": "uint256",
          "name": "",
          "type": "uint256"
        }
      ],
      "stateMutability": "view",
      "type": "function"
    },
    {
      "inputs": [
        {
          "internalType": "uint256",
          "name": "proposalId",
          "type": "uint256"
        }
      ],
      "name": "quorumReached",
      "outputs": [
        {
          "internalType": "bool",
          "name": "",
          "type": "bool"
        }
      ],
      "stateMutability": "view",
      "type": "function"
    },
    {
      "inputs": [],
      "name": "quorumVotes",
      "outputs": [
        {
          "internalType": "uint256",
          "name": "",
          "type": "uint256"
        }
      ],
      "stateMutability": "view",
      "type": "function"
    },
    {
      "inputs": [
        {
          "internalType": "address",
          "name": "target",
          "type": "address"
        },
        {
          "internalType": "uint256",
          "name": "value",
          "type": "uint256"
        },
        {
          "internalType": "bytes",
          "name": "data",
          "type": "bytes"
        }
      ],
      "name": "relay",
      "outputs": [],
      "stateMutability": "nonpayable",
      "type": "function"
    },
    {
      "inputs": [],
      "name": "senate",
      "outputs": [
        {
          "internalType": "address",
          "name": "",
          "type": "address"
        }
      ],
      "stateMutability": "view",
      "type": "function"
    },
    {
      "inputs": [
        {
          "internalType": "uint256",
          "name": "proposalId",
          "type": "uint256"
        }
      ],
      "name": "state",
      "outputs": [
        {
          "internalType": "enum IChancelor.ProposalState",
          "name": "",
          "type": "uint8"
        }
      ],
      "stateMutability": "view",
      "type": "function"
    },
    {
      "inputs": [
        {
          "internalType": "bytes4",
          "name": "interfaceId",
          "type": "bytes4"
        }
      ],
      "name": "supportsInterface",
      "outputs": [
        {
          "internalType": "bool",
          "name": "",
          "type": "bool"
        }
      ],
      "stateMutability": "view",
      "type": "function"
    },
    {
      "inputs": [],
      "name": "timelock",
      "outputs": [
        {
          "internalType": "address",
          "name": "",
          "type": "address"
        }
      ],
      "stateMutability": "view",
      "type": "function"
    },
    {
      "inputs": [
        {
          "internalType": "contract Senate",
          "name": "newSenate",
          "type": "address"
        }
      ],
      "name": "updateSenate",
      "outputs": [],
      "stateMutability": "nonpayable",
      "type": "function"
    },
    {
      "inputs": [
        {
          "internalType": "contract TimelockController",
          "name": "newTimelock",
          "type": "address"
        }
      ],
      "name": "updateTimelock",
      "outputs": [],
      "stateMutability": "nonpayable",
      "type": "function"
    },
    {
      "inputs": [],
      "name": "version",
      "outputs": [
        {
          "internalType": "string",
          "name": "",
          "type": "string"
        }
      ],
      "stateMutability": "view",
      "type": "function"
    },
    {
      "inputs": [],
      "name": "votingDelay",
      "outputs": [
        {
          "internalType": "uint256",
          "name": "",
          "type": "uint256"
        }
      ],
      "stateMutability": "view",
      "type": "function"
    },
    {
      "inputs": [],
      "name": "votingPeriod",
      "outputs": [
        {
          "internalType": "uint256",
          "name": "",
          "type": "uint256"
        }
      ],
      "stateMutability": "view",
      "type": "function"
    },
    {
      "stateMutability": "payable",
      "type": "receive"
    }
  ],
  "numDeployments": 5,
  "bytecode": "0x6101403462000371576001600160401b039062003fc0601f1938829003601f81018216840190848210868311176200035b5780859160409586948552833981010312620003715782516001600160a01b03808216929183900362000371576020809501519181831680930362000371578451966200007d8862000376565b6011885286880196702932b83ab13634b1a1b430b731b2b637b960791b8852808751620000aa8162000376565b60019281848093520199603160f81b8b528b5190209920998960e0526101009a808c524660a0528951838101917f8b73c3c69bb8fe3d512ecc4cf759cc79239f7b179b0ffacaa9a75d522b39400f9c8d84528c83015260608201524660808201523060a082015260a0815260c08101818110878211176200035b578b525190206080523060c052610120998a5280519384116200035b576032548381811c9116801562000350575b838210146200033a57601f8111620002eb575b5081601f85116001146200028057508394509083929160009462000274575b50501b916000199060031b1c1916176032555b60375484516001600160a01b0383831681168252841660208201529092907f304e188ff78544bf68047712e88b34e09b3e2f53411c33ea1f31c8db0323955290604090a16001600160a01b03199283161760375560385484516001600160a01b03928216831681529184166020830152907f08f74ea46ef7894f65eabfb5e6e695de773a000b47c529ab559178069b22640190604090a116176038555190613c2d92836200039384396080518361242e015260a051836124e3015260c051836123ff015260e0518361247d015251826124a30152518161245a0152f35b01519250388062000184565b929484908116603260005284600020946000905b88838310620002d05750505010620002b6575b505050811b0160325562000197565b015160001960f88460031b161c19169055388080620002a7565b85870151885590960195948501948793509081019062000294565b603260005282600020601f860160051c8101918487106200032f575b601f0160051c019084905b8281106200032257505062000165565b6000815501849062000312565b909150819062000307565b634e487b7160e01b600052602260045260246000fd5b90607f169062000152565b634e487b7160e01b600052604160045260246000fd5b600080fd5b604081019081106001600160401b038211176200035b5760405256fe60406080815260049081361015610037575b5050361561001e57600080fd5b6001600160a01b0360385416300361003257005b600080fd5b600091823560e01c8063013cf08b146117b557806301ffc9a7146116f957806302a251a3146116b057806303420181146115ac57806306fdde03146114c7578063150b7a0214611471578063160cbed7146114525780631cced8931461138f57806324bc1a641461131f5780632656227d146113075780632d63f693146112d75780632fe3e2611461129c578063328dd982146112035780633932abb1146111785780633bccf4fd146110bb5780633e4f49e61461107657806340e58ee514610df55780634385963214610dac57806354fd4d5014610d6b5780635678138814610d305780635f398a1414610cbd5780637b3c71d314610c5b5780637d5e81e214610bd257806385b4bb5314610ba35780639a802a6d14610b49578063a6e5b8e614610b21578063a890c91014610a5a578063ab58fb8e14610a3a578063b58131b014610a1d578063bc197c8114610996578063c01f9e371461095a578063c28bc2fa14610797578063c59057e414610778578063d33219b414610750578063d4a8dd9814610727578063da95691a146105e7578063dd4e2ba514610586578063ddf0b00914610534578063deaaa7cc146104f9578063e23a9a5214610450578063eb9019d41461037a578063f23a6e6114610321578063f8ce560a146102915763fe0d94c1146102285750610011565b602036600319011261028d57806102899135845260366020526102658385209161025f610257600385016129ef565b9184016129ef565b90612b92565b600982015491610283600261027c60018401612acc565b9201612b26565b90611e80565b5051f35b8280fd5b5091903461031d576020928360031936011261028d57836001600160a01b0360375416916024845180948193637c672b0560e11b83528035908301525afa92831561031257926102e3575b5051908152f35b9091508281813d831161030b575b6102fb8183611999565b81010312610032575190386102dc565b503d6102f1565b8251903d90823e3d90fd5b5080fd5b5091346103775760a03660031901126103775761033c611aa9565b50610345611abf565b506084359067ffffffffffffffff8211610377575060209261036991369101611a43565b505163f23a6e6160e01b8152f35b80fd5b5091903461031d578060031936011261031d576020610397611aa9565b938383516103a481611961565b526001600160a01b038060375416908451966103bf88611961565b8688526103f686519889958694859463f8ef763b60e01b865216908401526024356024840152606060448401526064830190611a84565b03915afa9182156104455791610411575b6020925051908152f35b90506020823d821161043d575b8161042b60209383611999565b81010312610032576020915190610407565b3d915061041e565b9051903d90823e3d90fd5b503461028d578160031936011261028d576001600160a01b03600883606095610477611abf565b94818380516104858161190d565b828152826020820152015235815260366020522001911660005260205280600020908051916104b38361190d565b5460ff811615159283815260ff836020830192828560081c16845201916bffffffffffffffffffffffff809460101c168352845195865251166020850152511690820152f35b50503461031d578160031936011261031d57602090517f150214d74d59b7d1e90c73fc22ef3d991dd0a76b046543d4d80ab92d2a50328f8152f35b503461028d57602036600319011261028d57806102899135845260366020526105698385209161025f610257600385016129ef565b600982015491610580600261027c60018401612acc565b906132ea565b50503461031d578160031936011261031d5780516105e3916105a78261197d565b601a82527f737570706f72743d627261766f2671756f72756d3d627261766f000000000000602083015251918291602083526020830190611a84565b0390f35b50903461028d5760a036600319011261028d5767ffffffffffffffff9180358381116107235761061a9036908301611aed565b602491823585811161071f576106339036908301611b5b565b906044359580871161071b573660238801121561071b57868201359461065886611ad5565b9561066588519788611999565b808752602098828a89019260051b8201019236841161071757808201925b8484106106ed5750505050506064358181116106e9576106a69036908401611bb9565b976084359182116103775750966106c86106dc926106e2979899369101611a43565b946106d7868383878933612d15565b612b92565b91613816565b9051908152f35b8880fd5b8335868111610713578c916107088392853691880101611a43565b815201930192610683565b8d80fd5b8b80fd5b8780fd5b8680fd5b8480fd5b509134610377576020366003190112610377575061074760209235613509565b90519015158152f35b50503461031d578160031936011261031d576020906001600160a01b03603854169051908152f35b50503461031d576020906106e261078e36611c3a565b92919091611d9d565b503461028d57606036600319011261028d576107b1611aa9565b6024359060443567ffffffffffffffff8111610956576107d490369085016118b5565b906001600160a01b03603854166107ec8133146128ee565b3003610930575b6107fe913691611a0c565b9184519361080b8561190d565b602985527f416464726573733a206c6f772d6c6576656c2063616c6c20776974682076616c6020860152681d594819985a5b195960ba1b868601528147106108de57823b1561089b5750828692839260206102899796519301915af13d15610893573d90610878826119bb565b9161088586519384611999565b82523d86602084013e61293a565b60609061293a565b606490602087519162461bcd60e51b8352820152601d60248201527f416464726573733a2063616c6c20746f206e6f6e2d636f6e74726163740000006044820152fd5b608490602087519162461bcd60e51b8352820152602660248201527f416464726573733a20696e73756666696369656e742062616c616e636520666f6044820152651c8818d85b1b60d21b6064820152fd5b61093a36366119d7565b602081519101205b8061094b61297e565b0361094257506107f3565b8580fd5b503461028d57602036600319011261028d5761098d60018360209567ffffffffffffffff94358152603387522001611e01565b51169051908152f35b5091346103775760a0366003190112610377576109b1611aa9565b506109ba611abf565b5067ffffffffffffffff9060443582811161031d576109dc9036908601611b5b565b5060643582811161031d576109f49036908601611b5b565b506084359182116103775750602092610a0f91369101611a43565b505163bc197c8160e01b8152f35b50503461031d578160031936011261031d576020906106e2613baa565b50913461037757602036600319011261037757506106e260209235613257565b503461028d57602036600319011261028d57356001600160a01b03808216809203610b1d578060385416610a8f8133146128ee565b3003610af7575b60385483519181166001600160a01b03908116835283166020830152907f08f74ea46ef7894f65eabfb5e6e695de773a000b47c529ab559178069b22640190604090a173ffffffffffffffffffffffffffffffffffffffff19161760385551f35b610b0136366119d7565b602081519101205b80610b1261297e565b03610b095750610a96565b8380fd5b50503461031d578160031936011261031d576020906001600160a01b03603754169051908152f35b5091903461031d57606036600319011261031d57610b65611aa9565b9260443567ffffffffffffffff8111610b1d5790610b8860209236908301611a43565b506001600160a01b038060375416908451966103bf88611961565b50503461031d578160031936011261031d57606090610bc06131cb565b91929081519384526020840152820152f35b5091346103775760803660031901126103775767ffffffffffffffff833581811161028d57610c049036908601611aed565b93602435828111610b1d57610c1c9036908301611b5b565b9160443581811161072357610c349036908401611bb9565b93606435918211610377575091610c556106e2949260209794369101611a43565b92613816565b503461028d57606036600319011261028d57610c756118a5565b60443567ffffffffffffffff8111610723579160209491610ca6610c9f6106e295369085016118b5565b3691611a0c565b91855193610cb385611961565b8452339035612509565b503461028d57608036600319011261028d57610cd76118a5565b67ffffffffffffffff9360443585811161031d57610cf890369085016118b5565b959091606435918211610377575091610d276106e29492610d1f6020989536908601611a43565b943691611a0c565b91339035612509565b503461028d578160031936011261028d576020926106e291610d506118a5565b845191610d5c83611961565b838352855193610cb385611961565b50503461031d578160031936011261031d5780516105e391610d8c8261197d565b60018252603160f81b602083015251918291602083526020830190611a84565b503461028d578160031936011261028d576001600160a01b03600883602095610dd3611abf565b943581526036875220019116600052825260ff81600020541690519015158152f35b503461028d5760209081600319360112610b1d578035845260368252828420906001600160a01b03918281541680331490811561103c575b5015610fe95780610e51610e466003610e6e94016129ef565b61025f8584016129ef565b600982015491610e68600261027c60018401612acc565b90611d9d565b91610e78836135c4565b60088110159081610fd65760028114159182610fc8575b82610fa3575b505015610f605785908382526033855260028683200161010061ff00198254161790557f789cf55be980739dad1d0699b93b58e806b51c9d96619bfa8fe0a28abaa7b30c858751868152a18382526039855285822054610ef457508451f35b60385416918582205490833b1561028d57602490838851958694859363c4d252f560e01b85528401525af18015610f5657610f40575b5090603991845252600081832055388080848451f35b93610f4e60399392956118e3565b939091610f2a565b84513d87823e3d90fd5b845162461bcd60e51b8152808301859052601e60248201527f4368616e63656c6f723a2070726f706f73616c206e6f742061637469766500006044820152606490fd5b909150610fb557600714153880610e95565b634e487b7160e01b875260218352602487fd5b506006811415915087610e8f565b634e487b7160e01b885260218452602488fd5b845162461bcd60e51b8152808301859052602760248201527f476f7665726e6f72427261766f3a2070726f706f7365722061626f76652074686044820152661c995cda1bdb1960ca1b6064820152608490fd5b436000198101925082116110635790611054916120fc565b61105c613baa565b1138610e2d565b634e487b7160e01b885260118452602488fd5b5091903461031d57602036600319011261031d5761109483356135c4565b90519160088210156110a857602083838152f35b634e487b7160e01b815260218452602490fd5b503461028d5760a036600319011261028d57356110d66118a5565b60443560ff8116810361072357916020949161115661114e6106e2958751898101917f150214d74d59b7d1e90c73fc22ef3d991dd0a76b046543d4d80ab92d2a50328f8352868a83015260ff861660608301526060825261113682611945565b61114960843593606435935190206123c4565b61230f565b9190916121b3565b85519261116284611961565b84845286519461117186611961565b8552612509565b50903461028d578260031936011261028d5760206001600160a01b0360375416825193848092633932abb160e01b82525afa9182156111f95783926111c2575b6020838351908152f35b9091506020813d82116111f1575b816111dd60209383611999565b8101031261028d57602092505190386111b8565b3d91506111d0565b81513d85823e3d90fd5b503461028d57602036600319011261028d578061128e83611273956105e3943581526036602052209361123860018601612acc565b9461128161125f61124b60028401612b26565b95611258600385016129ef565b93016129ef565b94835198899860808a5260808a0190611c9d565b9088820360208a0152611cda565b9186830390870152611d0e565b908382036060850152611d0e565b50503461031d578160031936011261031d57602090517fb3b3f3b703cd84ce352197dcff232b1b5d3cfb2025ce47cf04742d0651f1af888152f35b503461028d57602036600319011261028d5761098d8260209467ffffffffffffffff933581526033865220611e01565b6020836106e261131636611c3a565b92919091611e80565b50903461028d578260031936011261028d57600019430143811161137c5760209060246001600160a01b03603754169484519586938492637c672b0560e11b84528301525afa9182156111f95783926111c2576020838351908152f35b634e487b7160e01b845260118352602484fd5b503461028d57602036600319011261028d57356001600160a01b03808216809203610b1d5780603854166113c48133146128ee565b300361142c575b60375483519181166001600160a01b03908116835283166020830152907f304e188ff78544bf68047712e88b34e09b3e2f53411c33ea1f31c8db0323955290604090a173ffffffffffffffffffffffffffffffffffffffff19161760375551f35b61143636366119d7565b602081519101205b8061144761297e565b0361143e57506113cb565b50503461031d576020906106e261146836611c3a565b929190916132ea565b5091346103775760803660031901126103775761148c611aa9565b50611495611abf565b506064359067ffffffffffffffff821161037757506020926114b991369101611a43565b5051630a85bd0160e11b8152f35b50503461031d578160031936011261031d57805190826032546114e981611d63565b808552916001918083169081156115845750600114611527575b505050611515826105e3940383611999565b51918291602083526020830190611a84565b9450603285527f11df491316f14931039edfd4f8964c9a443b862f02d4c7611d18c2bc4e6ff6975b82861061156c575050506115158260206105e39582010194611503565b8054602087870181019190915290950194810161154f565b6105e397508693506020925061151594915060ff191682840152151560051b82010194611503565b503461028d5760e036600319011261028d578035906115c96118a5565b9067ffffffffffffffff60443581811161071f576115ea90369084016118b5565b91909260643591821161071b5761160391369101611a43565b956084359060ff8216820361037757506116aa6106e2959360209895936116a289610c9f95611633368587611a0c565b8d8151910120908a518e8c01208351928f8c908501957fb3b3f3b703cd84ce352197dcff232b1b5d3cfb2025ce47cf04742d0651f1af88875285015260ff8b166060850152608084015260a083015260a0825261168f82611929565b61114960c4359360a435935190206123c4565b9490946121b3565b92612509565b50903461028d578260031936011261028d5760206001600160a01b03603754168251938480926302a251a360e01b82525afa9182156111f95783926111c2576020838351908152f35b503461028d57602036600319011261028d57359063ffffffff60e01b821680920361028d5760209250636e665ced60e01b821491821561173d575b50519015158152f35b909150635372dc7360e11b811490811561175a575b509038611734565b630ea498f160e21b8114915081156117a4575b8115611793575b8115611782575b5038611752565b6301ffc9a760e01b1490503861177b565b630271189760e51b81149150611774565b633f1a708f60e21b8114915061176d565b509134610377576020366003190112610377578235916117d483613257565b90838352603360205267ffffffffffffffff90816117f3828620611e01565b511691858552603360205261180c600183872001611e01565b51168585526036602052818520926001600160a01b038454169460058501549360076006870154960154966118408a6135c4565b9860088a1015611892576101408b60078c8c8c8c8c8c8c8c8c81519a8b5260208b01528901526060880152608087015260a086015260c085015260e08401526002811461010084015214610120820152f35b634e487b7160e01b815260218c52602490fd5b6024359060ff8216820361003257565b9181601f840112156100325782359167ffffffffffffffff8311610032576020838186019501011161003257565b67ffffffffffffffff81116118f757604052565b634e487b7160e01b600052604160045260246000fd5b6060810190811067ffffffffffffffff8211176118f757604052565b60c0810190811067ffffffffffffffff8211176118f757604052565b6080810190811067ffffffffffffffff8211176118f757604052565b6020810190811067ffffffffffffffff8211176118f757604052565b6040810190811067ffffffffffffffff8211176118f757604052565b90601f8019910116810190811067ffffffffffffffff8211176118f757604052565b67ffffffffffffffff81116118f757601f01601f191660200190565b9190916119e3816119bb565b6119f06040519182611999565b8093828252821161003257818160009384602080950137010152565b929192611a18826119bb565b91611a266040519384611999565b829481845281830111610032578281602093846000960137010152565b9080601f8301121561003257816020611a5e93359101611a0c565b90565b60005b838110611a745750506000910152565b8181015183820152602001611a64565b90602091611a9d81518092818552858086019101611a61565b601f01601f1916010190565b600435906001600160a01b038216820361003257565b602435906001600160a01b038216820361003257565b67ffffffffffffffff81116118f75760051b60200190565b81601f8201121561003257803591611b0483611ad5565b92611b126040519485611999565b808452602092838086019260051b820101928311610032578301905b828210611b3c575050505090565b81356001600160a01b0381168103610032578152908301908301611b2e565b81601f8201121561003257803591611b7283611ad5565b92611b806040519485611999565b808452602092838086019260051b820101928311610032578301905b828210611baa575050505090565b81358152908301908301611b9c565b9080601f8301121561003257813590611bd182611ad5565b92611bdf6040519485611999565b828452602092838086019160051b8301019280841161003257848301915b848310611c0d5750505050505090565b823567ffffffffffffffff8111610032578691611c2f84848094890101611a43565b815201920191611bfd565b60806003198201126100325767ffffffffffffffff916004358381116100325782611c6791600401611aed565b926024358181116100325783611c7f91600401611b5b565b9260443591821161003257611c9691600401611bb9565b9060643590565b90815180825260208080930193019160005b828110611cbd575050505090565b83516001600160a01b031685529381019392810192600101611caf565b90815180825260208080930193019160005b828110611cfa575050505090565b835185529381019392810192600101611cec565b90815180825260208092019182818360051b85019501936000915b848310611d395750505050505090565b9091929394958480611d5383856001950387528a51611a84565b9801930193019194939290611d29565b90600182811c92168015611d93575b6020831014611d7d57565b634e487b7160e01b600052602260045260246000fd5b91607f1691611d72565b9290611de992611dfb92604051948592611dd9611dc6602086019960808b5260a0870190611c9d565b601f199687878303016040880152611cda565b9085858303016060860152611d0e565b90608083015203908101835282611999565b51902090565b906040516020810167ffffffffffffffff90828110828211176118f757604052819354169052565b15611e3057565b60405162461bcd60e51b815260206004820152602260248201527f4368616e63656c6f723a2070726f706f73616c206e6f742073756363657373666044820152611d5b60f21b6064820152608490fd5b9091611e8e84828585611d9d565b93611e98856135c4565b600881101561209757806004611eb7921490811561208c575b50611e29565b600093858552602093603385526040926002848820016001908160ff198254161790557f712ae1383f79ac853f8d882153778e0260ef8f03b504e2866e0593e04d2b291f8786518b8152a16001600160a01b039687603854163003611ffb575b5050856038541692833b1561071b57611f6b92889492611f7a611f58938851998a978896879663e38335e560e01b885260a0600489015260a4880190611c9d565b6003199384888303016024890152611cda565b91858303016044860152611d0e565b908660648401526084830152039134905af18015611ff157611fc6575b505030906038541603611fa9575b5090565b60345480600f0b9060801d600f0b13611fc0575090565b60345590565b67ffffffffffffffff8211611fdd57523880611f97565b634e487b7160e01b84526041600452602484fd5b81513d86823e3d90fd5b8890825b61200a575b50611f17565b8451821015612087576120308392308b612024838a6120d2565b511614612036576120ad565b91611fff565b8b612041828c6120d2565b518481519101206fffffffffffffffffffffffffffffffff6034928354928d608094851d9283600f0b815260358a5220558354928883199201901b1691161790556120ad565b612004565b600591501438611eb1565b634e487b7160e01b600052602160045260246000fd5b60001981146120bc5760010190565b634e487b7160e01b600052601160045260246000fd5b80518210156120e65760209160051b010190565b634e487b7160e01b600052603260045260246000fd5b60206040519261210b84611961565b60008094526001600160a01b038060375416906040519461212b86611961565b8686526121616040519687958694859463f8ef763b60e01b86521660048501526024840152606060448401526064830190611a84565b03915afa9182156121a757809261217757505090565b9091506020823d821161219f575b8161219260209383611999565b8101031261037757505190565b3d9150612185565b604051903d90823e3d90fd5b600581101561209757806121c45750565b600181036122115760405162461bcd60e51b815260206004820152601860248201527f45434453413a20696e76616c6964207369676e617475726500000000000000006044820152606490fd5b6002810361225e5760405162461bcd60e51b815260206004820152601f60248201527f45434453413a20696e76616c6964207369676e6174757265206c656e677468006044820152606490fd5b600381036122b65760405162461bcd60e51b815260206004820152602260248201527f45434453413a20696e76616c6964207369676e6174757265202773272076616c604482015261756560f01b6064820152608490fd5b6004146122bf57565b60405162461bcd60e51b815260206004820152602260248201527f45434453413a20696e76616c6964207369676e6174757265202776272076616c604482015261756560f01b6064820152608490fd5b9291907f7fffffffffffffffffffffffffffffff5d576e7357a4501ddfe92f46681b20a083116123b85760ff16601b811415806123ad575b6123a1579160809493916020936040519384528484015260408301526060820152600093849182805260015afa156123945781516001600160a01b0381161561238e579190565b50600190565b50604051903d90823e3d90fd5b50505050600090600490565b50601c811415612347565b50505050600090600390565b6123cc6123f5565b9060405190602082019261190160f01b84526022830152604282015260428152611dfb81611945565b6001600160a01b037f0000000000000000000000000000000000000000000000000000000000000000163014806124e0575b15612450577f000000000000000000000000000000000000000000000000000000000000000090565b60405160208101907f000000000000000000000000000000000000000000000000000000000000000082527f000000000000000000000000000000000000000000000000000000000000000060408201527f000000000000000000000000000000000000000000000000000000000000000060608201524660808201523060a082015260a08152611dfb81611929565b507f00000000000000000000000000000000000000000000000000000000000000004614612427565b600081815260336020908152604080832098979496959194909261252c856135c4565b60088110156128da5760010361288a578567ffffffffffffffff6125536125a49b9c611e01565b5116986001600160a01b0380603754169087519261257084611961565b85845288519d8e948593849363f8ef763b60e01b8552169e8f60048501526024840152606060448401526064830190611a84565b03915afa98891561287e57819961284f575b5084815260368652838082209189815260088301885220805460ff81166127e55760ff8516946bffffffffffffffffffffffff8c116127925760081b61ff00166dffffffffffffffffffffffffffff199091161760108b901b6dffffffffffffffffffffffff0000161760011790558893929190826126eb5760060161263d8582546131be565b90555b80516126935750918161268d937fb8e138887d0aa13bab447e82de9d5c1777041ecd21ca36ba824ff1e6c07ddda49793519687968752860152840152608060608401526080830190611a84565b0390a290565b919561268d93876126dd937fe2babfbac5889a709b63bb7f598b324e08bc5a4fb9ec647fb3cbc9ec07eb87129951988998895288015286015260a0606086015260a0850190611a84565b908382036080850152611a84565b60018303612708576005016127018582546131be565b9055612640565b9293509091600283036127285790600789949392016127018582546131be565b835162461bcd60e51b815260048101879052602d60248201527f476f7665726e6f72436f6d7061746962696c697479427261766f3a20696e766160448201527f6c696420766f74652074797065000000000000000000000000000000000000006064820152608490fd5b865162461bcd60e51b8152600481018a9052602660248201527f53616665436173743a2076616c756520646f65736e27742066697420696e203960448201526536206269747360d01b6064820152608490fd5b855162461bcd60e51b815260048101899052602d60248201527f476f7665726e6f72436f6d7061746962696c697479427261766f3a20766f746560448201527f20616c72656164792063617374000000000000000000000000000000000000006064820152608490fd5b9098508581813d8311612877575b6128678183611999565b810103126106e9575197386125b6565b503d61285d565b508351903d90823e3d90fd5b835162461bcd60e51b8152600481018790526024808201527f4368616e63656c6f723a20766f7465206e6f742063757272656e746c792061636044820152637469766560e01b6064820152608490fd5b634e487b7160e01b82526021600452602482fd5b156128f557565b60405162461bcd60e51b815260206004820152601860248201527f4368616e63656c6f723a206f6e6c794368616e63656c6f7200000000000000006044820152606490fd5b90919015612946575090565b8151156129565750805190602001fd5b60405162461bcd60e51b81526020600482015290819061297a906024830190611a84565b0390fd5b6034549081600f0b809260801d600f0b13156129dd57816000526035602052604060002054916000604081205560016fffffffffffffffffffffffffffffffff196034541691016fffffffffffffffffffffffffffffffff1617603455565b604051631ed9509560e11b8152600490fd5b908154916129fc83611ad5565b92604091612a0c83519586611999565b81855260009081526020808220938291908188015b858410612a315750505050505050565b8151838692895492612a4284611d63565b808252600194808616908115612ab05750600114612a78575b50612a6a816001960382611999565b815201970193019295612a21565b8b8a52838a20955089905b808210612a995750810183019450612a6a612a5b565b865483830186015295850195889490910190612a83565b60ff19168584015250151560051b810183019450612a6a612a5b565b9060405191828154918282526020928383019160005283600020936000905b828210612b0357505050612b0192500383611999565b565b85546001600160a01b031684526001958601958895509381019390910190612aeb565b9060405191828154918282526020928383019160005283600020936000905b828210612b5b57505050612b0192500383611999565b855484526001958601958895509381019390910190612b45565b60005b828110612b8457505050565b606082820152602001612b78565b9190805190612ba082611ad5565b93604092612bb084519687611999565b808652612bbf601f1991611ad5565b0190612bcf602092838801612b75565b6000805b8251811015612c8e5780612bea612c1792856120d2565b5151612c1c57612bfa81876120d2565b515b612c06828b6120d2565b52612c11818a6120d2565b506120ad565b612bd3565b612c2681856120d2565b518051908601207fffffffff0000000000000000000000000000000000000000000000000000000016612c89612c5c83896120d2565b5189519288840152828151612c79816024948c8686019101611a61565b8101036004810184520182611999565b612bfc565b505050505050565b818110612ca1575050565b60008155600101612c96565b91818110612cba57505050565b612b019260005260206000209182019101612c96565b9190601f8111612cdf57505050565b612b01926000526020600020906020601f840160051c83019310612d0b575b601f0160051c0190612c96565b9091508190612cfe565b939293855160208097012095612d3687612d2f8789612b92565b8686611d9d565b9460009586526036825260408620926009840197885415612d5e575b50505050505050505050565b6001600160a01b038092166001600160a01b031986541617855560019687860187519067ffffffffffffffff948583116131aa5768010000000000000000998a84116130ca578890612db585855481875586612cad565b01918c52878c20908b8d5b858110613196575050505050506002860181519184831161318257888311613182578690612df384845481865585612cad565b01908a52858a20898b5b8481106131705750505050506003850181519187831161315c57859082548484558085106130de575b500190895284892089915b838310612ff757505050506004809401918051958611612fe45783908354878555808810612f66575b50949294019387528287209187945b868610612e89575050505050505050505538808080808080808080612d52565b8051908151848111612f5357899181612ead8993612ea78a54611d63565b8a612cd0565b82948d601f8311600114612ef157958291869792612ee6575b5050600019600383901b1c191690841b1787555b01940195019492612e69565b015190503880612ec6565b9095601f1983168a8352858320925b818110612f3c5750908697848895949310612f23575b505050811b018755612eda565b015160001960f88460031b161c19169055388080612f16565b8289015184558f978d979401939283019201612f00565b634e487b7160e01b8b526041845260248bfd5b848a528888848c2092830192015b828110612f82575050612e5a565b90919293508a612f928254611d63565b80612fa5575b5050019088869392612f74565b83601f8a818411600114612fc1575050505081555b8a38612f98565b8486612fd7965220920160051c82019101612c96565b8a87812081835555612fba565b634e487b7160e01b885260418552602488fd5b80519081518681116130ca578b91818e61301c8c946130168954611d63565b89612cd0565b8390601f831160011461305d5790859683613052575b5050600019600383901b1c191690841b1785555b01920192019190612e31565b015190503880613032565b90601f198316888352858320925b8181106130a7575090869784889594931061308e575b505050811b018555613046565b015160001960f88460031b161c19169055388080613081565b9497939686929691938786015181550195019301928f95929693918d959261306b565b634e487b7160e01b8d52604160045260248dfd5b8a85848e8781522092830192015b8281106130fa575050612e26565b90919293508c61310a8254611d63565b8061311d575b505001908a8893926130ec565b83601f8c818411600114613139575050505081555b8c38613110565b848661314f965220920160051c82019101612c96565b8c89812081835555613132565b634e487b7160e01b8a52604160045260248afd5b88845194019381840155018a90612dfd565b634e487b7160e01b8b52604160045260248bfd5b8a8386511695019481850155018c90612dc0565b634e487b7160e01b8c52604160045260248cfd5b919082018092116120bc57565b60049060606001600160a01b0360375416604051938480926385b4bb5360e01b82525afa90811561324b57600080938193613207575b50929190565b92509092506060823d8211613243575b8161322460609383611999565b8101031261037757508051602082015160409092015191929038613201565b3d9150613217565b6040513d6000823e3d90fd5b6001600160a01b0360385416600091825260396020526020604083205460246040518094819363d45c443560e01b835260048301525afa9081156132df5782916132ae575b50600181036132a9575090565b905090565b90506020813d82116132d7575b816132c860209383611999565b8101031261031d57513861329c565b3d91506132bb565b6040513d84823e3d90fd5b9290916132f982828587611d9d565b93613303856135c4565b60088110156120975760046133189114611e29565b6001600160a01b039283603854169460409586519463793d064960e11b86526020968787600481865afa9687156134fe576000976134cf575b50885163b1c5f42760e01b815260a06004820152888161337460a482018a611c9d565b9581806133a16133916003199a8b8482030160248501528c611cda565b8a83820301604484015289611d0e565b600060648301528b608483015203915afa9081156134c457600091613497575b508a6000526039895289600020556038541691823b1561003257611f6b9560009561341f879361340f958d519a8b998a9889976308f2a0bb60e41b895260c060048a015260c4890190611c9d565b9084888303016024890152611cda565b9083606484015260848301528860a483015203925af1801561348c5791613470917f9a2e42fd6722813d69113e7d0079d3d940171428df7373df9c7f7617cfda289295949361347d575b50426131be565b825191858352820152a190565b613486906118e3565b38613469565b84513d6000823e3d90fd5b908982813d83116134bd575b6134ad8183611999565b81010312610377575051386133c1565b503d6134a3565b8a513d6000823e3d90fd5b90968882813d83116134f7575b6134e68183611999565b810103126103775750519538613351565b503d6134dc565b89513d6000823e3d90fd5b60009081526020906036825260408120906033835267ffffffffffffffff61353360408320611e01565b511690836001600160a01b036037541692602460405180958193637c672b0560e11b835260048301525afa938415612394578194613578575b50505060050154101590565b909180939450813d83116135a5575b6135918183611999565b81010312610377575051906005388061356c565b503d613587565b90816020910312610032575180151581036100325790565b6135cd816136d7565b9060088210156120975760048203611fa557600090815260206039815260408220549081156000146135ff5750505090565b909192506001600160a01b036038541691604051632ab0f52960e01b81528160048201528281602481875afa9081156136cc5785916136af575b50156136485750505050600790565b8190602460405180958193632c258a9f60e11b835260048301525afa9283156121a75792613682575b50501561367d57600590565b600290565b6136a19250803d106136a8575b6136998183611999565b8101906135ac565b3880613671565b503d61368f565b6136c69150833d85116136a8576136998183611999565b38613639565b6040513d87823e3d90fd5b60008181526033602052600260408220015460ff81166137d95760081c60ff166137d25767ffffffffffffffff8061371160408420611e01565b5116801561378d57431115613787578282526033602052439061373960016040852001611e01565b511610156137805761374a82613509565b9182613762575b50501561375d57600490565b600390565b60409250815260366020522060066005820154910154103880613751565b5050600190565b50905090565b60405162461bcd60e51b815260206004820152601e60248201527f4368616e63656c6f723a20756e6b6e6f776e2070726f706f73616c20696400006044820152606490fd5b5050600290565b505050600790565b90612b016137ee83611ad5565b6137fb6040519182611999565b8381526020819461380e601f1991611ad5565b019101612b75565b909261384692613833828261382b81516137e1565b888733612d15565b61384c61383e6131cb565b969150613ace565b94613ace565b906138556131cb565b505060001943014381116120bc5761386d90336120fc565b10613a635782519461388760209687860120838988611d9d565b966138958651825114613b37565b6138a28651845114613b37565b855115613a1e57876000526033875267ffffffffffffffff95604092876138cb85600020611e01565b51166139cf57936139a28997946139946139c998956139866139b0968f7f7d84a6263ae0d98d3329bd7b46bb4e8d6f98cd35a7adb45c274c8b7fd5ebd5e09f819f9c9061392c61392560339361392043613ace565b613b8e565b9c8d613b8e565b92600052528b866000209a169b67ffffffffffffffff199a8d8c825416179055600187600020019116809a82541617905561396781516137e1565b9480519e8f9e8f918252339101528d61012091829101528d0190611c9d565b908b820360608d0152611cda565b9089820360808b0152611d0e565b9087820360a0890152611d0e565b9260c086015260e0850152838203610100850152611a84565b0390a190565b835162461bcd60e51b8152600481018a9052602260248201527f4368616e63656c6f723a2070726f706f73616c20616c72656164792065786973604482015261747360f01b6064820152608490fd5b60405162461bcd60e51b815260048101889052601960248201527f4368616e63656c6f723a20656d7074792070726f706f73616c000000000000006044820152606490fd5b60405162461bcd60e51b815260206004820152603260248201527f4368616e63656c6f723a2070726f706f73657220766f7465732062656c6f772060448201527f70726f706f73616c207468726573686f6c6400000000000000000000000000006064820152608490fd5b67ffffffffffffffff90818111613ae3571690565b60405162461bcd60e51b815260206004820152602660248201527f53616665436173743a2076616c756520646f65736e27742066697420696e203660448201526534206269747360d01b6064820152608490fd5b15613b3e57565b60405162461bcd60e51b815260206004820152602260248201527f4368616e63656c6f723a20696e76616c69642070726f706f73616c206c656e676044820152610e8d60f31b6064820152608490fd5b91909167ffffffffffffffff808094169116019182116120bc57565b600460206001600160a01b036037541660405192838092630b58131b60e41b82525afa90811561324b57600091613bdf575090565b906020823d821161219f57816121926020938361199956fea2646970667358221220c560a4c274f7827be57a4732a0d214d237305f445102f7920c6735b7c647168664736f6c63430008100033"
}