{
  "address": "0x2b5A4e5493d4a54E717057B127cf0C000C876f9B",
  "abi": [
    {
      "inputs": [],
      "stateMutability": "nonpayable",
      "type": "constructor"
    },
    {
      "inputs": [],
      "name": "Empty",
      "type": "error"
    },
    {
      "anonymous": false,
      "inputs": [
        {
          "indexed": false,
          "internalType": "uint8",
          "name": "version",
          "type": "uint8"
        }
      ],
      "name": "Initialized",
      "type": "event"
    },
    {
      "anonymous": false,
      "inputs": [
        {
          "indexed": true,
          "internalType": "address",
          "name": "previousOwner",
          "type": "address"
        },
        {
          "indexed": true,
          "internalType": "address",
          "name": "newOwner",
          "type": "address"
        }
      ],
      "name": "OwnershipTransferred",
      "type": "event"
    },
    {
      "anonymous": false,
      "inputs": [
        {
          "indexed": false,
          "internalType": "uint256",
          "name": "proposalId",
          "type": "uint256"
        }
      ],
      "name": "ProposalCanceled",
      "type": "event"
    },
    {
      "anonymous": false,
      "inputs": [
        {
          "indexed": false,
          "internalType": "uint256",
          "name": "proposalId",
          "type": "uint256"
        },
        {
          "indexed": false,
          "internalType": "address",
          "name": "proposer",
          "type": "address"
        },
        {
          "indexed": false,
          "internalType": "address[]",
          "name": "targets",
          "type": "address[]"
        },
        {
          "indexed": false,
          "internalType": "uint256[]",
          "name": "values",
          "type": "uint256[]"
        },
        {
          "indexed": false,
          "internalType": "string[]",
          "name": "signatures",
          "type": "string[]"
        },
        {
          "indexed": false,
          "internalType": "bytes[]",
          "name": "calldatas",
          "type": "bytes[]"
        },
        {
          "indexed": false,
          "internalType": "uint256",
          "name": "startBlock",
          "type": "uint256"
        },
        {
          "indexed": false,
          "internalType": "uint256",
          "name": "endBlock",
          "type": "uint256"
        },
        {
          "indexed": false,
          "internalType": "string",
          "name": "description",
          "type": "string"
        }
      ],
      "name": "ProposalCreated",
      "type": "event"
    },
    {
      "anonymous": false,
      "inputs": [
        {
          "indexed": false,
          "internalType": "uint256",
          "name": "proposalId",
          "type": "uint256"
        }
      ],
      "name": "ProposalExecuted",
      "type": "event"
    },
    {
      "anonymous": false,
      "inputs": [
        {
          "indexed": false,
          "internalType": "uint256",
          "name": "proposalId",
          "type": "uint256"
        },
        {
          "indexed": false,
          "internalType": "uint256",
          "name": "eta",
          "type": "uint256"
        }
      ],
      "name": "ProposalQueued",
      "type": "event"
    },
    {
      "anonymous": false,
      "inputs": [
        {
          "indexed": false,
          "internalType": "address",
          "name": "oldSenate",
          "type": "address"
        },
        {
          "indexed": false,
          "internalType": "address",
          "name": "newSenate",
          "type": "address"
        }
      ],
      "name": "SenateChange",
      "type": "event"
    },
    {
      "anonymous": false,
      "inputs": [
        {
          "indexed": false,
          "internalType": "address",
          "name": "oldTimelock",
          "type": "address"
        },
        {
          "indexed": false,
          "internalType": "address",
          "name": "newTimelock",
          "type": "address"
        }
      ],
      "name": "TimelockChange",
      "type": "event"
    },
    {
      "anonymous": false,
      "inputs": [
        {
          "indexed": true,
          "internalType": "address",
          "name": "voter",
          "type": "address"
        },
        {
          "indexed": false,
          "internalType": "uint256",
          "name": "proposalId",
          "type": "uint256"
        },
        {
          "indexed": false,
          "internalType": "uint8",
          "name": "support",
          "type": "uint8"
        },
        {
          "indexed": false,
          "internalType": "uint256",
          "name": "weight",
          "type": "uint256"
        },
        {
          "indexed": false,
          "internalType": "string",
          "name": "reason",
          "type": "string"
        }
      ],
      "name": "VoteCast",
      "type": "event"
    },
    {
      "anonymous": false,
      "inputs": [
        {
          "indexed": true,
          "internalType": "address",
          "name": "voter",
          "type": "address"
        },
        {
          "indexed": false,
          "internalType": "uint256",
          "name": "proposalId",
          "type": "uint256"
        },
        {
          "indexed": false,
          "internalType": "uint8",
          "name": "support",
          "type": "uint8"
        },
        {
          "indexed": false,
          "internalType": "uint256",
          "name": "weight",
          "type": "uint256"
        },
        {
          "indexed": false,
          "internalType": "string",
          "name": "reason",
          "type": "string"
        },
        {
          "indexed": false,
          "internalType": "bytes",
          "name": "params",
          "type": "bytes"
        }
      ],
      "name": "VoteCastWithParams",
      "type": "event"
    },
    {
      "inputs": [],
      "name": "BALLOT_TYPEHASH",
      "outputs": [
        {
          "internalType": "bytes32",
          "name": "",
          "type": "bytes32"
        }
      ],
      "stateMutability": "view",
      "type": "function"
    },
    {
      "inputs": [],
      "name": "COUNTING_MODE",
      "outputs": [
        {
          "internalType": "string",
          "name": "",
          "type": "string"
        }
      ],
      "stateMutability": "pure",
      "type": "function"
    },
    {
      "inputs": [],
      "name": "EXTENDED_BALLOT_TYPEHASH",
      "outputs": [
        {
          "internalType": "bytes32",
          "name": "",
          "type": "bytes32"
        }
      ],
      "stateMutability": "view",
      "type": "function"
    },
    {
      "inputs": [
        {
          "internalType": "uint256",
          "name": "proposalId",
          "type": "uint256"
        }
      ],
      "name": "cancel",
      "outputs": [],
      "stateMutability": "nonpayable",
      "type": "function"
    },
    {
      "inputs": [
        {
          "internalType": "uint256",
          "name": "proposalId",
          "type": "uint256"
        },
        {
          "internalType": "uint8",
          "name": "support",
          "type": "uint8"
        }
      ],
      "name": "castVote",
      "outputs": [
        {
          "internalType": "uint256",
          "name": "",
          "type": "uint256"
        }
      ],
      "stateMutability": "nonpayable",
      "type": "function"
    },
    {
      "inputs": [
        {
          "internalType": "uint256",
          "name": "proposalId",
          "type": "uint256"
        },
        {
          "internalType": "uint8",
          "name": "support",
          "type": "uint8"
        },
        {
          "internalType": "uint8",
          "name": "v",
          "type": "uint8"
        },
        {
          "internalType": "bytes32",
          "name": "r",
          "type": "bytes32"
        },
        {
          "internalType": "bytes32",
          "name": "s",
          "type": "bytes32"
        }
      ],
      "name": "castVoteBySig",
      "outputs": [
        {
          "internalType": "uint256",
          "name": "",
          "type": "uint256"
        }
      ],
      "stateMutability": "nonpayable",
      "type": "function"
    },
    {
      "inputs": [
        {
          "internalType": "uint256",
          "name": "proposalId",
          "type": "uint256"
        },
        {
          "internalType": "uint8",
          "name": "support",
          "type": "uint8"
        },
        {
          "internalType": "string",
          "name": "reason",
          "type": "string"
        }
      ],
      "name": "castVoteWithReason",
      "outputs": [
        {
          "internalType": "uint256",
          "name": "",
          "type": "uint256"
        }
      ],
      "stateMutability": "nonpayable",
      "type": "function"
    },
    {
      "inputs": [
        {
          "internalType": "uint256",
          "name": "proposalId",
          "type": "uint256"
        },
        {
          "internalType": "uint8",
          "name": "support",
          "type": "uint8"
        },
        {
          "internalType": "string",
          "name": "reason",
          "type": "string"
        },
        {
          "internalType": "bytes",
          "name": "params",
          "type": "bytes"
        }
      ],
      "name": "castVoteWithReasonAndParams",
      "outputs": [
        {
          "internalType": "uint256",
          "name": "",
          "type": "uint256"
        }
      ],
      "stateMutability": "nonpayable",
      "type": "function"
    },
    {
      "inputs": [
        {
          "internalType": "uint256",
          "name": "proposalId",
          "type": "uint256"
        },
        {
          "internalType": "uint8",
          "name": "support",
          "type": "uint8"
        },
        {
          "internalType": "string",
          "name": "reason",
          "type": "string"
        },
        {
          "internalType": "bytes",
          "name": "params",
          "type": "bytes"
        },
        {
          "internalType": "uint8",
          "name": "v",
          "type": "uint8"
        },
        {
          "internalType": "bytes32",
          "name": "r",
          "type": "bytes32"
        },
        {
          "internalType": "bytes32",
          "name": "s",
          "type": "bytes32"
        }
      ],
      "name": "castVoteWithReasonAndParamsBySig",
      "outputs": [
        {
          "internalType": "uint256",
          "name": "",
          "type": "uint256"
        }
      ],
      "stateMutability": "nonpayable",
      "type": "function"
    },
    {
      "inputs": [
        {
          "internalType": "address[]",
          "name": "targets",
          "type": "address[]"
        },
        {
          "internalType": "uint256[]",
          "name": "values",
          "type": "uint256[]"
        },
        {
          "internalType": "bytes[]",
          "name": "calldatas",
          "type": "bytes[]"
        },
        {
          "internalType": "bytes32",
          "name": "descriptionHash",
          "type": "bytes32"
        }
      ],
      "name": "execute",
      "outputs": [
        {
          "internalType": "uint256",
          "name": "",
          "type": "uint256"
        }
      ],
      "stateMutability": "payable",
      "type": "function"
    },
    {
      "inputs": [
        {
          "internalType": "uint256",
          "name": "proposalId",
          "type": "uint256"
        }
      ],
      "name": "execute",
      "outputs": [],
      "stateMutability": "payable",
      "type": "function"
    },
    {
      "inputs": [
        {
          "internalType": "uint256",
          "name": "proposalId",
          "type": "uint256"
        }
      ],
      "name": "getActions",
      "outputs": [
        {
          "internalType": "address[]",
          "name": "targets",
          "type": "address[]"
        },
        {
          "internalType": "uint256[]",
          "name": "values",
          "type": "uint256[]"
        },
        {
          "internalType": "string[]",
          "name": "signatures",
          "type": "string[]"
        },
        {
          "internalType": "bytes[]",
          "name": "calldatas",
          "type": "bytes[]"
        }
      ],
      "stateMutability": "view",
      "type": "function"
    },
    {
      "inputs": [
        {
          "internalType": "uint256",
          "name": "proposalId",
          "type": "uint256"
        },
        {
          "internalType": "address",
          "name": "voter",
          "type": "address"
        }
      ],
      "name": "getReceipt",
      "outputs": [
        {
          "components": [
            {
              "internalType": "bool",
              "name": "hasVoted",
              "type": "bool"
            },
            {
              "internalType": "uint8",
              "name": "support",
              "type": "uint8"
            },
            {
              "internalType": "uint96",
              "name": "votes",
              "type": "uint96"
            }
          ],
          "internalType": "struct IChancelorCompatibilityBravoUpgradeable.Receipt",
          "name": "",
          "type": "tuple"
        }
      ],
      "stateMutability": "view",
      "type": "function"
    },
    {
      "inputs": [],
      "name": "getSettings",
      "outputs": [
        {
          "internalType": "uint256",
          "name": "currProposalThreshold",
          "type": "uint256"
        },
        {
          "internalType": "uint256",
          "name": "currVotingDelay",
          "type": "uint256"
        },
        {
          "internalType": "uint256",
          "name": "currVotingPeriod",
          "type": "uint256"
        }
      ],
      "stateMutability": "view",
      "type": "function"
    },
    {
      "inputs": [
        {
          "internalType": "address",
          "name": "account",
          "type": "address"
        },
        {
          "internalType": "uint256",
          "name": "blockNumber",
          "type": "uint256"
        }
      ],
      "name": "getVotes",
      "outputs": [
        {
          "internalType": "uint256",
          "name": "",
          "type": "uint256"
        }
      ],
      "stateMutability": "view",
      "type": "function"
    },
    {
      "inputs": [
        {
          "internalType": "address",
          "name": "account",
          "type": "address"
        },
        {
          "internalType": "uint256",
          "name": "blockNumber",
          "type": "uint256"
        },
        {
          "internalType": "bytes",
          "name": "params",
          "type": "bytes"
        }
      ],
      "name": "getVotesWithParams",
      "outputs": [
        {
          "internalType": "uint256",
          "name": "",
          "type": "uint256"
        }
      ],
      "stateMutability": "view",
      "type": "function"
    },
    {
      "inputs": [
        {
          "internalType": "uint256",
          "name": "proposalId",
          "type": "uint256"
        },
        {
          "internalType": "address",
          "name": "account",
          "type": "address"
        }
      ],
      "name": "hasVoted",
      "outputs": [
        {
          "internalType": "bool",
          "name": "",
          "type": "bool"
        }
      ],
      "stateMutability": "view",
      "type": "function"
    },
    {
      "inputs": [
        {
          "internalType": "address[]",
          "name": "targets",
          "type": "address[]"
        },
        {
          "internalType": "uint256[]",
          "name": "values",
          "type": "uint256[]"
        },
        {
          "internalType": "bytes[]",
          "name": "calldatas",
          "type": "bytes[]"
        },
        {
          "internalType": "bytes32",
          "name": "descriptionHash",
          "type": "bytes32"
        }
      ],
      "name": "hashProposal",
      "outputs": [
        {
          "internalType": "uint256",
          "name": "",
          "type": "uint256"
        }
      ],
      "stateMutability": "pure",
      "type": "function"
    },
    {
      "inputs": [
        {
          "internalType": "contract TimelockControllerUpgradeable",
          "name": "_timelock",
          "type": "address"
        },
        {
          "internalType": "contract SenateUpgradeable",
          "name": "_senate",
          "type": "address"
        }
      ],
      "name": "initialize",
      "outputs": [],
      "stateMutability": "nonpayable",
      "type": "function"
    },
    {
      "inputs": [],
      "name": "name",
      "outputs": [
        {
          "internalType": "string",
          "name": "",
          "type": "string"
        }
      ],
      "stateMutability": "view",
      "type": "function"
    },
    {
      "inputs": [
        {
          "internalType": "address",
          "name": "",
          "type": "address"
        },
        {
          "internalType": "address",
          "name": "",
          "type": "address"
        },
        {
          "internalType": "uint256[]",
          "name": "",
          "type": "uint256[]"
        },
        {
          "internalType": "uint256[]",
          "name": "",
          "type": "uint256[]"
        },
        {
          "internalType": "bytes",
          "name": "",
          "type": "bytes"
        }
      ],
      "name": "onERC1155BatchReceived",
      "outputs": [
        {
          "internalType": "bytes4",
          "name": "",
          "type": "bytes4"
        }
      ],
      "stateMutability": "nonpayable",
      "type": "function"
    },
    {
      "inputs": [
        {
          "internalType": "address",
          "name": "",
          "type": "address"
        },
        {
          "internalType": "address",
          "name": "",
          "type": "address"
        },
        {
          "internalType": "uint256",
          "name": "",
          "type": "uint256"
        },
        {
          "internalType": "uint256",
          "name": "",
          "type": "uint256"
        },
        {
          "internalType": "bytes",
          "name": "",
          "type": "bytes"
        }
      ],
      "name": "onERC1155Received",
      "outputs": [
        {
          "internalType": "bytes4",
          "name": "",
          "type": "bytes4"
        }
      ],
      "stateMutability": "nonpayable",
      "type": "function"
    },
    {
      "inputs": [
        {
          "internalType": "address",
          "name": "",
          "type": "address"
        },
        {
          "internalType": "address",
          "name": "",
          "type": "address"
        },
        {
          "internalType": "uint256",
          "name": "",
          "type": "uint256"
        },
        {
          "internalType": "bytes",
          "name": "",
          "type": "bytes"
        }
      ],
      "name": "onERC721Received",
      "outputs": [
        {
          "internalType": "bytes4",
          "name": "",
          "type": "bytes4"
        }
      ],
      "stateMutability": "nonpayable",
      "type": "function"
    },
    {
      "inputs": [],
      "name": "owner",
      "outputs": [
        {
          "internalType": "address",
          "name": "",
          "type": "address"
        }
      ],
      "stateMutability": "view",
      "type": "function"
    },
    {
      "inputs": [
        {
          "internalType": "uint256",
          "name": "proposalId",
          "type": "uint256"
        }
      ],
      "name": "proposalDeadline",
      "outputs": [
        {
          "internalType": "uint256",
          "name": "",
          "type": "uint256"
        }
      ],
      "stateMutability": "view",
      "type": "function"
    },
    {
      "inputs": [
        {
          "internalType": "uint256",
          "name": "proposalId",
          "type": "uint256"
        }
      ],
      "name": "proposalEta",
      "outputs": [
        {
          "internalType": "uint256",
          "name": "",
          "type": "uint256"
        }
      ],
      "stateMutability": "view",
      "type": "function"
    },
    {
      "inputs": [
        {
          "internalType": "uint256",
          "name": "proposalId",
          "type": "uint256"
        }
      ],
      "name": "proposalSnapshot",
      "outputs": [
        {
          "internalType": "uint256",
          "name": "",
          "type": "uint256"
        }
      ],
      "stateMutability": "view",
      "type": "function"
    },
    {
      "inputs": [],
      "name": "proposalThreshold",
      "outputs": [
        {
          "internalType": "uint256",
          "name": "",
          "type": "uint256"
        }
      ],
      "stateMutability": "view",
      "type": "function"
    },
    {
      "inputs": [
        {
          "internalType": "uint256",
          "name": "proposalId",
          "type": "uint256"
        }
      ],
      "name": "proposals",
      "outputs": [
        {
          "internalType": "uint256",
          "name": "id",
          "type": "uint256"
        },
        {
          "internalType": "address",
          "name": "proposer",
          "type": "address"
        },
        {
          "internalType": "uint256",
          "name": "eta",
          "type": "uint256"
        },
        {
          "internalType": "uint256",
          "name": "startBlock",
          "type": "uint256"
        },
        {
          "internalType": "uint256",
          "name": "endBlock",
          "type": "uint256"
        },
        {
          "internalType": "uint256",
          "name": "forVotes",
          "type": "uint256"
        },
        {
          "internalType": "uint256",
          "name": "againstVotes",
          "type": "uint256"
        },
        {
          "internalType": "uint256",
          "name": "abstainVotes",
          "type": "uint256"
        },
        {
          "internalType": "bool",
          "name": "canceled",
          "type": "bool"
        },
        {
          "internalType": "bool",
          "name": "executed",
          "type": "bool"
        }
      ],
      "stateMutability": "view",
      "type": "function"
    },
    {
      "inputs": [
        {
          "internalType": "address[]",
          "name": "targets",
          "type": "address[]"
        },
        {
          "internalType": "uint256[]",
          "name": "values",
          "type": "uint256[]"
        },
        {
          "internalType": "bytes[]",
          "name": "calldatas",
          "type": "bytes[]"
        },
        {
          "internalType": "string",
          "name": "description",
          "type": "string"
        }
      ],
      "name": "propose",
      "outputs": [
        {
          "internalType": "uint256",
          "name": "",
          "type": "uint256"
        }
      ],
      "stateMutability": "nonpayable",
      "type": "function"
    },
    {
      "inputs": [
        {
          "internalType": "address[]",
          "name": "targets",
          "type": "address[]"
        },
        {
          "internalType": "uint256[]",
          "name": "values",
          "type": "uint256[]"
        },
        {
          "internalType": "string[]",
          "name": "signatures",
          "type": "string[]"
        },
        {
          "internalType": "bytes[]",
          "name": "calldatas",
          "type": "bytes[]"
        },
        {
          "internalType": "string",
          "name": "description",
          "type": "string"
        }
      ],
      "name": "propose",
      "outputs": [
        {
          "internalType": "uint256",
          "name": "",
          "type": "uint256"
        }
      ],
      "stateMutability": "nonpayable",
      "type": "function"
    },
    {
      "inputs": [
        {
          "internalType": "address[]",
          "name": "targets",
          "type": "address[]"
        },
        {
          "internalType": "uint256[]",
          "name": "values",
          "type": "uint256[]"
        },
        {
          "internalType": "bytes[]",
          "name": "calldatas",
          "type": "bytes[]"
        },
        {
          "internalType": "bytes32",
          "name": "descriptionHash",
          "type": "bytes32"
        }
      ],
      "name": "queue",
      "outputs": [
        {
          "internalType": "uint256",
          "name": "",
          "type": "uint256"
        }
      ],
      "stateMutability": "nonpayable",
      "type": "function"
    },
    {
      "inputs": [
        {
          "internalType": "uint256",
          "name": "proposalId",
          "type": "uint256"
        }
      ],
      "name": "queue",
      "outputs": [],
      "stateMutability": "nonpayable",
      "type": "function"
    },
    {
      "inputs": [
        {
          "internalType": "uint256",
          "name": "blockNumber",
          "type": "uint256"
        }
      ],
      "name": "quorum",
      "outputs": [
        {
          "internalType": "uint256",
          "name": "",
          "type": "uint256"
        }
      ],
      "stateMutability": "view",
      "type": "function"
    },
    {
      "inputs": [
        {
          "internalType": "uint256",
          "name": "proposalId",
          "type": "uint256"
        }
      ],
      "name": "quorumReached",
      "outputs": [
        {
          "internalType": "bool",
          "name": "",
          "type": "bool"
        }
      ],
      "stateMutability": "view",
      "type": "function"
    },
    {
      "inputs": [],
      "name": "quorumVotes",
      "outputs": [
        {
          "internalType": "uint256",
          "name": "",
          "type": "uint256"
        }
      ],
      "stateMutability": "view",
      "type": "function"
    },
    {
      "inputs": [
        {
          "internalType": "address",
          "name": "target",
          "type": "address"
        },
        {
          "internalType": "uint256",
          "name": "value",
          "type": "uint256"
        },
        {
          "internalType": "bytes",
          "name": "data",
          "type": "bytes"
        }
      ],
      "name": "relay",
      "outputs": [],
      "stateMutability": "nonpayable",
      "type": "function"
    },
    {
      "inputs": [],
      "name": "renounceOwnership",
      "outputs": [],
      "stateMutability": "nonpayable",
      "type": "function"
    },
    {
      "inputs": [],
      "name": "senate",
      "outputs": [
        {
          "internalType": "address",
          "name": "",
          "type": "address"
        }
      ],
      "stateMutability": "view",
      "type": "function"
    },
    {
      "inputs": [
        {
          "internalType": "uint256",
          "name": "proposalId",
          "type": "uint256"
        }
      ],
      "name": "state",
      "outputs": [
        {
          "internalType": "enum IChancelorUpgradeable.ProposalState",
          "name": "",
          "type": "uint8"
        }
      ],
      "stateMutability": "view",
      "type": "function"
    },
    {
      "inputs": [
        {
          "internalType": "bytes4",
          "name": "interfaceId",
          "type": "bytes4"
        }
      ],
      "name": "supportsInterface",
      "outputs": [
        {
          "internalType": "bool",
          "name": "",
          "type": "bool"
        }
      ],
      "stateMutability": "view",
      "type": "function"
    },
    {
      "inputs": [],
      "name": "timelock",
      "outputs": [
        {
          "internalType": "address",
          "name": "",
          "type": "address"
        }
      ],
      "stateMutability": "view",
      "type": "function"
    },
    {
      "inputs": [
        {
          "internalType": "address",
          "name": "newOwner",
          "type": "address"
        }
      ],
      "name": "transferOwnership",
      "outputs": [],
      "stateMutability": "nonpayable",
      "type": "function"
    },
    {
      "inputs": [
        {
          "internalType": "contract SenateUpgradeable",
          "name": "newSenate",
          "type": "address"
        }
      ],
      "name": "updateSenate",
      "outputs": [],
      "stateMutability": "nonpayable",
      "type": "function"
    },
    {
      "inputs": [
        {
          "internalType": "contract TimelockControllerUpgradeable",
          "name": "newTimelock",
          "type": "address"
        }
      ],
      "name": "updateTimelock",
      "outputs": [],
      "stateMutability": "nonpayable",
      "type": "function"
    },
    {
      "inputs": [],
      "name": "version",
      "outputs": [
        {
          "internalType": "string",
          "name": "",
          "type": "string"
        }
      ],
      "stateMutability": "view",
      "type": "function"
    },
    {
      "inputs": [],
      "name": "votingDelay",
      "outputs": [
        {
          "internalType": "uint256",
          "name": "",
          "type": "uint256"
        }
      ],
      "stateMutability": "view",
      "type": "function"
    },
    {
      "inputs": [],
      "name": "votingPeriod",
      "outputs": [
        {
          "internalType": "uint256",
          "name": "",
          "type": "uint256"
        }
      ],
      "stateMutability": "view",
      "type": "function"
    },
    {
      "stateMutability": "payable",
      "type": "receive"
    }
  ],
  "numDeployments": 24,
  "bytecode": "0x60808060405234620000c6576000549060ff8260081c1662000074575060ff8082161062000038575b6040516141db9081620000cc8239f35b60ff90811916176000557f7f26b83ff96e1f2b6a682f133852f6798a09c465da95921460cefb3847402498602060405160ff8152a13862000028565b62461bcd60e51b815260206004820152602760248201527f496e697469616c697a61626c653a20636f6e747261637420697320696e697469604482015266616c697a696e6760c81b6064820152608490fd5b600080fdfe60406080815260049081361015610038575b5050361561001e57600080fd5b6001600160a01b036102275416300361003357005b600080fd5b600091823560e01c8063013cf08b14611ce357806301ffc9a714611c2757806302a251a314611bdd5780630342018114611ad957806306fdde03146119ef578063150b7a0214611999578063160cbed71461197a5780631cced893146118c957806324bc1a64146118585780632656227d146118405780632d63f6931461180f5780632fe3e261146117d4578063328dd9821461173a5780633932abb1146116ae5780633bccf4fd146115f15780633e4f49e6146115ac57806340e58ee51461132e57806343859632146112e4578063485cc95514610eed57806354fd4d5014610ebc5780635678138814610e815780635f398a1414610e0e578063715018a614610db65780637b3c71d314610d545780637d5e81e214610ccb57806385b4bb5314610c9c5780638da5cb5b14610c745780639a802a6d14610c15578063a6e5b8e614610bec578063a890c91014610b20578063ab58fb8e14610b00578063b58131b014610ae3578063bc197c8114610a5c578063c01f9e3714610a1f578063c28bc2fa1461085b578063c59057e41461083c578063d33219b414610813578063d4a8dd98146107ea578063da95691a146106aa578063dd4e2ba514610649578063ddf0b009146105f6578063deaaa7cc146105bb578063e23a9a5214610511578063eb9019d41461043a578063f23a6e61146103e1578063f2fde38b14610350578063f8ce560a146102bf5763fe0d94c1146102555750610011565b60203660031901126102bb57806102b7913584526101c46020526102938385209161028d61028560038501612f23565b918401612f23565b906130c6565b6009820154916102b160026102aa60018401613000565b920161305a565b9061246e565b5051f35b8280fd5b5091903461034c57602092836003193601126102bb57836001600160a01b036101f65416916024845180948193637c672b0560e11b83528035908301525afa9283156103415792610312575b5051908152f35b9091508281813d831161033a575b61032a8183611ec8565b810103126100335751903861030b565b503d610320565b8251903d90823e3d90fd5b5080fd5b50346102bb5760203660031901126102bb5761036a611fd8565b90610373612292565b6001600160a01b0382161561038f575061038c906122ea565b51f35b608490602084519162461bcd60e51b8352820152602660248201527f4f776e61626c653a206e6577206f776e657220697320746865207a65726f206160448201526564647265737360d01b6064820152fd5b5091346104375760a0366003190112610437576103fc611fd8565b50610405611fee565b506084359067ffffffffffffffff8211610437575060209261042991369101611f72565b505163f23a6e6160e01b8152f35b80fd5b5091903461034c578060031936011261034c576020610457611fd8565b9383835161046481611e90565b526001600160a01b03806101f654169084519661048088611e90565b8688526104b786519889958694859463f8ef763b60e01b865216908401526024356024840152606060448401526064830190611fb3565b03915afa91821561050657916104d2575b6020925051908152f35b90506020823d82116104fe575b816104ec60209383611ec8565b810103126100335760209151906104c8565b3d91506104df565b9051903d90823e3d90fd5b50346102bb57816003193601126102bb576001600160a01b03600883606095610538611fee565b948183805161054681611e3c565b82815282602082015201523581526101c460205220019116600052602052806000209080519161057583611e3c565b5460ff811615159283815260ff836020830192828560081c16845201916bffffffffffffffffffffffff809460101c168352845195865251166020850152511690820152f35b50503461034c578160031936011261034c57602090517f150214d74d59b7d1e90c73fc22ef3d991dd0a76b046543d4d80ab92d2a50328f8152f35b50346102bb5760203660031901126102bb57806102b7913584526101c460205261062c8385209161028d61028560038501612f23565b60098201549161064360026102aa60018401613000565b90613817565b50503461034c578160031936011261034c5780516106a69161066a82611eac565b601a82527f737570706f72743d627261766f2671756f72756d3d627261766f000000000000602083015251918291602083526020830190611fb3565b0390f35b5090346102bb5760a03660031901126102bb5767ffffffffffffffff9180358381116107e6576106dd903690830161201c565b60249182358581116107e2576106f6903690830161208a565b90604435958087116107de57366023880112156107de57868201359461071b86612004565b9561072888519788611ec8565b808752602098828a89019260051b820101923684116107da57808201925b8484106107b05750505050506064358181116107ac5761076990369084016120e8565b9760843591821161043757509661078b61079f926107a5979899369101611f72565b9461079a86838387893361323e565b6130c6565b91613dc2565b9051908152f35b8880fd5b83358681116107d6578c916107cb8392853691880101611f72565b815201930192610746565b8d80fd5b8b80fd5b8780fd5b8680fd5b8480fd5b509134610437576020366003190112610437575061080a60209235613aa7565b90519015158152f35b50503461034c578160031936011261034c576020906001600160a01b0361022754169051908152f35b50503461034c576020906107a561085236612169565b9291909161238b565b50346102bb5760603660031901126102bb57610875611fd8565b6024359060443567ffffffffffffffff8111610a1b576108989036908501611de4565b906001600160a01b0361022754166108b1813314612e20565b30036109f5575b6108c3913691611f3b565b918451936108d085611e3c565b602985527f416464726573733a206c6f772d6c6576656c2063616c6c20776974682076616c6020860152681d594819985a5b195960ba1b868601528147106109a357823b156109605750828692839260206102b79796519301915af13d15610958573d9061093d82611eea565b9161094a86519384611ec8565b82523d86602084013e612e6c565b606090612e6c565b606490602087519162461bcd60e51b8352820152601d60248201527f416464726573733a2063616c6c20746f206e6f6e2d636f6e74726163740000006044820152fd5b608490602087519162461bcd60e51b8352820152602660248201527f416464726573733a20696e73756666696369656e742062616c616e636520666f6044820152651c8818d85b1b60d21b6064820152fd5b6109ff3636611f06565b602081519101205b80610a10612eb0565b03610a0757506108b8565b8580fd5b50346102bb5760203660031901126102bb57610a5360018360209567ffffffffffffffff94358152610194875220016123ef565b51169051908152f35b5091346104375760a036600319011261043757610a77611fd8565b50610a80611fee565b5067ffffffffffffffff9060443582811161034c57610aa2903690860161208a565b5060643582811161034c57610aba903690860161208a565b506084359182116104375750602092610ad591369101611f72565b505163bc197c8160e01b8152f35b50503461034c578160031936011261034c576020906107a5614157565b50913461043757602036600319011261043757506107a560209235613782565b50503461034c57602036600319011261034c57610b3b611fd8565b6001600160a01b036102279181835416610b56813314612e20565b3003610bc6575b825484516001600160a01b038285168116825292909316918216602084015290917f08f74ea46ef7894f65eabfb5e6e695de773a000b47c529ab559178069b2264019080604081015b0390a173ffffffffffffffffffffffffffffffffffffffff191617905551f35b610bd03636611f06565b602081519101205b80610be1612eb0565b03610bd85750610b5d565b50503461034c578160031936011261034c576020906001600160a01b036101f654169051908152f35b5091903461034c57606036600319011261034c57610c31611fd8565b9260443567ffffffffffffffff8111610c705790610c5460209236908301611f72565b506001600160a01b03806101f654169084519661048088611e90565b8380fd5b50503461034c578160031936011261034c576020906001600160a01b03609954169051908152f35b50503461034c578160031936011261034c57606090610cb96136f5565b91929081519384526020840152820152f35b5091346104375760803660031901126104375767ffffffffffffffff83358181116102bb57610cfd903690860161201c565b93602435828111610c7057610d15903690830161208a565b916044358181116107e657610d2d90369084016120e8565b93606435918211610437575091610d4e6107a5949260209794369101611f72565b92613dc2565b50346102bb5760603660031901126102bb57610d6e611dd4565b60443567ffffffffffffffff81116107e6579160209491610d9f610d986107a59536908501611de4565b3691611f3b565b91855193610dac85611e90565b8452339035612a38565b50503461034c578160031936011261034c57610dd0612292565b60006001600160a01b0360995492811984166099555192167f8be0079c531659141344cd1fd0a4f28419497f9722a3daafe3b4186f6b6457e08284a3f35b50346102bb5760803660031901126102bb57610e28611dd4565b67ffffffffffffffff9360443585811161034c57610e499036908501611de4565b959091606435918211610437575091610e786107a59492610e706020989536908601611f72565b943691611f3b565b91339035612a38565b50346102bb57816003193601126102bb576020926107a591610ea1611dd4565b845191610ead83611e90565b838352855193610dac85611e90565b50503461034c578160031936011261034c576106a690610eda61236e565b9051918291602083526020830190611fb3565b50346102bb57816003193601126102bb57610f06611fd8565b90610f0f611fee565b84549060ff93848360081c1615918280936112d8575b80156112c2575b1561125957600193838560ff198316178a55611248575b508651610f4f81611eac565b60118152602095610fb98783017f52657075626c69634368616e63656c6f720000000000000000000000000000008152898c5460081c1690610f9082613a35565b610f9861236e565b90610fa283613a35565b85519020908a815191012090606555606655613a35565b81519067ffffffffffffffff821161123557508061019392610fdb8454612334565b601f81116111dd575b508890601f8311600114611160578c92611155575b5050600019600383901b1c191690861b1790555b61102586895460081c1661102081613a35565b613a35565b61102e336122ea565b8754958660081c1661103f81613a35565b61104881613a35565b61105181613a35565b6101f6805489516001600160a01b0380831682529485166020820181905291936110c493909290917f304e188ff78544bf68047712e88b34e09b3e2f53411c33ea1f31c8db0323955290604090a173ffffffffffffffffffffffffffffffffffffffff1994851617905561102081613a35565b610227805489516001600160a01b03858316811682529590941694851660208501529093927f08f74ea46ef7894f65eabfb5e6e695de773a000b47c529ab559178069b22640190604090a11617905561111e575b50505051f35b7f7f26b83ff96e1f2b6a682f133852f6798a09c465da95921460cefb38474024989261ff00191685558351908152a1388080611118565b015190503880610ff9565b848d528893507ffc8af01f449989052b52093a58fc9f42d0b11f0c6dd5dca0463dab62346ccc689190601f1984168e5b8c8282106111c757505084116111ae575b505050811b01905561100d565b015160001960f88460031b161c191690553880806111a1565b8385015186558c97909501949384019301611190565b61122590856000527ffc8af01f449989052b52093a58fc9f42d0b11f0c6dd5dca0463dab62346ccc68601f850160051c8101918c861061122b575b601f0160051c01906131ca565b38610fe4565b9091508190611218565b634e487b7160e01b8b526041905260248afd5b61ffff191661010117885538610f43565b865162461bcd60e51b8152602081870152602e60248201527f496e697469616c697a61626c653a20636f6e747261637420697320616c72656160448201527f647920696e697469616c697a65640000000000000000000000000000000000006064820152608490fd5b50303b158015610f2c5750600186851614610f2c565b50600186851610610f25565b50346102bb57816003193601126102bb576001600160a01b0360088360209561130b611fee565b943581526101c4875220019116600052825260ff81600020541690519015158152f35b50346102bb57602080600319360112610c7057813584526101c48152828420916001600160a01b039283815416803314908115611572575b5015611520578061138a61137f60036113a79401612f23565b61028d858401612f23565b6009820154916113a160026102aa60018401613000565b9061238b565b906113b182613b65565b6008811015908161150d57600281141591826114ff575b826114da575b50501561149757818652610194835260028587200161010061ff00198254161790557f789cf55be980739dad1d0699b93b58e806b51c9d96619bfa8fe0a28abaa7b30c838651848152a181865285610228948585528682205461143057508551f35b6102275416918682205490833b156102bb57602490838951958694859363c4d252f560e01b85528401525af1801561148d5761147a575b5084525260008183205538808080858551f35b61148690959195611e12565b9338611467565b85513d88823e3d90fd5b845162461bcd60e51b8152908101839052601e60248201527f4368616e63656c6f723a2070726f706f73616c206e6f742061637469766500006044820152606490fd5b9091506114ec576007141538806113ce565b634e487b7160e01b875260218252602487fd5b5060068114159150876113c8565b634e487b7160e01b885260218352602488fd5b5060849184519162461bcd60e51b8352820152602760248201527f476f7665726e6f72427261766f3a2070726f706f7365722061626f76652074686044820152661c995cda1bdb1960ca1b6064820152fd5b43600019810192508211611599579061158a916126ee565b611592614157565b1138611366565b634e487b7160e01b885260118452602488fd5b5091903461034c57602036600319011261034c576115ca8335613b65565b90519160088210156115de57602083838152f35b634e487b7160e01b815260218452602490fd5b50346102bb5760a03660031901126102bb573561160c611dd4565b60443560ff811681036107e657916020949161168c6116846107a5958751898101917f150214d74d59b7d1e90c73fc22ef3d991dd0a76b046543d4d80ab92d2a50328f8352868a83015260ff861660608301526060825261166c82611e74565b61167f60843593606435935190206129b7565b612902565b9190916127a6565b85519261169884611e90565b8484528651946116a786611e90565b8552612a38565b5090346102bb57826003193601126102bb5760206001600160a01b036101f65416825193848092633932abb160e01b82525afa9182156117305783926116f9575b6020838351908152f35b9091506020813d8211611728575b8161171460209383611ec8565b810103126102bb57602092505190386116ef565b3d9150611707565b81513d85823e3d90fd5b50346102bb5760203660031901126102bb57806117c6836117ab956106a6943581526101c4602052209361177060018601613000565b946117b96117976117836002840161305a565b9561179060038501612f23565b9301612f23565b94835198899860808a5260808a01906121cc565b9088820360208a0152612209565b918683039087015261223d565b90838203606085015261223d565b50503461034c578160031936011261034c57602090517fb3b3f3b703cd84ce352197dcff232b1b5d3cfb2025ce47cf04742d0651f1af888152f35b50346102bb5760203660031901126102bb57610a538260209467ffffffffffffffff933581526101948652206123ef565b6020836107a561184f36612169565b9291909161246e565b5090346102bb57826003193601126102bb5760001943014381116118b65760209060246001600160a01b036101f654169484519586938492637c672b0560e11b84528301525afa9182156117305783926116f9576020838351908152f35b634e487b7160e01b845260118352602484fd5b50503461034c57602036600319011261034c576118e4611fd8565b6001600160a01b038061022754166118fd813314612e20565b3003611954575b6101f6805484516001600160a01b038285168116825293909416928316602085015290927f304e188ff78544bf68047712e88b34e09b3e2f53411c33ea1f31c8db03239552908060408101610ba6565b61195e3636611f06565b602081519101205b8061196f612eb0565b036119665750611904565b50503461034c576020906107a561199036612169565b92919091613817565b509134610437576080366003190112610437576119b4611fd8565b506119bd611fee565b506064359067ffffffffffffffff821161043757506020926119e191369101611f72565b5051630a85bd0160e11b8152f35b50503461034c578160031936011261034c578051908261019390815490611a1582612334565b80865292600192808416908115611aae5750600114611a52575b6106a68686611a40828b0383611ec8565b51918291602083526020830190611fb3565b815294507ffc8af01f449989052b52093a58fc9f42d0b11f0c6dd5dca0463dab62346ccc685b828610611a9657505050611a408260206106a6958201019438611a2f565b80546020878701810191909152909501948101611a78565b90506106a6975086935060209250611a4094915060ff191682840152151560051b8201019438611a2f565b50346102bb5760e03660031901126102bb57803590611af6611dd4565b9067ffffffffffffffff6044358181116107e257611b179036908401611de4565b9190926064359182116107de57611b3091369101611f72565b956084359060ff821682036104375750611bd76107a595936020989593611bcf89610d9895611b60368587611f3b565b8d8151910120908a518e8c01208351928f8c908501957fb3b3f3b703cd84ce352197dcff232b1b5d3cfb2025ce47cf04742d0651f1af88875285015260ff8b166060850152608084015260a083015260a08252611bbc82611e58565b61167f60c4359360a435935190206129b7565b9490946127a6565b92612a38565b5090346102bb57826003193601126102bb5760206001600160a01b036101f654168251938480926302a251a360e01b82525afa9182156117305783926116f9576020838351908152f35b50346102bb5760203660031901126102bb57359063ffffffff60e01b82168092036102bb5760209250636e665ced60e01b8214918215611c6b575b50519015158152f35b909150635372dc7360e11b8114908115611c88575b509038611c62565b630ea498f160e21b811491508115611cd2575b8115611cc1575b8115611cb0575b5038611c80565b6301ffc9a760e01b14905038611ca9565b630271189760e51b81149150611ca2565b633f1a708f60e21b81149150611c9b565b50913461043757602036600319011261043757823591611d0283613782565b90838352610194908160205267ffffffffffffffff80611d238387206123ef565b511692868652602052611d3a6001838720016123ef565b51168585526101c4602052818520926001600160a01b03845416946005850154936007600687015496015496611d6f8a613b65565b9860088a1015611dc1576101408b60078c8c8c8c8c8c8c8c8c81519a8b5260208b01528901526060880152608087015260a086015260c085015260e08401526002811461010084015214610120820152f35b634e487b7160e01b815260218c52602490fd5b6024359060ff8216820361003357565b9181601f840112156100335782359167ffffffffffffffff8311610033576020838186019501011161003357565b67ffffffffffffffff8111611e2657604052565b634e487b7160e01b600052604160045260246000fd5b6060810190811067ffffffffffffffff821117611e2657604052565b60c0810190811067ffffffffffffffff821117611e2657604052565b6080810190811067ffffffffffffffff821117611e2657604052565b6020810190811067ffffffffffffffff821117611e2657604052565b6040810190811067ffffffffffffffff821117611e2657604052565b90601f8019910116810190811067ffffffffffffffff821117611e2657604052565b67ffffffffffffffff8111611e2657601f01601f191660200190565b919091611f1281611eea565b611f1f6040519182611ec8565b8093828252821161003357818160009384602080950137010152565b929192611f4782611eea565b91611f556040519384611ec8565b829481845281830111610033578281602093846000960137010152565b9080601f8301121561003357816020611f8d93359101611f3b565b90565b60005b838110611fa35750506000910152565b8181015183820152602001611f93565b90602091611fcc81518092818552858086019101611f90565b601f01601f1916010190565b600435906001600160a01b038216820361003357565b602435906001600160a01b038216820361003357565b67ffffffffffffffff8111611e265760051b60200190565b81601f820112156100335780359161203383612004565b926120416040519485611ec8565b808452602092838086019260051b820101928311610033578301905b82821061206b575050505090565b81356001600160a01b038116810361003357815290830190830161205d565b81601f82011215610033578035916120a183612004565b926120af6040519485611ec8565b808452602092838086019260051b820101928311610033578301905b8282106120d9575050505090565b813581529083019083016120cb565b9080601f830112156100335781359061210082612004565b9261210e6040519485611ec8565b828452602092838086019160051b8301019280841161003357848301915b84831061213c5750505050505090565b823567ffffffffffffffff811161003357869161215e84848094890101611f72565b81520192019161212c565b60806003198201126100335767ffffffffffffffff9160043583811161003357826121969160040161201c565b9260243581811161003357836121ae9160040161208a565b92604435918211610033576121c5916004016120e8565b9060643590565b90815180825260208080930193019160005b8281106121ec575050505090565b83516001600160a01b0316855293810193928101926001016121de565b90815180825260208080930193019160005b828110612229575050505090565b83518552938101939281019260010161221b565b90815180825260208092019182818360051b85019501936000915b8483106122685750505050505090565b909192939495848061228283856001950387528a51611fb3565b9801930193019194939290612258565b6001600160a01b036099541633036122a657565b606460405162461bcd60e51b815260206004820152602060248201527f4f776e61626c653a2063616c6c6572206973206e6f7420746865206f776e65726044820152fd5b609954906001600160a01b0380911691826001600160a01b0319821617609955167f8be0079c531659141344cd1fd0a4f28419497f9722a3daafe3b4186f6b6457e06000604051a3565b90600182811c92168015612364575b602083101461234e57565b634e487b7160e01b600052602260045260246000fd5b91607f1691612343565b6040519061237b82611eac565b60018252603160f81b6020830152565b92906123d7926123e9926040519485926123c76123b4602086019960808b5260a08701906121cc565b601f199687878303016040880152612209565b908585830301606086015261223d565b90608083015203908101835282611ec8565b51902090565b906040516020810167ffffffffffffffff9082811082821117611e2657604052819354169052565b1561241e57565b60405162461bcd60e51b815260206004820152602260248201527f4368616e63656c6f723a2070726f706f73616c206e6f742073756363657373666044820152611d5b60f21b6064820152608490fd5b91929061247d8285838661238b565b9361248785613b65565b6008811015612689578060046124a6921490811561267e575b50612417565b6000938585526020926101948452604091600283882001956001968760ff198254161790557f712ae1383f79ac853f8d882153778e0260ef8f03b504e2866e0593e04d2b291f8685518b8152a16001600160a01b0395610227978789541630036125ec575b50508587541692833b156107ac5761255e9289949261256d61254b938851998a978896879663e38335e560e01b885260a0600489015260a48801906121cc565b6003199384888303016024890152612209565b9185830301604486015261223d565b908660648401526084830152039134905af180156125e2576125b7575b50503091541603612599575090565b610195805480600f0b9060801d600f0b136125b357505090565b5590565b67ffffffffffffffff82116125ce5752388061258a565b634e487b7160e01b85526041600452602485fd5b81513d87823e3d90fd5b89815b6125fa575b5061250b565b8451811015612679576126208291308b612614838a6126c4565b5116146126265761269f565b906125ef565b8c612631828c6126c4565b518681519101206fffffffffffffffffffffffffffffffff610195928354928d608094851d9283600f0b81526101968c5220558354928783199201901b16911617905561269f565b6125f4565b6005915014386124a0565b634e487b7160e01b600052602160045260246000fd5b60001981146126ae5760010190565b634e487b7160e01b600052601160045260246000fd5b80518210156126d85760209160051b010190565b634e487b7160e01b600052603260045260246000fd5b6020604051926126fd84611e90565b60008094526001600160a01b03806101f65416906040519461271e86611e90565b8686526127546040519687958694859463f8ef763b60e01b86521660048501526024840152606060448401526064830190611fb3565b03915afa91821561279a57809261276a57505090565b9091506020823d8211612792575b8161278560209383611ec8565b8101031261043757505190565b3d9150612778565b604051903d90823e3d90fd5b600581101561268957806127b75750565b600181036128045760405162461bcd60e51b815260206004820152601860248201527f45434453413a20696e76616c6964207369676e617475726500000000000000006044820152606490fd5b600281036128515760405162461bcd60e51b815260206004820152601f60248201527f45434453413a20696e76616c6964207369676e6174757265206c656e677468006044820152606490fd5b600381036128a95760405162461bcd60e51b815260206004820152602260248201527f45434453413a20696e76616c6964207369676e6174757265202773272076616c604482015261756560f01b6064820152608490fd5b6004146128b257565b60405162461bcd60e51b815260206004820152602260248201527f45434453413a20696e76616c6964207369676e6174757265202776272076616c604482015261756560f01b6064820152608490fd5b9291907f7fffffffffffffffffffffffffffffff5d576e7357a4501ddfe92f46681b20a083116129ab5760ff16601b811415806129a0575b612994579160809493916020936040519384528484015260408301526060820152600093849182805260015afa156129875781516001600160a01b03811615612981579190565b50600190565b50604051903d90823e3d90fd5b50505050600090600490565b50601c81141561293a565b50505050600090600390565b6065546066546040519060208201927f8b73c3c69bb8fe3d512ecc4cf759cc79239f7b179b0ffacaa9a75d522b39400f8452604083015260608201524660808201523060a082015260a08152612a0c81611e58565b5190209060405190602082019261190160f01b845260228301526042820152604281526123e981611e74565b600081815261019460209081526040808320989794969591949092612a5c85613b65565b6008811015612e0c57600103612dbc578567ffffffffffffffff612a83612ad59b9c6123ef565b5116986001600160a01b03806101f6541690875192612aa184611e90565b85845288519d8e948593849363f8ef763b60e01b8552169e8f60048501526024840152606060448401526064830190611fb3565b03915afa988915612db0578199612d81575b508481526101c48652838082209189815260088301885220805460ff8116612d175760ff8516946bffffffffffffffffffffffff8c11612cc45760081b61ff00166dffffffffffffffffffffffffffff199091161760108b901b6dffffffffffffffffffffffff000016176001179055889392919082612c1d57600601612b6f8582546136e8565b90555b8051612bc557509181612bbf937fb8e138887d0aa13bab447e82de9d5c1777041ecd21ca36ba824ff1e6c07ddda49793519687968752860152840152608060608401526080830190611fb3565b0390a290565b9195612bbf9387612c0f937fe2babfbac5889a709b63bb7f598b324e08bc5a4fb9ec647fb3cbc9ec07eb87129951988998895288015286015260a0606086015260a0850190611fb3565b908382036080850152611fb3565b60018303612c3a57600501612c338582546136e8565b9055612b72565b929350909160028303612c5a579060078994939201612c338582546136e8565b835162461bcd60e51b815260048101879052602d60248201527f476f7665726e6f72436f6d7061746962696c697479427261766f3a20696e766160448201527f6c696420766f74652074797065000000000000000000000000000000000000006064820152608490fd5b865162461bcd60e51b8152600481018a9052602660248201527f53616665436173743a2076616c756520646f65736e27742066697420696e203960448201526536206269747360d01b6064820152608490fd5b855162461bcd60e51b815260048101899052602d60248201527f476f7665726e6f72436f6d7061746962696c697479427261766f3a20766f746560448201527f20616c72656164792063617374000000000000000000000000000000000000006064820152608490fd5b9098508581813d8311612da9575b612d998183611ec8565b810103126107ac57519738612ae7565b503d612d8f565b508351903d90823e3d90fd5b835162461bcd60e51b8152600481018790526024808201527f4368616e63656c6f723a20766f7465206e6f742063757272656e746c792061636044820152637469766560e01b6064820152608490fd5b634e487b7160e01b82526021600452602482fd5b15612e2757565b60405162461bcd60e51b815260206004820152601860248201527f4368616e63656c6f723a206f6e6c794368616e63656c6f7200000000000000006044820152606490fd5b90919015612e78575090565b815115612e885750805190602001fd5b60405162461bcd60e51b815260206004820152908190612eac906024830190611fb3565b0390fd5b6101959081549182600f0b809360801d600f0b1315612f115782600052610196602052604060002054926000604081205560016fffffffffffffffffffffffffffffffff1983541691016fffffffffffffffffffffffffffffffff16179055565b604051631ed9509560e11b8152600490fd5b90815491612f3083612004565b92604091612f4083519586611ec8565b81855260009081526020808220938291908188015b858410612f655750505050505050565b8151838692895492612f7684612334565b808252600194808616908115612fe45750600114612fac575b50612f9e816001960382611ec8565b815201970193019295612f55565b8b8a52838a20955089905b808210612fcd5750810183019450612f9e612f8f565b865483830186015295850195889490910190612fb7565b60ff19168584015250151560051b810183019450612f9e612f8f565b9060405191828154918282526020928383019160005283600020936000905b8282106130375750505061303592500383611ec8565b565b85546001600160a01b03168452600195860195889550938101939091019061301f565b9060405191828154918282526020928383019160005283600020936000905b82821061308f5750505061303592500383611ec8565b855484526001958601958895509381019390910190613079565b60005b8281106130b857505050565b6060828201526020016130ac565b91908051906130d482612004565b936040926130e484519687611ec8565b8086526130f3601f1991612004565b01906131036020928388016130a9565b6000805b82518110156131c2578061311e61314b92856126c4565b51516131505761312e81876126c4565b515b61313a828b6126c4565b52613145818a6126c4565b5061269f565b613107565b61315a81856126c4565b518051908601207fffffffff00000000000000000000000000000000000000000000000000000000166131bd61319083896126c4565b51895192888401528281516131ad816024948c8686019101611f90565b8101036004810184520182611ec8565b613130565b505050505050565b8181106131d5575050565b600081556001016131ca565b918181106131ee57505050565b61303592600052602060002091820191016131ca565b9190601f811161321357505050565b613035926000526020600020906020601f840160051c8301931061122b57601f0160051c01906131ca565b93929385516020809701209561325f8761325887896130c6565b868661238b565b9460009586526101c4825260408620926009840197885415613288575b50505050505050505050565b6001600160a01b038092166001600160a01b031986541617855560019687860187519067ffffffffffffffff948583116136d45768010000000000000000998a84116135f45788906132df858554818755866131e1565b01918c52878c20908b8d5b8581106136c057505050505050600286018151918483116136ac578883116136ac57869061331d848454818655856131e1565b01908a52858a20898b5b84811061369a575050505050600385018151918783116136865785908254848455808510613608575b500190895284892089915b8383106135215750505050600480940191805195861161350e5783908354878555808810613490575b50949294019387528287209187945b8686106133b357505050505050505050553880808080808080808061327c565b805190815184811161347d578991816133d789936133d18a54612334565b8a613204565b82948d601f831160011461341b57958291869792613410575b5050600019600383901b1c191690841b1787555b01940195019492613393565b0151905038806133f0565b9095601f1983168a8352858320925b818110613466575090869784889594931061344d575b505050811b018755613404565b015160001960f88460031b161c19169055388080613440565b8289015184558f978d97940193928301920161342a565b634e487b7160e01b8b526041845260248bfd5b848a528888848c2092830192015b8281106134ac575050613384565b90919293508a6134bc8254612334565b806134cf575b505001908886939261349e565b83601f8a8184116001146134eb575050505081555b8a386134c2565b8486613501965220920160051c820191016131ca565b8a878120818355556134e4565b634e487b7160e01b885260418552602488fd5b80519081518681116135f4578b91818e6135468c946135408954612334565b89613204565b8390601f8311600114613587579085968361357c575b5050600019600383901b1c191690841b1785555b0192019201919061335b565b01519050388061355c565b90601f198316888352858320925b8181106135d157509086978488959493106135b8575b505050811b018555613570565b015160001960f88460031b161c191690553880806135ab565b9497939686929691938786015181550195019301928f95929693918d9592613595565b634e487b7160e01b8d52604160045260248dfd5b8a85848e8781522092830192015b828110613624575050613350565b90919293508c6136348254612334565b80613647575b505001908a889392613616565b83601f8c818411600114613663575050505081555b8c3861363a565b8486613679965220920160051c820191016131ca565b8c8981208183555561365c565b634e487b7160e01b8a52604160045260248afd5b88845194019381840155018a90613327565b634e487b7160e01b8b52604160045260248bfd5b8a8386511695019481850155018c906132ea565b634e487b7160e01b8c52604160045260248cfd5b919082018092116126ae57565b60049060606001600160a01b036101f65416604051938480926385b4bb5360e01b82525afa90811561377657600080938193613732575b50929190565b92509092506060823d821161376e575b8161374f60609383611ec8565b810103126104375750805160208201516040909201519192903861372c565b3d9150613742565b6040513d6000823e3d90fd5b6001600160a01b03610227541660009182526102286020526020604083205460246040518094819363d45c443560e01b835260048301525afa90811561380c5782916137db575b50600181036137d6575090565b905090565b90506020813d8211613804575b816137f560209383611ec8565b8101031261034c5751386137c9565b3d91506137e8565b6040513d84823e3d90fd5b926138248184848761238b565b9361382e85613b65565b60088110156126895760046138439114612417565b6001600160a01b0391610227938385541660409687519563793d064960e11b87526020978888600481875afa978815613a2a576000986139fb575b50895163b1c5f42760e01b815260a0600482015289816138a160a482018b6121cc565b9681806138ce6138be6003199b8c8482030160248501528d612209565b8b8382030160448401528a61223d565b600060648301528c608483015203915afa9081156139f0576000916139c3575b508b6000526102288a528a60002055541691823b156100335761255e9560009561394b879361393b958d519a8b998a9889976308f2a0bb60e41b895260c060048a015260c48901906121cc565b9084888303016024890152612209565b9083606484015260848301528860a483015203925af180156139b8579161399c917f9a2e42fd6722813d69113e7d0079d3d940171428df7373df9c7f7617cfda28929594936139a9575b50426136e8565b825191858352820152a190565b6139b290611e12565b38613995565b84513d6000823e3d90fd5b908a82813d83116139e9575b6139d98183611ec8565b81010312610437575051386138ee565b503d6139cf565b8b513d6000823e3d90fd5b90978982813d8311613a23575b613a128183611ec8565b81010312610437575051963861387e565b503d613a08565b8a513d6000823e3d90fd5b15613a3c57565b60405162461bcd60e51b815260206004820152602b60248201527f496e697469616c697a61626c653a20636f6e7472616374206973206e6f74206960448201527f6e697469616c697a696e670000000000000000000000000000000000000000006064820152608490fd5b60009081526020906101c482526040812090610194835267ffffffffffffffff613ad3604083206123ef565b511690836001600160a01b036101f6541692602460405180958193637c672b0560e11b835260048301525afa938415612987578194613b19575b50505060050154101590565b909180939450813d8311613b46575b613b328183611ec8565b810103126104375750519060053880613b0d565b503d613b28565b90816020910312610033575180151581036100335790565b613b6e81613c7e565b9060088210156126895760048203613c7a576000908152602061022881526040822054908115600014613ba15750505090565b909192506001600160a01b03610227541691604051632ab0f52960e01b81528160048201528281602481875afa908115613c6f578591613c52575b5015613beb5750505050600790565b8190602460405180958193632c258a9f60e11b835260048301525afa92831561279a5792613c25575b505015613c2057600590565b600290565b613c449250803d10613c4b575b613c3c8183611ec8565b810190613b4d565b3880613c14565b503d613c32565b613c699150833d8511613c4b57613c3c8183611ec8565b38613bdc565b6040513d87823e3d90fd5b5090565b600081815261019480602052600260408320015460ff8116613d845760081c60ff16613d7c5767ffffffffffffffff9081613cbb604085206123ef565b51168015613d3757431115613d30578383526020524390613ce1600160408520016123ef565b51161015613d2957613cf282613aa7565b9182613d0a575b505015613d0557600490565b600390565b6040925081526101c46020522060066005820154910154103880613cf9565b5050600190565b5050905090565b60405162461bcd60e51b815260206004820152601e60248201527f4368616e63656c6f723a20756e6b6e6f776e2070726f706f73616c20696400006044820152606490fd5b505050600290565b50505050600790565b90613035613d9a83612004565b613da76040519182611ec8565b83815260208194613dba601f1991612004565b0191016130a9565b9092613df292613ddf8282613dd78151613d8d565b88873361323e565b613df8613dea6136f5565b96915061407b565b9461407b565b90613e016136f5565b505060001943014381116126ae57613e1990336126ee565b1061401057825194613e336020968786012083898861238b565b96613e4186518251146140e4565b613e4e86518451146140e4565b855115613fcb57876000526101949586885267ffffffffffffffff9660409388613e7a866000206123ef565b5116613f7c57899794613f41613f769895613f33613f5d968f7f7d84a6263ae0d98d3329bd7b46bb4e8d6f98cd35a7adb45c274c8b7fd5ebd5e09f97819f9c98613ed9613ed2613f4f9a613ecd4361407b565b61413b565b9c8d61413b565b92600052528b866000209a169b67ffffffffffffffff199a8d8c825416179055600187600020019116809a825416179055613f148151613d8d565b9480519e8f9e8f918252339101528d61012091829101528d01906121cc565b908b820360608d0152612209565b9089820360808b015261223d565b9087820360a089015261223d565b9260c086015260e0850152838203610100850152611fb3565b0390a190565b845162461bcd60e51b8152600481018b9052602260248201527f4368616e63656c6f723a2070726f706f73616c20616c72656164792065786973604482015261747360f01b6064820152608490fd5b60405162461bcd60e51b815260048101889052601960248201527f4368616e63656c6f723a20656d7074792070726f706f73616c000000000000006044820152606490fd5b60405162461bcd60e51b815260206004820152603260248201527f4368616e63656c6f723a2070726f706f73657220766f7465732062656c6f772060448201527f70726f706f73616c207468726573686f6c6400000000000000000000000000006064820152608490fd5b67ffffffffffffffff90818111614090571690565b60405162461bcd60e51b815260206004820152602660248201527f53616665436173743a2076616c756520646f65736e27742066697420696e203660448201526534206269747360d01b6064820152608490fd5b156140eb57565b60405162461bcd60e51b815260206004820152602260248201527f4368616e63656c6f723a20696e76616c69642070726f706f73616c206c656e676044820152610e8d60f31b6064820152608490fd5b91909167ffffffffffffffff808094169116019182116126ae57565b600460206001600160a01b036101f6541660405192838092630b58131b60e41b82525afa9081156137765760009161418d575090565b906020823d8211612792578161278560209383611ec856fea264697066735822122071531a0304bf0fb0db7528eea577111926687c810caa6c580b7e2283be903d1f64736f6c63430008100033"
}