{
  "address": "0xcbEAF3BDe82155F56486Fb5a1072cb8baAf547cc",
  "abi": [
    {
      "inputs": [
        {
          "internalType": "address",
          "name": "_marshalDeputy",
          "type": "address"
        },
        {
          "internalType": "address",
          "name": "_chancelor",
          "type": "address"
        },
        {
          "internalType": "uint256",
          "name": "_votingDelay",
          "type": "uint256"
        },
        {
          "internalType": "uint256",
          "name": "_votingPeriod",
          "type": "uint256"
        },
        {
          "internalType": "uint256",
          "name": "_tokenTreshold",
          "type": "uint256"
        },
        {
          "internalType": "uint256",
          "name": "_quorumPercentage",
          "type": "uint256"
        },
        {
          "internalType": "uint256",
          "name": "_quarantinePeriod",
          "type": "uint256"
        }
      ],
      "stateMutability": "nonpayable",
      "type": "constructor"
    },
    {
      "anonymous": false,
      "inputs": [
        {
          "indexed": true,
          "internalType": "address",
          "name": "previousOwner",
          "type": "address"
        },
        {
          "indexed": true,
          "internalType": "address",
          "name": "newOwner",
          "type": "address"
        }
      ],
      "name": "OwnershipTransferred",
      "type": "event"
    },
    {
      "anonymous": false,
      "inputs": [
        {
          "indexed": false,
          "internalType": "uint256",
          "name": "oldProposalThreshold",
          "type": "uint256"
        },
        {
          "indexed": false,
          "internalType": "uint256",
          "name": "newProposalThreshold",
          "type": "uint256"
        }
      ],
      "name": "ProposalThresholdSet",
      "type": "event"
    },
    {
      "anonymous": false,
      "inputs": [
        {
          "indexed": false,
          "internalType": "uint256",
          "name": "oldQuorumNumerator",
          "type": "uint256"
        },
        {
          "indexed": false,
          "internalType": "uint256",
          "name": "newQuorumNumerator",
          "type": "uint256"
        }
      ],
      "name": "QuorumNumeratorUpdated",
      "type": "event"
    },
    {
      "anonymous": false,
      "inputs": [
        {
          "indexed": true,
          "internalType": "address",
          "name": "delegator",
          "type": "address"
        },
        {
          "indexed": true,
          "internalType": "address",
          "name": "fromDelegate",
          "type": "address"
        },
        {
          "indexed": true,
          "internalType": "address",
          "name": "toDelegate",
          "type": "address"
        }
      ],
      "name": "SenateBooksDelegateChanged",
      "type": "event"
    },
    {
      "anonymous": false,
      "inputs": [
        {
          "indexed": true,
          "internalType": "address",
          "name": "senateMember",
          "type": "address"
        },
        {
          "indexed": true,
          "internalType": "address",
          "name": "delegate",
          "type": "address"
        },
        {
          "indexed": false,
          "internalType": "uint256",
          "name": "previousBalance",
          "type": "uint256"
        },
        {
          "indexed": false,
          "internalType": "uint256",
          "name": "newBalance",
          "type": "uint256"
        }
      ],
      "name": "SenateBooksDelegateVotesChanged",
      "type": "event"
    },
    {
      "anonymous": false,
      "inputs": [
        {
          "indexed": false,
          "internalType": "uint256",
          "name": "oldVotingDelay",
          "type": "uint256"
        },
        {
          "indexed": false,
          "internalType": "uint256",
          "name": "newVotingDelay",
          "type": "uint256"
        }
      ],
      "name": "VotingDelaySet",
      "type": "event"
    },
    {
      "anonymous": false,
      "inputs": [
        {
          "indexed": false,
          "internalType": "uint256",
          "name": "oldVotingPeriod",
          "type": "uint256"
        },
        {
          "indexed": false,
          "internalType": "uint256",
          "name": "newVotingPeriod",
          "type": "uint256"
        }
      ],
      "name": "VotingPeriodSet",
      "type": "event"
    },
    {
      "inputs": [],
      "name": "DOMAIN_SEPARATOR",
      "outputs": [
        {
          "internalType": "bytes32",
          "name": "",
          "type": "bytes32"
        }
      ],
      "stateMutability": "view",
      "type": "function"
    },
    {
      "inputs": [
        {
          "internalType": "address",
          "name": "_token",
          "type": "address"
        }
      ],
      "name": "acceptToSenate",
      "outputs": [],
      "stateMutability": "nonpayable",
      "type": "function"
    },
    {
      "inputs": [
        {
          "internalType": "address",
          "name": "_token",
          "type": "address"
        }
      ],
      "name": "banFromSenate",
      "outputs": [],
      "stateMutability": "nonpayable",
      "type": "function"
    },
    {
      "inputs": [
        {
          "internalType": "address",
          "name": "_newMarshalInTown",
          "type": "address"
        }
      ],
      "name": "changeMarshalDeputy",
      "outputs": [],
      "stateMutability": "nonpayable",
      "type": "function"
    },
    {
      "inputs": [],
      "name": "getNewGang",
      "outputs": [
        {
          "internalType": "address[]",
          "name": "",
          "type": "address[]"
        }
      ],
      "stateMutability": "view",
      "type": "function"
    },
    {
      "inputs": [],
      "name": "getOldDogs",
      "outputs": [
        {
          "internalType": "address[]",
          "name": "",
          "type": "address[]"
        }
      ],
      "stateMutability": "view",
      "type": "function"
    },
    {
      "inputs": [
        {
          "internalType": "uint256",
          "name": "blockNumber",
          "type": "uint256"
        }
      ],
      "name": "getPastTotalSupply",
      "outputs": [
        {
          "internalType": "uint256",
          "name": "",
          "type": "uint256"
        }
      ],
      "stateMutability": "view",
      "type": "function"
    },
    {
      "inputs": [
        {
          "internalType": "address",
          "name": "account",
          "type": "address"
        },
        {
          "internalType": "uint256",
          "name": "blockNumber",
          "type": "uint256"
        }
      ],
      "name": "getPastVotes",
      "outputs": [
        {
          "internalType": "uint256",
          "name": "",
          "type": "uint256"
        }
      ],
      "stateMutability": "view",
      "type": "function"
    },
    {
      "inputs": [],
      "name": "getSettings",
      "outputs": [
        {
          "internalType": "uint256",
          "name": "currProposalThreshold",
          "type": "uint256"
        },
        {
          "internalType": "uint256",
          "name": "currVotingDelay",
          "type": "uint256"
        },
        {
          "internalType": "uint256",
          "name": "currVotingPeriod",
          "type": "uint256"
        }
      ],
      "stateMutability": "view",
      "type": "function"
    },
    {
      "inputs": [],
      "name": "getTotalSuply",
      "outputs": [
        {
          "internalType": "uint256",
          "name": "",
          "type": "uint256"
        }
      ],
      "stateMutability": "view",
      "type": "function"
    },
    {
      "inputs": [
        {
          "internalType": "address",
          "name": "account",
          "type": "address"
        },
        {
          "internalType": "uint256",
          "name": "blockNumber",
          "type": "uint256"
        },
        {
          "internalType": "bytes",
          "name": "params",
          "type": "bytes"
        }
      ],
      "name": "getVotes",
      "outputs": [
        {
          "internalType": "uint256",
          "name": "",
          "type": "uint256"
        }
      ],
      "stateMutability": "view",
      "type": "function"
    },
    {
      "inputs": [],
      "name": "name",
      "outputs": [
        {
          "internalType": "string",
          "name": "",
          "type": "string"
        }
      ],
      "stateMutability": "view",
      "type": "function"
    },
    {
      "inputs": [
        {
          "internalType": "address",
          "name": "owner",
          "type": "address"
        }
      ],
      "name": "nonces",
      "outputs": [
        {
          "internalType": "uint256",
          "name": "",
          "type": "uint256"
        }
      ],
      "stateMutability": "view",
      "type": "function"
    },
    {
      "inputs": [
        {
          "internalType": "address[]",
          "name": "_tokens",
          "type": "address[]"
        }
      ],
      "name": "openSenate",
      "outputs": [],
      "stateMutability": "nonpayable",
      "type": "function"
    },
    {
      "inputs": [],
      "name": "owner",
      "outputs": [
        {
          "internalType": "address",
          "name": "",
          "type": "address"
        }
      ],
      "stateMutability": "view",
      "type": "function"
    },
    {
      "inputs": [],
      "name": "proposalThreshold",
      "outputs": [
        {
          "internalType": "uint256",
          "name": "",
          "type": "uint256"
        }
      ],
      "stateMutability": "view",
      "type": "function"
    },
    {
      "inputs": [
        {
          "internalType": "address",
          "name": "_token",
          "type": "address"
        }
      ],
      "name": "quarantineFromSenate",
      "outputs": [],
      "stateMutability": "nonpayable",
      "type": "function"
    },
    {
      "inputs": [
        {
          "internalType": "address",
          "name": "_token",
          "type": "address"
        }
      ],
      "name": "quarantineUntil",
      "outputs": [
        {
          "internalType": "uint256",
          "name": "",
          "type": "uint256"
        }
      ],
      "stateMutability": "view",
      "type": "function"
    },
    {
      "inputs": [
        {
          "internalType": "uint256",
          "name": "blockNumber",
          "type": "uint256"
        }
      ],
      "name": "quorum",
      "outputs": [
        {
          "internalType": "uint256",
          "name": "",
          "type": "uint256"
        }
      ],
      "stateMutability": "view",
      "type": "function"
    },
    {
      "inputs": [],
      "name": "quorumDenominator",
      "outputs": [
        {
          "internalType": "uint256",
          "name": "",
          "type": "uint256"
        }
      ],
      "stateMutability": "view",
      "type": "function"
    },
    {
      "inputs": [
        {
          "internalType": "uint256",
          "name": "blockNumber",
          "type": "uint256"
        }
      ],
      "name": "quorumNumerator",
      "outputs": [
        {
          "internalType": "uint256",
          "name": "",
          "type": "uint256"
        }
      ],
      "stateMutability": "view",
      "type": "function"
    },
    {
      "inputs": [],
      "name": "quorumNumerator",
      "outputs": [
        {
          "internalType": "uint256",
          "name": "",
          "type": "uint256"
        }
      ],
      "stateMutability": "view",
      "type": "function"
    },
    {
      "inputs": [],
      "name": "renounceOwnership",
      "outputs": [],
      "stateMutability": "nonpayable",
      "type": "function"
    },
    {
      "inputs": [
        {
          "internalType": "address",
          "name": "_tokenAddress",
          "type": "address"
        }
      ],
      "name": "senateMemberStatus",
      "outputs": [
        {
          "internalType": "enum ISenate.membershipStatus",
          "name": "",
          "type": "uint8"
        }
      ],
      "stateMutability": "view",
      "type": "function"
    },
    {
      "inputs": [
        {
          "internalType": "uint256",
          "name": "newProposalThreshold",
          "type": "uint256"
        }
      ],
      "name": "setProposalThreshold",
      "outputs": [],
      "stateMutability": "nonpayable",
      "type": "function"
    },
    {
      "inputs": [
        {
          "internalType": "uint256",
          "name": "newVotingDelay",
          "type": "uint256"
        }
      ],
      "name": "setVotingDelay",
      "outputs": [],
      "stateMutability": "nonpayable",
      "type": "function"
    },
    {
      "inputs": [
        {
          "internalType": "uint256",
          "name": "newVotingPeriod",
          "type": "uint256"
        }
      ],
      "name": "setVotingPeriod",
      "outputs": [],
      "stateMutability": "nonpayable",
      "type": "function"
    },
    {
      "inputs": [
        {
          "internalType": "bytes4",
          "name": "interfaceId",
          "type": "bytes4"
        }
      ],
      "name": "supportsInterface",
      "outputs": [
        {
          "internalType": "bool",
          "name": "",
          "type": "bool"
        }
      ],
      "stateMutability": "view",
      "type": "function"
    },
    {
      "inputs": [
        {
          "internalType": "address",
          "name": "newOwner",
          "type": "address"
        }
      ],
      "name": "transferOwnership",
      "outputs": [],
      "stateMutability": "nonpayable",
      "type": "function"
    },
    {
      "inputs": [
        {
          "internalType": "address",
          "name": "from",
          "type": "address"
        },
        {
          "internalType": "address",
          "name": "to",
          "type": "address"
        },
        {
          "internalType": "uint256",
          "name": "amount",
          "type": "uint256"
        }
      ],
      "name": "transferVotingUnits",
      "outputs": [],
      "stateMutability": "nonpayable",
      "type": "function"
    },
    {
      "inputs": [
        {
          "internalType": "uint256",
          "name": "newQuorumNumerator",
          "type": "uint256"
        }
      ],
      "name": "updateQuorumNumerator",
      "outputs": [],
      "stateMutability": "nonpayable",
      "type": "function"
    },
    {
      "inputs": [],
      "name": "version",
      "outputs": [
        {
          "internalType": "string",
          "name": "",
          "type": "string"
        }
      ],
      "stateMutability": "view",
      "type": "function"
    },
    {
      "inputs": [],
      "name": "votingDelay",
      "outputs": [
        {
          "internalType": "uint256",
          "name": "",
          "type": "uint256"
        }
      ],
      "stateMutability": "view",
      "type": "function"
    },
    {
      "inputs": [],
      "name": "votingPeriod",
      "outputs": [
        {
          "internalType": "uint256",
          "name": "",
          "type": "uint256"
        }
      ],
      "stateMutability": "view",
      "type": "function"
    }
  ],
  "numDeployments": 5,
  "bytecode": "0x6101408060405234620000a95760e09062003b28908138039182916200002583620000c5565b3912620000a957620000616200003a62000143565b620000446200015b565b610180516101a0516101c051916101e0519361020051956200019d565b60405161304c908162000abc823960805181612d77015260a05181612e32015260c05181612d48015260e05181612dc601526101005181612dec01526101205181612da30152f35b600080fd5b50634e487b7160e01b600052604160045260246000fd5b601f01601f1916610140908101906001600160401b03821190821017620000eb57604052565b620000f5620000ae565b604052565b604081019081106001600160401b03821117620000eb57604052565b60c081019081106001600160401b03821117620000eb57604052565b604051906200014182620000fa565b565b61014051906001600160a01b0382168203620000a957565b61016051906001600160a01b0382168203620000a957565b604051906200018282620000fa565b60118252565b604051906200019782620000fa565b60018252565b620002db92620002c46200014198620002be620002e19897956200029c620002d5966200027a620001cd62000173565b9560208701702932b83ab13634b1a1b430b731b2b637b960791b8152620001f362000188565b906020820190603160f81b825289519020915190208160e05280610100524660a05260405160208101917f8b73c3c69bb8fe3d512ecc4cf759cc79239f7b179b0ffacaa9a75d522b39400f93848452604083015260608201524660808201523060a082015260a08152620002678162000116565b5190206080523060c05261012052600855565b600680546001600160a01b0319166001600160a01b0392909216919091179055565b600780546001600160a01b0319166001600160a01b0392909216919091179055565b6200037d565b620002cf3362000481565b620004cf565b62000508565b6200059e565b6200065b565b90600182811c9216801562000319575b60208310146200030357565b634e487b7160e01b600052602260045260246000fd5b91607f1691620002f7565b601f811162000331575050565b600090600a825260208220906020601f850160051c8301941062000372575b601f0160051c01915b8281106200036657505050565b81815560010162000359565b909250829062000350565b80519091906001600160401b03811162000471575b620003aa81620003a4600a54620002e7565b62000324565b602080601f8311600114620003e95750819293600092620003dd575b50508160011b916000199060031b1c191617600a55565b015190503880620003c6565b600a600052601f198316949091907fc65a7bb8d6351c1cf70c95a316cc6a92839c986682d98bc35f958f4883f9d2a8926000905b878210620004585750508360019596106200043e575b505050811b01600a55565b015160001960f88460031b161c1916905538808062000433565b806001859682949686015181550195019301906200041d565b6200047b620000ae565b62000392565b600b80546001600160a01b039283166001600160a01b031982168117909255604051919216907f8be0079c531659141344cd1fd0a4f28419497f9722a3daafe3b4186f6b6457e090600090a3565b600c5460408051918252602082018390527fc565b045403dc03c2eea82b81a0465edad9e2e7fc4d97e11421c209da93d7a9391a1600c55565b80156200054857600d5460408051918252602082018390527f7e3f7f0708a84de9203036abaa450dccc85ad5ff52f78c170f3edb55cf5e882891a1600d55565b60405162461bcd60e51b815260206004820152602860248201527f4368616e63656c6f7253657474696e67733a20766f74696e6720706572696f6460448201526720746f6f206c6f7760c01b6064820152608490fd5b600e5460408051918252602082018390527fccb45da8d5717e6c4544694297c4ba5cf151d455c9bb0ed4fc7a38411bc0546191a1600e55565b60135490680100000000000000008210156200064b575b600182018060135582101562000635576013600052805160209182015190911b63ffffffff191663ffffffff919091161760008051602062003b0883398151915290910155565b634e487b7160e01b600052603260045260246000fd5b62000655620000ae565b620005ee565b6064811162000709577f0553476bf02ef2726e8ce5ced78d63e26e602e4a2257b1f559418e24b4633997906200069062000a68565b80151580620006fe575b620006bf575b620006ab8262000780565b5050604080519182526020820192909252a1565b620006f8620006ce82620009fe565b620006f2620006dc62000132565b600081526001600160e01b039092166020830152565b620005d7565b620006a0565b50601354156200069a565b60a460405162461bcd60e51b815260206004820152604460248201527f4368616e63656c6f72566f74657351756f72756d4672616374696f6e3a20717560448201527f6f72756d4e756d657261746f72206f7665722071756f72756d44656e6f6d696e60648201526330ba37b960e11b6084820152fd5b63ffffffff804311620007b6576200079c620007a592620009fe565b904316620008c3565b6001600160e01b0391821692911690565b60405162461bcd60e51b815260206004820152602660248201527f53616665436173743a2076616c756520646f65736e27742066697420696e203360448201526532206269747360d01b6064820152608490fd5b6000198101919082116200081a57565b634e487b7160e01b600052601160045260246000fd5b604080519192919081016001600160401b0381118282101762000866575b604052602081935463ffffffff81168352811c910152565b62000870620000ae565b6200084e565b156200087e57565b60405162461bcd60e51b815260206004820152601760248201527f436865636b706f696e743a20696e76616c6964206b65790000000000000000006044820152606490fd5b6013549192918015620009cf576200098f9181856200090b62000905620008ec6020966200080a565b601360005260008051602062003b088339815191520190565b62000830565b926200091b845163ffffffff1690565b6200093463ffffffff9182841692839116111562000876565b6200095062000947865163ffffffff1690565b63ffffffff1690565b036200099357506200096a620008ec62000981936200080a565b9063ffffffff82549181199060201b169116179055565b01516001600160e01b031690565b9190565b9050620009c99150620009b5620009a962000132565b63ffffffff9092168252565b6001600160e01b03871681850152620005d7565b62000981565b50620009f890620009e3620009a962000132565b6001600160e01b0384166020820152620005d7565b60009190565b6001600160e01b039081811162000a13571690565b60405162461bcd60e51b815260206004820152602760248201527f53616665436173743a2076616c756520646f65736e27742066697420696e20326044820152663234206269747360c81b6064820152608490fd5b6013546000908062000a7c57505060125490565b60001991818381011162000aa757601390520160008051602062003b08833981519152015460201c90565b634e487b7160e01b81526011600452602490fdfe60806040526004361015610013575b600080fd5b60003560e01c806301ffc9a7146102bb57806302a251a3146102b257806306f3f9e6146102a957806306fdde03146102a05780630d207a0f146102975780632f2baecc1461028e57806330d1af2a146102855780633644e5151461027c5780633932abb1146102735780633a46b1a81461026a5780634a09720e1461026157806354fd4d501461025857806360c4247f1461024f57806370b0f66014610246578063715018a61461023d5780637a762140146102345780637ecebe001461022b578063815b28bd1461022257806385b4bb53146102195780638da5cb5b146102105780638e539e8c1461020757806397c3d334146101fe5780639e059b20146101f5578063a7713a70146101ec578063b5092721146101e3578063b58131b0146101da578063beeb4d3a146101d1578063cce76998146101c8578063ea0217cf146101bf578063ece40cc1146101b6578063f2fde38b146101ad578063f8ce560a146101a4578063f8ef763b1461019b5763ff2d5ddb1461019357600080fd5b61000e61135a565b5061000e6112c6565b5061000e611249565b5061000e61117f565b5061000e61111b565b5061000e61105b565b5061000e611018565b5061000e610fa1565b5061000e610f82565b5061000e610dee565b5061000e610dd2565b5061000e610d97565b5061000e610d7a565b5061000e610d5b565b5061000e610d33565b5061000e610d03565b5061000e610c8d565b5061000e610c52565b5061000e610a77565b5061000e610a17565b5061000e6109b3565b5061000e610994565b5061000e610959565b5061000e6108d1565b5061000e610850565b5061000e610831565b5061000e61080d565b5061000e61076f565b5061000e6106ad565b5061000e610607565b5061000e6104ba565b5061000e610331565b5061000e610312565b503461000e57602036600319011261000e5760043563ffffffff60e01b811680910361000e5760209063271f915160e21b8114908115610301575b506040519015158152f35b6301ffc9a760e01b149050386102f6565b503461000e57600036600319011261000e576020600d54604051908152f35b503461000e57602036600319011261000e5760043561035c6001600160a01b03600754163314611b8e565b606481116103fa577f0553476bf02ef2726e8ce5ced78d63e26e602e4a2257b1f559418e24b46339979061038e612e58565b801515806103f0575b6103b9575b6103a582612781565b5050604080519182526020820192909252a1005b6103eb6103c582612cd5565b6103e66103d0610760565b600081526001600160e01b039092166020830152565b6127be565b61039c565b5060135415610397565b60a460405162461bcd60e51b815260206004820152604460248201527f4368616e63656c6f72566f74657351756f72756d4672616374696f6e3a20717560448201527f6f72756d4e756d657261746f72206f7665722071756f72756d44656e6f6d696e60648201526330ba37b960e11b6084820152fd5b6020808252825181830181905290939260005b8281106104a657505060409293506000838284010152601f8019910116010190565b818101860151848201604001528501610484565b503461000e576000806003193601126105c4576040519080600a549060019180831c928082169283156105ba575b60209283861085146105a6578588526020880194908115610585575060011461052c575b6105288761051c8189038261073e565b60405191829182610471565b0390f35b600a60005294509192917fc65a7bb8d6351c1cf70c95a316cc6a92839c986682d98bc35f958f4883f9d2a85b838610610574575050509101905061051c82610528388061050c565b805485870152948201948101610558565b60ff191685525050505090151560051b01905061051c82610528388061050c565b634e487b7160e01b82526022600452602482fd5b93607f16936104e8565b80fd5b600435906001600160a01b038216820361000e57565b602435906001600160a01b038216820361000e57565b35906001600160a01b038216820361000e57565b503461000e57606036600319011261000e576106216105c7565b6106296105dd565b9061063333611b01565b600481101561069757600103610652576106509160443591611e14565b005b60405162461bcd60e51b815260206004820152601d60248201527f53656e6174653a3a496e76616c69642053656e617465204d656d6265720000006044820152606490fd5b634e487b7160e01b600052602160045260246000fd5b503461000e57602036600319011261000e576106cf6106ca6105c7565b611b01565b6040516004821015610697576020918152f35b50634e487b7160e01b600052604160045260246000fd5b6040810190811067ffffffffffffffff82111761071557604052565b61071d6106e2565b604052565b60c0810190811067ffffffffffffffff82111761071557604052565b90601f8019910116810190811067ffffffffffffffff82111761071557604052565b6040519061076d826106f9565b565b503461000e5760208060031936011261000e5767ffffffffffffffff60043581811161000e573660238201121561000e578060040135918211610800575b8160051b604051926107c18583018561073e565b83526024848401918301019136831161000e57602401905b8282106107e9576106508461146f565b8480916107f5846105f3565b8152019101906107d9565b6108086106e2565b6107ad565b503461000e57600036600319011261000e576020610829612d3e565b604051908152f35b503461000e57600036600319011261000e576020600c54604051908152f35b503461000e57604036600319011261000e576001600160a01b036108726105c7565b16600052600f602052602061082960243560406000206121f7565b6020908160408183019282815285518094520193019160005b8281106108b4575050505090565b83516001600160a01b0316855293810193928101926001016108a6565b503461000e57600036600319011261000e57604051806002549182815260208091019260026000527f405787fa12a823e0f2b7631cc41b3ba8828b3321ca811111fa75cd3aa3bb5ace916000905b82821061094257610528856109368189038261073e565b6040519182918261088d565b83548652948501946001938401939091019061091f565b503461000e57600036600319011261000e5761052860405161097a816106f9565b60018152603160f81b602082015260405191829182610471565b503461000e57602036600319011261000e576020610829600435612ea3565b503461000e57602036600319011261000e576004356109de6001600160a01b03600754163314611b8e565b600c5460408051918252602082018390527fc565b045403dc03c2eea82b81a0465edad9e2e7fc4d97e11421c209da93d7a9391a1600c55005b503461000e576000806003193601126105c457610a326113cb565b600b546001600160a01b03198116600b55816001600160a01b0360405192167f8be0079c531659141344cd1fd0a4f28419497f9722a3daafe3b4186f6b6457e08284a3f35b503461000e5760208060031936011261000e57610a926105c7565b6001600160a01b0390610aaa82600754163314611b8e565b1690610ad2610acd610ac9846000526005602052604060002054151590565b1590565b611bda565b6040516301ffc9a760e01b808252630c5a011d60e01b6004830152908281602481875afa908115610c45575b600091610c28575b5015610b37575050610b28610ac9826000526001602052604060002054151590565b610b2e57005b61065090611914565b604051908152637487d9fb60e11b60048201528181602481865afa918215610c1b575b600092610bee575b505015610b9257610b83610ac9826000526003602052604060002054151590565b610b8957005b61065090611882565b60405162461bcd60e51b815260206004820152602a60248201527f53656e6174655570677261646561626c653a3a496e76616c696420696d706c656044820152696d656e746174696f6e2160b01b6064820152608490fd5b0390fd5b610c0d9250803d10610c14575b610c05818361073e565b8101906117f2565b3880610b62565b503d610bfb565b610c2361180a565b610b5a565b610c3f9150833d8511610c1457610c05818361073e565b38610b06565b610c4d61180a565b610afe565b503461000e57602036600319011261000e576001600160a01b03610c746105c7565b1660005260116020526020604060002054604051908152f35b503461000e576000806003193601126105c45760405181548082528280526020808301937f290decd9548b62a8d60345a988386fc84ba6bc95484008f6362f93160ef3e56392915b828210610cec57610528856109368189038261073e565b835486529485019460019384019390910190610cd5565b503461000e57600036600319011261000e576060600e54600c54600d549060405192835260208301526040820152f35b503461000e57600036600319011261000e5760206001600160a01b03600b5416604051908152f35b503461000e57602036600319011261000e57602061082960043561259e565b503461000e57600036600319011261000e57602060405160648152f35b503461000e57602036600319011261000e576001600160a01b03610db96105c7565b1660005260096020526020604060002054604051908152f35b503461000e57600036600319011261000e576020610829612e58565b503461000e576000806003193601126105c457610e18610e0c61265a565b6001600160e01b031690565b81905b610e23611a28565b51831015610f7757610e6b610e4f610e4285610e3d611a28565b6117d0565b516001600160a01b031690565b6001600160a01b03166000526005602052604060002054151590565b8015610f3a575b610f3057610ee8610ece610eee92610ea1610e95610e95610e4289610e3d611a28565b6001600160a01b031690565b610eaa43611cab565b6040518092632394e7a360e21b825281806020978895600483019190602083019252565b03915afa928315610f23575b8693610ef4575b5050611c9e565b9261179d565b91610e1b565b610f14929350803d10610f1c575b610f0c818361073e565b810190611f8d565b903880610ee1565b503d610f02565b610f2b61180a565b610eda565b91610eee9061179d565b50610f66610f4d610e4285610e3d611a28565b6001600160a01b03166000526009602052604060002090565b54610f7043611cab565b1115610e72565b604051908152602090f35b503461000e57600036600319011261000e576020600e54604051908152f35b503461000e57602036600319011261000e57610fbb6105c7565b6001600160a01b0390610fd382600654163314611423565b16806000526005602052610fec60406000205415611c32565b60085443019081431161100b575b600090815260096020526040902055005b611013611786565b610ffa565b503461000e57602036600319011261000e576001600160a01b0361103a6105c7565b6110426113cb565b166001600160a01b031960065416176006556000604051f35b503461000e57602036600319011261000e576004356110866001600160a01b03600754163314611b8e565b80156110c557600d5460408051918252602082018390527f7e3f7f0708a84de9203036abaa450dccc85ad5ff52f78c170f3edb55cf5e882891a1600d55005b60405162461bcd60e51b815260206004820152602860248201527f4368616e63656c6f7253657474696e67733a20766f74696e6720706572696f6460448201526720746f6f206c6f7760c01b6064820152608490fd5b503461000e57602036600319011261000e576004356111466001600160a01b03600754163314611b8e565b600e5460408051918252602082018390527fccb45da8d5717e6c4544694297c4ba5cf151d455c9bb0ed4fc7a38411bc0546191a1600e55005b503461000e57602036600319011261000e576111996105c7565b6111a16113cb565b6001600160a01b038091169081156111f557600091600b5491816001600160a01b0319841617600b5560405192167f8be0079c531659141344cd1fd0a4f28419497f9722a3daafe3b4186f6b6457e08484a3f35b60405162461bcd60e51b815260206004820152602660248201527f4f776e61626c653a206e6577206f776e657220697320746865207a65726f206160448201526564647265737360d01b6064820152608490fd5b503461000e57602036600319011261000e576020600435606461127461126e8361259e565b92612ea3565b826000190481118315151661128e575b6040519202048152f35b611296611786565b611284565b60209067ffffffffffffffff81116112b9575b601f01601f19160190565b6112c16106e2565b6112ae565b503461000e57606036600319011261000e576112e06105c7565b6044359067ffffffffffffffff821161000e573660238301121561000e5781600401359061130d8261129b565b61131a604051918261073e565b828152366024848601011161000e5760208360009261134a95602461052898018483013701015260243590611f9c565b6040519081529081906020820190565b503461000e57602036600319011261000e576106506113776105c7565b6001600160a01b039061138f82600754163314611b8e565b168060005260056020526113a860406000205415611c32565b8060005260016020526040600020541561199c576113c581611d1f565b5061199c565b6001600160a01b03600b541633036113df57565b606460405162461bcd60e51b815260206004820152602060248201527f4f776e61626c653a2063616c6c6572206973206e6f7420746865206f776e65726044820152fd5b1561142a57565b60405162461bcd60e51b815260206004820152601c60248201527f53656e6174653a3a4f6e6c792064657075747920616c6c6f77656421000000006044820152606490fd5b906114866001600160a01b03600654163314611423565b6000918254158061177c575b1561173757825b8151811015611731576114b5610e95610e95610e4284866117d0565b604080516301ffc9a760e01b808252630c5a011d60e01b6004808401919091529390916020918290829060249082905afa908115611724575b8991611707575b501561155b575050505080611532610ac9611516610e4261153b95876117d0565b6001600160a01b03166000526001602052604060002054151590565b6115405761179d565b611499565b611555611550610e4283866117d0565b61182c565b5061179d565b61156e610e95610e95610e42888a6117d0565b91818451809483825281806115918a8201906020820191637487d9fb60e11b9052565b03915afa9283156116fa575b89936116db575b508215611661575b505015611602575050806115e8610ac96115cc610e4261153b95876117d0565b6001600160a01b03166000526003602052604060002054151590565b1561179d576115556115fd610e4283866117d0565b611817565b610bea92505191829162461bcd60e51b8352820160809060208152602a60208201527f53656e6174655570677261646561626c653a3a496e76616c696420696d706c656040820152696d656e746174696f6e2160b01b60608201520190565b90809250611678610e95610e95610e42898b6117d0565b8451928352637487d9fb60e11b8684019081528391908290819060200103915afa9182156116ce575b88926116b1575b505038806115ac565b6116c79250803d10610c1457610c05818361073e565b38806116a8565b6116d661180a565b6116a1565b6116f3919350823d8411610c1457610c05818361073e565b91386115a4565b61170261180a565b61159d565b61171e9150823d8411610c1457610c05818361073e565b386114f5565b61172c61180a565b6114ee565b50509050565b60405162461bcd60e51b815260206004820152601c60248201527f53656e6174653a3a53656e61746520416c7265616479204f70656e21000000006044820152606490fd5b5060025415611492565b50634e487b7160e01b600052601160045260246000fd5b60019060001981146117ad570190565b6117b5611786565b0190565b50634e487b7160e01b600052603260045260246000fd5b60209181518110156117e5575b60051b010190565b6117ed6117b9565b6117dd565b9081602091031261000e5751801515810361000e5790565b506040513d6000823e3d90fd5b6001600160a01b036118299116611882565b90565b6001600160a01b036118299116611914565b600054811015611875575b600080527f290decd9548b62a8d60345a988386fc84ba6bc95484008f6362f93160ef3e5630190600090565b61187d6117b9565b611849565b8060005260036020526040600020541560001461190e5780600254600160401b811015611901575b60018101806002558110156118f4575b7f405787fa12a823e0f2b7631cc41b3ba8828b3321ca811111fa75cd3aa3bb5ace0155600254906000526003602052604060002055600190565b6118fc6117b9565b6118ba565b6119096106e2565b6118aa565b50600090565b60008181526001602052604081205461199757808260409254600160401b81101561198a575b6001810180845581101561197d575b7f290decd9548b62a8d60345a988386fc84ba6bc95484008f6362f93160ef3e5630155805492815260016020522055600190565b6119856117b9565b611949565b6119926106e2565b61193a565b905090565b8060005260056020526040600020541560001461190e5780600454600160401b811015611a1b575b6001810180600455811015611a0e575b7f8a35acfbc15ff81a39ae7d344fd709f28e8600b4aa8c65c6b64bfe7fe36bd19b0155600454906000526005602052604060002055600190565b611a166117b9565b6119d4565b611a236106e2565b6119c4565b60405190600254808352826020918282019060026000527f405787fa12a823e0f2b7631cc41b3ba8828b3321ca811111fa75cd3aa3bb5ace936000905b828210611a7b5750505061076d9250038361073e565b855484526001958601958895509381019390910190611a65565b604051906000548083528260209182820190600080527f290decd9548b62a8d60345a988386fc84ba6bc95484008f6362f93160ef3e563936000905b828210611ae75750505061076d9250038361073e565b855484526001958601958895509381019390910190611ad1565b6001600160a01b03166000818152600960205260409020544311611b255750600290565b611b3c816000526005602052604060002054151590565b15611b475750600390565b8060005260016020526040600020541590811591611b70575b5015611b6b57600190565b600090565b611b8891506000526003602052604060002054151590565b38611b60565b15611b9557565b60405162461bcd60e51b815260206004820152601f60248201527f53656e6174653a3a4f6e6c79204368616e63656c6f7220616c6c6f77656421006044820152606490fd5b15611be157565b60405162461bcd60e51b8152602060048201526024808201527f53656e6174655570677261646561626c653a3a42616e6e6564206172652045786044820152631a5b195960e21b6064820152608490fd5b15611c3957565b60405162461bcd60e51b815260206004820152602160248201527f53656e6174655570677261646561626c653a3a416c72656164792042616e6e656044820152601960fa1b6064820152608490fd5b9060018201809211611c9657565b61076d611786565b91908201809211611c9657565b600019810191908211611c9657565b60008054908115611d0b57807f290decd9548b62a8d60345a988386fc84ba6bc95484008f6362f93160ef3e56260001984019380851015611cfe575b828052015555565b611d066117b9565b611cf6565b634e487b7160e01b81526031600452602490fd5b60008181526001602052604081205490918115611e0f57611d7b9160001980820190828211611e02575b855490810190808211611df5575b828203611d81575b50505050611d6b611cba565b6000526001602052604060002090565b55600190565b611dde927f290decd9548b62a8d60345a988386fc84ba6bc95484008f6362f93160ef3e56282611d6b93611dc3951015611de8575b898052015492839161183e565b90919082549060031b600019811b9283911b16911916179055565b5538808080611d5f565b611df06117b9565b611db6565b611dfd611786565b611d57565b611e0a611786565b611d49565b505090565b916001600160a01b0380841680159182611f42575b84169485159283611f32575b8683141580611f29575b611e4d575b50505050505050565b849015611ed4575b50505015611e67575b80808080611e44565b611eb17fe8a930e858d64d16e43b4a12002fb2c2fedc694e908021094b8b82040548bb9191611eac611ec9946001600160a01b0316600052600f602052604060002090565b61275b565b60408051928352602083019190915233938291820190565b0390a3388080611e5e565b611eb17fe8a930e858d64d16e43b4a12002fb2c2fedc694e908021094b8b82040548bb9191611f19611f1e946001600160a01b0316600052600f602052604060002090565b612724565b0390a3388083611e55565b50841515611e3f565b611f3b856126ed565b5050611e35565b611f796001600160e01b03611f5561265a565b16858101809111611f80575b611f73611f6d436124ed565b91612cd5565b906129ea565b5050611e29565b611f88611786565b611f61565b9081602091031261000e575190565b90611fc390611fbe836001600160a01b0316600052600f602052604060002090565b6121f7565b6000905b611fcf611a28565b518210156120b357611fe9610e4f610e4284610e3d611a95565b801561208f575b6120855761206c61205261207292612013610e95610e95610e4288610e3d611a28565b61201c43611cab565b6040518092630748d63560e31b8252818060209788958d60048401602090939291936001600160a01b0360408201951681520152565b03915afa928315612078575b600093610ef4575050611c9e565b9161179d565b90611fc7565b61208061180a565b61205e565b906120729061179d565b506120a2610f4d610e4284610e3d611a95565b546120ac43611cab565b1115611ff0565b91505090565b156120c057565b606460405162461bcd60e51b815260206004820152602060248201527f436865636b706f696e74733a20626c6f636b206e6f7420796574206d696e65646044820152fd5b61211b612132916121164382106120b9565b6124ed565b601054906000908260058111612180575b50612318565b60008161214157506000919050565b60106121546001600160e01b0393611cab565b91527f1b6847dc741a1b0cd08d278845f9d819d87b734759afb55fe2de5cb82a9ae672015460201c1690565b909261218b826123bf565b82039182116121ea575b6010835263ffffffff80837f1b6847dc741a1b0cd08d278845f9d819d87b734759afb55fe2de5cb82a9ae672015416908516106000146121d85750915b3861212c565b9291506121e490611c88565b906121d2565b6121f2611786565b612195565b90612207906121164382106120b9565b908054600081600581116122c1575b5092909263ffffffff8092165b84821061226a575050508161223a57506000919050565b61225f612266916122526001600160e01b0394611cab565b9060005260206000200190565b5460201c90565b1690565b9091938083169080841860011c82018092116122b4575b846000528286836020600020015416116000146122a25750935b9190612223565b9492506122ae90611c88565b9161229b565b6122bc611786565b612281565b90916122cc826123bf565b820391821161230b575b83835263ffffffff808360208620015416908616106000146122fb5750905b38612216565b915061230690611c88565b6122f5565b612313611786565b6122d6565b905b82811061232657505090565b90918082169080831860011c8201809211612392575b601060005263ffffffff80837f1b6847dc741a1b0cd08d278845f9d819d87b734759afb55fe2de5cb82a9ae672015416908516106000146123805750915b9061231a565b92915061238c90611c88565b9061237a565b61239a611786565b61233c565b81156123a9570490565b634e487b7160e01b600052601260045260246000fd5b801561190e576118299061248261247b61247161246761245d61245361244961243f6001898a60801c806124d1575b508060401c806124c4575b508060201c806124b7575b508060101c806124aa575b508060081c8061249d575b508060041c80612490575b5060021c612488575b612438818b61239f565b0160011c90565b612438818a61239f565b612438818961239f565b612438818861239f565b612438818761239f565b612438818661239f565b612438818561239f565b809261239f565b906124e0565b60011b61242e565b90509060021b9038612425565b90509060041b903861241a565b90509060081b903861240f565b90509060101b9038612404565b90509060201b90386123f9565b915050600160401b90386123ee565b9080821015611997575090565b63ffffffff908181116124fe571690565b60405162461bcd60e51b815260206004820152602660248201527f53616665436173743a2076616c756520646f65736e27742066697420696e203360448201526532206269747360d01b6064820152608490fd5b1561255957565b60405162461bcd60e51b815260206004820152601a60248201527f566f7465733a20626c6f636b206e6f7420796574206d696e65640000000000006044820152606490fd5b6125a9438210612552565b6125b281612104565b6000905b6125be611a28565b518210156120b3576125d8610e4f610e4284610e3d611a28565b8015612636575b61262c5761206c612626916125ff610e95610e95610e4287610e3d611a28565b604051632394e7a360e21b8152600481018790526020929183908290818060248101612052565b906125b6565b906126269061179d565b50612649610f4d610e4284610e3d611a28565b5461265343611cab565b11156125df565b6010546000908061266c575050600090565b60107f1b6847dc741a1b0cd08d278845f9d819d87b734759afb55fe2de5cb82a9ae67192826000198101116126a5575b52015460201c90565b6126ad611786565b61269c565b80546000816126c357505050600090565b6020906000199383858101116126e0575b81522001015460201c90565b6126e8611786565b6126d4565b9061271d916001600160e01b039283918261270661265a565b16908103908111611f8057611f73611f6d436124ed565b9316921690565b9061274a916001600160e01b0361273a826126b2565b1691820391821161274e576127a8565b9091565b612756611786565b6127a8565b9061274a916001600160e01b03612771826126b2565b1691820180921161274e576127a8565b61279790612791611f6d436124ed565b90612b1a565b6001600160e01b0391821692911690565b612797916127b8611f6d436124ed565b91612bfc565b61076d906001600160e01b036020601354600160401b811015612845575b6001810180601355811015612838575b6013600052835191909301519190911660201b63ffffffff191663ffffffff91909116177f66de8ffda797e3de9c05e8fc57b3bf0ec28a930d40b0d285d93c06501cf6a0909190910155565b6128406117b9565b6127ec565b61284d6106e2565b6127dc565b61076d906001600160e01b036020601054600160401b8110156128d9575b60018101806010558110156128cc575b6010600052835191909301519190911660201b63ffffffff191663ffffffff91909116177f1b6847dc741a1b0cd08d278845f9d819d87b734759afb55fe2de5cb82a9ae6729190910155565b6128d46117b9565b612880565b6128e16106e2565b612870565b906001600160e01b03602061076d93805490600160401b821015612950575b60018201808255821015612943575b6000908152829020845194909201519290921660201b63ffffffff191663ffffffff9390931692909217910155565b61294b6117b9565b612914565b6129586106e2565b612905565b906040516040810181811067ffffffffffffffff821117612991575b604052602081935463ffffffff81168352811c910152565b6129996106e2565b612979565b156129a557565b60405162461bcd60e51b815260206004820152601760248201527f436865636b706f696e743a20696e76616c6964206b65790000000000000000006044820152606490fd5b6010549192918015612af057612ab6918185612a3c612a37612a0d602096611cab565b60106000527f1b6847dc741a1b0cd08d278845f9d819d87b734759afb55fe2de5cb82a9ae6720190565b61295d565b92612a4b845163ffffffff1690565b612a6263ffffffff9182841692839116111561299e565b612a7c612a73865163ffffffff1690565b63ffffffff1690565b03612aba5750612a91612a0d612aa893611cab565b9063ffffffff82549181199060201b169116179055565b01516001600160e01b031690565b9190565b9050612aeb9150612ad8612acc610760565b63ffffffff9092168252565b6001600160e01b03871681850152612852565b612aa8565b50612b1490612b00612acc610760565b6001600160e01b0384166020820152612852565b60009190565b6013549192918015612bd857612ab6918185612b67612a37612b3d602096611cab565b60136000527f66de8ffda797e3de9c05e8fc57b3bf0ec28a930d40b0d285d93c06501cf6a0900190565b92612b76845163ffffffff1690565b612b8d63ffffffff9182841692839116111561299e565b612b9e612a73865163ffffffff1690565b03612bb35750612a91612b3d612aa893611cab565b9050612aeb9150612bc5612acc610760565b6001600160e01b038716818501526127be565b50612b1490612be8612acc610760565b6001600160e01b03841660208201526127be565b90929192838254801515600014612cb057926020929184612c32612a37612c25612ab698611cab565b8560005260206000200190565b93612c41855163ffffffff1690565b612c5863ffffffff9182841692839116111561299e565b612c69612a73875163ffffffff1690565b03612c7f5750612aa892612252612a9192611cab565b915050612aeb91612c9d612c91610760565b63ffffffff9093168352565b6001600160e01b038816828601526128e6565b5050612b1491612cc1612c91610760565b6001600160e01b03851660208301526128e6565b6001600160e01b0390818111612ce9571690565b60405162461bcd60e51b815260206004820152602760248201527f53616665436173743a2076616c756520646f65736e27742066697420696e20326044820152663234206269747360c81b6064820152608490fd5b6001600160a01b037f000000000000000000000000000000000000000000000000000000000000000016301480612e2f575b15612d99577f000000000000000000000000000000000000000000000000000000000000000090565b60405160208101907f000000000000000000000000000000000000000000000000000000000000000082527f000000000000000000000000000000000000000000000000000000000000000060408201527f000000000000000000000000000000000000000000000000000000000000000060608201524660808201523060a082015260a08152612e2981610722565b51902090565b507f00000000000000000000000000000000000000000000000000000000000000004614612d70565b60135460009080612e6b57505060125490565b60137f66de8ffda797e3de9c05e8fc57b3bf0ec28a930d40b0d285d93c06501cf6a08f92826000198101116126a55752015460201c90565b906013805492831561300d576000199084808301818111613000575b1015612ff3575b6000928084527f66de8ffda797e3de9c05e8fc57b3bf0ec28a930d40b0d285d93c06501cf6a08f92612ef984880161295d565b9263ffffffff9381858251161115612fdc5750612f1b906121164382106120b9565b9692808698165b848910612f6c5750506001600160e01b039596508215600014612f4757505050501690565b918093949192810111612f5f575b52015460201c1690565b612f67611786565b612f55565b909380891690808a1860011c8201809211612fcf575b8488528286837f66de8ffda797e3de9c05e8fc57b3bf0ec28a930d40b0d285d93c06501cf6a09001541611600014612fbd5750935b90612f22565b949850612fc990611c88565b97612fb7565b612fd7611786565b612f82565b602001516001600160e01b03169750505050505050565b612ffb6117b9565b612ec6565b613008611786565b612ebf565b5050601254915056fea26469706673582212204507375ebc2732a51e763a16bd0b6669457fb63cc0847249b474f840d0bb6fed64736f6c6343000810003366de8ffda797e3de9c05e8fc57b3bf0ec28a930d40b0d285d93c06501cf6a090"
}