{
  "address": "0x1613beB3B2C4f22Ee086B2b38C1476A3cE7f78E8",
  "abi": [
    {
      "inputs": [],
      "stateMutability": "nonpayable",
      "type": "constructor"
    },
    {
      "anonymous": false,
      "inputs": [
        {
          "indexed": true,
          "internalType": "bytes32",
          "name": "id",
          "type": "bytes32"
        },
        {
          "indexed": true,
          "internalType": "uint256",
          "name": "index",
          "type": "uint256"
        },
        {
          "indexed": false,
          "internalType": "address",
          "name": "target",
          "type": "address"
        },
        {
          "indexed": false,
          "internalType": "uint256",
          "name": "value",
          "type": "uint256"
        },
        {
          "indexed": false,
          "internalType": "bytes",
          "name": "data",
          "type": "bytes"
        }
      ],
      "name": "CallExecuted",
      "type": "event"
    },
    {
      "anonymous": false,
      "inputs": [
        {
          "indexed": true,
          "internalType": "bytes32",
          "name": "id",
          "type": "bytes32"
        },
        {
          "indexed": true,
          "internalType": "uint256",
          "name": "index",
          "type": "uint256"
        },
        {
          "indexed": false,
          "internalType": "address",
          "name": "target",
          "type": "address"
        },
        {
          "indexed": false,
          "internalType": "uint256",
          "name": "value",
          "type": "uint256"
        },
        {
          "indexed": false,
          "internalType": "bytes",
          "name": "data",
          "type": "bytes"
        },
        {
          "indexed": false,
          "internalType": "bytes32",
          "name": "predecessor",
          "type": "bytes32"
        },
        {
          "indexed": false,
          "internalType": "uint256",
          "name": "delay",
          "type": "uint256"
        }
      ],
      "name": "CallScheduled",
      "type": "event"
    },
    {
      "anonymous": false,
      "inputs": [
        {
          "indexed": true,
          "internalType": "bytes32",
          "name": "id",
          "type": "bytes32"
        }
      ],
      "name": "Cancelled",
      "type": "event"
    },
    {
      "anonymous": false,
      "inputs": [
        {
          "indexed": false,
          "internalType": "uint8",
          "name": "version",
          "type": "uint8"
        }
      ],
      "name": "Initialized",
      "type": "event"
    },
    {
      "anonymous": false,
      "inputs": [
        {
          "indexed": false,
          "internalType": "uint256",
          "name": "oldDuration",
          "type": "uint256"
        },
        {
          "indexed": false,
          "internalType": "uint256",
          "name": "newDuration",
          "type": "uint256"
        }
      ],
      "name": "MinDelayChange",
      "type": "event"
    },
    {
      "anonymous": false,
      "inputs": [
        {
          "indexed": true,
          "internalType": "bytes32",
          "name": "role",
          "type": "bytes32"
        },
        {
          "indexed": true,
          "internalType": "bytes32",
          "name": "previousAdminRole",
          "type": "bytes32"
        },
        {
          "indexed": true,
          "internalType": "bytes32",
          "name": "newAdminRole",
          "type": "bytes32"
        }
      ],
      "name": "RoleAdminChanged",
      "type": "event"
    },
    {
      "anonymous": false,
      "inputs": [
        {
          "indexed": true,
          "internalType": "bytes32",
          "name": "role",
          "type": "bytes32"
        },
        {
          "indexed": true,
          "internalType": "address",
          "name": "account",
          "type": "address"
        },
        {
          "indexed": true,
          "internalType": "address",
          "name": "sender",
          "type": "address"
        }
      ],
      "name": "RoleGranted",
      "type": "event"
    },
    {
      "anonymous": false,
      "inputs": [
        {
          "indexed": true,
          "internalType": "bytes32",
          "name": "role",
          "type": "bytes32"
        },
        {
          "indexed": true,
          "internalType": "address",
          "name": "account",
          "type": "address"
        },
        {
          "indexed": true,
          "internalType": "address",
          "name": "sender",
          "type": "address"
        }
      ],
      "name": "RoleRevoked",
      "type": "event"
    },
    {
      "inputs": [],
      "name": "CANCELLER_ROLE",
      "outputs": [
        {
          "internalType": "bytes32",
          "name": "",
          "type": "bytes32"
        }
      ],
      "stateMutability": "view",
      "type": "function"
    },
    {
      "inputs": [],
      "name": "DEFAULT_ADMIN_ROLE",
      "outputs": [
        {
          "internalType": "bytes32",
          "name": "",
          "type": "bytes32"
        }
      ],
      "stateMutability": "view",
      "type": "function"
    },
    {
      "inputs": [],
      "name": "EXECUTOR_ROLE",
      "outputs": [
        {
          "internalType": "bytes32",
          "name": "",
          "type": "bytes32"
        }
      ],
      "stateMutability": "view",
      "type": "function"
    },
    {
      "inputs": [],
      "name": "PROPOSER_ROLE",
      "outputs": [
        {
          "internalType": "bytes32",
          "name": "",
          "type": "bytes32"
        }
      ],
      "stateMutability": "view",
      "type": "function"
    },
    {
      "inputs": [],
      "name": "TIMELOCK_ADMIN_ROLE",
      "outputs": [
        {
          "internalType": "bytes32",
          "name": "",
          "type": "bytes32"
        }
      ],
      "stateMutability": "view",
      "type": "function"
    },
    {
      "inputs": [
        {
          "internalType": "bytes32",
          "name": "id",
          "type": "bytes32"
        }
      ],
      "name": "cancel",
      "outputs": [],
      "stateMutability": "nonpayable",
      "type": "function"
    },
    {
      "inputs": [
        {
          "internalType": "address",
          "name": "target",
          "type": "address"
        },
        {
          "internalType": "uint256",
          "name": "value",
          "type": "uint256"
        },
        {
          "internalType": "bytes",
          "name": "payload",
          "type": "bytes"
        },
        {
          "internalType": "bytes32",
          "name": "predecessor",
          "type": "bytes32"
        },
        {
          "internalType": "bytes32",
          "name": "salt",
          "type": "bytes32"
        }
      ],
      "name": "execute",
      "outputs": [],
      "stateMutability": "payable",
      "type": "function"
    },
    {
      "inputs": [
        {
          "internalType": "address[]",
          "name": "targets",
          "type": "address[]"
        },
        {
          "internalType": "uint256[]",
          "name": "values",
          "type": "uint256[]"
        },
        {
          "internalType": "bytes[]",
          "name": "payloads",
          "type": "bytes[]"
        },
        {
          "internalType": "bytes32",
          "name": "predecessor",
          "type": "bytes32"
        },
        {
          "internalType": "bytes32",
          "name": "salt",
          "type": "bytes32"
        }
      ],
      "name": "executeBatch",
      "outputs": [],
      "stateMutability": "payable",
      "type": "function"
    },
    {
      "inputs": [],
      "name": "getMinDelay",
      "outputs": [
        {
          "internalType": "uint256",
          "name": "duration",
          "type": "uint256"
        }
      ],
      "stateMutability": "view",
      "type": "function"
    },
    {
      "inputs": [
        {
          "internalType": "bytes32",
          "name": "role",
          "type": "bytes32"
        }
      ],
      "name": "getRoleAdmin",
      "outputs": [
        {
          "internalType": "bytes32",
          "name": "",
          "type": "bytes32"
        }
      ],
      "stateMutability": "view",
      "type": "function"
    },
    {
      "inputs": [
        {
          "internalType": "bytes32",
          "name": "id",
          "type": "bytes32"
        }
      ],
      "name": "getTimestamp",
      "outputs": [
        {
          "internalType": "uint256",
          "name": "timestamp",
          "type": "uint256"
        }
      ],
      "stateMutability": "view",
      "type": "function"
    },
    {
      "inputs": [
        {
          "internalType": "bytes32",
          "name": "role",
          "type": "bytes32"
        },
        {
          "internalType": "address",
          "name": "account",
          "type": "address"
        }
      ],
      "name": "grantRole",
      "outputs": [],
      "stateMutability": "nonpayable",
      "type": "function"
    },
    {
      "inputs": [
        {
          "internalType": "bytes32",
          "name": "role",
          "type": "bytes32"
        },
        {
          "internalType": "address",
          "name": "account",
          "type": "address"
        }
      ],
      "name": "hasRole",
      "outputs": [
        {
          "internalType": "bool",
          "name": "",
          "type": "bool"
        }
      ],
      "stateMutability": "view",
      "type": "function"
    },
    {
      "inputs": [
        {
          "internalType": "address",
          "name": "target",
          "type": "address"
        },
        {
          "internalType": "uint256",
          "name": "value",
          "type": "uint256"
        },
        {
          "internalType": "bytes",
          "name": "data",
          "type": "bytes"
        },
        {
          "internalType": "bytes32",
          "name": "predecessor",
          "type": "bytes32"
        },
        {
          "internalType": "bytes32",
          "name": "salt",
          "type": "bytes32"
        }
      ],
      "name": "hashOperation",
      "outputs": [
        {
          "internalType": "bytes32",
          "name": "hash",
          "type": "bytes32"
        }
      ],
      "stateMutability": "pure",
      "type": "function"
    },
    {
      "inputs": [
        {
          "internalType": "address[]",
          "name": "targets",
          "type": "address[]"
        },
        {
          "internalType": "uint256[]",
          "name": "values",
          "type": "uint256[]"
        },
        {
          "internalType": "bytes[]",
          "name": "payloads",
          "type": "bytes[]"
        },
        {
          "internalType": "bytes32",
          "name": "predecessor",
          "type": "bytes32"
        },
        {
          "internalType": "bytes32",
          "name": "salt",
          "type": "bytes32"
        }
      ],
      "name": "hashOperationBatch",
      "outputs": [
        {
          "internalType": "bytes32",
          "name": "hash",
          "type": "bytes32"
        }
      ],
      "stateMutability": "pure",
      "type": "function"
    },
    {
      "inputs": [
        {
          "internalType": "uint256",
          "name": "minDelay",
          "type": "uint256"
        },
        {
          "internalType": "address[]",
          "name": "proposers",
          "type": "address[]"
        },
        {
          "internalType": "address[]",
          "name": "executors",
          "type": "address[]"
        }
      ],
      "name": "initialize",
      "outputs": [],
      "stateMutability": "nonpayable",
      "type": "function"
    },
    {
      "inputs": [
        {
          "internalType": "bytes32",
          "name": "id",
          "type": "bytes32"
        }
      ],
      "name": "isOperation",
      "outputs": [
        {
          "internalType": "bool",
          "name": "registered",
          "type": "bool"
        }
      ],
      "stateMutability": "view",
      "type": "function"
    },
    {
      "inputs": [
        {
          "internalType": "bytes32",
          "name": "id",
          "type": "bytes32"
        }
      ],
      "name": "isOperationDone",
      "outputs": [
        {
          "internalType": "bool",
          "name": "done",
          "type": "bool"
        }
      ],
      "stateMutability": "view",
      "type": "function"
    },
    {
      "inputs": [
        {
          "internalType": "bytes32",
          "name": "id",
          "type": "bytes32"
        }
      ],
      "name": "isOperationPending",
      "outputs": [
        {
          "internalType": "bool",
          "name": "pending",
          "type": "bool"
        }
      ],
      "stateMutability": "view",
      "type": "function"
    },
    {
      "inputs": [
        {
          "internalType": "bytes32",
          "name": "id",
          "type": "bytes32"
        }
      ],
      "name": "isOperationReady",
      "outputs": [
        {
          "internalType": "bool",
          "name": "ready",
          "type": "bool"
        }
      ],
      "stateMutability": "view",
      "type": "function"
    },
    {
      "inputs": [
        {
          "internalType": "address",
          "name": "",
          "type": "address"
        },
        {
          "internalType": "address",
          "name": "",
          "type": "address"
        },
        {
          "internalType": "uint256[]",
          "name": "",
          "type": "uint256[]"
        },
        {
          "internalType": "uint256[]",
          "name": "",
          "type": "uint256[]"
        },
        {
          "internalType": "bytes",
          "name": "",
          "type": "bytes"
        }
      ],
      "name": "onERC1155BatchReceived",
      "outputs": [
        {
          "internalType": "bytes4",
          "name": "",
          "type": "bytes4"
        }
      ],
      "stateMutability": "nonpayable",
      "type": "function"
    },
    {
      "inputs": [
        {
          "internalType": "address",
          "name": "",
          "type": "address"
        },
        {
          "internalType": "address",
          "name": "",
          "type": "address"
        },
        {
          "internalType": "uint256",
          "name": "",
          "type": "uint256"
        },
        {
          "internalType": "uint256",
          "name": "",
          "type": "uint256"
        },
        {
          "internalType": "bytes",
          "name": "",
          "type": "bytes"
        }
      ],
      "name": "onERC1155Received",
      "outputs": [
        {
          "internalType": "bytes4",
          "name": "",
          "type": "bytes4"
        }
      ],
      "stateMutability": "nonpayable",
      "type": "function"
    },
    {
      "inputs": [
        {
          "internalType": "address",
          "name": "",
          "type": "address"
        },
        {
          "internalType": "address",
          "name": "",
          "type": "address"
        },
        {
          "internalType": "uint256",
          "name": "",
          "type": "uint256"
        },
        {
          "internalType": "bytes",
          "name": "",
          "type": "bytes"
        }
      ],
      "name": "onERC721Received",
      "outputs": [
        {
          "internalType": "bytes4",
          "name": "",
          "type": "bytes4"
        }
      ],
      "stateMutability": "nonpayable",
      "type": "function"
    },
    {
      "inputs": [
        {
          "internalType": "bytes32",
          "name": "role",
          "type": "bytes32"
        },
        {
          "internalType": "address",
          "name": "account",
          "type": "address"
        }
      ],
      "name": "renounceRole",
      "outputs": [],
      "stateMutability": "nonpayable",
      "type": "function"
    },
    {
      "inputs": [
        {
          "internalType": "bytes32",
          "name": "role",
          "type": "bytes32"
        },
        {
          "internalType": "address",
          "name": "account",
          "type": "address"
        }
      ],
      "name": "revokeRole",
      "outputs": [],
      "stateMutability": "nonpayable",
      "type": "function"
    },
    {
      "inputs": [
        {
          "internalType": "address",
          "name": "target",
          "type": "address"
        },
        {
          "internalType": "uint256",
          "name": "value",
          "type": "uint256"
        },
        {
          "internalType": "bytes",
          "name": "data",
          "type": "bytes"
        },
        {
          "internalType": "bytes32",
          "name": "predecessor",
          "type": "bytes32"
        },
        {
          "internalType": "bytes32",
          "name": "salt",
          "type": "bytes32"
        },
        {
          "internalType": "uint256",
          "name": "delay",
          "type": "uint256"
        }
      ],
      "name": "schedule",
      "outputs": [],
      "stateMutability": "nonpayable",
      "type": "function"
    },
    {
      "inputs": [
        {
          "internalType": "address[]",
          "name": "targets",
          "type": "address[]"
        },
        {
          "internalType": "uint256[]",
          "name": "values",
          "type": "uint256[]"
        },
        {
          "internalType": "bytes[]",
          "name": "payloads",
          "type": "bytes[]"
        },
        {
          "internalType": "bytes32",
          "name": "predecessor",
          "type": "bytes32"
        },
        {
          "internalType": "bytes32",
          "name": "salt",
          "type": "bytes32"
        },
        {
          "internalType": "uint256",
          "name": "delay",
          "type": "uint256"
        }
      ],
      "name": "scheduleBatch",
      "outputs": [],
      "stateMutability": "nonpayable",
      "type": "function"
    },
    {
      "inputs": [
        {
          "internalType": "bytes4",
          "name": "interfaceId",
          "type": "bytes4"
        }
      ],
      "name": "supportsInterface",
      "outputs": [
        {
          "internalType": "bool",
          "name": "",
          "type": "bool"
        }
      ],
      "stateMutability": "view",
      "type": "function"
    },
    {
      "inputs": [
        {
          "internalType": "uint256",
          "name": "newDelay",
          "type": "uint256"
        }
      ],
      "name": "updateDelay",
      "outputs": [],
      "stateMutability": "nonpayable",
      "type": "function"
    },
    {
      "stateMutability": "payable",
      "type": "receive"
    }
  ],
  "numDeployments": 2,
  "bytecode": "0x608080604052346100c1576000549060ff8260081c1661006f575060ff80821610610034575b6040516124e290816100c78239f35b60ff90811916176000557f7f26b83ff96e1f2b6a682f133852f6798a09c465da95921460cefb3847402498602060405160ff8152a138610025565b62461bcd60e51b815260206004820152602760248201527f496e697469616c697a61626c653a20636f6e747261637420697320696e697469604482015266616c697a696e6760c81b6064820152608490fd5b600080fdfe6080604052600436101561001b575b361561001957600080fd5b005b60003560e01c806301d5062a1461147d57806301ffc9a71461140d57806307bd0265146113e45780630d3cf6fc146113a9578063134008d31461130657806313bc9f20146112e8578063150b7a0214611292578063248a9ca3146112635780632ab0f529146112365780632f2ff15d1461117e57806331d507501461115257806336568abe146110b2578063584b153e1461107b57806364d6235314610fbe5780637fbc79c61461092d5780638065657f1461090e5780638f2a0bb0146107ec5780638f61f4f5146107b157806391d1485414610763578063a217fddf14610747578063b08e51c01461070c578063b1c5f427146106e2578063bc197c8114610659578063c4d252f514610379578063d45c44351461034d578063d547741f1461030c578063e38335e5146101d8578063f23a6e61146101825763f27a0c920361000e573461017d57600036600319011261017d576020609854604051908152f35b600080fd5b3461017d5760a036600319011261017d5761019b611521565b506101a4611537565b5060843567ffffffffffffffff811161017d576101c590369060040161164e565b5060405163f23a6e6160e01b8152602090f35b61026c6102656101e736611744565b600080527f7dc9f88e569f94faad6fa0d44dd44858caf3f34f1bd1c985800aedf5793aad8b6020527fa01e231ca478cf51f663e103939e98de36fa76d3e4e0b1de673dc711acc3a01b5492999198939693919260ff16156102fe575b61024e858514612047565b6102598a8514612047565b888a888789888d611eb6565b9687612352565b60005b81811061027f57610019876123e8565b8080887fc2617efa69bab66782fa219543714338489c4e9e178271560a91b82c3f612b5888886102f16102d88f986102f9998f828e6102cb8f836102c6916102d1966120ae565b6120be565b976120ae565b35956120d2565b906102e58282878761223a565b60405194859485612212565b0390a361209f565b61026f565b61030733611a29565b610243565b3461017d57604036600319011261017d5761001960043561032b611537565b908060005260656020526103486001604060002001543390611b68565b611c82565b3461017d57602036600319011261017d5760043560005260976020526020604060002054604051908152f35b3461017d5760208060031936011261017d576004357ffd643c72710c63c0180259aba6b2d05451e3591a24e58b62239378085726f7838060005260658352604060002033600052835260ff604060002054161561049257506103e981600052609760205260016040600020541190565b1561042757609760009282845252816040812055604051907fbaa1eb22f2a492ba1a5fea61b8df4d27c6c8b5f3971e63bb58fa14ff72eedb708383a2f35b60405162461bcd60e51b815260048101839052603160248201527f54696d656c6f636b436f6e74726f6c6c65723a206f7065726174696f6e20636160448201527f6e6e6f742062652063616e63656c6c65640000000000000000000000000000006064820152608490fd5b8261049c33611d0c565b6040516104a8816115de565b604281528281019360603686378151156106435760308553815160019081101561064357607860218401536041905b8082116105e95750506105a6579061056f6048604494936040519687916105608784019676020b1b1b2b9b9a1b7b73a3937b61d1030b1b1b7bab73a1604d1b885261052b815180928b603789019101611804565b8401917f206973206d697373696e6720726f6c6520000000000000000000000000000000603784015251809386840190611804565b01036028810187520185611610565b61059860405194859362461bcd60e51b8552600485015251809281602486015285850190611804565b601f01601f19168101030190fd5b6064836040519062461bcd60e51b825280600483015260248201527f537472696e67733a20686578206c656e67746820696e73756666696369656e746044820152fd5b9091600f81166010811015610643576f181899199a1a9b1b9c1cb0b131b232b360811b901a6106188486611cfb565b5360041c91801561062d5760001901906104d7565b634e487b7160e01b600052601160045260246000fd5b634e487b7160e01b600052603260045260246000fd5b3461017d5760a036600319011261017d57610672611521565b5061067b611537565b5067ffffffffffffffff60443581811161017d5761069d9036906004016117a6565b5060643581811161017d576106b69036906004016117a6565b5060843590811161017d576106cf90369060040161164e565b5060405163bc197c8160e01b8152602090f35b3461017d5760206107046106f536611744565b96959095949194939293611eb6565b604051908152f35b3461017d57600036600319011261017d5760206040517ffd643c72710c63c0180259aba6b2d05451e3591a24e58b62239378085726f7838152f35b3461017d57600036600319011261017d57602060405160008152f35b3461017d57604036600319011261017d5761077c611537565b60043560005260656020526001600160a01b0360406000209116600052602052602060ff604060002054166040519015158152f35b3461017d57600036600319011261017d5760206040517fb09aa5aeb3702cfd50b6b62bc4532604938f21248a27a1d5ca736082b6819cc18152f35b3461017d5760c036600319011261017d5767ffffffffffffffff60043581811161017d5761081e903690600401611713565b919060243582811161017d57610838903690600401611713565b91909260443590811161017d57610853903690600401611713565b906064359460a4359361086533611827565b610870868914612047565b61087b848914612047565b61088d6084358886868a878e88611eb6565b946108988187612114565b60005b8981106108a457005b8080887f4cf4410cc57040e44862ef0f45f3dd5a5e02db8eb8add648d4b0e236f1d07dca88888f8f8f906108fc8f9a6109099b6108f58f8f966108ef6102c6866102f19b81956120ae565b996120ae565b35976120d2565b906040519687968761200e565b61089b565b3461017d5760206107046109213661158f565b94939093929192611e60565b3461017d57606036600319011261017d5767ffffffffffffffff60243581811161017d5761095f9036906004016116ad565b9060443590811161017d576109789036906004016116ad565b906000549060ff8260081c161591828093610fb1575b8015610f9a575b15610f2f5760ff19811660011760005582610f1d575b506109c660ff60005460081c166109c181612406565b612406565b7f5f58e3a2316349923ce3780f8d587db2d72378aed66a8261c916544fa6846ca5908160005260659182602052600160406000200154816001604060002001558160405191817fbd79b86ffe0ab8e8776151514217cd7cacd52c909f66475c3af44e129f0b00ff918183600087a47fb09aa5aeb3702cfd50b6b62bc4532604938f21248a27a1d5ca736082b6819cc160005281600160406000200154816001604060002001557fb09aa5aeb3702cfd50b6b62bc4532604938f21248a27a1d5ca736082b6819cc183600087a460008051602061248d833981519152600052816001604060002001548160016040600020015560008051602061248d83398151915283600087a47ffd643c72710c63c0180259aba6b2d05451e3591a24e58b62239378085726f783600081815260408120600101805490859055929085a48160005260406000203360005260205260ff6040600020541615610ecc575b816000528360205260406000203060005260205260ff6040600020541615610e79575b505060005b8151811015610d3257610c05906001600160a01b0380610b6a8386612478565b51167fb09aa5aeb3702cfd50b6b62bc4532604938f21248a27a1d5ca736082b6819cc16000528560205260406000208160005260205260ff6040600020541615610c9e575b50610bba8285612478565b51167ffd643c72710c63c0180259aba6b2d05451e3591a24e58b62239378085726f7836000528460205260406000208160005260205260ff6040600020541615610c0a575b5061209f565b610b4a565b7ffd643c72710c63c0180259aba6b2d05451e3591a24e58b62239378085726f783600052846020526040600020816000526020526040600020600160ff1982541617905533907ffd643c72710c63c0180259aba6b2d05451e3591a24e58b62239378085726f7837f2f8788117e7eff1d82e926ec794901d17c78024a50270940304540a733656f0d6000604051a486610bff565b7fb09aa5aeb3702cfd50b6b62bc4532604938f21248a27a1d5ca736082b6819cc1600052856020526040600020816000526020526040600020600160ff1982541617905533907fb09aa5aeb3702cfd50b6b62bc4532604938f21248a27a1d5ca736082b6819cc17f2f8788117e7eff1d82e926ec794901d17c78024a50270940304540a733656f0d6000604051a487610baf565b505060005b8351811015610e0357806001600160a01b03610d56610d8e9387612478565b511660008051602061248d8339815191526000528360205260406000208160005260205260ff6040600020541615610d93575061209f565b610d37565b60008051602061248d833981519152600052836020526040600020816000526020526040600020600160ff19825416179055339060008051602061248d8339815191527f2f8788117e7eff1d82e926ec794901d17c78024a50270940304540a733656f0d6000604051a485610bff565b827f11c24f4ead16507c69ac467fbd5e4eed5fb5c699626d2cc6d66421df253886d5604060043580609855815190600082526020820152a1610e4157005b61ff0019600054166000557f7f26b83ff96e1f2b6a682f133852f6798a09c465da95921460cefb3847402498602060405160018152a1005b81600052836020526040600020306000526020526040600020600160ff1982541617905533917f2f8788117e7eff1d82e926ec794901d17c78024a50270940304540a733656f0d60003093a48480610b45565b81600052836020526040600020336000526020526040600020600160ff198254161790553333837f2f8788117e7eff1d82e926ec794901d17c78024a50270940304540a733656f0d600085a4610b22565b61ffff191661010117600055836109ab565b60405162461bcd60e51b815260206004820152602e60248201527f496e697469616c697a61626c653a20636f6e747261637420697320616c72656160448201527f647920696e697469616c697a65640000000000000000000000000000000000006064820152608490fd5b50303b1580156109955750600160ff821614610995565b50600160ff82161061098e565b3461017d57602036600319011261017d57600435303303611010577f11c24f4ead16507c69ac467fbd5e4eed5fb5c699626d2cc6d66421df253886d560406098548151908152836020820152a1609855005b60405162461bcd60e51b815260206004820152602b60248201527f54696d656c6f636b436f6e74726f6c6c65723a2063616c6c6572206d7573742060448201527f62652074696d656c6f636b0000000000000000000000000000000000000000006064820152608490fd5b3461017d57602036600319011261017d5760206110a8600435600052609760205260016040600020541190565b6040519015158152f35b3461017d57604036600319011261017d576110cb611537565b336001600160a01b038216036110e75761001990600435611c82565b60405162461bcd60e51b815260206004820152602f60248201527f416363657373436f6e74726f6c3a2063616e206f6e6c792072656e6f756e636560448201527f20726f6c657320666f722073656c6600000000000000000000000000000000006064820152608490fd5b3461017d57602036600319011261017d5760206110a86004356000526097602052604060002054151590565b3461017d57604036600319011261017d5760043561119a611537565b8160005260656020526111b66001604060002001543390611b68565b8160005260656020526001600160a01b0360406000209116908160005260205260ff60406000205416156111e657005b8160005260656020526040600020816000526020526040600020600160ff1982541617905533917f2f8788117e7eff1d82e926ec794901d17c78024a50270940304540a733656f0d6000604051a4005b3461017d57602036600319011261017d5760206110a8600435600052609760205260016040600020541490565b3461017d57602036600319011261017d5760043560005260656020526020600160406000200154604051908152f35b3461017d57608036600319011261017d576112ab611521565b506112b4611537565b5060643567ffffffffffffffff811161017d576112d590369060040161164e565b50604051630a85bd0160e11b8152602090f35b3461017d57602036600319011261017d5760206110a8600435611e1b565b61001961138760006113937fc2617efa69bab66782fa219543714338489c4e9e178271560a91b82c3f612b5861137e61133e3661158f565b60008051602061248d8339815191528a999597929994939452606560205260408a208a805260205260ff60408b2054161561139b575b8884848989611e60565b98899788612352565b6102e58282878761223a565b0390a36123e8565b6113a433611a29565b611374565b3461017d57600036600319011261017d5760206040517f5f58e3a2316349923ce3780f8d587db2d72378aed66a8261c916544fa6846ca58152f35b3461017d57600036600319011261017d57602060405160008051602061248d8339815191528152f35b3461017d57602036600319011261017d5760043563ffffffff60e01b811680910361017d57602090630271189760e51b8114908115611452575b506040519015158152f35b637965db0b60e01b81149150811561146c575b5082611447565b6301ffc9a760e01b14905082611465565b3461017d5760c036600319011261017d57611496611521565b6024359060443567ffffffffffffffff811161017d5760009261151c926114e27f4cf4410cc57040e44862ef0f45f3dd5a5e02db8eb8add648d4b0e236f1d07dca933690600401611561565b60649591953560a435916114f533611827565b61150560843583838b8a8a611e60565b97611510848a612114565b6040519687968761200e565b0390a3005b600435906001600160a01b038216820361017d57565b602435906001600160a01b038216820361017d57565b35906001600160a01b038216820361017d57565b9181601f8401121561017d5782359167ffffffffffffffff831161017d576020838186019501011161017d57565b60a060031982011261017d576004356001600160a01b038116810361017d5791602435916044359067ffffffffffffffff821161017d576115d291600401611561565b90916064359060843590565b6080810190811067ffffffffffffffff8211176115fa57604052565b634e487b7160e01b600052604160045260246000fd5b90601f8019910116810190811067ffffffffffffffff8211176115fa57604052565b67ffffffffffffffff81116115fa57601f01601f191660200190565b81601f8201121561017d5780359061166582611632565b926116736040519485611610565b8284526020838301011161017d57816000926020809301838601378301015290565b67ffffffffffffffff81116115fa5760051b60200190565b81601f8201121561017d578035916116c483611695565b926116d26040519485611610565b808452602092838086019260051b82010192831161017d578301905b8282106116fc575050505090565b8380916117088461154d565b8152019101906116ee565b9181601f8401121561017d5782359167ffffffffffffffff831161017d576020808501948460051b01011161017d57565b9060a060031983011261017d5767ffffffffffffffff60043581811161017d578361177191600401611713565b9390939260243583811161017d578261178c91600401611713565b9390939260443591821161017d576115d291600401611713565b81601f8201121561017d578035916117bd83611695565b926117cb6040519485611610565b808452602092838086019260051b82010192831161017d578301905b8282106117f5575050505090565b813581529083019083016117e7565b60005b8381106118175750506000910152565b8181015183820152602001611807565b6001600160a01b031660008181527fafe71ff1fe81c59ca16af21c02420893e650adae4948ece1623218f842885477602090815260408083205490937fb09aa5aeb3702cfd50b6b62bc4532604938f21248a27a1d5ca736082b6819cc19160ff1615611894575050505050565b61189d90611d0c565b908451906118aa826115de565b60428252838201946060368737825115611a155760308653825190600191821015611a155790607860218501536041915b8183116119a757505050611965578461194160486105989360449798519889916119328984019876020b1b1b2b9b9a1b7b73a3937b61d1030b1b1b7bab73a1604d1b8a5261052b815180928d603789019101611804565b01036028810189520187611610565b5194859362461bcd60e51b8552600485015251809281602486015285850190611804565b60648386519062461bcd60e51b825280600483015260248201527f537472696e67733a20686578206c656e67746820696e73756666696369656e746044820152fd5b909192600f81166010811015611a01576f181899199a1a9b1b9c1cb0b131b232b360811b901a6119d78587611cfb565b5360041c9280156119ed576000190191906118db565b634e487b7160e01b82526011600452602482fd5b634e487b7160e01b83526032600452602483fd5b634e487b7160e01b81526032600452602490fd5b6001600160a01b031660008181527f7dc9f88e569f94faad6fa0d44dd44858caf3f34f1bd1c985800aedf5793aad8b6020908152604080832054909360008051602061248d8339815191529160ff1615611a84575050505050565b611a8d90611d0c565b90845190611a9a826115de565b60428252838201946060368737825115611a155760308653825190600191821015611a155790607860218501536041915b818311611b2257505050611965578461194160486105989360449798519889916119328984019876020b1b1b2b9b9a1b7b73a3937b61d1030b1b1b7bab73a1604d1b8a5261052b815180928d603789019101611804565b909192600f81166010811015611a01576f181899199a1a9b1b9c1cb0b131b232b360811b901a611b528587611cfb565b5360041c9280156119ed57600019019190611acb565b600090808252602090606582526040936001600160a01b03858520911690818552835260ff858520541615611b9e575050505050565b611ba790611d0c565b90845190611bb4826115de565b60428252838201946060368737825115611a155760308653825190600191821015611a155790607860218501536041915b818311611c3c57505050611965578461194160486105989360449798519889916119328984019876020b1b1b2b9b9a1b7b73a3937b61d1030b1b1b7bab73a1604d1b8a5261052b815180928d603789019101611804565b909192600f81166010811015611a01576f181899199a1a9b1b9c1cb0b131b232b360811b901a611c6c8587611cfb565b5360041c9280156119ed57600019019190611be5565b9060009180835260656020526001600160a01b036040842092169182845260205260ff604084205416611cb457505050565b8083526065602052604083208284526020526040832060ff1981541690557ff6391f5c32d9c69d2a47ea670b442974b53935d1edc7fd64eb21e047a839171b3393604051a4565b908151811015610643570160200190565b604051906060820182811067ffffffffffffffff8211176115fa57604052602a82526020820160403682378251156106435760309053815160019081101561064357607860218401536029905b808211611dad575050611d695790565b606460405162461bcd60e51b815260206004820152602060248201527f537472696e67733a20686578206c656e67746820696e73756666696369656e746044820152fd5b9091600f81166010811015611e06576f181899199a1a9b1b9c1cb0b131b232b360811b901a611ddc8486611cfb565b5360041c918015611df1576000190190611d59565b60246000634e487b7160e01b81526011600452fd5b60246000634e487b7160e01b81526032600452fd5b6000526097602052604060002054600181119081611e37575090565b905042101590565b908060209392818452848401376000828201840152601f01601f1916010190565b94611e97611eb0949592936040519687956001600160a01b03602088019a168a52604087015260a0606087015260c0860191611e3f565b91608084015260a083015203601f198101835282611610565b51902090565b969294909695919560405196602091828901998060c08b0160a08d525260e08a01919060005b85828210611fe85750505050601f1997888a83030160408b01528082527f07ffffffffffffffffffffffffffffffffffffffffffffffffffffffffffffff811161017d579089969495939897929160051b80928a830137019380888601878703606089015252604085019460408260051b82010195836000925b848410611f7e57505050505050611eb09550608084015260a083015203908101835282611610565b9193969850919398999496603f198282030184528935601e198436030181121561017d57830186810191903567ffffffffffffffff811161017d57803603831361017d57611fd188928392600195611e3f565b9b0194019401918b98969394919a9997959a611f56565b8084956001600160a01b03612000600195969761154d565b168152019401929101611edc565b92909361203d926001600160a01b0360809699989799168552602085015260a0604085015260a0840191611e3f565b9460608201520152565b1561204e57565b60405162461bcd60e51b815260206004820152602360248201527f54696d656c6f636b436f6e74726f6c6c65723a206c656e677468206d69736d616044820152620e8c6d60eb1b6064820152608490fd5b600019811461062d5760010190565b91908110156106435760051b0190565b356001600160a01b038116810361017d5790565b91908110156106435760051b81013590601e198136030182121561017d57019081359167ffffffffffffffff831161017d57602001823603811361017d579190565b9061212c826000526097602052604060002054151590565b6121a75760985481106121535742019081421161062d576000526097602052604060002055565b60405162461bcd60e51b815260206004820152602660248201527f54696d656c6f636b436f6e74726f6c6c65723a20696e73756666696369656e746044820152652064656c617960d01b6064820152608490fd5b60405162461bcd60e51b815260206004820152602f60248201527f54696d656c6f636b436f6e74726f6c6c65723a206f7065726174696f6e20616c60448201527f7265616479207363686564756c656400000000000000000000000000000000006064820152608490fd5b61223794926001600160a01b0360609316825260208201528160408201520191611e3f565b90565b90926000938493826040519384928337810185815203925af13d156122ee573d61226381611632565b906122716040519283611610565b8152600060203d92013e5b1561228357565b60405162461bcd60e51b815260206004820152603360248201527f54696d656c6f636b436f6e74726f6c6c65723a20756e6465726c79696e67207460448201527f72616e73616374696f6e207265766572746564000000000000000000000000006064820152608490fd5b61227c565b156122fa57565b60405162461bcd60e51b815260206004820152602a60248201527f54696d656c6f636b436f6e74726f6c6c65723a206f7065726174696f6e206973604482015269206e6f7420726561647960b01b6064820152608490fd5b61235e61236391611e1b565b6122f3565b80159081156123c9575b501561237557565b60405162461bcd60e51b815260206004820152602660248201527f54696d656c6f636b436f6e74726f6c6c65723a206d697373696e6720646570656044820152656e64656e637960d01b6064820152608490fd5b6123e29150600052609760205260016040600020541490565b3861236d565b6123f461235e82611e1b565b60005260976020526001604060002055565b1561240d57565b60405162461bcd60e51b815260206004820152602b60248201527f496e697469616c697a61626c653a20636f6e7472616374206973206e6f74206960448201527f6e697469616c697a696e670000000000000000000000000000000000000000006064820152608490fd5b80518210156106435760209160051b01019056fed8aa0f3194971a2a116679f7c2090f6939c8d4e01a2a8d7e41d55e5351469e63a2646970667358221220f68b1140251208de4681151cf93ba3cba975168883cf36c3e95b37e08315a92664736f6c63430008100033"
}