{
  "address": "0xA56F946D6398Dd7d9D4D9B337Cf9E0F68982ca5B",
  "abi": [
    {
      "inputs": [],
      "stateMutability": "nonpayable",
      "type": "constructor"
    },
    {
      "anonymous": false,
      "inputs": [
        {
          "indexed": false,
          "internalType": "uint8",
          "name": "version",
          "type": "uint8"
        }
      ],
      "name": "Initialized",
      "type": "event"
    },
    {
      "anonymous": false,
      "inputs": [
        {
          "indexed": true,
          "internalType": "address",
          "name": "previousOwner",
          "type": "address"
        },
        {
          "indexed": true,
          "internalType": "address",
          "name": "newOwner",
          "type": "address"
        }
      ],
      "name": "OwnershipTransferred",
      "type": "event"
    },
    {
      "anonymous": false,
      "inputs": [
        {
          "indexed": false,
          "internalType": "uint256",
          "name": "oldProposalThreshold",
          "type": "uint256"
        },
        {
          "indexed": false,
          "internalType": "uint256",
          "name": "newProposalThreshold",
          "type": "uint256"
        }
      ],
      "name": "ProposalThresholdSet",
      "type": "event"
    },
    {
      "anonymous": false,
      "inputs": [
        {
          "indexed": false,
          "internalType": "uint256",
          "name": "oldQuorumNumerator",
          "type": "uint256"
        },
        {
          "indexed": false,
          "internalType": "uint256",
          "name": "newQuorumNumerator",
          "type": "uint256"
        }
      ],
      "name": "QuorumNumeratorUpdated",
      "type": "event"
    },
    {
      "anonymous": false,
      "inputs": [
        {
          "indexed": true,
          "internalType": "address",
          "name": "delegator",
          "type": "address"
        },
        {
          "indexed": true,
          "internalType": "address",
          "name": "fromDelegate",
          "type": "address"
        },
        {
          "indexed": true,
          "internalType": "address",
          "name": "toDelegate",
          "type": "address"
        }
      ],
      "name": "SenateBooksDelegateChanged",
      "type": "event"
    },
    {
      "anonymous": false,
      "inputs": [
        {
          "indexed": true,
          "internalType": "address",
          "name": "senateMember",
          "type": "address"
        },
        {
          "indexed": true,
          "internalType": "address",
          "name": "delegate",
          "type": "address"
        },
        {
          "indexed": false,
          "internalType": "uint256",
          "name": "previousBalance",
          "type": "uint256"
        },
        {
          "indexed": false,
          "internalType": "uint256",
          "name": "newBalance",
          "type": "uint256"
        }
      ],
      "name": "SenateBooksDelegateVotesChanged",
      "type": "event"
    },
    {
      "anonymous": false,
      "inputs": [
        {
          "indexed": false,
          "internalType": "uint256",
          "name": "oldVotingDelay",
          "type": "uint256"
        },
        {
          "indexed": false,
          "internalType": "uint256",
          "name": "newVotingDelay",
          "type": "uint256"
        }
      ],
      "name": "VotingDelaySet",
      "type": "event"
    },
    {
      "anonymous": false,
      "inputs": [
        {
          "indexed": false,
          "internalType": "uint256",
          "name": "oldVotingPeriod",
          "type": "uint256"
        },
        {
          "indexed": false,
          "internalType": "uint256",
          "name": "newVotingPeriod",
          "type": "uint256"
        }
      ],
      "name": "VotingPeriodSet",
      "type": "event"
    },
    {
      "inputs": [],
      "name": "DOMAIN_SEPARATOR",
      "outputs": [
        {
          "internalType": "bytes32",
          "name": "",
          "type": "bytes32"
        }
      ],
      "stateMutability": "view",
      "type": "function"
    },
    {
      "inputs": [
        {
          "internalType": "address",
          "name": "_token",
          "type": "address"
        }
      ],
      "name": "acceptToSenate",
      "outputs": [],
      "stateMutability": "nonpayable",
      "type": "function"
    },
    {
      "inputs": [
        {
          "internalType": "address",
          "name": "_token",
          "type": "address"
        }
      ],
      "name": "banFromSenate",
      "outputs": [],
      "stateMutability": "nonpayable",
      "type": "function"
    },
    {
      "inputs": [
        {
          "internalType": "address",
          "name": "_newMarshalInTown",
          "type": "address"
        }
      ],
      "name": "changeMarshalDeputy",
      "outputs": [],
      "stateMutability": "nonpayable",
      "type": "function"
    },
    {
      "inputs": [],
      "name": "getNewGang",
      "outputs": [
        {
          "internalType": "address[]",
          "name": "",
          "type": "address[]"
        }
      ],
      "stateMutability": "view",
      "type": "function"
    },
    {
      "inputs": [],
      "name": "getOldDogs",
      "outputs": [
        {
          "internalType": "address[]",
          "name": "",
          "type": "address[]"
        }
      ],
      "stateMutability": "view",
      "type": "function"
    },
    {
      "inputs": [
        {
          "internalType": "uint256",
          "name": "blockNumber",
          "type": "uint256"
        }
      ],
      "name": "getPastTotalSupply",
      "outputs": [
        {
          "internalType": "uint256",
          "name": "",
          "type": "uint256"
        }
      ],
      "stateMutability": "view",
      "type": "function"
    },
    {
      "inputs": [
        {
          "internalType": "address",
          "name": "account",
          "type": "address"
        },
        {
          "internalType": "uint256",
          "name": "blockNumber",
          "type": "uint256"
        }
      ],
      "name": "getPastVotes",
      "outputs": [
        {
          "internalType": "uint256",
          "name": "",
          "type": "uint256"
        }
      ],
      "stateMutability": "view",
      "type": "function"
    },
    {
      "inputs": [],
      "name": "getSettings",
      "outputs": [
        {
          "internalType": "uint256",
          "name": "currProposalThreshold",
          "type": "uint256"
        },
        {
          "internalType": "uint256",
          "name": "currVotingDelay",
          "type": "uint256"
        },
        {
          "internalType": "uint256",
          "name": "currVotingPeriod",
          "type": "uint256"
        }
      ],
      "stateMutability": "view",
      "type": "function"
    },
    {
      "inputs": [],
      "name": "getTotalSuply",
      "outputs": [
        {
          "internalType": "uint256",
          "name": "",
          "type": "uint256"
        }
      ],
      "stateMutability": "view",
      "type": "function"
    },
    {
      "inputs": [
        {
          "internalType": "address",
          "name": "account",
          "type": "address"
        },
        {
          "internalType": "uint256",
          "name": "blockNumber",
          "type": "uint256"
        },
        {
          "internalType": "bytes",
          "name": "params",
          "type": "bytes"
        }
      ],
      "name": "getVotes",
      "outputs": [
        {
          "internalType": "uint256",
          "name": "",
          "type": "uint256"
        }
      ],
      "stateMutability": "view",
      "type": "function"
    },
    {
      "inputs": [
        {
          "internalType": "address",
          "name": "_marshalDeputy",
          "type": "address"
        },
        {
          "internalType": "address",
          "name": "_chancelor",
          "type": "address"
        },
        {
          "internalType": "uint256",
          "name": "_votingDelay",
          "type": "uint256"
        },
        {
          "internalType": "uint256",
          "name": "_votingPeriod",
          "type": "uint256"
        },
        {
          "internalType": "uint256",
          "name": "_tokenTreshold",
          "type": "uint256"
        },
        {
          "internalType": "uint256",
          "name": "_quorumPercentage",
          "type": "uint256"
        },
        {
          "internalType": "uint256",
          "name": "_quarantinePeriod",
          "type": "uint256"
        }
      ],
      "name": "initialize",
      "outputs": [],
      "stateMutability": "nonpayable",
      "type": "function"
    },
    {
      "inputs": [],
      "name": "name",
      "outputs": [
        {
          "internalType": "string",
          "name": "",
          "type": "string"
        }
      ],
      "stateMutability": "view",
      "type": "function"
    },
    {
      "inputs": [
        {
          "internalType": "address",
          "name": "owner",
          "type": "address"
        }
      ],
      "name": "nonces",
      "outputs": [
        {
          "internalType": "uint256",
          "name": "",
          "type": "uint256"
        }
      ],
      "stateMutability": "view",
      "type": "function"
    },
    {
      "inputs": [
        {
          "internalType": "address[]",
          "name": "_tokens",
          "type": "address[]"
        }
      ],
      "name": "openSenate",
      "outputs": [],
      "stateMutability": "nonpayable",
      "type": "function"
    },
    {
      "inputs": [],
      "name": "owner",
      "outputs": [
        {
          "internalType": "address",
          "name": "",
          "type": "address"
        }
      ],
      "stateMutability": "view",
      "type": "function"
    },
    {
      "inputs": [],
      "name": "proposalThreshold",
      "outputs": [
        {
          "internalType": "uint256",
          "name": "",
          "type": "uint256"
        }
      ],
      "stateMutability": "view",
      "type": "function"
    },
    {
      "inputs": [
        {
          "internalType": "address",
          "name": "_token",
          "type": "address"
        }
      ],
      "name": "quarantineFromSenate",
      "outputs": [],
      "stateMutability": "nonpayable",
      "type": "function"
    },
    {
      "inputs": [
        {
          "internalType": "address",
          "name": "_token",
          "type": "address"
        }
      ],
      "name": "quarantineUntil",
      "outputs": [
        {
          "internalType": "uint256",
          "name": "",
          "type": "uint256"
        }
      ],
      "stateMutability": "view",
      "type": "function"
    },
    {
      "inputs": [
        {
          "internalType": "uint256",
          "name": "blockNumber",
          "type": "uint256"
        }
      ],
      "name": "quorum",
      "outputs": [
        {
          "internalType": "uint256",
          "name": "",
          "type": "uint256"
        }
      ],
      "stateMutability": "view",
      "type": "function"
    },
    {
      "inputs": [],
      "name": "quorumDenominator",
      "outputs": [
        {
          "internalType": "uint256",
          "name": "",
          "type": "uint256"
        }
      ],
      "stateMutability": "view",
      "type": "function"
    },
    {
      "inputs": [
        {
          "internalType": "uint256",
          "name": "blockNumber",
          "type": "uint256"
        }
      ],
      "name": "quorumNumerator",
      "outputs": [
        {
          "internalType": "uint256",
          "name": "",
          "type": "uint256"
        }
      ],
      "stateMutability": "view",
      "type": "function"
    },
    {
      "inputs": [],
      "name": "quorumNumerator",
      "outputs": [
        {
          "internalType": "uint256",
          "name": "",
          "type": "uint256"
        }
      ],
      "stateMutability": "view",
      "type": "function"
    },
    {
      "inputs": [],
      "name": "renounceOwnership",
      "outputs": [],
      "stateMutability": "nonpayable",
      "type": "function"
    },
    {
      "inputs": [
        {
          "internalType": "address",
          "name": "_tokenAddress",
          "type": "address"
        }
      ],
      "name": "senateMemberStatus",
      "outputs": [
        {
          "internalType": "enum ISenateUpgradeable.membershipStatus",
          "name": "",
          "type": "uint8"
        }
      ],
      "stateMutability": "view",
      "type": "function"
    },
    {
      "inputs": [
        {
          "internalType": "uint256",
          "name": "newProposalThreshold",
          "type": "uint256"
        }
      ],
      "name": "setProposalThreshold",
      "outputs": [],
      "stateMutability": "nonpayable",
      "type": "function"
    },
    {
      "inputs": [
        {
          "internalType": "uint256",
          "name": "newVotingDelay",
          "type": "uint256"
        }
      ],
      "name": "setVotingDelay",
      "outputs": [],
      "stateMutability": "nonpayable",
      "type": "function"
    },
    {
      "inputs": [
        {
          "internalType": "uint256",
          "name": "newVotingPeriod",
          "type": "uint256"
        }
      ],
      "name": "setVotingPeriod",
      "outputs": [],
      "stateMutability": "nonpayable",
      "type": "function"
    },
    {
      "inputs": [
        {
          "internalType": "bytes4",
          "name": "interfaceId",
          "type": "bytes4"
        }
      ],
      "name": "supportsInterface",
      "outputs": [
        {
          "internalType": "bool",
          "name": "",
          "type": "bool"
        }
      ],
      "stateMutability": "view",
      "type": "function"
    },
    {
      "inputs": [
        {
          "internalType": "address",
          "name": "newOwner",
          "type": "address"
        }
      ],
      "name": "transferOwnership",
      "outputs": [],
      "stateMutability": "nonpayable",
      "type": "function"
    },
    {
      "inputs": [
        {
          "internalType": "address",
          "name": "from",
          "type": "address"
        },
        {
          "internalType": "address",
          "name": "to",
          "type": "address"
        },
        {
          "internalType": "uint256",
          "name": "amount",
          "type": "uint256"
        }
      ],
      "name": "transferVotingUnits",
      "outputs": [],
      "stateMutability": "nonpayable",
      "type": "function"
    },
    {
      "inputs": [
        {
          "internalType": "uint256",
          "name": "newQuorumNumerator",
          "type": "uint256"
        }
      ],
      "name": "updateQuorumNumerator",
      "outputs": [],
      "stateMutability": "nonpayable",
      "type": "function"
    },
    {
      "inputs": [],
      "name": "version",
      "outputs": [
        {
          "internalType": "string",
          "name": "",
          "type": "string"
        }
      ],
      "stateMutability": "view",
      "type": "function"
    },
    {
      "inputs": [],
      "name": "votingDelay",
      "outputs": [
        {
          "internalType": "uint256",
          "name": "",
          "type": "uint256"
        }
      ],
      "stateMutability": "view",
      "type": "function"
    },
    {
      "inputs": [],
      "name": "votingPeriod",
      "outputs": [
        {
          "internalType": "uint256",
          "name": "",
          "type": "uint256"
        }
      ],
      "stateMutability": "view",
      "type": "function"
    }
  ],
  "numDeployments": 4,
  "bytecode": "0x60808060405234620000c6576000549060ff8260081c1662000074575060ff8082161062000038575b6040516135379081620000cc8239f35b60ff90811916176000557f7f26b83ff96e1f2b6a682f133852f6798a09c465da95921460cefb3847402498602060405160ff8152a13862000028565b62461bcd60e51b815260206004820152602760248201527f496e697469616c697a61626c653a20636f6e747261637420697320696e697469604482015266616c697a696e6760c81b6064820152608490fd5b600080fdfe60806040526004361015610013575b600080fd5b60003560e01c806301ffc9a7146102cf57806302a251a3146102c657806306f3f9e6146102bd57806306fdde03146102b45780630d207a0f146102ab5780632f2baecc146102a257806330d1af2a146102995780633644e515146102905780633932abb1146102875780633a46b1a81461027e5780634a09720e1461027557806354fd4d501461026c57806360c4247f1461026357806370b0f6601461025a578063715018a6146102515780637a762140146102485780637ecebe001461023f578063815b28bd1461023657806385b4bb531461022d5780638da5cb5b146102245780638e539e8c1461021b57806397c3d334146102125780639e059b2014610209578063a7713a7014610200578063b5092721146101f7578063b58131b0146101ee578063beeb4d3a146101e5578063cce76998146101dc578063ea0217cf146101d3578063ece40cc1146101ca578063edbf4ac2146101c1578063f2fde38b146101b8578063f8ce560a146101af578063f8ef763b146101a65763ff2d5ddb1461019e57600080fd5b61000e611404565b5061000e611370565b5061000e6112f3565b5061000e611265565b5061000e61115d565b5061000e611129565b5061000e6110f5565b5061000e6110b0565b5061000e610fe4565b5061000e610fc4565b5061000e610e2e565b5061000e610e12565b5061000e610dd6565b5061000e610db9565b5061000e610d9a565b5061000e610d72565b5061000e610d3f565b5061000e610cc3565b5061000e610c87565b5061000e610aa9565b5061000e610a49565b5061000e610a15565b5061000e6109f6565b5061000e6109bb565b5061000e610933565b5061000e6108a9565b5061000e610889565b5061000e6107f8565b5061000e61075a565b5061000e6106b4565b5061000e6105fd565b5061000e6104d1565b5061000e610346565b5061000e610326565b503461000e57602036600319011261000e5760043563ffffffff60e01b811680910361000e5760209063271f915160e21b8114908115610315575b506040519015158152f35b6301ffc9a760e01b1490503861030a565b503461000e57600036600319011261000e57602061013354604051908152f35b503461000e57602036600319011261000e576004356103726001600160a01b0361010454163314611c8b565b60648111610411577f0553476bf02ef2726e8ce5ced78d63e26e602e4a2257b1f559418e24b4633997906103a461218f565b80151580610406575b6103cf575b6103bb82612722565b5050604080519182526020820192909252a1005b6104016103db82612aa7565b6103fc6103e661074b565b600081526001600160e01b039092166020830152565b612583565b6103b2565b5061019654156103ad565b60a460405162461bcd60e51b815260206004820152604460248201527f4368616e63656c6f72566f74657351756f72756d4672616374696f6e3a20717560448201527f6f72756d4e756d657261746f72206f7665722071756f72756d44656e6f6d696e60648201526330ba37b960e11b6084820152fd5b6020808252825181830181905290939260005b8281106104bd57505060409293506000838284010152601f8019910116010190565b81810186015184820160400152850161049b565b503461000e576000806003193601126105ba576040519080610107908154906104f982611ae1565b8086529260019280841690811561058d5750600114610533575b61052f8661052381880382610729565b60405191829182610488565b0390f35b815292507f47c4908e245f386bfc1825973249847f4053a761ddb4880ad63c323a7b5a2a255b8284106105755750505081016020016105238261052f38610513565b80546020858701810191909152909301928101610559565b905086955061052f9693506020925061052394915060ff191682840152151560051b820101929338610513565b80fd5b600435906001600160a01b038216820361000e57565b602435906001600160a01b038216820361000e57565b35906001600160a01b038216820361000e57565b503461000e57606036600319011261000e576106176105bd565b61061f6105d3565b9061062933611bf5565b600481101561069e57600103610648576106469160443591611ef9565b005b60405162461bcd60e51b815260206004820152602860248201527f53656e6174655570677261646561626c653a3a496e76616c69642053656e6174604482015267329026b2b6b132b960c11b6064820152608490fd5b634e487b7160e01b600052602160045260246000fd5b503461000e57602036600319011261000e576106d66106d16105bd565b611bf5565b604051600482101561069e576020918152f35b50634e487b7160e01b600052604160045260246000fd5b6040810190811067ffffffffffffffff82111761071c57604052565b6107246106e9565b604052565b90601f8019910116810190811067ffffffffffffffff82111761071c57604052565b6040519061075882610700565b565b503461000e5760208060031936011261000e5767ffffffffffffffff60043581811161000e573660238201121561000e5780600401359182116107eb575b8160051b604051926107ac85830185610729565b83526024848401918301019136831161000e57602401905b8282106107d45761064684611519565b8480916107e0846105e9565b8152019101906107c4565b6107f36106e9565b610798565b503461000e57600036600319011261000e5760206065546066549060405191838301917f8b73c3c69bb8fe3d512ecc4cf759cc79239f7b179b0ffacaa9a75d522b39400f8352604084015260608301524660808301523060a083015260a0825260c082019180831067ffffffffffffffff84111761087c575b826040525190208152f35b6108846106e9565b610871565b503461000e57600036600319011261000e57602061013254604051908152f35b503461000e57604036600319011261000e576001600160a01b036108cb6105bd565b1660005261016460205260206108e76024356040600020612d2e565b604051908152f35b6020908160408183019282815285518094520193019160005b828110610916575050505090565b83516001600160a01b031685529381019392810192600101610908565b503461000e57600036600319011261000e576040518060ff549182815260208091019260ff6000527fe08ec2af2cfc251225e1968fd6ca21e4044f129bffa95bac3503be8bdb30a367916000905b8282106109a45761052f8561099881890382610729565b604051918291826108ef565b835486529485019460019384019390910190610981565b503461000e57600036600319011261000e5761052f6040516109dc81610700565b60018152603160f81b602082015260405191829182610488565b503461000e57602036600319011261000e5760206108e76004356122b1565b503461000e57602036600319011261000e57610a3e6001600160a01b0361010454163314611c8b565b610646600435612074565b503461000e576000806003193601126105ba57610a64611477565b6099546001600160a01b03198116609955816001600160a01b0360405192167f8be0079c531659141344cd1fd0a4f28419497f9722a3daafe3b4186f6b6457e08284a3f35b503461000e5760208060031936011261000e57610ac46105bd565b6001600160a01b0390610add8261010454163314611c8b565b1690610b06610b01610afd84600052610102602052604060002054151590565b1590565b611cea565b6040516301ffc9a760e01b808252630c5a011d60e01b6004830152908281602481875afa908115610c7a575b600091610c5d575b5015610b6b575050610b5c610afd8260005260fe602052604060002054151590565b610b6257005b610646906119c4565b604051908152637487d9fb60e11b60048201528181602481865afa918215610c50575b600092610c23575b505015610bc757610bb8610afd82600052610100602052604060002054151590565b610bbe57005b61064690611931565b60405162461bcd60e51b815260206004820152602a60248201527f53656e6174655570677261646561626c653a3a496e76616c696420696d706c656044820152696d656e746174696f6e2160b01b6064820152608490fd5b0390fd5b610c429250803d10610c49575b610c3a8183610729565b8101906118a0565b3880610b96565b503d610c30565b610c586118b8565b610b8e565b610c749150833d8511610c4957610c3a8183610729565b38610b3a565b610c826118b8565b610b32565b503461000e57602036600319011261000e576001600160a01b03610ca96105bd565b166000526101666020526020604060002054604051908152f35b503461000e57600036600319011261000e576040518060fd549182815260208091019260fd6000527f9346ac6dd7de6b96975fec380d4d994c4c12e6a8897544f22915316cc6cca280916000905b828210610d285761052f8561099881890382610729565b835486529485019460019384019390910190610d11565b503461000e57600036600319011261000e5760606101345461013254610133549060405192835260208301526040820152f35b503461000e57600036600319011261000e5760206001600160a01b0360995416604051908152f35b503461000e57602036600319011261000e5760206108e7600435612fc1565b503461000e57600036600319011261000e57602060405160648152f35b503461000e57602036600319011261000e576001600160a01b03610df86105bd565b166000526101066020526020604060002054604051908152f35b503461000e57600036600319011261000e5760206108e761218f565b503461000e576000806003193601126105ba57610e58610e4c6121ea565b6001600160e01b031690565b81905b610e63611b1b565b51831015610fb957610eac610e8f610e8285610e7d611b1b565b61187e565b516001600160a01b031690565b6001600160a01b0316600052610102602052604060002054151590565b8015610f7b575b610f7157610f29610f0f610f2f92610ee2610ed6610ed6610e8289610e7d611b1b565b6001600160a01b031690565b610eeb43611dbb565b6040518092632394e7a360e21b825281806020978895600483019190602083019252565b03915afa928315610f64575b8693610f35575b5050611dae565b9261184b565b91610e5b565b610f55929350803d10610f5d575b610f4d8183610729565b810190612b10565b903880610f22565b503d610f43565b610f6c6118b8565b610f1b565b91610f2f9061184b565b50610fa8610f8e610e8285610e7d611b1b565b6001600160a01b0316600052610106602052604060002090565b54610fb243611dbb565b1115610eb3565b604051908152602090f35b503461000e57600036600319011261000e57602061013454604051908152f35b503461000e57602036600319011261000e57610ffe6105bd565b6001600160a01b0390816101035416330361105b57168060005261010260205261102d60406000205415611d42565b6101055443019081431161104e575b60009081526101066020526040902055005b611056611834565b61103c565b60405162461bcd60e51b815260206004820152602760248201527f53656e6174655570677261646561626c653a3a4f6e6c792064657075747920616044820152666c6c6f7765642160c81b6064820152608490fd5b503461000e57602036600319011261000e576110ca6105bd565b6110d2611477565b6001600160a01b0361010391166001600160a01b03198254161790556000604051f35b503461000e57602036600319011261000e5761111e6001600160a01b0361010454163314611c8b565b6106466004356120b5565b503461000e57602036600319011261000e576111526001600160a01b0361010454163314611c8b565b610646600435612150565b503461000e5760e036600319011261000e576111776105bd565b6111d96111826105d3565b91600054926111a860ff8560081c161580958196611257575b8115611237575b50613111565b836111bb600160ff196000541617600055565b61121e575b60c4359160a43591608435916064359160443591613183565b6111df57005b6111ef61ff001960005416600055565b604051600181527f7f26b83ff96e1f2b6a682f133852f6798a09c465da95921460cefb384740249890602090a1005b61123261010061ff00196000541617600055565b6111c0565b303b15915081611249575b50386111a2565b6001915060ff161438611242565b600160ff821610915061119b565b503461000e57602036600319011261000e5761127f6105bd565b611287611477565b6001600160a01b0381161561129f57610646906114cf565b60405162461bcd60e51b815260206004820152602660248201527f4f776e61626c653a206e6577206f776e657220697320746865207a65726f206160448201526564647265737360d01b6064820152608490fd5b503461000e57602036600319011261000e576020600435606461131e61131883612fc1565b926122b1565b8260001904811183151516611338575b6040519202048152f35b611340611834565b61132e565b60209067ffffffffffffffff8111611363575b601f01601f19160190565b61136b6106e9565b611358565b503461000e57606036600319011261000e5761138a6105bd565b6044359067ffffffffffffffff821161000e573660238301121561000e578160040135906113b782611345565b6113c46040519182610729565b828152366024848601011161000e576020836000926113f495602461052f98018483013701015260243590612b1f565b6040519081529081906020820190565b503461000e57602036600319011261000e576106466114216105bd565b6001600160a01b039061143a8261010454163314611c8b565b168060005261010260205261145460406000205415611d42565b8060005260fe60205260406000205415611a565761147181611e32565b50611a56565b6001600160a01b0360995416330361148b57565b606460405162461bcd60e51b815260206004820152602060248201527f4f776e61626c653a2063616c6c6572206973206e6f7420746865206f776e65726044820152fd5b609954906001600160a01b0380911691826001600160a01b0319821617609955167f8be0079c531659141344cd1fd0a4f28419497f9722a3daafe3b4186f6b6457e06000604051a3565b90611522611477565b60fd54158061182a575b156117d55760005b82518110156117d057611550610ed6610ed6610e82848761187e565b604080516301ffc9a760e01b808252630c5a011d60e01b6004808401919091529390916020918290829060249082905afa9081156117c3575b6000916117a6575b50156115f75750505050806115ce610afd6115b2610e826115d7958861187e565b6001600160a01b031660005260fe602052604060002054151590565b6115dc5761184b565b611534565b6115f16115ec610e82838761187e565b6118da565b5061184b565b61160a610ed6610ed6610e82888b61187e565b918184518094838252818061162d8a8201906020820191637487d9fb60e11b9052565b03915afa928315611799575b60009361177a575b5082156116ff575b5050156116a057505080611686610afd611669610e826115d7958861187e565b6001600160a01b0316600052610100602052604060002054151590565b1561184b576115f161169b610e82838761187e565b6118c5565b610c1f92505191829162461bcd60e51b8352820160809060208152602a60208201527f53656e6174655570677261646561626c653a3a496e76616c696420696d706c656040820152696d656e746174696f6e2160b01b60608201520190565b90809250611716610ed6610ed6610e82898c61187e565b8451928352637487d9fb60e11b8684019081528391908290819060200103915afa91821561176d575b600092611750575b50503880611649565b6117669250803d10610c4957610c3a8183610729565b3880611747565b6117756118b8565b61173f565b611792919350823d8411610c4957610c3a8183610729565b9138611641565b6117a16118b8565b611639565b6117bd9150823d8411610c4957610c3a8183610729565b38611591565b6117cb6118b8565b611589565b509050565b60405162461bcd60e51b815260206004820152602760248201527f53656e6174655570677261646561626c653a3a53656e61746520416c7265616460448201526679204f70656e2160c81b6064820152608490fd5b5060ff541561152c565b50634e487b7160e01b600052601160045260246000fd5b600190600019811461185b570190565b611863611834565b0190565b50634e487b7160e01b600052603260045260246000fd5b6020918151811015611893575b60051b010190565b61189b611867565b61188b565b9081602091031261000e5751801515810361000e5790565b506040513d6000823e3d90fd5b6001600160a01b036118d79116611931565b90565b6001600160a01b036118d791166119c4565b60fd54811015611924575b60fd6000527f9346ac6dd7de6b96975fec380d4d994c4c12e6a8897544f22915316cc6cca2800190600090565b61192c611867565b6118f7565b8060005261010080602052604060002054156000146119bd578160ff54600160401b8110156119b0575b600181018060ff558110156119a3575b7fe08ec2af2cfc251225e1968fd6ca21e4044f129bffa95bac3503be8bdb30a367015560ff5491600052602052604060002055600190565b6119ab611867565b61196b565b6119b86106e9565b61195b565b5050600090565b8060005260fe60205260406000205415600014611a50578060fd54600160401b811015611a43575b600181018060fd55811015611a36575b7f9346ac6dd7de6b96975fec380d4d994c4c12e6a8897544f22915316cc6cca280015560fd549060005260fe602052604060002055600190565b611a3e611867565b6119fc565b611a4b6106e9565b6119ec565b50600090565b8060005261010280602052604060002054156000146119bd57610101828154600160401b811015611ad4575b60018101808455811015611ac7575b7f109ea3cebb188b9c1b9fc5bb3920be60dfdc8699098dff92f3d80daaca74768901555491600052602052604060002055600190565b611acf611867565b611a91565b611adc6106e9565b611a82565b90600182811c92168015611b11575b6020831014611afb57565b634e487b7160e01b600052602260045260246000fd5b91607f1691611af0565b6040519060ff54808352826020918282019060ff6000527fe08ec2af2cfc251225e1968fd6ca21e4044f129bffa95bac3503be8bdb30a367936000905b828210611b6e5750505061075892500383610729565b855484526001958601958895509381019390910190611b58565b6040519060fd54808352826020918282019060fd6000527f9346ac6dd7de6b96975fec380d4d994c4c12e6a8897544f22915316cc6cca280936000905b828210611bdb5750505061075892500383610729565b855484526001958601958895509381019390910190611bc5565b6001600160a01b0316600081815261010660205260409020544311611c1a5750600290565b611c3281600052610102602052604060002054151590565b15611c3d5750600390565b611c548160005260fe602052604060002054151590565b908115611c6c575b5015611c6757600190565b600090565b611c859150600052610100602052604060002054151590565b38611c5c565b15611c9257565b60405162461bcd60e51b815260206004820152602a60248201527f53656e6174655570677261646561626c653a3a4f6e6c79204368616e63656c6f6044820152697220616c6c6f7765642160b01b6064820152608490fd5b15611cf157565b60405162461bcd60e51b8152602060048201526024808201527f53656e6174655570677261646561626c653a3a42616e6e6564206172652045786044820152631a5b195960e21b6064820152608490fd5b15611d4957565b60405162461bcd60e51b815260206004820152602160248201527f53656e6174655570677261646561626c653a3a416c72656164792042616e6e656044820152601960fa1b6064820152608490fd5b9060018201809211611da657565b610758611834565b91908201809211611da657565b600019810191908211611da657565b60fd548015611e1c5760007f9346ac6dd7de6b96975fec380d4d994c4c12e6a8897544f22915316cc6cca27f811983019280841015611e0f575b60fd8352015560fd55565b611e17611867565b611e04565b634e487b7160e01b600052603160045260246000fd5b600081815260fe602052604090205480156119bd57600091611e8d91600019808201828111611eec575b60fd54918201918211611edf575b808203611e93575b505050611e7d611dca565b60005260fe602052604060002090565b55600190565b611e7d611ebb91611eb3611ea9611ed6956118ec565b90549060031b1c90565b9283916118ec565b90919082549060031b600019811b9283911b16911916179055565b55388080611e72565b611ee7611834565b611e6a565b611ef4611834565b611e5c565b916001600160a01b0380841680159182612029575b84169485159283612019575b8683141580612010575b611f32575b50505050505050565b849015611fba575b50505015611f4c575b80808080611f29565b611f977fe8a930e858d64d16e43b4a12002fb2c2fedc694e908021094b8b82040548bb9191611f92611faf946001600160a01b0316600052610164602052604060002090565b6130eb565b60408051928352602083019190915233938291820190565b0390a3388080611f43565b611f977fe8a930e858d64d16e43b4a12002fb2c2fedc694e908021094b8b82040548bb9191612000612005946001600160a01b0316600052610164602052604060002090565b6130b4565b0390a3388083611f3a565b50841515611f24565b6120228561307d565b5050611f1a565b6120606001600160e01b0361203c6121ea565b16858101809111612067575b61205a6120544361251e565b91612aa7565b906127ab565b5050611f0e565b61206f611834565b612048565b610132805460408051918252602082018490527fc565b045403dc03c2eea82b81a0465edad9e2e7fc4d97e11421c209da93d7a939190819081015b0390a155565b80156120fa57610133805460408051918252602082018490527f7e3f7f0708a84de9203036abaa450dccc85ad5ff52f78c170f3edb55cf5e88289190819081016120af565b60405162461bcd60e51b815260206004820152602860248201527f4368616e63656c6f7253657474696e67733a20766f74696e6720706572696f6460448201526720746f6f206c6f7760c01b6064820152608490fd5b610134805460408051918252602082018490527fccb45da8d5717e6c4544694297c4ba5cf151d455c9bb0ed4fc7a38411bc054619190819081016120af565b6101968054600091816121a6575050506101955490565b7f828feda00a4b64eb35101b6df8f6c29717b1ea6bae5dd03d3ddada8de0a9e7ca92826000198101116121dd575b52015460201c90565b6121e5611834565b6121d4565b6101658054600091816121ff57505050600090565b7fd91ca5e44fa96a1732bfaed7fe33fc20ed69a9895cde1f18c7dcabca39d6a78a92826000198101116121dd5752015460201c90565b805460008161224657505050600090565b602090600019938385810111612263575b81522001015460201c90565b61226b611834565b612257565b906040516040810181811067ffffffffffffffff8211176122a4575b604052602081935463ffffffff81168352811c910152565b6122ac6106e9565b61228c565b906101968054928315612421576000199084808301818111612414575b1015612407575b6000928084527f828feda00a4b64eb35101b6df8f6c29717b1ea6bae5dd03d3ddada8de0a9e7ca92612308848801612270565b9263ffffffff93818582511611156123f0575061232f9061232a43821061242b565b61251e565b9692808698165b8489106123805750506001600160e01b03959650821560001461235b57505050501690565b918093949192810111612373575b52015460201c1690565b61237b611834565b612369565b909380891690808a1860011c82018092116123e3575b8488528286837f828feda00a4b64eb35101b6df8f6c29717b1ea6bae5dd03d3ddada8de0a9e7cb015416116000146123d15750935b90612336565b9498506123dd90611d98565b976123cb565b6123eb611834565b612396565b602001516001600160e01b03169750505050505050565b61240f611867565b6122d5565b61241c611834565b6122ce565b5050610195549150565b1561243257565b606460405162461bcd60e51b815260206004820152602060248201527f436865636b706f696e74733a20626c6f636b206e6f7420796574206d696e65646044820152fd5b905b82811061248457505090565b90918082169080831860011c82018092116124f1575b61016560005263ffffffff80837fd91ca5e44fa96a1732bfaed7fe33fc20ed69a9895cde1f18c7dcabca39d6a78b015416908516106000146124df5750915b90612478565b9291506124eb90611d98565b906124d9565b6124f9611834565b61249a565b8115612508570490565b634e487b7160e01b600052601260045260246000fd5b63ffffffff9081811161252f571690565b60405162461bcd60e51b815260206004820152602660248201527f53616665436173743a2076616c756520646f65736e27742066697420696e203360448201526532206269747360d01b6064820152608490fd5b610758906001600160e01b036020610196805490600160401b82101561260a575b600182018082558210156125fd575b600052835191909301519190911660201b63ffffffff191663ffffffff91909116177f828feda00a4b64eb35101b6df8f6c29717b1ea6bae5dd03d3ddada8de0a9e7cb9190910155565b612605611867565b6125b3565b6126126106e9565b6125a4565b610758906001600160e01b036020610165805490600160401b82101561269e575b60018201808255821015612691575b600052835191909301519190911660201b63ffffffff191663ffffffff91909116177fd91ca5e44fa96a1732bfaed7fe33fc20ed69a9895cde1f18c7dcabca39d6a78b9190910155565b612699611867565b612647565b6126a66106e9565b612638565b906001600160e01b03602061075893805490600160401b821015612715575b60018201808255821015612708575b6000908152829020845194909201519290921660201b63ffffffff191663ffffffff9390931692909217910155565b612710611867565b6126d9565b61271d6106e9565b6126ca565b612738906127326120544361251e565b906128dd565b6001600160e01b0391821692911690565b612738916127596120544361251e565b916129c1565b1561276657565b60405162461bcd60e51b815260206004820152601760248201527f436865636b706f696e743a20696e76616c6964206b65790000000000000000006044820152606490fd5b6101655491929180156128b3576128799181856127ff6127fa6127cf602096611dbb565b6101656000527fd91ca5e44fa96a1732bfaed7fe33fc20ed69a9895cde1f18c7dcabca39d6a78b0190565b612270565b9261280e845163ffffffff1690565b61282563ffffffff9182841692839116111561275f565b61283f612836865163ffffffff1690565b63ffffffff1690565b0361287d57506128546127cf61286b93611dbb565b9063ffffffff82549181199060201b169116179055565b01516001600160e01b031690565b9190565b90506128ae915061289b61288f61074b565b63ffffffff9092168252565b6001600160e01b03871681850152612617565b61286b565b506128d7906128c361288f61074b565b6001600160e01b0384166020820152612617565b60009190565b61019654919291801561299d5761287991818561292c6127fa612901602096611dbb565b6101966000527f828feda00a4b64eb35101b6df8f6c29717b1ea6bae5dd03d3ddada8de0a9e7cb0190565b9261293b845163ffffffff1690565b61295263ffffffff9182841692839116111561275f565b612963612836865163ffffffff1690565b03612978575061285461290161286b93611dbb565b90506128ae915061298a61288f61074b565b6001600160e01b03871681850152612583565b506128d7906129ad61288f61074b565b6001600160e01b0384166020820152612583565b90929192838254801515600014612a82579260209291846129f76127fa6129ea61287998611dbb565b8560005260206000200190565b93612a06855163ffffffff1690565b612a1d63ffffffff9182841692839116111561275f565b612a2e612836875163ffffffff1690565b03612a51575061286b92612a4461285492611dbb565b9060005260206000200190565b9150506128ae91612a6f612a6361074b565b63ffffffff9093168352565b6001600160e01b038816828601526126ab565b50506128d791612a93612a6361074b565b6001600160e01b03851660208301526126ab565b6001600160e01b0390818111612abb571690565b60405162461bcd60e51b815260206004820152602760248201527f53616665436173743a2076616c756520646f65736e27742066697420696e20326044820152663234206269747360c81b6064820152608490fd5b9081602091031261000e575190565b90612b4790612b42836001600160a01b0316600052610164602052604060002090565b612d2e565b6000905b612b53611b1b565b51821015612c3757612b6d610e8f610e8284610e7d611b88565b8015612c13575b612c0957612bf0612bd6612bf692612b97610ed6610ed6610e8288610e7d611b1b565b612ba043611dbb565b6040518092630748d63560e31b8252818060209788958d60048401602090939291936001600160a01b0360408201951681520152565b03915afa928315612bfc575b600093610f35575050611dae565b9161184b565b90612b4b565b612c046118b8565b612be2565b90612bf69061184b565b50612c26610f8e610e8284610e7d611b88565b54612c3043611dbb565b1115612b74565b91505090565b612c4c9061232a43821061242b565b612c69610165918254906000908260058111612cb8575b50612476565b9060009082612c7b5750600092915050565b612c8c6001600160e01b0393611dbb565b91527fd91ca5e44fa96a1732bfaed7fe33fc20ed69a9895cde1f18c7dcabca39d6a78b015460201c1690565b9092612cc382612e42565b8203918211612d21575b85835263ffffffff80837fd91ca5e44fa96a1732bfaed7fe33fc20ed69a9895cde1f18c7dcabca39d6a78b01541690851610600014612d0f5750915b38612c63565b929150612d1b90611d98565b90612d09565b612d29611834565b612ccd565b90612d3e9061232a43821061242b565b90805460008160058111612deb575b5092909263ffffffff8092165b848210612d945750505081612d7157506000919050565b612d89612d9091612a446001600160e01b0394611dbb565b5460201c90565b1690565b9091938083169080841860011c8201809211612dde575b84600052828683602060002001541611600014612dcc5750935b9190612d5a565b949250612dd890611d98565b91612dc5565b612de6611834565b612dab565b9091612df682612e42565b8203918211612e35575b83835263ffffffff80836020862001541690861610600014612e255750905b38612d4d565b9150612e3090611d98565b612e1f565b612e3d611834565b612e00565b8015611a50576118d790612f05612efe612ef4612eea612ee0612ed6612ecc612ec26001898a60801c80612f54575b508060401c80612f47575b508060201c80612f3a575b508060101c80612f2d575b508060081c80612f20575b508060041c80612f13575b5060021c612f0b575b612ebb818b6124fe565b0160011c90565b612ebb818a6124fe565b612ebb81896124fe565b612ebb81886124fe565b612ebb81876124fe565b612ebb81866124fe565b612ebb81856124fe565b80926124fe565b90612f63565b60011b612eb1565b90509060021b9038612ea8565b90509060041b9038612e9d565b90509060081b9038612e92565b90509060101b9038612e87565b90509060201b9038612e7c565b915050600160401b9038612e71565b9080821015612f70575090565b905090565b15612f7c57565b60405162461bcd60e51b815260206004820152601a60248201527f566f7465733a20626c6f636b206e6f7420796574206d696e65640000000000006044820152606490fd5b612fcc438210612f75565b612fd581612c3d565b6000905b612fe1611b1b565b51821015612c3757612ffb610e8f610e8284610e7d611b1b565b8015613059575b61304f57612bf061304991613022610ed6610ed6610e8287610e7d611b1b565b604051632394e7a360e21b8152600481018790526020929183908290818060248101612bd6565b90612fd9565b906130499061184b565b5061306c610f8e610e8284610e7d611b1b565b5461307643611dbb565b1115613002565b906130ad916001600160e01b03928391826130966121ea565b169081039081116120675761205a6120544361251e565b9316921690565b906130da916001600160e01b036130ca82612235565b169182039182116130de57612749565b9091565b6130e6611834565b612749565b906130da916001600160e01b0361310182612235565b169182018092116130de57612749565b1561311857565b60405162461bcd60e51b815260206004820152602e60248201527f496e697469616c697a61626c653a20636f6e747261637420697320616c72656160448201527f647920696e697469616c697a65640000000000000000000000000000000000006064820152608490fd5b9192939495906040519261319684610700565b601184526020927f52657075626c69634368616e63656c6f72000000000000000000000000000000848601526131dc60ff60005460081c166131d78161332c565b61332c565b610105556001600160a01b038019918161010391168382541617905561010492169082541617905581519067ffffffffffffffff821161331f575b6101079261322e836132298654611ae1565b61339e565b81601f841160011461328c5750918061327c96949261075899989694600092613281575b50508160011b916000199060031b1c19161790555b61326f613410565b6132776134ec565b61342e565b61345e565b015190503880613252565b6101076000529190601f1984167f47c4908e245f386bfc1825973249847f4053a761ddb4880ad63c323a7b5a2a25936000905b8282106133075750509260019285926107589b9a989661327c9a9896106132ee575b505050811b019055613267565b015160001960f88460031b161c191690553880806132e1565b806001869782949787015181550196019401906132bf565b6133276106e9565b613217565b1561333357565b60405162461bcd60e51b815260206004820152602b60248201527f496e697469616c697a61626c653a20636f6e7472616374206973206e6f74206960448201527f6e697469616c697a696e670000000000000000000000000000000000000000006064820152608490fd5b601f81116133aa575050565b60009061010782527f47c4908e245f386bfc1825973249847f4053a761ddb4880ad63c323a7b5a2a25906020601f850160051c83019410613406575b601f0160051c01915b8281106133fb57505050565b8181556001016133ef565b90925082906133e6565b61342560ff60005460081c166131d78161332c565b610758336114cf565b61075892916134546134599261344f60ff60005460081c166131d78161332c565b612074565b6120b5565b612150565b61347360ff60005460081c166131d78161332c565b60648111610411577f0553476bf02ef2726e8ce5ced78d63e26e602e4a2257b1f559418e24b4633997906134a561218f565b801515806134e1575b6134d0575b6134bc82612722565b5050604080519182526020820192909252a1565b6134dc6103db82612aa7565b6134b3565b5061019654156134ae565b61075860ff60005460081c166131d78161332c56fea26469706673582212203379dd681eb369852da1c36e1aa191be1bf50c8d61af93fbc026648e3f2708de64736f6c63430008100033"
}