{
  "address": "0x1429859428C0aBc9C2C47C8Ee9FBaf82cFA0F20f",
  "abi": [
    {
      "inputs": [],
      "stateMutability": "nonpayable",
      "type": "constructor"
    },
    {
      "anonymous": false,
      "inputs": [
        {
          "indexed": true,
          "internalType": "address",
          "name": "owner",
          "type": "address"
        },
        {
          "indexed": true,
          "internalType": "address",
          "name": "approved",
          "type": "address"
        },
        {
          "indexed": true,
          "internalType": "uint256",
          "name": "tokenId",
          "type": "uint256"
        }
      ],
      "name": "Approval",
      "type": "event"
    },
    {
      "anonymous": false,
      "inputs": [
        {
          "indexed": true,
          "internalType": "address",
          "name": "owner",
          "type": "address"
        },
        {
          "indexed": true,
          "internalType": "address",
          "name": "operator",
          "type": "address"
        },
        {
          "indexed": false,
          "internalType": "bool",
          "name": "approved",
          "type": "bool"
        }
      ],
      "name": "ApprovalForAll",
      "type": "event"
    },
    {
      "anonymous": false,
      "inputs": [
        {
          "indexed": true,
          "internalType": "address",
          "name": "delegator",
          "type": "address"
        },
        {
          "indexed": true,
          "internalType": "address",
          "name": "fromDelegate",
          "type": "address"
        },
        {
          "indexed": true,
          "internalType": "address",
          "name": "toDelegate",
          "type": "address"
        }
      ],
      "name": "DelegateChanged",
      "type": "event"
    },
    {
      "anonymous": false,
      "inputs": [
        {
          "indexed": true,
          "internalType": "address",
          "name": "delegate",
          "type": "address"
        },
        {
          "indexed": false,
          "internalType": "uint256",
          "name": "previousBalance",
          "type": "uint256"
        },
        {
          "indexed": false,
          "internalType": "uint256",
          "name": "newBalance",
          "type": "uint256"
        }
      ],
      "name": "DelegateVotesChanged",
      "type": "event"
    },
    {
      "anonymous": false,
      "inputs": [
        {
          "indexed": false,
          "internalType": "uint8",
          "name": "version",
          "type": "uint8"
        }
      ],
      "name": "Initialized",
      "type": "event"
    },
    {
      "anonymous": false,
      "inputs": [
        {
          "indexed": true,
          "internalType": "address",
          "name": "previousOwner",
          "type": "address"
        },
        {
          "indexed": true,
          "internalType": "address",
          "name": "newOwner",
          "type": "address"
        }
      ],
      "name": "OwnershipTransferred",
      "type": "event"
    },
    {
      "anonymous": false,
      "inputs": [
        {
          "indexed": false,
          "internalType": "address",
          "name": "account",
          "type": "address"
        }
      ],
      "name": "Paused",
      "type": "event"
    },
    {
      "anonymous": false,
      "inputs": [
        {
          "indexed": true,
          "internalType": "address",
          "name": "from",
          "type": "address"
        },
        {
          "indexed": true,
          "internalType": "address",
          "name": "to",
          "type": "address"
        },
        {
          "indexed": true,
          "internalType": "uint256",
          "name": "tokenId",
          "type": "uint256"
        }
      ],
      "name": "Transfer",
      "type": "event"
    },
    {
      "anonymous": false,
      "inputs": [
        {
          "indexed": false,
          "internalType": "address",
          "name": "account",
          "type": "address"
        }
      ],
      "name": "Unpaused",
      "type": "event"
    },
    {
      "inputs": [],
      "name": "DOMAIN_SEPARATOR",
      "outputs": [
        {
          "internalType": "bytes32",
          "name": "",
          "type": "bytes32"
        }
      ],
      "stateMutability": "view",
      "type": "function"
    },
    {
      "inputs": [
        {
          "internalType": "address",
          "name": "to",
          "type": "address"
        },
        {
          "internalType": "uint256",
          "name": "tokenId",
          "type": "uint256"
        }
      ],
      "name": "approve",
      "outputs": [],
      "stateMutability": "nonpayable",
      "type": "function"
    },
    {
      "inputs": [
        {
          "internalType": "address",
          "name": "owner",
          "type": "address"
        }
      ],
      "name": "balanceOf",
      "outputs": [
        {
          "internalType": "uint256",
          "name": "",
          "type": "uint256"
        }
      ],
      "stateMutability": "view",
      "type": "function"
    },
    {
      "inputs": [
        {
          "internalType": "address",
          "name": "delegatee",
          "type": "address"
        }
      ],
      "name": "delegate",
      "outputs": [],
      "stateMutability": "nonpayable",
      "type": "function"
    },
    {
      "inputs": [
        {
          "internalType": "address",
          "name": "delegatee",
          "type": "address"
        },
        {
          "internalType": "uint256",
          "name": "nonce",
          "type": "uint256"
        },
        {
          "internalType": "uint256",
          "name": "expiry",
          "type": "uint256"
        },
        {
          "internalType": "uint8",
          "name": "v",
          "type": "uint8"
        },
        {
          "internalType": "bytes32",
          "name": "r",
          "type": "bytes32"
        },
        {
          "internalType": "bytes32",
          "name": "s",
          "type": "bytes32"
        }
      ],
      "name": "delegateBySig",
      "outputs": [],
      "stateMutability": "nonpayable",
      "type": "function"
    },
    {
      "inputs": [
        {
          "internalType": "address",
          "name": "account",
          "type": "address"
        }
      ],
      "name": "delegates",
      "outputs": [
        {
          "internalType": "address",
          "name": "",
          "type": "address"
        }
      ],
      "stateMutability": "view",
      "type": "function"
    },
    {
      "inputs": [
        {
          "internalType": "uint256",
          "name": "tokenId",
          "type": "uint256"
        }
      ],
      "name": "getApproved",
      "outputs": [
        {
          "internalType": "address",
          "name": "",
          "type": "address"
        }
      ],
      "stateMutability": "view",
      "type": "function"
    },
    {
      "inputs": [
        {
          "internalType": "uint256",
          "name": "blockNumber",
          "type": "uint256"
        }
      ],
      "name": "getPastTotalSupply",
      "outputs": [
        {
          "internalType": "uint256",
          "name": "",
          "type": "uint256"
        }
      ],
      "stateMutability": "view",
      "type": "function"
    },
    {
      "inputs": [
        {
          "internalType": "address",
          "name": "account",
          "type": "address"
        },
        {
          "internalType": "uint256",
          "name": "blockNumber",
          "type": "uint256"
        }
      ],
      "name": "getPastVotes",
      "outputs": [
        {
          "internalType": "uint256",
          "name": "",
          "type": "uint256"
        }
      ],
      "stateMutability": "view",
      "type": "function"
    },
    {
      "inputs": [],
      "name": "getSenateAddress",
      "outputs": [
        {
          "internalType": "address",
          "name": "",
          "type": "address"
        }
      ],
      "stateMutability": "view",
      "type": "function"
    },
    {
      "inputs": [
        {
          "internalType": "address",
          "name": "account",
          "type": "address"
        }
      ],
      "name": "getVotes",
      "outputs": [
        {
          "internalType": "uint256",
          "name": "",
          "type": "uint256"
        }
      ],
      "stateMutability": "view",
      "type": "function"
    },
    {
      "inputs": [
        {
          "internalType": "contract ISenateUpgradeable",
          "name": "_senate",
          "type": "address"
        }
      ],
      "name": "initialize",
      "outputs": [],
      "stateMutability": "nonpayable",
      "type": "function"
    },
    {
      "inputs": [
        {
          "internalType": "address",
          "name": "owner",
          "type": "address"
        },
        {
          "internalType": "address",
          "name": "operator",
          "type": "address"
        }
      ],
      "name": "isApprovedForAll",
      "outputs": [
        {
          "internalType": "bool",
          "name": "",
          "type": "bool"
        }
      ],
      "stateMutability": "view",
      "type": "function"
    },
    {
      "inputs": [],
      "name": "name",
      "outputs": [
        {
          "internalType": "string",
          "name": "",
          "type": "string"
        }
      ],
      "stateMutability": "view",
      "type": "function"
    },
    {
      "inputs": [
        {
          "internalType": "address",
          "name": "owner",
          "type": "address"
        }
      ],
      "name": "nonces",
      "outputs": [
        {
          "internalType": "uint256",
          "name": "",
          "type": "uint256"
        }
      ],
      "stateMutability": "view",
      "type": "function"
    },
    {
      "inputs": [],
      "name": "owner",
      "outputs": [
        {
          "internalType": "address",
          "name": "",
          "type": "address"
        }
      ],
      "stateMutability": "view",
      "type": "function"
    },
    {
      "inputs": [
        {
          "internalType": "uint256",
          "name": "tokenId",
          "type": "uint256"
        }
      ],
      "name": "ownerOf",
      "outputs": [
        {
          "internalType": "address",
          "name": "",
          "type": "address"
        }
      ],
      "stateMutability": "view",
      "type": "function"
    },
    {
      "inputs": [],
      "name": "pause",
      "outputs": [],
      "stateMutability": "nonpayable",
      "type": "function"
    },
    {
      "inputs": [],
      "name": "paused",
      "outputs": [
        {
          "internalType": "bool",
          "name": "",
          "type": "bool"
        }
      ],
      "stateMutability": "view",
      "type": "function"
    },
    {
      "inputs": [],
      "name": "renounceOwnership",
      "outputs": [],
      "stateMutability": "nonpayable",
      "type": "function"
    },
    {
      "inputs": [
        {
          "internalType": "address",
          "name": "to",
          "type": "address"
        }
      ],
      "name": "safeMint",
      "outputs": [],
      "stateMutability": "nonpayable",
      "type": "function"
    },
    {
      "inputs": [
        {
          "internalType": "address",
          "name": "from",
          "type": "address"
        },
        {
          "internalType": "address",
          "name": "to",
          "type": "address"
        },
        {
          "internalType": "uint256",
          "name": "tokenId",
          "type": "uint256"
        }
      ],
      "name": "safeTransferFrom",
      "outputs": [],
      "stateMutability": "nonpayable",
      "type": "function"
    },
    {
      "inputs": [
        {
          "internalType": "address",
          "name": "from",
          "type": "address"
        },
        {
          "internalType": "address",
          "name": "to",
          "type": "address"
        },
        {
          "internalType": "uint256",
          "name": "tokenId",
          "type": "uint256"
        },
        {
          "internalType": "bytes",
          "name": "data",
          "type": "bytes"
        }
      ],
      "name": "safeTransferFrom",
      "outputs": [],
      "stateMutability": "nonpayable",
      "type": "function"
    },
    {
      "inputs": [],
      "name": "senate",
      "outputs": [
        {
          "internalType": "contract ISenateUpgradeable",
          "name": "",
          "type": "address"
        }
      ],
      "stateMutability": "view",
      "type": "function"
    },
    {
      "inputs": [
        {
          "internalType": "address",
          "name": "operator",
          "type": "address"
        },
        {
          "internalType": "bool",
          "name": "approved",
          "type": "bool"
        }
      ],
      "name": "setApprovalForAll",
      "outputs": [],
      "stateMutability": "nonpayable",
      "type": "function"
    },
    {
      "inputs": [
        {
          "internalType": "bytes4",
          "name": "interfaceId",
          "type": "bytes4"
        }
      ],
      "name": "supportsInterface",
      "outputs": [
        {
          "internalType": "bool",
          "name": "",
          "type": "bool"
        }
      ],
      "stateMutability": "view",
      "type": "function"
    },
    {
      "inputs": [],
      "name": "symbol",
      "outputs": [
        {
          "internalType": "string",
          "name": "",
          "type": "string"
        }
      ],
      "stateMutability": "view",
      "type": "function"
    },
    {
      "inputs": [
        {
          "internalType": "uint256",
          "name": "index",
          "type": "uint256"
        }
      ],
      "name": "tokenByIndex",
      "outputs": [
        {
          "internalType": "uint256",
          "name": "",
          "type": "uint256"
        }
      ],
      "stateMutability": "view",
      "type": "function"
    },
    {
      "inputs": [
        {
          "internalType": "address",
          "name": "owner",
          "type": "address"
        },
        {
          "internalType": "uint256",
          "name": "index",
          "type": "uint256"
        }
      ],
      "name": "tokenOfOwnerByIndex",
      "outputs": [
        {
          "internalType": "uint256",
          "name": "",
          "type": "uint256"
        }
      ],
      "stateMutability": "view",
      "type": "function"
    },
    {
      "inputs": [
        {
          "internalType": "uint256",
          "name": "tokenId",
          "type": "uint256"
        }
      ],
      "name": "tokenURI",
      "outputs": [
        {
          "internalType": "string",
          "name": "",
          "type": "string"
        }
      ],
      "stateMutability": "view",
      "type": "function"
    },
    {
      "inputs": [],
      "name": "totalSupply",
      "outputs": [
        {
          "internalType": "uint256",
          "name": "",
          "type": "uint256"
        }
      ],
      "stateMutability": "view",
      "type": "function"
    },
    {
      "inputs": [
        {
          "internalType": "address",
          "name": "from",
          "type": "address"
        },
        {
          "internalType": "address",
          "name": "to",
          "type": "address"
        },
        {
          "internalType": "uint256",
          "name": "tokenId",
          "type": "uint256"
        }
      ],
      "name": "transferFrom",
      "outputs": [],
      "stateMutability": "nonpayable",
      "type": "function"
    },
    {
      "inputs": [
        {
          "internalType": "address",
          "name": "newOwner",
          "type": "address"
        }
      ],
      "name": "transferOwnership",
      "outputs": [],
      "stateMutability": "nonpayable",
      "type": "function"
    },
    {
      "inputs": [],
      "name": "unpause",
      "outputs": [],
      "stateMutability": "nonpayable",
      "type": "function"
    }
  ],
  "numDeployments": 13,
  "bytecode": "0x60808060405234620000c6576000549060ff8260081c1662000074575060ff8082161062000038575b60405161386d9081620000cc8239f35b60ff90811916176000557f7f26b83ff96e1f2b6a682f133852f6798a09c465da95921460cefb3847402498602060405160ff8152a13862000028565b62461bcd60e51b815260206004820152602760248201527f496e697469616c697a61626c653a20636f6e747261637420697320696e697469604482015266616c697a696e6760c81b6064820152608490fd5b600080fdfe60806040526004361015610013575b600080fd5b60003560e01c806301ffc9a7146102b257806306fdde03146102a9578063081812fc146102a0578063095ea7b31461029757806318160ddd1461028e57806323b872dd146102855780632f745c591461027c5780633644e515146102735780633a46b1a81461026a5780633f4ba83a1461026157806340d097c31461025857806342842e0e1461024f5780634f6ccce714610246578063587cde1e1461023d5780635c19a95c146102345780635c975abb1461022b5780636352211e1461022257806370a0823114610219578063715018a6146102105780637ecebe00146102075780638456cb59146101fe5780638da5cb5b146101f55780638e539e8c146101ec57806395d89b41146101e35780639ab24eb0146101da578063a22cb465146101d1578063a6e5b8e6146101a4578063b88d4fde146101c8578063c3cda520146101bf578063c4d66de8146101b6578063c87b56dd146101ad578063e555b2eb146101a4578063e985e9c51461019b5763f2fde38b1461019357600080fd5b61000e61158e565b5061000e611523565b5061000e611102565b5061000e6114b1565b5061000e6113c3565b5061000e611289565b5061000e6111f7565b5061000e611010565b5061000e610fc0565b5061000e610f18565b5061000e610dc1565b5061000e610d99565b5061000e610d3e565b5061000e610cfe565b5061000e610c9e565b5061000e610c76565b5061000e610c57565b5061000e610c33565b5061000e610c0c565b5061000e610bca565b5061000e610b0d565b5061000e610ac5565b5061000e610955565b5061000e6108b7565b5061000e61075c565b5061000e610738565b5061000e610664565b5061000e61063a565b5061000e6105ef565b5061000e6104f6565b5061000e6104b5565b5061000e6103cf565b5061000e6102cd565b6001600160e01b031981160361000e57565b503461000e57602036600319011261000e5760206004356102ed816102bb565b63ffffffff60e01b16630c5a011d60e01b8114908115610313575b506040519015158152f35b63780e9d6360e01b81149150811561032d575b5038610308565b6380ac58cd60e01b81149150811561035f575b811561034e575b5038610326565b6301ffc9a760e01b14905038610347565b635b5e139f60e01b81149150610340565b600091031261000e57565b919082519283825260005b8481106103a7575050826000602080949584010152601f8019910116010190565b602081830181015184830182015201610386565b9060206103cc92818152019061037b565b90565b503461000e576000806003193601126104b25760405190806065546103f3816117a7565b80855291600191808316908115610488575060011461042d575b6104298561041d8187038261119b565b604051918291826103bb565b0390f35b9250606583527f8ff97419363ffd7000167f130ef7168fbea05faf9251824ca5043f113cc6a7c75b82841061047057505050810160200161041d8261042961040d565b80546020858701810191909152909301928101610455565b8695506104299693506020925061041d94915060ff191682840152151560051b820101929361040d565b80fd5b503461000e57602036600319011261000e5760206104d4600435611853565b6001600160a01b0360405191168152f35b6001600160a01b0381160361000e57565b503461000e57604036600319011261000e57600435610514816104e5565b60243561052081611785565b916001600160a01b0380841680918316146105a0576105529361054d913314908115610554575b506117e1565b611c37565b005b61059a91506105939061057b33916001600160a01b0316600052606a602052604060002090565b906001600160a01b0316600052602052604060002090565b5460ff1690565b38610547565b60405162461bcd60e51b815260206004820152602160248201527f4552433732313a20617070726f76616c20746f2063757272656e74206f776e656044820152603960f91b6064820152608490fd5b503461000e57600036600319011261000e576020609954604051908152f35b606090600319011261000e57600435610626816104e5565b90602435610633816104e5565b9060443590565b503461000e5761055261064c3661060e565b9161065f61065a8433611990565b611890565b611ab2565b503461000e57604036600319011261000e57600435610682816104e5565b6024359061068f816116c2565b8210156106cd576001600160a01b03166000526097602052604060002090600052602052610429604060002054604051918291829190602083019252565b60405162461bcd60e51b815260206004820152602b60248201527f455243373231456e756d657261626c653a206f776e657220696e646578206f7560448201527f74206f6620626f756e64730000000000000000000000000000000000000000006064820152608490fd5b503461000e57600036600319011261000e576020610754612526565b604051908152f35b503461000e57604036600319011261000e5760043561077a816104e5565b6001600160a01b03602435911660005261016360205260406000209043811015610873576107aa6107c1916121b1565b825490600090826005811161080a575b5084611ffa565b90816107df575050602060005b6001600160e01b0360405191168152f35b6107fe610805916107f1602094611a80565b9060005260206000200190565b5460201c90565b6107ce565b8061081a61082092959395612078565b90611a97565b9061084b610842610838848960005260206000200190565b5463ffffffff1690565b63ffffffff1690565b63ffffffff851610156108615750915b386107ba565b92915061086d90611aa4565b9061085b565b606460405162461bcd60e51b815260206004820152602060248201527f436865636b706f696e74733a20626c6f636b206e6f7420796574206d696e65646044820152fd5b503461000e57600036600319011261000e576108d1611620565b60c95460ff8116156109105760ff191660c9557f5db9ee0a495bf2e6ff9c91a7834c1ba4fdd244a5e8aa4e537bd38aeae4b073aa6020604051338152a1005b60405162461bcd60e51b815260206004820152601460248201527f5061757361626c653a206e6f74207061757365640000000000000000000000006044820152606490fd5b503461000e57602036600319011261000e57600435610973816104e5565b61097b611620565b6101c680549060018201905560405161099381611163565b600081526001600160a01b038316918215610a81576105529381610a7c946109e06109db6109d78460005260676020526001600160a01b0360406000205416151590565b1590565b6133a9565b6109ea82846133f5565b610a07836001600160a01b03166000526068602052604060002090565b610a118154611aa4565b9055610a4683610a2b846000526067602052604060002090565b906001600160a01b03166001600160a01b0319825416179055565b60007fddf252ad1be2c89b69c2b068fc378daa952ba7f163c4a11628f55a4df523b3ef81604051a4610a7781613769565b611d4a565b611929565b606460405162461bcd60e51b815260206004820152602060248201527f4552433732313a206d696e7420746f20746865207a65726f20616464726573736044820152fd5b503461000e57610552610ad73661060e565b90604051926020840184811067ffffffffffffffff821117610b00575b60405260008452611902565b610b0861112b565b610af4565b503461000e57602036600319011261000e57600435609954811015610b5f5760996000527f72a152ddfb8e864297c917af52ea6c1c68aead0fee1a62673fcc7e0c94979d000154604051908152602090f35b60405162461bcd60e51b815260206004820152602c60248201527f455243373231456e756d657261626c653a20676c6f62616c20696e646578206f60448201527f7574206f6620626f756e647300000000000000000000000000000000000000006064820152608490fd5b503461000e57602036600319011261000e576020600435610bea816104e5565b6001600160a01b03809116600052610162825260406000205416604051908152f35b503461000e57602036600319011261000e57610552600435610c2d816104e5565b33612594565b503461000e57600036600319011261000e57602060ff60c954166040519015158152f35b503461000e57602036600319011261000e5760206104d4600435611785565b503461000e57602036600319011261000e576020610754600435610c99816104e5565b6116c2565b503461000e576000806003193601126104b257610cb9611620565b60fb546001600160a01b0319811660fb55816001600160a01b0360405192167f8be0079c531659141344cd1fd0a4f28419497f9722a3daafe3b4186f6b6457e08284a3f35b503461000e57602036600319011261000e576001600160a01b03600435610d24816104e5565b166000526101656020526020604060002054604051908152f35b503461000e57600036600319011261000e57610d58611620565b610d60613358565b600160ff1960c954161760c9557f62e78cea01bee320cd4e420270b5ea74000d11b0c9f74754ebdbfc544b05a2586020604051338152a1005b503461000e57600036600319011261000e5760206001600160a01b0360fb5416604051908152f35b503461000e57602036600319011261000e5760043543811015610ed357610dea610e02916121b1565b61016454906000908260058111610e66575b50611f61565b80610e1f57506001600160e01b0360005b60405191168152602090f35b610e616107fe610e366001600160e01b0393611a80565b6101646000527f5bc19ff2299cdd9c52c622a9137c53ea8dded8f746ee6e3f831227e4983e3f380190565b610e13565b8061081a610e7692959395612078565b61016460005290610eab6108427f5bc19ff2299cdd9c52c622a9137c53ea8dded8f746ee6e3f831227e4983e3f388401610838565b63ffffffff85161015610ec15750915b38610dfc565b929150610ecd90611aa4565b90610ebb565b60405162461bcd60e51b815260206004820152601a60248201527f566f7465733a20626c6f636b206e6f7420796574206d696e65640000000000006044820152606490fd5b503461000e576000806003193601126104b2576040519080606654610f3c816117a7565b808552916001918083169081156104885750600114610f65576104298561041d8187038261119b565b9250606683527f46501879b8ca8525e8c2fd519e2fbfcfa2ebea26501294aa02cbfcfb12e943545b828410610fa857505050810160200161041d8261042961040d565b80546020858701810191909152909301928101610f8d565b503461000e57602036600319011261000e576001600160a01b03600435610fe6816104e5565b1660005261016360205260206001600160e01b036110076040600020611f26565b16604051908152f35b503461000e57604036600319011261000e5760043561102e816104e5565b602435801515810361000e576001600160a01b038216918233146110bd578161107a61108b9233600052606a6020526040600020906001600160a01b0316600052602052604060002090565b9060ff801983541691151516179055565b604051901515815233907f17307eab39ab6107e8899845ad3d59bd9653f200f220920489ca2b5937696c3190602090a3005b60405162461bcd60e51b815260206004820152601960248201527f4552433732313a20617070726f766520746f2063616c6c6572000000000000006044820152606490fd5b503461000e57600036600319011261000e5760206001600160a01b036101615416604051908152f35b50634e487b7160e01b600052604160045260246000fd5b67ffffffffffffffff811161115657604052565b61115e61112b565b604052565b6020810190811067ffffffffffffffff82111761115657604052565b6040810190811067ffffffffffffffff82111761115657604052565b90601f8019910116810190811067ffffffffffffffff82111761115657604052565b604051906111ca8261117f565b565b60209067ffffffffffffffff81116111ea575b601f01601f19160190565b6111f261112b565b6111df565b503461000e57608036600319011261000e57600435611215816104e5565b602435611221816104e5565b6064359167ffffffffffffffff831161000e573660238401121561000e5782600401359161124e836111cc565b9261125c604051948561119b565b808452366024828701011161000e5760208160009260246105529801838801378501015260443591611902565b503461000e5760c036600319011261000e576004356112a7816104e5565b6064359060243560443560ff8416840361000e5780421161137e5761134b611379916105529560405190611333826113256020820195898b886060919493926001600160a01b0360808301967fe48329057bfd03d55e49b547132e39cffd9c1820ad7b9d4c5307691425d15adf845216602083015260408201520152565b03601f19810184528361119b565b61134660a43593608435935190206124d0565b612262565b91611373836001600160a01b0316600052610165602052604060002090815491600183019055565b14612216565b612594565b60405162461bcd60e51b815260206004820152601860248201527f566f7465733a207369676e6174757265206578706972656400000000000000006044820152606490fd5b503461000e57602036600319011261000e576004356113e1816104e5565b6114256000549161140960ff8460081c1615809481956114a3575b8115611483575b50612e10565b8261141c600160ff196000541617600055565b61146a57612ec1565b61142b57005b61143b61ff001960005416600055565b604051600181527f7f26b83ff96e1f2b6a682f133852f6798a09c465da95921460cefb384740249890602090a1005b61147e61010061ff00196000541617600055565b612ec1565b303b15915081611495575b5038611403565b6001915060ff16143861148e565b600160ff82161091506113fc565b503461000e57602036600319011261000e576114ed6114e860043560005260676020526001600160a01b0360406000205416151590565b611739565b60006040516114fb81611163565b5261042960405161150b81611163565b6000815260405191829160208352602083019061037b565b503461000e57604036600319011261000e57602060ff611582600435611548816104e5565b6001600160a01b036024359161155d836104e5565b16600052606a84526040600020906001600160a01b0316600052602052604060002090565b54166040519015158152f35b503461000e57602036600319011261000e576004356115ac816104e5565b6115b4611620565b6001600160a01b038116156115cc5761055290611678565b60405162461bcd60e51b815260206004820152602660248201527f4f776e61626c653a206e6577206f776e657220697320746865207a65726f206160448201526564647265737360d01b6064820152608490fd5b6001600160a01b0360fb5416330361163457565b606460405162461bcd60e51b815260206004820152602060248201527f4f776e61626c653a2063616c6c6572206973206e6f7420746865206f776e65726044820152fd5b60fb54906001600160a01b0380911691826001600160a01b031982161760fb55167f8be0079c531659141344cd1fd0a4f28419497f9722a3daafe3b4186f6b6457e06000604051a3565b6001600160a01b031680156116e257600052606860205260406000205490565b60405162461bcd60e51b815260206004820152602960248201527f4552433732313a2061646472657373207a65726f206973206e6f7420612076616044820152683634b21037bbb732b960b91b6064820152608490fd5b1561174057565b60405162461bcd60e51b815260206004820152601860248201527f4552433732313a20696e76616c696420746f6b656e20494400000000000000006044820152606490fd5b60005260676020526001600160a01b03604060002054166103cc811515611739565b90600182811c921680156117d7575b60208310146117c157565b634e487b7160e01b600052602260045260246000fd5b91607f16916117b6565b156117e857565b60405162461bcd60e51b815260206004820152603e60248201527f4552433732313a20617070726f76652063616c6c6572206973206e6f7420746f60448201527f6b656e206f776e6572206e6f7220617070726f76656420666f7220616c6c00006064820152608490fd5b6118766114e88260005260676020526001600160a01b0360406000205416151590565b60005260696020526001600160a01b036040600020541690565b1561189757565b60405162461bcd60e51b815260206004820152602e60248201527f4552433732313a2063616c6c6572206973206e6f7420746f6b656e206f776e6560448201527f72206e6f7220617070726f7665640000000000000000000000000000000000006064820152608490fd5b916111ca9391610a7c9361191961065a8433611990565b611924838383611ab2565b611e52565b1561193057565b60405162461bcd60e51b815260206004820152603260248201527f4552433732313a207472616e7366657220746f206e6f6e20455243373231526560448201527131b2b4bb32b91034b6b83632b6b2b73a32b960711b6064820152608490fd5b6001600160a01b03806119a284611785565b1692818316928484149485156119d8575b505083156119c2575b50505090565b6119ce91929350611853565b16143880806119bc565b60ff92955090611a0791600052606a6020526040600020906001600160a01b0316600052602052604060002090565b54169238806119b3565b15611a1857565b60405162461bcd60e51b8152602060048201526024808201527f4552433732313a207472616e7366657220746f20746865207a65726f206164646044820152637265737360e01b6064820152608490fd5b50634e487b7160e01b600052601160045260246000fd5b600019810191908211611a8f57565b6111ca611a69565b91908203918211611a8f57565b9060018201809211611a8f57565b611abb83611785565b926001600160a01b0380948184169182911603611b8e576111ca94841690611ae4821515611a11565b611aef838686613450565b611af883611be1565b611b15846001600160a01b03166000526068602052604060002090565b611b1f8154611a80565b9055611b3e856001600160a01b03166000526068602052604060002090565b611b488154611aa4565b9055611b6285610a2b856000526067602052604060002090565b7fddf252ad1be2c89b69c2b068fc378daa952ba7f163c4a11628f55a4df523b3ef6000604051a46137d5565b60405162461bcd60e51b815260206004820152602560248201527f4552433732313a207472616e736665722066726f6d20696e636f72726563742060448201526437bbb732b960d91b6064820152608490fd5b600081815260696020526040812080546001600160a01b03191690556001600160a01b03611c0e83611785565b167f8c5be1e5ebec7d5bd14f71427d1e84f3dd0314c0f7b2291e5b200ac8c7c3b92582604051a4565b600082815260696020526040902080546001600160a01b0319166001600160a01b0383161790556001600160a01b0380611c7084611785565b169116907f8c5be1e5ebec7d5bd14f71427d1e84f3dd0314c0f7b2291e5b200ac8c7c3b9256000604051a4565b9081602091031261000e57516103cc816102bb565b6103cc93926001600160a01b03608093168252600060208301526040820152816060820152019061037b565b90926103cc94936080936001600160a01b0380921684521660208301526040820152816060820152019061037b565b506040513d6000823e3d90fd5b3d15611d45573d90611d2b826111cc565b91611d39604051938461119b565b82523d6000602084013e565b606090565b909190803b15611e4a57611d846020916001600160a01b03936000604051958680958194630a85bd0160e11b9a8b84523360048501611cb2565b0393165af160009181611e1a575b50611e0c57611d9f611d1a565b80519081611e075760405162461bcd60e51b815260206004820152603260248201527f4552433732313a207472616e7366657220746f206e6f6e20455243373231526560448201527131b2b4bb32b91034b6b83632b6b2b73a32b960711b6064820152608490fd5b602001fd5b6001600160e01b0319161490565b611e3c91925060203d8111611e43575b611e34818361119b565b810190611c9d565b9038611d92565b503d611e2a565b505050600190565b92909190823b15611e8d57611d849260209260006001600160a01b03604051809781968295630a85bd0160e11b9b8c85523360048601611cde565b50505050600190565b50634e487b7160e01b600052603260045260246000fd5b8115611eb7570490565b634e487b7160e01b600052601260045260246000fd5b610164805460009181611ee257505050600090565b7f5bc19ff2299cdd9c52c622a9137c53ea8dded8f746ee6e3f831227e4983e3f379282600019810111611f19575b52015460201c90565b611f21611a69565b611f10565b8054600081611f3757505050600090565b602090600019938385810111611f54575b81522001015460201c90565b611f5c611a69565b611f48565b905b828110611f6f57505090565b9091808216906001818418811c8301809311611fed575b61016460005263ffffffff80847f5bc19ff2299cdd9c52c622a9137c53ea8dded8f746ee6e3f831227e4983e3f3801541690861610600014611fcc575050915b90611f63565b909392508101809111611fe0575b90611fc6565b611fe8611a69565b611fda565b611ff5611a69565b611f86565b91905b83821061200a5750505090565b909192808316906001818518811c830180931161206b575b60008681526020902083015463ffffffff908116908516101561204a575050925b9190611ffd565b90949350810180911161205e575b91612043565b612066611a69565b612058565b612073611a69565b612022565b8015612199576103cc9061213b61213461212a61212061211661210c6121026120f86001898a60801c8061218a575b508060401c8061217d575b508060201c80612170575b508060101c80612163575b508060081c80612156575b508060041c80612149575b5060021c612141575b6120f1818b611ead565b0160011c90565b6120f1818a611ead565b6120f18189611ead565b6120f18188611ead565b6120f18187611ead565b6120f18186611ead565b6120f18185611ead565b8092611ead565b9061219f565b60011b6120e7565b90509060021b90386120de565b90509060041b90386120d3565b90509060081b90386120c8565b90509060101b90386120bd565b90509060201b90386120b2565b915050600160401b90386120a7565b50600090565b90808210156121ac575090565b905090565b63ffffffff908181116121c2571690565b60405162461bcd60e51b815260206004820152602660248201527f53616665436173743a2076616c756520646f65736e27742066697420696e203360448201526532206269747360d01b6064820152608490fd5b1561221d57565b60405162461bcd60e51b815260206004820152601460248201527f566f7465733a20696e76616c6964206e6f6e63650000000000000000000000006044820152606490fd5b916103cc93916122719361241a565b919091612299565b6005111561228357565b634e487b7160e01b600052602160045260246000fd5b6122a281612279565b806122aa5750565b6122b381612279565b600181036123005760405162461bcd60e51b815260206004820152601860248201527f45434453413a20696e76616c6964207369676e617475726500000000000000006044820152606490fd5b61230981612279565b600281036123565760405162461bcd60e51b815260206004820152601f60248201527f45434453413a20696e76616c6964207369676e6174757265206c656e677468006044820152606490fd5b61235f81612279565b600381036123b75760405162461bcd60e51b815260206004820152602260248201527f45434453413a20696e76616c6964207369676e6174757265202773272076616c604482015261756560f01b6064820152608490fd5b806123c3600492612279565b146123ca57565b60405162461bcd60e51b815260206004820152602260248201527f45434453413a20696e76616c6964207369676e6174757265202776272076616c604482015261756560f01b6064820152608490fd5b9291907f7fffffffffffffffffffffffffffffff5d576e7357a4501ddfe92f46681b20a083116124c45760ff16601b811415806124b9575b6124ad579160809493916020936040519384528484015260408301526060820152600093849182805260015afa156124a0575b81516001600160a01b0381161561249a579190565b50600190565b6124a8611d0d565b612485565b50505050600090600490565b50601c811415612452565b50505050600090600390565b6124d8612526565b9060405190602082019261190160f01b845260228301526042820152604281526080810181811067ffffffffffffffff821117612519575b60405251902090565b61252161112b565b612510565b61012d5461012e546040519060208201927f8b73c3c69bb8fe3d512ecc4cf759cc79239f7b179b0ffacaa9a75d522b39400f8452604083015260608201524660808201523060a082015260a0815260c0810181811067ffffffffffffffff8211176125195760405251902090565b6001600160a01b038082166000818152610162602052604080822080546001600160a01b0319811686891617909155841696959194879491936126009284169586917f3134e8a2e6d97e929a7e54011ea5485d7d196dd5f0ba4d4ef95803e8e3fc257f898851a46116c2565b928087141580612781575b612619575b50505050509050565b86612725575b806126c9575b5061264861263c610161546001600160a01b031690565b6001600160a01b031690565b91823b156126c55751630d207a0f60e01b81526001600160a01b0396871660048201529516602486015260448501919091529192918290606490829084905af180156126b8575b61269f575b808080808594612610565b806126ac6126b292611142565b80610370565b38612694565b6126c0611d0d565b61268f565b8480fd5b7fdec2bacdd2f05b59de34da9b523dff8be42e5e38e818c82fdb0bae774387a7246127118561270c856001600160a01b0316600052610163602052604060002090565b612a06565b85519182526020820152604090a238612625565b867fdec2bacdd2f05b59de34da9b523dff8be42e5e38e818c82fdb0bae774387a72461276e86612769846001600160a01b0316600052610163602052604060002090565b6129b5565b86519182526020820152604090a261261f565b5083151561260b565b6001600160a01b038083169082168181141580612903575b6127ad575b50505050565b806128a5575b5080612847575b506127d161263c610161546001600160a01b031690565b91823b1561000e57604051630d207a0f60e01b81526001600160a01b0392831660048201529116602482015260016044820152906000908290606490829084905af1801561283a575b612827575b8080806127a7565b806126ac61283492611142565b3861281f565b612842611d0d565b61281a565b7fdec2bacdd2f05b59de34da9b523dff8be42e5e38e818c82fdb0bae774387a72461288e612889856001600160a01b0316600052610163602052604060002090565b6129dd565b60408051928352602083019190915290a2386127ba565b7fdec2bacdd2f05b59de34da9b523dff8be42e5e38e818c82fdb0bae774387a7246128ec6128e7856001600160a01b0316600052610163602052604060002090565b61290b565b60408051928352602083019190915290a2386127b3565b5060016127a2565b906001600160e01b03918261291f82611f26565b1660001981019081116129a8575b612936436121b1565b918482116129535784928361294c931691612d37565b9316921690565b60405162461bcd60e51b815260206004820152602760248201527f53616665436173743a2076616c756520646f65736e27742066697420696e20326044820152663234206269747360c81b6064820152608490fd5b6129b0611a69565b61292d565b6001600160e01b039291836129c983611f26565b169081039081116129a857612936436121b1565b906001600160e01b0391826129f182611f26565b16600181018091116129a857612936436121b1565b6001600160e01b03929183612a1a83611f26565b169081018091116129a857612936436121b1565b6001600160e01b039081612a40611ecd565b1660018101809111612a6c575b612a56436121b1565b908381116129535783918261294c921690612c39565b612a74611a69565b612a4d565b6001600160e01b039081612a8b611ecd565b166000198101908111612a6c57612a56436121b1565b6111ca906001600160e01b036020610164805490600160401b821015612b28575b60018201808255821015612b1b575b600052835191909301519190911660201b63ffffffff191663ffffffff91909116177f5bc19ff2299cdd9c52c622a9137c53ea8dded8f746ee6e3f831227e4983e3f389190910155565b612b23611e96565b612ad1565b612b3061112b565b612ac2565b906001600160e01b0360206111ca93805490600160401b821015612b9f575b60018201808255821015612b92575b6000908152829020845194909201519290921660201b63ffffffff191663ffffffff9390931692909217910155565b612b9a611e96565b612b63565b612ba761112b565b612b54565b906040516040810181811067ffffffffffffffff821117612be0575b604052602081935463ffffffff81168352811c910152565b612be861112b565b612bc8565b15612bf457565b60405162461bcd60e51b815260206004820152601760248201527f436865636b706f696e743a20696e76616c6964206b65790000000000000000006044820152606490fd5b610164549192918015612d0d57612cd3918185612c62612c5d610e36602096611a80565b612bac565b92612c71845163ffffffff1690565b612c8863ffffffff91828416928391161115612bed565b612c99610842865163ffffffff1690565b03612cd75750612cae610e36612cc593611a80565b9063ffffffff82549181199060201b169116179055565b01516001600160e01b031690565b9190565b9050612d089150612cf5612ce96111bd565b63ffffffff9092168252565b6001600160e01b03871681850152612aa1565b612cc5565b50612d3190612d1d612ce96111bd565b6001600160e01b0384166020820152612aa1565b60009190565b90929192838254801515600014612deb57926020929184612d6d612c5d612d60612cd398611a80565b8560005260206000200190565b93612d7c855163ffffffff1690565b612d9363ffffffff91828416928391161115612bed565b612da4610842875163ffffffff1690565b03612dba5750612cc5926107f1612cae92611a80565b915050612d0891612dd8612dcc6111bd565b63ffffffff9093168352565b6001600160e01b03881682860152612b35565b5050612d3191612dfc612dcc6111bd565b6001600160e01b0385166020830152612b35565b15612e1757565b60405162461bcd60e51b815260206004820152602e60248201527f496e697469616c697a61626c653a20636f6e747261637420697320616c72656160448201527f647920696e697469616c697a65640000000000000000000000000000000000006064820152608490fd5b60405190612e8f8261117f565b6006825265546f6b656e3160d01b6020830152565b60405190612eb18261117f565b60018252603160f81b6020830152565b90612eca612e82565b91604051612ed78161117f565b60038152602062544b3160e81b81830152612f0260ff60005460081c16612efd81613048565b613048565b84519067ffffffffffffffff821161303b575b612f2982612f246065546117a7565b6130f9565b80601f8311600114612fa557509080612f6493926111ca9697600092612f9a575b50508160011b916000199060031b1c1916176065556131db565b612f6c6132d3565b612f746130d8565b612f7c6130ba565b612f95612f87612e82565b612f8f612ea4565b906132e4565b613313565b015190503880612f4a565b90601f19831696612fd860656000527f8ff97419363ffd7000167f130ef7168fbea05faf9251824ca5043f113cc6a7c790565b926000905b898210613023575050918391600193612f6496956111ca999a1061300a575b505050811b016065556131db565b015160001960f88460031b161c19169055388080612ffc565b80600185968294968601518155019501930190612fdd565b61304361112b565b612f15565b1561304f57565b60405162461bcd60e51b815260206004820152602b60248201527f496e697469616c697a61626c653a20636f6e7472616374206973206e6f74206960448201527f6e697469616c697a696e670000000000000000000000000000000000000000006064820152608490fd5b6130cf60ff60005460081c16612efd81613048565b6111ca33611678565b6130ed60ff60005460081c16612efd81613048565b60ff1960c9541660c955565b601f8111613105575050565b600090606582527f8ff97419363ffd7000167f130ef7168fbea05faf9251824ca5043f113cc6a7c7906020601f850160051c83019410613160575b601f0160051c01915b82811061315557505050565b818155600101613149565b9092508290613140565b601f8111613176575050565b600090606682527f46501879b8ca8525e8c2fd519e2fbfcfa2ebea26501294aa02cbfcfb12e94354906020601f850160051c830194106131d1575b601f0160051c01915b8281106131c657505050565b8181556001016131ba565b90925082906131b1565b90815167ffffffffffffffff81116132c6575b613202816131fd6066546117a7565b61316a565b602080601f831160011461323e5750819293600092613233575b50508160011b916000199060031b1c191617606655565b01519050388061321c565b90601f1983169461327160666000527f46501879b8ca8525e8c2fd519e2fbfcfa2ebea26501294aa02cbfcfb12e9435490565b926000905b8782106132ae575050836001959610613295575b505050811b01606655565b015160001960f88460031b161c1916905538808061328a565b80600185968294968601518155019501930190613276565b6132ce61112b565b6131ee565b6111ca60ff60005460081c16613048565b6132f960ff60005460081c16612efd81613048565b6020815191012090602081519101209061012d5561012e55565b61333a60ff60005460081c1661332881613048565b61333181613048565b612efd81613048565b6001600160a01b0361016191166001600160a01b0319825416179055565b60ff60c9541661336457565b60405162461bcd60e51b815260206004820152601060248201527f5061757361626c653a20706175736564000000000000000000000000000000006044820152606490fd5b156133b057565b60405162461bcd60e51b815260206004820152601c60248201527f4552433732313a20746f6b656e20616c7265616479206d696e746564000000006044820152606490fd5b906133fe613358565b6001600160a01b0380831690816000526101626020526040600020541615613441575b61342a826135df565b613438576111ca9150613653565b6111ca916135a6565b61344b8380612594565b613421565b91909161345b613358565b6001600160a01b03808416906000908282526101626020528060408320541615613597575b831692836134ad575050613493836135df565b806134a45750506111ca9150613653565b03613438575050565b8284036134bc575b5050613493565b8061351f6134cc61352e936116c2565b60001981019290831161358a575b87855260986020526040852054838103613536575b5084613505896000526098602052604060002090565b556001600160a01b03166000526097602052604060002090565b90600052602052604060002090565b5538806134b5565b8786526097602052604086208487526020526135836040872054806135728461351f876001600160a01b03166000526097602052604060002090565b556000526098602052604060002090565b55386134ef565b613592611a69565b6134da565b6135a18680612594565b613480565b6040906135b2816116c2565b926001600160a01b0360009216825260976020528282208483526020528083832055815260986020522055565b60995481600052609a60205280604060002055600160401b811015613646575b6001810180609955811015613639575b60996000527f72a152ddfb8e864297c917af52ea6c1c68aead0fee1a62673fcc7e0c94979d000155565b613641611e96565b61360f565b61364e61112b565b6135ff565b60998054600019929083810181811161375c575b6137036000938492818452609a60205284604085205491101561374f575b8684526136f27f72a152ddfb8e864297c917af52ea6c1c68aead0fee1a62673fcc7e0c94979cff958681015490831015613742575b88865280837f72a152ddfb8e864297c917af52ea6c1c68aead0fee1a62673fcc7e0c94979d000155600052609a602052604060002090565b55600052609a602052604060002090565b55825493841561372e5784019380851015613721575b838352015555565b613729611e96565b613719565b634e487b7160e01b83526031600452602483fd5b61374a611e96565b6136ba565b613757611e96565b613685565b613764611a69565b613667565b6111ca90613775612a2e565b50506001600160a01b038091169081156137c6575b6101626020527fd3963e8e1761c638694d3c60d54f123240f3fe953a68debc0fa797faeeb01d0f5460009283526040909220548116911661278a565b6137ce612a79565b505061378a565b906111ca916001600160a01b0380809216928315613828575b16918215613819575b600052610162602052806040600020541691600052604060002054169061278a565b613821612a79565b50506137f7565b613830612a2e565b50506137ee56fea26469706673582212204c7a66716dc80d279704f9f638e44c0051c421f088de9189e8c6588c3cc99ec064736f6c63430008100033"
}