{
  "address": "0x922D6956C99E12DFeB3224DEA977D0939758A1Fe",
  "abi": [
    {
      "inputs": [],
      "stateMutability": "nonpayable",
      "type": "constructor"
    },
    {
      "anonymous": false,
      "inputs": [
        {
          "indexed": true,
          "internalType": "address",
          "name": "owner",
          "type": "address"
        },
        {
          "indexed": true,
          "internalType": "address",
          "name": "approved",
          "type": "address"
        },
        {
          "indexed": true,
          "internalType": "uint256",
          "name": "tokenId",
          "type": "uint256"
        }
      ],
      "name": "Approval",
      "type": "event"
    },
    {
      "anonymous": false,
      "inputs": [
        {
          "indexed": true,
          "internalType": "address",
          "name": "owner",
          "type": "address"
        },
        {
          "indexed": true,
          "internalType": "address",
          "name": "operator",
          "type": "address"
        },
        {
          "indexed": false,
          "internalType": "bool",
          "name": "approved",
          "type": "bool"
        }
      ],
      "name": "ApprovalForAll",
      "type": "event"
    },
    {
      "anonymous": false,
      "inputs": [
        {
          "indexed": true,
          "internalType": "address",
          "name": "delegator",
          "type": "address"
        },
        {
          "indexed": true,
          "internalType": "address",
          "name": "fromDelegate",
          "type": "address"
        },
        {
          "indexed": true,
          "internalType": "address",
          "name": "toDelegate",
          "type": "address"
        }
      ],
      "name": "DelegateChanged",
      "type": "event"
    },
    {
      "anonymous": false,
      "inputs": [
        {
          "indexed": true,
          "internalType": "address",
          "name": "delegate",
          "type": "address"
        },
        {
          "indexed": false,
          "internalType": "uint256",
          "name": "previousBalance",
          "type": "uint256"
        },
        {
          "indexed": false,
          "internalType": "uint256",
          "name": "newBalance",
          "type": "uint256"
        }
      ],
      "name": "DelegateVotesChanged",
      "type": "event"
    },
    {
      "anonymous": false,
      "inputs": [
        {
          "indexed": false,
          "internalType": "uint8",
          "name": "version",
          "type": "uint8"
        }
      ],
      "name": "Initialized",
      "type": "event"
    },
    {
      "anonymous": false,
      "inputs": [
        {
          "indexed": true,
          "internalType": "address",
          "name": "previousOwner",
          "type": "address"
        },
        {
          "indexed": true,
          "internalType": "address",
          "name": "newOwner",
          "type": "address"
        }
      ],
      "name": "OwnershipTransferred",
      "type": "event"
    },
    {
      "anonymous": false,
      "inputs": [
        {
          "indexed": false,
          "internalType": "address",
          "name": "account",
          "type": "address"
        }
      ],
      "name": "Paused",
      "type": "event"
    },
    {
      "anonymous": false,
      "inputs": [
        {
          "indexed": true,
          "internalType": "address",
          "name": "from",
          "type": "address"
        },
        {
          "indexed": true,
          "internalType": "address",
          "name": "to",
          "type": "address"
        },
        {
          "indexed": true,
          "internalType": "uint256",
          "name": "tokenId",
          "type": "uint256"
        }
      ],
      "name": "Transfer",
      "type": "event"
    },
    {
      "anonymous": false,
      "inputs": [
        {
          "indexed": false,
          "internalType": "address",
          "name": "account",
          "type": "address"
        }
      ],
      "name": "Unpaused",
      "type": "event"
    },
    {
      "inputs": [],
      "name": "DOMAIN_SEPARATOR",
      "outputs": [
        {
          "internalType": "bytes32",
          "name": "",
          "type": "bytes32"
        }
      ],
      "stateMutability": "view",
      "type": "function"
    },
    {
      "inputs": [
        {
          "internalType": "address",
          "name": "to",
          "type": "address"
        },
        {
          "internalType": "uint256",
          "name": "tokenId",
          "type": "uint256"
        }
      ],
      "name": "approve",
      "outputs": [],
      "stateMutability": "nonpayable",
      "type": "function"
    },
    {
      "inputs": [
        {
          "internalType": "address",
          "name": "owner",
          "type": "address"
        }
      ],
      "name": "balanceOf",
      "outputs": [
        {
          "internalType": "uint256",
          "name": "",
          "type": "uint256"
        }
      ],
      "stateMutability": "view",
      "type": "function"
    },
    {
      "inputs": [
        {
          "internalType": "address",
          "name": "delegatee",
          "type": "address"
        }
      ],
      "name": "delegate",
      "outputs": [],
      "stateMutability": "nonpayable",
      "type": "function"
    },
    {
      "inputs": [
        {
          "internalType": "address",
          "name": "delegatee",
          "type": "address"
        },
        {
          "internalType": "uint256",
          "name": "nonce",
          "type": "uint256"
        },
        {
          "internalType": "uint256",
          "name": "expiry",
          "type": "uint256"
        },
        {
          "internalType": "uint8",
          "name": "v",
          "type": "uint8"
        },
        {
          "internalType": "bytes32",
          "name": "r",
          "type": "bytes32"
        },
        {
          "internalType": "bytes32",
          "name": "s",
          "type": "bytes32"
        }
      ],
      "name": "delegateBySig",
      "outputs": [],
      "stateMutability": "nonpayable",
      "type": "function"
    },
    {
      "inputs": [
        {
          "internalType": "address",
          "name": "account",
          "type": "address"
        }
      ],
      "name": "delegates",
      "outputs": [
        {
          "internalType": "address",
          "name": "",
          "type": "address"
        }
      ],
      "stateMutability": "view",
      "type": "function"
    },
    {
      "inputs": [
        {
          "internalType": "uint256",
          "name": "tokenId",
          "type": "uint256"
        }
      ],
      "name": "getApproved",
      "outputs": [
        {
          "internalType": "address",
          "name": "",
          "type": "address"
        }
      ],
      "stateMutability": "view",
      "type": "function"
    },
    {
      "inputs": [
        {
          "internalType": "uint256",
          "name": "blockNumber",
          "type": "uint256"
        }
      ],
      "name": "getPastTotalSupply",
      "outputs": [
        {
          "internalType": "uint256",
          "name": "",
          "type": "uint256"
        }
      ],
      "stateMutability": "view",
      "type": "function"
    },
    {
      "inputs": [
        {
          "internalType": "address",
          "name": "account",
          "type": "address"
        },
        {
          "internalType": "uint256",
          "name": "blockNumber",
          "type": "uint256"
        }
      ],
      "name": "getPastVotes",
      "outputs": [
        {
          "internalType": "uint256",
          "name": "",
          "type": "uint256"
        }
      ],
      "stateMutability": "view",
      "type": "function"
    },
    {
      "inputs": [],
      "name": "getSenateAddress",
      "outputs": [
        {
          "internalType": "address",
          "name": "",
          "type": "address"
        }
      ],
      "stateMutability": "view",
      "type": "function"
    },
    {
      "inputs": [
        {
          "internalType": "address",
          "name": "account",
          "type": "address"
        }
      ],
      "name": "getVotes",
      "outputs": [
        {
          "internalType": "uint256",
          "name": "",
          "type": "uint256"
        }
      ],
      "stateMutability": "view",
      "type": "function"
    },
    {
      "inputs": [
        {
          "internalType": "contract ISenateUpgradeable",
          "name": "_senate",
          "type": "address"
        }
      ],
      "name": "initialize",
      "outputs": [],
      "stateMutability": "nonpayable",
      "type": "function"
    },
    {
      "inputs": [
        {
          "internalType": "address",
          "name": "owner",
          "type": "address"
        },
        {
          "internalType": "address",
          "name": "operator",
          "type": "address"
        }
      ],
      "name": "isApprovedForAll",
      "outputs": [
        {
          "internalType": "bool",
          "name": "",
          "type": "bool"
        }
      ],
      "stateMutability": "view",
      "type": "function"
    },
    {
      "inputs": [],
      "name": "name",
      "outputs": [
        {
          "internalType": "string",
          "name": "",
          "type": "string"
        }
      ],
      "stateMutability": "view",
      "type": "function"
    },
    {
      "inputs": [
        {
          "internalType": "address",
          "name": "owner",
          "type": "address"
        }
      ],
      "name": "nonces",
      "outputs": [
        {
          "internalType": "uint256",
          "name": "",
          "type": "uint256"
        }
      ],
      "stateMutability": "view",
      "type": "function"
    },
    {
      "inputs": [],
      "name": "owner",
      "outputs": [
        {
          "internalType": "address",
          "name": "",
          "type": "address"
        }
      ],
      "stateMutability": "view",
      "type": "function"
    },
    {
      "inputs": [
        {
          "internalType": "uint256",
          "name": "tokenId",
          "type": "uint256"
        }
      ],
      "name": "ownerOf",
      "outputs": [
        {
          "internalType": "address",
          "name": "",
          "type": "address"
        }
      ],
      "stateMutability": "view",
      "type": "function"
    },
    {
      "inputs": [],
      "name": "pause",
      "outputs": [],
      "stateMutability": "nonpayable",
      "type": "function"
    },
    {
      "inputs": [],
      "name": "paused",
      "outputs": [
        {
          "internalType": "bool",
          "name": "",
          "type": "bool"
        }
      ],
      "stateMutability": "view",
      "type": "function"
    },
    {
      "inputs": [],
      "name": "renounceOwnership",
      "outputs": [],
      "stateMutability": "nonpayable",
      "type": "function"
    },
    {
      "inputs": [
        {
          "internalType": "address",
          "name": "to",
          "type": "address"
        }
      ],
      "name": "safeMint",
      "outputs": [],
      "stateMutability": "nonpayable",
      "type": "function"
    },
    {
      "inputs": [
        {
          "internalType": "address",
          "name": "from",
          "type": "address"
        },
        {
          "internalType": "address",
          "name": "to",
          "type": "address"
        },
        {
          "internalType": "uint256",
          "name": "tokenId",
          "type": "uint256"
        }
      ],
      "name": "safeTransferFrom",
      "outputs": [],
      "stateMutability": "nonpayable",
      "type": "function"
    },
    {
      "inputs": [
        {
          "internalType": "address",
          "name": "from",
          "type": "address"
        },
        {
          "internalType": "address",
          "name": "to",
          "type": "address"
        },
        {
          "internalType": "uint256",
          "name": "tokenId",
          "type": "uint256"
        },
        {
          "internalType": "bytes",
          "name": "data",
          "type": "bytes"
        }
      ],
      "name": "safeTransferFrom",
      "outputs": [],
      "stateMutability": "nonpayable",
      "type": "function"
    },
    {
      "inputs": [],
      "name": "senate",
      "outputs": [
        {
          "internalType": "contract ISenateUpgradeable",
          "name": "",
          "type": "address"
        }
      ],
      "stateMutability": "view",
      "type": "function"
    },
    {
      "inputs": [
        {
          "internalType": "address",
          "name": "operator",
          "type": "address"
        },
        {
          "internalType": "bool",
          "name": "approved",
          "type": "bool"
        }
      ],
      "name": "setApprovalForAll",
      "outputs": [],
      "stateMutability": "nonpayable",
      "type": "function"
    },
    {
      "inputs": [
        {
          "internalType": "bytes4",
          "name": "interfaceId",
          "type": "bytes4"
        }
      ],
      "name": "supportsInterface",
      "outputs": [
        {
          "internalType": "bool",
          "name": "",
          "type": "bool"
        }
      ],
      "stateMutability": "view",
      "type": "function"
    },
    {
      "inputs": [],
      "name": "symbol",
      "outputs": [
        {
          "internalType": "string",
          "name": "",
          "type": "string"
        }
      ],
      "stateMutability": "view",
      "type": "function"
    },
    {
      "inputs": [
        {
          "internalType": "uint256",
          "name": "index",
          "type": "uint256"
        }
      ],
      "name": "tokenByIndex",
      "outputs": [
        {
          "internalType": "uint256",
          "name": "",
          "type": "uint256"
        }
      ],
      "stateMutability": "view",
      "type": "function"
    },
    {
      "inputs": [
        {
          "internalType": "address",
          "name": "owner",
          "type": "address"
        },
        {
          "internalType": "uint256",
          "name": "index",
          "type": "uint256"
        }
      ],
      "name": "tokenOfOwnerByIndex",
      "outputs": [
        {
          "internalType": "uint256",
          "name": "",
          "type": "uint256"
        }
      ],
      "stateMutability": "view",
      "type": "function"
    },
    {
      "inputs": [
        {
          "internalType": "uint256",
          "name": "tokenId",
          "type": "uint256"
        }
      ],
      "name": "tokenURI",
      "outputs": [
        {
          "internalType": "string",
          "name": "",
          "type": "string"
        }
      ],
      "stateMutability": "view",
      "type": "function"
    },
    {
      "inputs": [],
      "name": "totalSupply",
      "outputs": [
        {
          "internalType": "uint256",
          "name": "",
          "type": "uint256"
        }
      ],
      "stateMutability": "view",
      "type": "function"
    },
    {
      "inputs": [
        {
          "internalType": "address",
          "name": "from",
          "type": "address"
        },
        {
          "internalType": "address",
          "name": "to",
          "type": "address"
        },
        {
          "internalType": "uint256",
          "name": "tokenId",
          "type": "uint256"
        }
      ],
      "name": "transferFrom",
      "outputs": [],
      "stateMutability": "nonpayable",
      "type": "function"
    },
    {
      "inputs": [
        {
          "internalType": "address",
          "name": "newOwner",
          "type": "address"
        }
      ],
      "name": "transferOwnership",
      "outputs": [],
      "stateMutability": "nonpayable",
      "type": "function"
    },
    {
      "inputs": [],
      "name": "unpause",
      "outputs": [],
      "stateMutability": "nonpayable",
      "type": "function"
    }
  ],
  "numDeployments": 13,
  "bytecode": "0x60808060405234620000c6576000549060ff8260081c1662000074575060ff8082161062000038575b6040516138689081620000cc8239f35b60ff90811916176000557f7f26b83ff96e1f2b6a682f133852f6798a09c465da95921460cefb3847402498602060405160ff8152a13862000028565b62461bcd60e51b815260206004820152602760248201527f496e697469616c697a61626c653a20636f6e747261637420697320696e697469604482015266616c697a696e6760c81b6064820152608490fd5b600080fdfe60806040526004361015610013575b600080fd5b60003560e01c806301ffc9a7146102b257806306fdde03146102a9578063081812fc146102a0578063095ea7b31461029757806318160ddd1461028e57806323b872dd146102855780632f745c591461027c5780633644e515146102735780633a46b1a81461026a5780633f4ba83a1461026157806340d097c31461025857806342842e0e1461024f5780634f6ccce714610246578063587cde1e1461023d5780635c19a95c146102345780635c975abb1461022b5780636352211e1461022257806370a0823114610219578063715018a6146102105780637ecebe00146102075780638456cb59146101fe5780638da5cb5b146101f55780638e539e8c146101ec57806395d89b41146101e35780639ab24eb0146101da578063a22cb465146101d1578063a6e5b8e6146101a4578063b88d4fde146101c8578063c3cda520146101bf578063c4d66de8146101b6578063c87b56dd146101ad578063e555b2eb146101a4578063e985e9c51461019b5763f2fde38b1461019357600080fd5b61000e611589565b5061000e61151e565b5061000e6110fd565b5061000e6114ac565b5061000e6113be565b5061000e611284565b5061000e6111f2565b5061000e61100b565b5061000e610fbb565b5061000e610f13565b5061000e610dbc565b5061000e610d94565b5061000e610d39565b5061000e610cf9565b5061000e610c99565b5061000e610c71565b5061000e610c52565b5061000e610c2e565b5061000e610c07565b5061000e610bc5565b5061000e610b08565b5061000e610ac0565b5061000e610950565b5061000e6108b2565b5061000e610757565b5061000e610733565b5061000e61065f565b5061000e610635565b5061000e6105ea565b5061000e6104f1565b5061000e6104b0565b5061000e6103ca565b5061000e6102cd565b6001600160e01b031981160361000e57565b503461000e57602036600319011261000e5760206004356102ed816102bb565b63ffffffff60e01b1663780e9d6360e01b811490811561032b575b811561031a575b506040519015158152f35b630c5a011d60e01b1490503861030f565b90506380ac58cd60e01b8114801561035b575b801561034b575b90610308565b506301ffc9a760e01b8114610345565b50635b5e139f60e01b811461033e565b600091031261000e57565b919082519283825260005b8481106103a2575050826000602080949584010152601f8019910116010190565b602081830181015184830182015201610381565b9060206103c7928181520190610376565b90565b503461000e576000806003193601126104ad5760405190806065546103ee816117a2565b808552916001918083169081156104835750600114610428575b6104248561041881870382611196565b604051918291826103b6565b0390f35b9250606583527f8ff97419363ffd7000167f130ef7168fbea05faf9251824ca5043f113cc6a7c75b82841061046b57505050810160200161041882610424610408565b80546020858701810191909152909301928101610450565b8695506104249693506020925061041894915060ff191682840152151560051b8201019293610408565b80fd5b503461000e57602036600319011261000e5760206104cf60043561184e565b6001600160a01b0360405191168152f35b6001600160a01b0381160361000e57565b503461000e57604036600319011261000e5760043561050f816104e0565b60243561051b81611780565b916001600160a01b03808416809183161461059b5761054d9361054891331490811561054f575b506117dc565b611c32565b005b610595915061058e9061057633916001600160a01b0316600052606a602052604060002090565b906001600160a01b0316600052602052604060002090565b5460ff1690565b38610542565b60405162461bcd60e51b815260206004820152602160248201527f4552433732313a20617070726f76616c20746f2063757272656e74206f776e656044820152603960f91b6064820152608490fd5b503461000e57600036600319011261000e576020609954604051908152f35b606090600319011261000e57600435610621816104e0565b9060243561062e816104e0565b9060443590565b503461000e5761054d61064736610609565b9161065a610655843361198b565b61188b565b611aad565b503461000e57604036600319011261000e5760043561067d816104e0565b6024359061068a816116bd565b8210156106c8576001600160a01b03166000526097602052604060002090600052602052610424604060002054604051918291829190602083019252565b60405162461bcd60e51b815260206004820152602b60248201527f455243373231456e756d657261626c653a206f776e657220696e646578206f7560448201527f74206f6620626f756e64730000000000000000000000000000000000000000006064820152608490fd5b503461000e57600036600319011261000e57602061074f612521565b604051908152f35b503461000e57604036600319011261000e57600435610775816104e0565b6001600160a01b0360243591166000526101636020526040600020904381101561086e576107a56107bc916121ac565b8254906000908260058111610805575b5084611ff5565b90816107da575050602060005b6001600160e01b0360405191168152f35b6107f9610800916107ec602094611a7b565b9060005260206000200190565b5460201c90565b6107c9565b8061081561081b92959395612073565b90611a92565b9061084661083d610833848960005260206000200190565b5463ffffffff1690565b63ffffffff1690565b63ffffffff8516101561085c5750915b386107b5565b92915061086890611a9f565b90610856565b606460405162461bcd60e51b815260206004820152602060248201527f436865636b706f696e74733a20626c6f636b206e6f7420796574206d696e65646044820152fd5b503461000e57600036600319011261000e576108cc61161b565b60c95460ff81161561090b5760ff191660c9557f5db9ee0a495bf2e6ff9c91a7834c1ba4fdd244a5e8aa4e537bd38aeae4b073aa6020604051338152a1005b60405162461bcd60e51b815260206004820152601460248201527f5061757361626c653a206e6f74207061757365640000000000000000000000006044820152606490fd5b503461000e57602036600319011261000e5760043561096e816104e0565b61097661161b565b6101c680549060018201905560405161098e8161115e565b600081526001600160a01b038316918215610a7c5761054d9381610a77946109db6109d66109d28460005260676020526001600160a01b0360406000205416151590565b1590565b6133a4565b6109e582846133f0565b610a02836001600160a01b03166000526068602052604060002090565b610a0c8154611a9f565b9055610a4183610a26846000526067602052604060002090565b906001600160a01b03166001600160a01b0319825416179055565b60007fddf252ad1be2c89b69c2b068fc378daa952ba7f163c4a11628f55a4df523b3ef81604051a4610a7281613764565b611d45565b611924565b606460405162461bcd60e51b815260206004820152602060248201527f4552433732313a206d696e7420746f20746865207a65726f20616464726573736044820152fd5b503461000e5761054d610ad236610609565b90604051926020840184811067ffffffffffffffff821117610afb575b604052600084526118fd565b610b03611126565b610aef565b503461000e57602036600319011261000e57600435609954811015610b5a5760996000527f72a152ddfb8e864297c917af52ea6c1c68aead0fee1a62673fcc7e0c94979d000154604051908152602090f35b60405162461bcd60e51b815260206004820152602c60248201527f455243373231456e756d657261626c653a20676c6f62616c20696e646578206f60448201527f7574206f6620626f756e647300000000000000000000000000000000000000006064820152608490fd5b503461000e57602036600319011261000e576020600435610be5816104e0565b6001600160a01b03809116600052610162825260406000205416604051908152f35b503461000e57602036600319011261000e5761054d600435610c28816104e0565b3361258f565b503461000e57600036600319011261000e57602060ff60c954166040519015158152f35b503461000e57602036600319011261000e5760206104cf600435611780565b503461000e57602036600319011261000e57602061074f600435610c94816104e0565b6116bd565b503461000e576000806003193601126104ad57610cb461161b565b60fb546001600160a01b0319811660fb55816001600160a01b0360405192167f8be0079c531659141344cd1fd0a4f28419497f9722a3daafe3b4186f6b6457e08284a3f35b503461000e57602036600319011261000e576001600160a01b03600435610d1f816104e0565b166000526101656020526020604060002054604051908152f35b503461000e57600036600319011261000e57610d5361161b565b610d5b613353565b600160ff1960c954161760c9557f62e78cea01bee320cd4e420270b5ea74000d11b0c9f74754ebdbfc544b05a2586020604051338152a1005b503461000e57600036600319011261000e5760206001600160a01b0360fb5416604051908152f35b503461000e57602036600319011261000e5760043543811015610ece57610de5610dfd916121ac565b61016454906000908260058111610e61575b50611f5c565b80610e1a57506001600160e01b0360005b60405191168152602090f35b610e5c6107f9610e316001600160e01b0393611a7b565b6101646000527f5bc19ff2299cdd9c52c622a9137c53ea8dded8f746ee6e3f831227e4983e3f380190565b610e0e565b80610815610e7192959395612073565b61016460005290610ea661083d7f5bc19ff2299cdd9c52c622a9137c53ea8dded8f746ee6e3f831227e4983e3f388401610833565b63ffffffff85161015610ebc5750915b38610df7565b929150610ec890611a9f565b90610eb6565b60405162461bcd60e51b815260206004820152601a60248201527f566f7465733a20626c6f636b206e6f7420796574206d696e65640000000000006044820152606490fd5b503461000e576000806003193601126104ad576040519080606654610f37816117a2565b808552916001918083169081156104835750600114610f60576104248561041881870382611196565b9250606683527f46501879b8ca8525e8c2fd519e2fbfcfa2ebea26501294aa02cbfcfb12e943545b828410610fa357505050810160200161041882610424610408565b80546020858701810191909152909301928101610f88565b503461000e57602036600319011261000e576001600160a01b03600435610fe1816104e0565b1660005261016360205260206001600160e01b036110026040600020611f21565b16604051908152f35b503461000e57604036600319011261000e57600435611029816104e0565b602435801515810361000e576001600160a01b038216918233146110b857816110756110869233600052606a6020526040600020906001600160a01b0316600052602052604060002090565b9060ff801983541691151516179055565b604051901515815233907f17307eab39ab6107e8899845ad3d59bd9653f200f220920489ca2b5937696c3190602090a3005b60405162461bcd60e51b815260206004820152601960248201527f4552433732313a20617070726f766520746f2063616c6c6572000000000000006044820152606490fd5b503461000e57600036600319011261000e5760206001600160a01b036101615416604051908152f35b50634e487b7160e01b600052604160045260246000fd5b67ffffffffffffffff811161115157604052565b611159611126565b604052565b6020810190811067ffffffffffffffff82111761115157604052565b6040810190811067ffffffffffffffff82111761115157604052565b90601f8019910116810190811067ffffffffffffffff82111761115157604052565b604051906111c58261117a565b565b60209067ffffffffffffffff81116111e5575b601f01601f19160190565b6111ed611126565b6111da565b503461000e57608036600319011261000e57600435611210816104e0565b60243561121c816104e0565b6064359167ffffffffffffffff831161000e573660238401121561000e57826004013591611249836111c7565b926112576040519485611196565b808452366024828701011161000e57602081600092602461054d98018388013785010152604435916118fd565b503461000e5760c036600319011261000e576004356112a2816104e0565b6064359060243560443560ff8416840361000e57804211611379576113466113749161054d956040519061132e826113206020820195898b886060919493926001600160a01b0360808301967fe48329057bfd03d55e49b547132e39cffd9c1820ad7b9d4c5307691425d15adf845216602083015260408201520152565b03601f198101845283611196565b61134160a43593608435935190206124cb565b61225d565b9161136e836001600160a01b0316600052610165602052604060002090815491600183019055565b14612211565b61258f565b60405162461bcd60e51b815260206004820152601860248201527f566f7465733a207369676e6174757265206578706972656400000000000000006044820152606490fd5b503461000e57602036600319011261000e576004356113dc816104e0565b6114206000549161140460ff8460081c16158094819561149e575b811561147e575b50612e0b565b82611417600160ff196000541617600055565b61146557612ebc565b61142657005b61143661ff001960005416600055565b604051600181527f7f26b83ff96e1f2b6a682f133852f6798a09c465da95921460cefb384740249890602090a1005b61147961010061ff00196000541617600055565b612ebc565b303b15915081611490575b50386113fe565b6001915060ff161438611489565b600160ff82161091506113f7565b503461000e57602036600319011261000e576114e86114e360043560005260676020526001600160a01b0360406000205416151590565b611734565b60006040516114f68161115e565b526104246040516115068161115e565b60008152604051918291602083526020830190610376565b503461000e57604036600319011261000e57602060ff61157d600435611543816104e0565b6001600160a01b0360243591611558836104e0565b16600052606a84526040600020906001600160a01b0316600052602052604060002090565b54166040519015158152f35b503461000e57602036600319011261000e576004356115a7816104e0565b6115af61161b565b6001600160a01b038116156115c75761054d90611673565b60405162461bcd60e51b815260206004820152602660248201527f4f776e61626c653a206e6577206f776e657220697320746865207a65726f206160448201526564647265737360d01b6064820152608490fd5b6001600160a01b0360fb5416330361162f57565b606460405162461bcd60e51b815260206004820152602060248201527f4f776e61626c653a2063616c6c6572206973206e6f7420746865206f776e65726044820152fd5b60fb54906001600160a01b0380911691826001600160a01b031982161760fb55167f8be0079c531659141344cd1fd0a4f28419497f9722a3daafe3b4186f6b6457e06000604051a3565b6001600160a01b031680156116dd57600052606860205260406000205490565b60405162461bcd60e51b815260206004820152602960248201527f4552433732313a2061646472657373207a65726f206973206e6f7420612076616044820152683634b21037bbb732b960b91b6064820152608490fd5b1561173b57565b60405162461bcd60e51b815260206004820152601860248201527f4552433732313a20696e76616c696420746f6b656e20494400000000000000006044820152606490fd5b60005260676020526001600160a01b03604060002054166103c7811515611734565b90600182811c921680156117d2575b60208310146117bc57565b634e487b7160e01b600052602260045260246000fd5b91607f16916117b1565b156117e357565b60405162461bcd60e51b815260206004820152603e60248201527f4552433732313a20617070726f76652063616c6c6572206973206e6f7420746f60448201527f6b656e206f776e6572206e6f7220617070726f76656420666f7220616c6c00006064820152608490fd5b6118716114e38260005260676020526001600160a01b0360406000205416151590565b60005260696020526001600160a01b036040600020541690565b1561189257565b60405162461bcd60e51b815260206004820152602e60248201527f4552433732313a2063616c6c6572206973206e6f7420746f6b656e206f776e6560448201527f72206e6f7220617070726f7665640000000000000000000000000000000000006064820152608490fd5b916111c59391610a7793611914610655843361198b565b61191f838383611aad565b611e4d565b1561192b57565b60405162461bcd60e51b815260206004820152603260248201527f4552433732313a207472616e7366657220746f206e6f6e20455243373231526560448201527131b2b4bb32b91034b6b83632b6b2b73a32b960711b6064820152608490fd5b6001600160a01b038061199d84611780565b1692818316928484149485156119d3575b505083156119bd575b50505090565b6119c99192935061184e565b16143880806119b7565b60ff92955090611a0291600052606a6020526040600020906001600160a01b0316600052602052604060002090565b54169238806119ae565b15611a1357565b60405162461bcd60e51b8152602060048201526024808201527f4552433732313a207472616e7366657220746f20746865207a65726f206164646044820152637265737360e01b6064820152608490fd5b50634e487b7160e01b600052601160045260246000fd5b600019810191908211611a8a57565b6111c5611a64565b91908203918211611a8a57565b9060018201809211611a8a57565b611ab683611780565b926001600160a01b0380948184169182911603611b89576111c594841690611adf821515611a0c565b611aea83868661344b565b611af383611bdc565b611b10846001600160a01b03166000526068602052604060002090565b611b1a8154611a7b565b9055611b39856001600160a01b03166000526068602052604060002090565b611b438154611a9f565b9055611b5d85610a26856000526067602052604060002090565b7fddf252ad1be2c89b69c2b068fc378daa952ba7f163c4a11628f55a4df523b3ef6000604051a46137d0565b60405162461bcd60e51b815260206004820152602560248201527f4552433732313a207472616e736665722066726f6d20696e636f72726563742060448201526437bbb732b960d91b6064820152608490fd5b600081815260696020526040812080546001600160a01b03191690556001600160a01b03611c0983611780565b167f8c5be1e5ebec7d5bd14f71427d1e84f3dd0314c0f7b2291e5b200ac8c7c3b92582604051a4565b600082815260696020526040902080546001600160a01b0319166001600160a01b0383161790556001600160a01b0380611c6b84611780565b169116907f8c5be1e5ebec7d5bd14f71427d1e84f3dd0314c0f7b2291e5b200ac8c7c3b9256000604051a4565b9081602091031261000e57516103c7816102bb565b6103c793926001600160a01b036080931682526000602083015260408201528160608201520190610376565b90926103c794936080936001600160a01b03809216845216602083015260408201528160608201520190610376565b506040513d6000823e3d90fd5b3d15611d40573d90611d26826111c7565b91611d346040519384611196565b82523d6000602084013e565b606090565b909190803b15611e4557611d7f6020916001600160a01b03936000604051958680958194630a85bd0160e11b9a8b84523360048501611cad565b0393165af160009181611e15575b50611e0757611d9a611d15565b80519081611e025760405162461bcd60e51b815260206004820152603260248201527f4552433732313a207472616e7366657220746f206e6f6e20455243373231526560448201527131b2b4bb32b91034b6b83632b6b2b73a32b960711b6064820152608490fd5b602001fd5b6001600160e01b0319161490565b611e3791925060203d8111611e3e575b611e2f8183611196565b810190611c98565b9038611d8d565b503d611e25565b505050600190565b92909190823b15611e8857611d7f9260209260006001600160a01b03604051809781968295630a85bd0160e11b9b8c85523360048601611cd9565b50505050600190565b50634e487b7160e01b600052603260045260246000fd5b8115611eb2570490565b634e487b7160e01b600052601260045260246000fd5b610164805460009181611edd57505050600090565b7f5bc19ff2299cdd9c52c622a9137c53ea8dded8f746ee6e3f831227e4983e3f379282600019810111611f14575b52015460201c90565b611f1c611a64565b611f0b565b8054600081611f3257505050600090565b602090600019938385810111611f4f575b81522001015460201c90565b611f57611a64565b611f43565b905b828110611f6a57505090565b9091808216906001818418811c8301809311611fe8575b61016460005263ffffffff80847f5bc19ff2299cdd9c52c622a9137c53ea8dded8f746ee6e3f831227e4983e3f3801541690861610600014611fc7575050915b90611f5e565b909392508101809111611fdb575b90611fc1565b611fe3611a64565b611fd5565b611ff0611a64565b611f81565b91905b8382106120055750505090565b909192808316906001818518811c8301809311612066575b60008681526020902083015463ffffffff9081169085161015612045575050925b9190611ff8565b909493508101809111612059575b9161203e565b612061611a64565b612053565b61206e611a64565b61201d565b8015612194576103c79061213661212f61212561211b6121116121076120fd6120f36001898a60801c80612185575b508060401c80612178575b508060201c8061216b575b508060101c8061215e575b508060081c80612151575b508060041c80612144575b5060021c61213c575b6120ec818b611ea8565b0160011c90565b6120ec818a611ea8565b6120ec8189611ea8565b6120ec8188611ea8565b6120ec8187611ea8565b6120ec8186611ea8565b6120ec8185611ea8565b8092611ea8565b9061219a565b60011b6120e2565b90509060021b90386120d9565b90509060041b90386120ce565b90509060081b90386120c3565b90509060101b90386120b8565b90509060201b90386120ad565b915050600160401b90386120a2565b50600090565b90808210156121a7575090565b905090565b63ffffffff908181116121bd571690565b60405162461bcd60e51b815260206004820152602660248201527f53616665436173743a2076616c756520646f65736e27742066697420696e203360448201526532206269747360d01b6064820152608490fd5b1561221857565b60405162461bcd60e51b815260206004820152601460248201527f566f7465733a20696e76616c6964206e6f6e63650000000000000000000000006044820152606490fd5b916103c7939161226c93612415565b919091612294565b6005111561227e57565b634e487b7160e01b600052602160045260246000fd5b61229d81612274565b806122a55750565b6122ae81612274565b600181036122fb5760405162461bcd60e51b815260206004820152601860248201527f45434453413a20696e76616c6964207369676e617475726500000000000000006044820152606490fd5b61230481612274565b600281036123515760405162461bcd60e51b815260206004820152601f60248201527f45434453413a20696e76616c6964207369676e6174757265206c656e677468006044820152606490fd5b61235a81612274565b600381036123b25760405162461bcd60e51b815260206004820152602260248201527f45434453413a20696e76616c6964207369676e6174757265202773272076616c604482015261756560f01b6064820152608490fd5b806123be600492612274565b146123c557565b60405162461bcd60e51b815260206004820152602260248201527f45434453413a20696e76616c6964207369676e6174757265202776272076616c604482015261756560f01b6064820152608490fd5b9291907f7fffffffffffffffffffffffffffffff5d576e7357a4501ddfe92f46681b20a083116124bf5760ff16601b811415806124b4575b6124a8579160809493916020936040519384528484015260408301526060820152600093849182805260015afa1561249b575b81516001600160a01b03811615612495579190565b50600190565b6124a3611d08565b612480565b50505050600090600490565b50601c81141561244d565b50505050600090600390565b6124d3612521565b9060405190602082019261190160f01b845260228301526042820152604281526080810181811067ffffffffffffffff821117612514575b60405251902090565b61251c611126565b61250b565b61012d5461012e546040519060208201927f8b73c3c69bb8fe3d512ecc4cf759cc79239f7b179b0ffacaa9a75d522b39400f8452604083015260608201524660808201523060a082015260a0815260c0810181811067ffffffffffffffff8211176125145760405251902090565b6001600160a01b038082166000818152610162602052604080822080546001600160a01b0319811686891617909155841696959194879491936125fb9284169586917f3134e8a2e6d97e929a7e54011ea5485d7d196dd5f0ba4d4ef95803e8e3fc257f898851a46116bd565b92808714158061277c575b612614575b50505050509050565b86612720575b806126c4575b50612643612637610161546001600160a01b031690565b6001600160a01b031690565b91823b156126c05751630d207a0f60e01b81526001600160a01b0396871660048201529516602486015260448501919091529192918290606490829084905af180156126b3575b61269a575b80808080859461260b565b806126a76126ad9261113d565b8061036b565b3861268f565b6126bb611d08565b61268a565b8480fd5b7fdec2bacdd2f05b59de34da9b523dff8be42e5e38e818c82fdb0bae774387a72461270c85612707856001600160a01b0316600052610163602052604060002090565b612a01565b85519182526020820152604090a238612620565b867fdec2bacdd2f05b59de34da9b523dff8be42e5e38e818c82fdb0bae774387a72461276986612764846001600160a01b0316600052610163602052604060002090565b6129b0565b86519182526020820152604090a261261a565b50831515612606565b6001600160a01b0380831690821681811415806128fe575b6127a8575b50505050565b806128a0575b5080612842575b506127cc612637610161546001600160a01b031690565b91823b1561000e57604051630d207a0f60e01b81526001600160a01b0392831660048201529116602482015260016044820152906000908290606490829084905af18015612835575b612822575b8080806127a2565b806126a761282f9261113d565b3861281a565b61283d611d08565b612815565b7fdec2bacdd2f05b59de34da9b523dff8be42e5e38e818c82fdb0bae774387a724612889612884856001600160a01b0316600052610163602052604060002090565b6129d8565b60408051928352602083019190915290a2386127b5565b7fdec2bacdd2f05b59de34da9b523dff8be42e5e38e818c82fdb0bae774387a7246128e76128e2856001600160a01b0316600052610163602052604060002090565b612906565b60408051928352602083019190915290a2386127ae565b50600161279d565b906001600160e01b03918261291a82611f21565b1660001981019081116129a3575b612931436121ac565b9184821161294e57849283612947931691612d32565b9316921690565b60405162461bcd60e51b815260206004820152602760248201527f53616665436173743a2076616c756520646f65736e27742066697420696e20326044820152663234206269747360c81b6064820152608490fd5b6129ab611a64565b612928565b6001600160e01b039291836129c483611f21565b169081039081116129a357612931436121ac565b906001600160e01b0391826129ec82611f21565b16600181018091116129a357612931436121ac565b6001600160e01b03929183612a1583611f21565b169081018091116129a357612931436121ac565b6001600160e01b039081612a3b611ec8565b1660018101809111612a67575b612a51436121ac565b9083811161294e57839182612947921690612c34565b612a6f611a64565b612a48565b6001600160e01b039081612a86611ec8565b166000198101908111612a6757612a51436121ac565b6111c5906001600160e01b036020610164805490600160401b821015612b23575b60018201808255821015612b16575b600052835191909301519190911660201b63ffffffff191663ffffffff91909116177f5bc19ff2299cdd9c52c622a9137c53ea8dded8f746ee6e3f831227e4983e3f389190910155565b612b1e611e91565b612acc565b612b2b611126565b612abd565b906001600160e01b0360206111c593805490600160401b821015612b9a575b60018201808255821015612b8d575b6000908152829020845194909201519290921660201b63ffffffff191663ffffffff9390931692909217910155565b612b95611e91565b612b5e565b612ba2611126565b612b4f565b906040516040810181811067ffffffffffffffff821117612bdb575b604052602081935463ffffffff81168352811c910152565b612be3611126565b612bc3565b15612bef57565b60405162461bcd60e51b815260206004820152601760248201527f436865636b706f696e743a20696e76616c6964206b65790000000000000000006044820152606490fd5b610164549192918015612d0857612cce918185612c5d612c58610e31602096611a7b565b612ba7565b92612c6c845163ffffffff1690565b612c8363ffffffff91828416928391161115612be8565b612c9461083d865163ffffffff1690565b03612cd25750612ca9610e31612cc093611a7b565b9063ffffffff82549181199060201b169116179055565b01516001600160e01b031690565b9190565b9050612d039150612cf0612ce46111b8565b63ffffffff9092168252565b6001600160e01b03871681850152612a9c565b612cc0565b50612d2c90612d18612ce46111b8565b6001600160e01b0384166020820152612a9c565b60009190565b90929192838254801515600014612de657926020929184612d68612c58612d5b612cce98611a7b565b8560005260206000200190565b93612d77855163ffffffff1690565b612d8e63ffffffff91828416928391161115612be8565b612d9f61083d875163ffffffff1690565b03612db55750612cc0926107ec612ca992611a7b565b915050612d0391612dd3612dc76111b8565b63ffffffff9093168352565b6001600160e01b03881682860152612b30565b5050612d2c91612df7612dc76111b8565b6001600160e01b0385166020830152612b30565b15612e1257565b60405162461bcd60e51b815260206004820152602e60248201527f496e697469616c697a61626c653a20636f6e747261637420697320616c72656160448201527f647920696e697469616c697a65640000000000000000000000000000000000006064820152608490fd5b60405190612e8a8261117a565b6006825265151bdad95b8d60d21b6020830152565b60405190612eac8261117a565b60018252603160f81b6020830152565b90612ec5612e7d565b91604051612ed28161117a565b600381526020621512cd60ea1b81830152612efd60ff60005460081c16612ef881613043565b613043565b84519067ffffffffffffffff8211613036575b612f2482612f1f6065546117a2565b6130f4565b80601f8311600114612fa057509080612f5f93926111c59697600092612f95575b50508160011b916000199060031b1c1916176065556131d6565b612f676132ce565b612f6f6130d3565b612f776130b5565b612f90612f82612e7d565b612f8a612e9f565b906132df565b61330e565b015190503880612f45565b90601f19831696612fd360656000527f8ff97419363ffd7000167f130ef7168fbea05faf9251824ca5043f113cc6a7c790565b926000905b89821061301e575050918391600193612f5f96956111c5999a10613005575b505050811b016065556131d6565b015160001960f88460031b161c19169055388080612ff7565b80600185968294968601518155019501930190612fd8565b61303e611126565b612f10565b1561304a57565b60405162461bcd60e51b815260206004820152602b60248201527f496e697469616c697a61626c653a20636f6e7472616374206973206e6f74206960448201527f6e697469616c697a696e670000000000000000000000000000000000000000006064820152608490fd5b6130ca60ff60005460081c16612ef881613043565b6111c533611673565b6130e860ff60005460081c16612ef881613043565b60ff1960c9541660c955565b601f8111613100575050565b600090606582527f8ff97419363ffd7000167f130ef7168fbea05faf9251824ca5043f113cc6a7c7906020601f850160051c8301941061315b575b601f0160051c01915b82811061315057505050565b818155600101613144565b909250829061313b565b601f8111613171575050565b600090606682527f46501879b8ca8525e8c2fd519e2fbfcfa2ebea26501294aa02cbfcfb12e94354906020601f850160051c830194106131cc575b601f0160051c01915b8281106131c157505050565b8181556001016131b5565b90925082906131ac565b90815167ffffffffffffffff81116132c1575b6131fd816131f86066546117a2565b613165565b602080601f8311600114613239575081929360009261322e575b50508160011b916000199060031b1c191617606655565b015190503880613217565b90601f1983169461326c60666000527f46501879b8ca8525e8c2fd519e2fbfcfa2ebea26501294aa02cbfcfb12e9435490565b926000905b8782106132a9575050836001959610613290575b505050811b01606655565b015160001960f88460031b161c19169055388080613285565b80600185968294968601518155019501930190613271565b6132c9611126565b6131e9565b6111c560ff60005460081c16613043565b6132f460ff60005460081c16612ef881613043565b6020815191012090602081519101209061012d5561012e55565b61333560ff60005460081c1661332381613043565b61332c81613043565b612ef881613043565b6001600160a01b0361016191166001600160a01b0319825416179055565b60ff60c9541661335f57565b60405162461bcd60e51b815260206004820152601060248201527f5061757361626c653a20706175736564000000000000000000000000000000006044820152606490fd5b156133ab57565b60405162461bcd60e51b815260206004820152601c60248201527f4552433732313a20746f6b656e20616c7265616479206d696e746564000000006044820152606490fd5b906133f9613353565b6001600160a01b038083169081600052610162602052604060002054161561343c575b613425826135da565b613433576111c5915061364e565b6111c5916135a1565b613446838061258f565b61341c565b919091613456613353565b6001600160a01b03808416906000908282526101626020528060408320541615613592575b831692836134a857505061348e836135da565b8061349f5750506111c5915061364e565b03613433575050565b8284036134b7575b505061348e565b8061351a6134c7613529936116bd565b600019810192908311613585575b87855260986020526040852054838103613531575b5084613500896000526098602052604060002090565b556001600160a01b03166000526097602052604060002090565b90600052602052604060002090565b5538806134b0565b87865260976020526040862084875260205261357e60408720548061356d8461351a876001600160a01b03166000526097602052604060002090565b556000526098602052604060002090565b55386134ea565b61358d611a64565b6134d5565b61359c868061258f565b61347b565b6040906135ad816116bd565b926001600160a01b0360009216825260976020528282208483526020528083832055815260986020522055565b60995481600052609a60205280604060002055600160401b811015613641575b6001810180609955811015613634575b60996000527f72a152ddfb8e864297c917af52ea6c1c68aead0fee1a62673fcc7e0c94979d000155565b61363c611e91565b61360a565b613649611126565b6135fa565b609980546000199290838101818111613757575b6136fe6000938492818452609a60205284604085205491101561374a575b8684526136ed7f72a152ddfb8e864297c917af52ea6c1c68aead0fee1a62673fcc7e0c94979cff95868101549083101561373d575b88865280837f72a152ddfb8e864297c917af52ea6c1c68aead0fee1a62673fcc7e0c94979d000155600052609a602052604060002090565b55600052609a602052604060002090565b558254938415613729578401938085101561371c575b838352015555565b613724611e91565b613714565b634e487b7160e01b83526031600452602483fd5b613745611e91565b6136b5565b613752611e91565b613680565b61375f611a64565b613662565b6111c590613770612a29565b50506001600160a01b038091169081156137c1575b6101626020527fd3963e8e1761c638694d3c60d54f123240f3fe953a68debc0fa797faeeb01d0f54600092835260409092205481169116612785565b6137c9612a74565b5050613785565b906111c5916001600160a01b0380809216928315613823575b16918215613814575b6000526101626020528060406000205416916000526040600020541690612785565b61381c612a74565b50506137f2565b61382b612a29565b50506137e956fea2646970667358221220f54bfdb5f0d1310c77cf637e99386c291583eba9d76d9ffd4c87de56952ec92364736f6c63430008100033"
}