{
  "address": "0xAD523115cd35a8d4E60B3C0953E0E0ac10418309",
  "abi": [
    {
      "inputs": [],
      "stateMutability": "nonpayable",
      "type": "constructor"
    },
    {
      "anonymous": false,
      "inputs": [
        {
          "indexed": true,
          "internalType": "address",
          "name": "owner",
          "type": "address"
        },
        {
          "indexed": true,
          "internalType": "address",
          "name": "approved",
          "type": "address"
        },
        {
          "indexed": true,
          "internalType": "uint256",
          "name": "tokenId",
          "type": "uint256"
        }
      ],
      "name": "Approval",
      "type": "event"
    },
    {
      "anonymous": false,
      "inputs": [
        {
          "indexed": true,
          "internalType": "address",
          "name": "owner",
          "type": "address"
        },
        {
          "indexed": true,
          "internalType": "address",
          "name": "operator",
          "type": "address"
        },
        {
          "indexed": false,
          "internalType": "bool",
          "name": "approved",
          "type": "bool"
        }
      ],
      "name": "ApprovalForAll",
      "type": "event"
    },
    {
      "anonymous": false,
      "inputs": [
        {
          "indexed": true,
          "internalType": "address",
          "name": "delegator",
          "type": "address"
        },
        {
          "indexed": true,
          "internalType": "address",
          "name": "fromDelegate",
          "type": "address"
        },
        {
          "indexed": true,
          "internalType": "address",
          "name": "toDelegate",
          "type": "address"
        }
      ],
      "name": "DelegateChanged",
      "type": "event"
    },
    {
      "anonymous": false,
      "inputs": [
        {
          "indexed": true,
          "internalType": "address",
          "name": "delegate",
          "type": "address"
        },
        {
          "indexed": false,
          "internalType": "uint256",
          "name": "previousBalance",
          "type": "uint256"
        },
        {
          "indexed": false,
          "internalType": "uint256",
          "name": "newBalance",
          "type": "uint256"
        }
      ],
      "name": "DelegateVotesChanged",
      "type": "event"
    },
    {
      "anonymous": false,
      "inputs": [
        {
          "indexed": true,
          "internalType": "address",
          "name": "previousOwner",
          "type": "address"
        },
        {
          "indexed": true,
          "internalType": "address",
          "name": "newOwner",
          "type": "address"
        }
      ],
      "name": "OwnershipTransferred",
      "type": "event"
    },
    {
      "anonymous": false,
      "inputs": [
        {
          "indexed": true,
          "internalType": "address",
          "name": "from",
          "type": "address"
        },
        {
          "indexed": true,
          "internalType": "address",
          "name": "to",
          "type": "address"
        },
        {
          "indexed": true,
          "internalType": "uint256",
          "name": "tokenId",
          "type": "uint256"
        }
      ],
      "name": "Transfer",
      "type": "event"
    },
    {
      "inputs": [],
      "name": "DOMAIN_SEPARATOR",
      "outputs": [
        {
          "internalType": "bytes32",
          "name": "",
          "type": "bytes32"
        }
      ],
      "stateMutability": "view",
      "type": "function"
    },
    {
      "inputs": [
        {
          "internalType": "address",
          "name": "to",
          "type": "address"
        },
        {
          "internalType": "uint256",
          "name": "tokenId",
          "type": "uint256"
        }
      ],
      "name": "approve",
      "outputs": [],
      "stateMutability": "nonpayable",
      "type": "function"
    },
    {
      "inputs": [
        {
          "internalType": "address",
          "name": "owner",
          "type": "address"
        }
      ],
      "name": "balanceOf",
      "outputs": [
        {
          "internalType": "uint256",
          "name": "",
          "type": "uint256"
        }
      ],
      "stateMutability": "view",
      "type": "function"
    },
    {
      "inputs": [
        {
          "internalType": "address",
          "name": "delegatee",
          "type": "address"
        }
      ],
      "name": "delegate",
      "outputs": [],
      "stateMutability": "nonpayable",
      "type": "function"
    },
    {
      "inputs": [
        {
          "internalType": "address",
          "name": "delegatee",
          "type": "address"
        },
        {
          "internalType": "uint256",
          "name": "nonce",
          "type": "uint256"
        },
        {
          "internalType": "uint256",
          "name": "expiry",
          "type": "uint256"
        },
        {
          "internalType": "uint8",
          "name": "v",
          "type": "uint8"
        },
        {
          "internalType": "bytes32",
          "name": "r",
          "type": "bytes32"
        },
        {
          "internalType": "bytes32",
          "name": "s",
          "type": "bytes32"
        }
      ],
      "name": "delegateBySig",
      "outputs": [],
      "stateMutability": "nonpayable",
      "type": "function"
    },
    {
      "inputs": [
        {
          "internalType": "address",
          "name": "account",
          "type": "address"
        }
      ],
      "name": "delegates",
      "outputs": [
        {
          "internalType": "address",
          "name": "",
          "type": "address"
        }
      ],
      "stateMutability": "view",
      "type": "function"
    },
    {
      "inputs": [
        {
          "internalType": "uint256",
          "name": "tokenId",
          "type": "uint256"
        }
      ],
      "name": "getApproved",
      "outputs": [
        {
          "internalType": "address",
          "name": "",
          "type": "address"
        }
      ],
      "stateMutability": "view",
      "type": "function"
    },
    {
      "inputs": [
        {
          "internalType": "uint256",
          "name": "blockNumber",
          "type": "uint256"
        }
      ],
      "name": "getPastTotalSupply",
      "outputs": [
        {
          "internalType": "uint256",
          "name": "",
          "type": "uint256"
        }
      ],
      "stateMutability": "view",
      "type": "function"
    },
    {
      "inputs": [
        {
          "internalType": "address",
          "name": "account",
          "type": "address"
        },
        {
          "internalType": "uint256",
          "name": "blockNumber",
          "type": "uint256"
        }
      ],
      "name": "getPastVotes",
      "outputs": [
        {
          "internalType": "uint256",
          "name": "",
          "type": "uint256"
        }
      ],
      "stateMutability": "view",
      "type": "function"
    },
    {
      "inputs": [
        {
          "internalType": "address",
          "name": "account",
          "type": "address"
        }
      ],
      "name": "getVotes",
      "outputs": [
        {
          "internalType": "uint256",
          "name": "",
          "type": "uint256"
        }
      ],
      "stateMutability": "view",
      "type": "function"
    },
    {
      "inputs": [
        {
          "internalType": "address",
          "name": "owner",
          "type": "address"
        },
        {
          "internalType": "address",
          "name": "operator",
          "type": "address"
        }
      ],
      "name": "isApprovedForAll",
      "outputs": [
        {
          "internalType": "bool",
          "name": "",
          "type": "bool"
        }
      ],
      "stateMutability": "view",
      "type": "function"
    },
    {
      "inputs": [],
      "name": "name",
      "outputs": [
        {
          "internalType": "string",
          "name": "",
          "type": "string"
        }
      ],
      "stateMutability": "view",
      "type": "function"
    },
    {
      "inputs": [
        {
          "internalType": "address",
          "name": "owner",
          "type": "address"
        }
      ],
      "name": "nonces",
      "outputs": [
        {
          "internalType": "uint256",
          "name": "",
          "type": "uint256"
        }
      ],
      "stateMutability": "view",
      "type": "function"
    },
    {
      "inputs": [],
      "name": "owner",
      "outputs": [
        {
          "internalType": "address",
          "name": "",
          "type": "address"
        }
      ],
      "stateMutability": "view",
      "type": "function"
    },
    {
      "inputs": [
        {
          "internalType": "uint256",
          "name": "tokenId",
          "type": "uint256"
        }
      ],
      "name": "ownerOf",
      "outputs": [
        {
          "internalType": "address",
          "name": "",
          "type": "address"
        }
      ],
      "stateMutability": "view",
      "type": "function"
    },
    {
      "inputs": [],
      "name": "renounceOwnership",
      "outputs": [],
      "stateMutability": "nonpayable",
      "type": "function"
    },
    {
      "inputs": [
        {
          "internalType": "address",
          "name": "to",
          "type": "address"
        }
      ],
      "name": "safeMint",
      "outputs": [],
      "stateMutability": "nonpayable",
      "type": "function"
    },
    {
      "inputs": [
        {
          "internalType": "address",
          "name": "from",
          "type": "address"
        },
        {
          "internalType": "address",
          "name": "to",
          "type": "address"
        },
        {
          "internalType": "uint256",
          "name": "tokenId",
          "type": "uint256"
        }
      ],
      "name": "safeTransferFrom",
      "outputs": [],
      "stateMutability": "nonpayable",
      "type": "function"
    },
    {
      "inputs": [
        {
          "internalType": "address",
          "name": "from",
          "type": "address"
        },
        {
          "internalType": "address",
          "name": "to",
          "type": "address"
        },
        {
          "internalType": "uint256",
          "name": "tokenId",
          "type": "uint256"
        },
        {
          "internalType": "bytes",
          "name": "data",
          "type": "bytes"
        }
      ],
      "name": "safeTransferFrom",
      "outputs": [],
      "stateMutability": "nonpayable",
      "type": "function"
    },
    {
      "inputs": [
        {
          "internalType": "address",
          "name": "operator",
          "type": "address"
        },
        {
          "internalType": "bool",
          "name": "approved",
          "type": "bool"
        }
      ],
      "name": "setApprovalForAll",
      "outputs": [],
      "stateMutability": "nonpayable",
      "type": "function"
    },
    {
      "inputs": [
        {
          "internalType": "bytes4",
          "name": "interfaceId",
          "type": "bytes4"
        }
      ],
      "name": "supportsInterface",
      "outputs": [
        {
          "internalType": "bool",
          "name": "",
          "type": "bool"
        }
      ],
      "stateMutability": "view",
      "type": "function"
    },
    {
      "inputs": [],
      "name": "symbol",
      "outputs": [
        {
          "internalType": "string",
          "name": "",
          "type": "string"
        }
      ],
      "stateMutability": "view",
      "type": "function"
    },
    {
      "inputs": [
        {
          "internalType": "uint256",
          "name": "index",
          "type": "uint256"
        }
      ],
      "name": "tokenByIndex",
      "outputs": [
        {
          "internalType": "uint256",
          "name": "",
          "type": "uint256"
        }
      ],
      "stateMutability": "view",
      "type": "function"
    },
    {
      "inputs": [
        {
          "internalType": "address",
          "name": "owner",
          "type": "address"
        },
        {
          "internalType": "uint256",
          "name": "index",
          "type": "uint256"
        }
      ],
      "name": "tokenOfOwnerByIndex",
      "outputs": [
        {
          "internalType": "uint256",
          "name": "",
          "type": "uint256"
        }
      ],
      "stateMutability": "view",
      "type": "function"
    },
    {
      "inputs": [
        {
          "internalType": "uint256",
          "name": "tokenId",
          "type": "uint256"
        }
      ],
      "name": "tokenURI",
      "outputs": [
        {
          "internalType": "string",
          "name": "",
          "type": "string"
        }
      ],
      "stateMutability": "view",
      "type": "function"
    },
    {
      "inputs": [],
      "name": "totalSupply",
      "outputs": [
        {
          "internalType": "uint256",
          "name": "",
          "type": "uint256"
        }
      ],
      "stateMutability": "view",
      "type": "function"
    },
    {
      "inputs": [
        {
          "internalType": "address",
          "name": "from",
          "type": "address"
        },
        {
          "internalType": "address",
          "name": "to",
          "type": "address"
        },
        {
          "internalType": "uint256",
          "name": "tokenId",
          "type": "uint256"
        }
      ],
      "name": "transferFrom",
      "outputs": [],
      "stateMutability": "nonpayable",
      "type": "function"
    },
    {
      "inputs": [
        {
          "internalType": "address",
          "name": "newOwner",
          "type": "address"
        }
      ],
      "name": "transferOwnership",
      "outputs": [],
      "stateMutability": "nonpayable",
      "type": "function"
    }
  ],
  "numDeployments": 4,
  "bytecode": "0x61014080604052346200044f57620000178162000454565b6006815265546f6b656e3560d01b602080830182815260405191936200003d8362000454565b60019182845285840190603160f81b8252604051956200005d8762000454565b600687528787015260405193620000748562000454565b6003855262544b3560e81b8886015286516001600160401b039790959088871162000439576000968754918483811c931680156200042e575b8c841014620003315781908c601f94858111620003d8575b50508c908d8584116001146200037057508a9262000364575b5050600019600383901b1c191690841b1787555b815191898311620003505783548481811c9116801562000345575b8c8210146200033157908b828486959411620002d9575b50508b9183116001146200027457889262000268575b5050600019600383901b1c191690821b1790555b600a8054336001600160a01b0319821681179092556040519491906001600160a01b03167f8be0079c531659141344cd1fd0a4f28419497f9722a3daafe3b4186f6b6457e08787a351902093519020918360e052610100958387524660a0528201927f8b73c3c69bb8fe3d512ecc4cf759cc79239f7b179b0ffacaa9a75d522b39400f94858552604084015260608301524660808301523060a083015260a0825260c082019482861090861117620002545750836040525190206080523060c05261012090815261299f9283620004718439608051836127ee015260a051836128ba015260c051836127bf015260e0518361283d015251826128630152518161281a0152f35b634e487b7160e01b81526041600452602490fd5b0151905038806200013a565b8489528b89208594509190601f1984168a8e5b828210620002c15750508411620002a7575b505050811b0190556200014e565b015160001960f88460031b161c1916905538808062000299565b83850151865588979095019493840193018e62000287565b9091929350858a5283828b209181870160051c830193871062000327575b91869588929594930160051c01915b8281106200031857508d915062000124565b8b815586955087910162000306565b92508192620002f7565b634e487b7160e01b89526022600452602489fd5b90607f16906200010d565b634e487b7160e01b88526041600452602488fd5b015190503880620000de565b9190879450601f1984168c8052838d20938d905b828210620003be5750508411620003a4575b505050811b018755620000f2565b015160001960f88460031b161c1916905538808062000396565b8484015186558a9790950194938401939081019062000384565b909192508a805284828c209181860160051c830193861062000424575b918891869594930160051c01915b8281106200041557508e9150620000c5565b8c815585945088910162000403565b92508192620003f5565b92607f1692620000ad565b634e487b7160e01b600052604160045260246000fd5b600080fd5b604081019081106001600160401b03821117620004395760405256fe6080604081815260048036101561001557600080fd5b600092833560e01c90816301ffc9a71461121e5750806306fdde0314611153578063081812fc1461112b578063095ea7b314610fb057806318160ddd14610f9157806323b872dd14610f6b5780632f745c5914610ead5780633644e51514610e905780633a46b1a814610d5c57806340d097c314610b1457806342842e0e14610ab85780634f6ccce714610a14578063587cde1e146109da5780635c19a95c146109b65780636352211e1461098657806370a0823114610960578063715018a6146109095780637ecebe00146108d25780638da5cb5b146108aa5780638e539e8c1461078757806395d89b41146106715780639ab24eb014610633578063a22cb46514610564578063b88d4fde146104b6578063c3cda520146102e1578063c87b56dd14610270578063e985e9c51461021e5763f2fde38b1461015757600080fd5b3461021a57602036600319011261021a576101706112fe565b6101786113f0565b6001600160a01b038091169182156101c85750600a5492826001600160a01b0319851617600a555192167f8be0079c531659141344cd1fd0a4f28419497f9722a3daafe3b4186f6b6457e08484a3f35b608490602085519162461bcd60e51b8352820152602660248201527f4f776e61626c653a206e6577206f776e657220697320746865207a65726f206160448201526564647265737360d01b6064820152fd5b8280fd5b50503461026c578060031936011261026c5760ff8160209361023e6112fe565b610246611319565b6001600160a01b0391821683526005875283832091168252855220549151911615158152f35b5080fd5b5091903461026c57602036600319011261026c576102b06102ab6102dd943560005260026020526001600160a01b0360406000205416151590565b611c8d565b8181516102bc81611396565b528051916102c983611396565b8252519182916020835260208301906112be565b0390f35b503461021a5760c036600319011261021a576102fb6112fe565b9060243560443560643560ff811681036104b25781421161046f57855190602082017fe48329057bfd03d55e49b547132e39cffd9c1820ad7b9d4c5307691425d15adf81526001600160a01b03938488168985015285606085015260808401526080835260a083019267ffffffffffffffff938181108582111761045c578952519020906103876127b5565b92885192602084019461190160f01b8652602285015260428401526042835260808301908382109082111761044957916103dd96959493916103d5938a5260a4359260843592519020612700565b94909461258e565b83168652600e602052848620908154916001830190550361040657509061040391611448565b51f35b606490602085519162461bcd60e51b8352820152601460248201527f566f7465733a20696e76616c6964206e6f6e63650000000000000000000000006044820152fd5b634e487b7160e01b8a526041875260248afd5b634e487b7160e01b8b526041885260248bfd5b855162461bcd60e51b8152602081860152601860248201527f566f7465733a207369676e6174757265206578706972656400000000000000006044820152606490fd5b8680fd5b503461021a57608036600319011261021a576104d06112fe565b6104d8611319565b906044356064359367ffffffffffffffff85116104b257366023860112156104b25784013592610507846113d4565b92610514875194856113b2565b8484528736602487890101116105615760208661055c9760246104039a01838901378601015261054c6105478433611e14565b611d3b565b610557838383611e82565b612313565b611dad565b80fd5b503461021a578160031936011261021a5761057d6112fe565b6024359081151580920361062f576001600160a01b0316918233146105ec5750338452600560205282842082855260205282842060ff1981541660ff831617905582519081527f17307eab39ab6107e8899845ad3d59bd9653f200f220920489ca2b5937696c3160203392a351f35b606490602085519162461bcd60e51b8352820152601960248201527f4552433732313a20617070726f766520746f2063616c6c6572000000000000006044820152fd5b8480fd5b50503461026c57602036600319011261026c5761066a816020936001600160a01b0361065d6112fe565b168152600c85522061244e565b9051908152f35b5091346105615780600319360112610561578151918160019283549384811c9181861695861561077d575b602096878510811461076a578899509688969785829a5291826000146107435750506001146106e8575b5050506102dd92916106d99103856113b2565b519282849384528301906112be565b91908693508083527fb10e2d527612073b26eecdfd717e6a320cf44b4afac2b0732d9fcbe2b7fa0cf65b82841061072b57505050820101816106d96102dd6106c6565b8054848a018601528895508794909301928101610712565b60ff19168782015293151560051b860190930193508492506106d991506102dd90506106c6565b634e487b7160e01b835260228a52602483fd5b92607f169261069c565b509134610561576020366003190112610561578235924384101561086757600d549382905b85821061080f575050836107d15750602092506001600160e01b0390915b5191168152f35b60001984019384116107fc5750506001600160e01b036107f26020936123c6565b5054831c916107ca565b634e487b7160e01b825260119052602490fd5b9094600190610824818818831c828916611bf3565b918363ffffffff610834856123c6565b5054161115610847575050945b906107ac565b90965081018091111561084157634e487b7160e01b845260118352602484fd5b606490602084519162461bcd60e51b8352820152601a60248201527f566f7465733a20626c6f636b206e6f7420796574206d696e65640000000000006044820152fd5b50503461026c578160031936011261026c576020906001600160a01b03600a54169051908152f35b50503461026c57602036600319011261026c57806020926001600160a01b036108f96112fe565b168152600e845220549051908152f35b50503461026c578160031936011261026c576109236113f0565b816001600160a01b03600a549281198416600a555192167f8be0079c531659141344cd1fd0a4f28419497f9722a3daafe3b4186f6b6457e08284a3f35b50503461026c57602036600319011261026c5760209061066a6109816112fe565b611c16565b50913461056157602036600319011261056157506001600160a01b036109ae60209335611cd9565b915191168152f35b50503461026c57602036600319011261026c576104036109d46112fe565b33611448565b50503461026c57602036600319011261026c57602091816001600160a01b039182610a036112fe565b168152600b85522054169051908152f35b5082346105615760203660031901126105615750803590600854821015610a4f57602083610a4184612379565b91905490519160031b1c8152f35b608490602084519162461bcd60e51b8352820152602c60248201527f455243373231456e756d657261626c653a20676c6f62616c20696e646578206f60448201527f7574206f6620626f756e647300000000000000000000000000000000000000006064820152fd5b503461021a57610ac73661132f565b91845193602085019085821067ffffffffffffffff831117610b0157509161055c93916104039593875287845261054c6105478433611e14565b634e487b7160e01b885260419052602487fd5b5091903461026c5760208060031936011261021a57610b316112fe565b610b396113f0565b600f549060018201600f55835192610b5084611396565b8584526001600160a01b03808316918215610d1b57610b858560005260026020526001600160a01b0360406000205416151590565b610cd957828852600b815281878920541615610cca575b6008548589526009825280888a2055600160401b811015610cb75785610bcb826001610be69401600855612379565b90919082549060031b600019811b9283911b16911916179055565b610bef84611c16565b83895260068252878920818a52825285888a205585895260078252878920558288526003815286882080549060018201809211610ca45792600b610c9f9388878d7fddf252ad1be2c89b69c2b068fc378daa952ba7f163c4a11628f55a4df523b3ef818f6104039f9d9b9961055c9f9d9a5585825260028752808220856001600160a01b031982541617905551a4610c85612480565b50508b80525280898b205416918a52888a205416906118b3565b6121b0565b634e487b7160e01b8a5260118b5260248afd5b634e487b7160e01b895260418a52602489fd5b610cd48480611448565b610b9c565b8860649188519162461bcd60e51b8352820152601c60248201527f4552433732313a20746f6b656e20616c7265616479206d696e746564000000006044820152fd5b888160649289519262461bcd60e51b845283015260248201527f4552433732313a206d696e7420746f20746865207a65726f20616464726573736044820152fd5b503461021a578160031936011261021a57610d756112fe565b6001600160a01b03168352600c602052818320602480359243841015610e505782549386905b858210610df857505083610dc057505050506001600160e01b03602092915191168152f35b60001984019592939192918611610de8575050506107f26020936001600160e01b03926123fd565b634e487b7160e01b825260119052fd5b9094600190610e0d818818831c828916611bf3565b918363ffffffff610e1e858a6123fd565b5054161115610e31575050945b90610d9b565b909650810180911115610e2b57634e487b7160e01b8852601183528388fd5b60206064928187519362461bcd60e51b85528401528201527f436865636b706f696e74733a20626c6f636b206e6f7420796574206d696e65646044820152fd5b50503461026c578160031936011261026c5760209061066a6127b5565b509134610561578160031936011261056157610ec76112fe565b60243590610ed481611c16565b821015610f025760209284926001600160a01b03849316825260068552828220908252845220549051908152f35b835162461bcd60e51b8152602081870152602b60248201527f455243373231456e756d657261626c653a206f776e657220696e646578206f7560448201527f74206f6620626f756e64730000000000000000000000000000000000000000006064820152608490fd5b50503461026c57610403610f7e3661132f565b91610f8c6105478433611e14565b611e82565b50503461026c578160031936011261026c576020906008549051908152f35b503461021a578160031936011261021a57610fc96112fe565b602435916001600160a01b03908180610fe186611cd9565b169316928084146110de578033149081156110bf575b501561105657838652602052838520805473ffffffffffffffffffffffffffffffffffffffff19168317905561102c83611cd9565b169251927f8c5be1e5ebec7d5bd14f71427d1e84f3dd0314c0f7b2291e5b200ac8c7c3b9258585a4f35b608490602086519162461bcd60e51b8352820152603e60248201527f4552433732313a20617070726f76652063616c6c6572206973206e6f7420746f60448201527f6b656e206f776e6572206e6f7220617070726f76656420666f7220616c6c00006064820152fd5b90508652600560205284862033875260205260ff858720541638610ff7565b855162461bcd60e51b8152602081840152602160248201527f4552433732313a20617070726f76616c20746f2063757272656e74206f776e656044820152603960f91b6064820152608490fd5b50913461056157602036600319011261056157506001600160a01b036109ae60209335611cfe565b50913461056157806003193601126105615781519181825492600184811c91818616958615611214575b602096878510811461076a578899509688969785829a5291826000146107435750506001146111b9575050506102dd92916106d99103856113b2565b91908693508280527f290decd9548b62a8d60345a988386fc84ba6bc95484008f6362f93160ef3e5635b8284106111fc57505050820101816106d96102dd6106c6565b8054848a0186015288955087949093019281016111e3565b92607f169261117d565b9250503461021a57602036600319011261021a573563ffffffff60e01b811680910361021a5760209250637487d9fb60e11b8114908115611261575b5015158152f35b63780e9d6360e01b81149150811561127b575b503861125a565b6380ac58cd60e01b8114915081156112ad575b811561129c575b5038611274565b6301ffc9a760e01b14905038611295565b635b5e139f60e01b8114915061128e565b919082519283825260005b8481106112ea575050826000602080949584010152601f8019910116010190565b6020818301810151848301820152016112c9565b600435906001600160a01b038216820361131457565b600080fd5b602435906001600160a01b038216820361131457565b6060906003190112611314576001600160a01b0390600435828116810361131457916024359081168103611314579060443590565b6040810190811067ffffffffffffffff82111761138057604052565b634e487b7160e01b600052604160045260246000fd5b6020810190811067ffffffffffffffff82111761138057604052565b90601f8019910116810190811067ffffffffffffffff82111761138057604052565b67ffffffffffffffff811161138057601f01601f191660200190565b6001600160a01b03600a5416330361140457565b606460405162461bcd60e51b815260206004820152602060248201527f4f776e61626c653a2063616c6c6572206973206e6f7420746865206f776e65726044820152fd5b91906001600160a01b0390818416916000948386526114b4602091600b835260409484868a2054168095878b209216978892836001600160a01b03198254161790557f3134e8a2e6d97e929a7e54011ea5485d7d196dd5f0ba4d4ef95803e8e3fc257f8b8951a4611c16565b9184811415806118aa575b6114cd575b50505050509050565b806116d3575b50836114e0575b806114c4565b838652600c81526114fc838720926114f78461244e565b611bf3565b9082546115088461244e565b9381151580611699575b1561158c57611520846128e0565b98600019830192831161157857509761154d6115659260008051602061294a83398151915298999a6123fd565b509063ffffffff82549181199060201b169116179055565b8351928352820152a280388080806114da565b634e487b7160e01b81526011600452602490fd5b63ffffffff804311611646576115a1856128e0565b928751906115ae82611364565b8243168252858201936001600160e01b038096168552600160401b82101561163257906115e0916001820181556123fd565b9b909b61161e575051915163ffffffff9190921616911660201b63ffffffff1916179096559394929360008051602061294a83398151915293611565565b634e487b7160e01b81526004819052602490fd5b634e487b7160e01b8d52604160045260248dfd5b865162461bcd60e51b815260048101859052602660248201527f53616665436173743a2076616c756520646f65736e27742066697420696e203360448201526532206269747360d01b6064820152608490fd5b5060001982018281116116bf576116b563ffffffff91836123fd565b5054164314611512565b634e487b7160e01b8a52601160045260248afd5b808752600c82528387206116e68161244e565b848103908111611896578154916116fc8161244e565b9280151580611870575b1561176557611714836128e0565b9160001982019182116117515760008051602061294a833981519152949261154d8a9593611741936123fd565b825191825285820152a2386114d3565b634e487b7160e01b8c52601160045260248cfd5b9063ffffffff9081431161181d5761177c846128e0565b9189519361178985611364565b8143168552888501926001600160e01b038095168452600160401b82101561180957906117bb916001820181556123fd565b9490946117f55751915163ffffffff9190921616911660201b63ffffffff191617905560008051602061294a833981519152918691611741565b634e487b7160e01b8e5260048e905260248efd5b634e487b7160e01b8f52604160045260248ffd5b885162461bcd60e51b815260048101889052602660248201527f53616665436173743a2076616c756520646f65736e27742066697420696e203360448201526532206269747360d01b6064820152608490fd5b5060001981018181116117515761188c63ffffffff91846123fd565b5054164314611706565b634e487b7160e01b89526011600452602489fd5b508215156114bf565b6001600160a01b0391821691168082141580611beb575b6118d2575050565b80611a98575b50806118e15750565b6000818152600c60205260408120906118f98261244e565b90600182018092116115785782546119108461244e565b9381151580611a5e575b1561196457611928846128e0565b926000198301928311611578575060008051602061294a833981519152949261154d60409593611957936123fd565b82519182526020820152a2565b63ffffffff804311611a0a57611979856128e0565b926040519061198782611364565b824316825260208201936001600160e01b038096168552600160401b8210156119f657906119ba916001820181556123fd565b95909561161e575051915163ffffffff9190921616911660201b63ffffffff191617905560008051602061294a83398151915291604091611957565b634e487b7160e01b87526041600452602487fd5b60405162461bcd60e51b815260206004820152602660248201527f53616665436173743a2076616c756520646f65736e27742066697420696e203360448201526532206269747360d01b6064820152608490fd5b506000198201828111611a8457611a7a63ffffffff91836123fd565b505416431461191a565b634e487b7160e01b84526011600452602484fd5b6000818152600c60205260408120611aaf8161244e565b6000198082019290918311611a8457805490611aca8161244e565b9482151580611bb3575b15611b1f57611ae2856128e0565b938301928311611578575060008051602061294a833981519152949261154d60409593611b0e936123fd565b82519182526020820152a2386118d8565b925063ffffffff804311611a0a57611b36856128e0565b9260405190611b4482611364565b824316825260208201936001600160e01b038096168552600160401b8210156119f65790611b77916001820181556123fd565b95909561161e575051915163ffffffff9190921616911660201b63ffffffff191617905560008051602061294a83398151915291604091611b0e565b50838301838111611bd757611bcd63ffffffff91846123fd565b5054164314611ad4565b634e487b7160e01b82526011600452602482fd5b5060016118ca565b91908201809211611c0057565b634e487b7160e01b600052601160045260246000fd5b6001600160a01b03168015611c3657600052600360205260406000205490565b60405162461bcd60e51b815260206004820152602960248201527f4552433732313a2061646472657373207a65726f206973206e6f7420612076616044820152683634b21037bbb732b960b91b6064820152608490fd5b15611c9457565b60405162461bcd60e51b815260206004820152601860248201527f4552433732313a20696e76616c696420746f6b656e20494400000000000000006044820152606490fd5b60005260026020526001600160a01b0360406000205416611cfb811515611c8d565b90565b611d216102ab8260005260026020526001600160a01b0360406000205416151590565b60005260046020526001600160a01b036040600020541690565b15611d4257565b60405162461bcd60e51b815260206004820152602e60248201527f4552433732313a2063616c6c6572206973206e6f7420746f6b656e206f776e6560448201527f72206e6f7220617070726f7665640000000000000000000000000000000000006064820152608490fd5b15611db457565b60405162461bcd60e51b815260206004820152603260248201527f4552433732313a207472616e7366657220746f206e6f6e20455243373231526560448201527131b2b4bb32b91034b6b83632b6b2b73a32b960711b6064820152608490fd5b906001600160a01b038080611e2884611cd9565b16931691838314938415611e5b575b508315611e45575b50505090565b611e5191929350611cfe565b1614388080611e3f565b909350600052600560205260406000208260005260205260ff604060002054169238611e37565b929190611e8e82611cd9565b906001600160a01b03928392838716948591160361215d5782821693841561210c57600096858852602092600b845260409486868b205416156120fd575b83159283156120575750600854828b526009865280878c2055600160401b8110156120435782610bcb826001611f059401600855612379565b838803612015575b50808952600484528489206001600160a01b03199081815416905586611f3283611cd9565b1690828b8851937f8c5be1e5ebec7d5bd14f71427d1e84f3dd0314c0f7b2291e5b200ac8c7c3b9258286a4848b5260038652868b2080546000198101919082116120015755888b5260038652868b208054906001820180921161200157957fddf252ad1be2c89b69c2b068fc378daa952ba7f163c4a11628f55a4df523b3ef8d611ff09d9e9997958397958e95600b9b5586835260028a52858d842091825416179055a4611ff2575b835252828282205416938152205416906118b3565b565b611ffa612480565b5050611fdb565b634e487b7160e01b8d52601160045260248dfd5b61201e90611c16565b878a5260068552858a20818b52855281868b2055818a5260078552858a205538611f0d565b634e487b7160e01b8b52604160045260248bfd5b888503612065575b50611f05565b61206e90611c16565b60001981019081116120e957828b5260078652868b20548181036120b0575b50828b528a87812055848b5260068652868b20908b52855289868120553861205f565b858c5260068752878c20828d528752878c8181205491818984935260068b528181208582528b5220558c5260078752878c20553861208d565b634e487b7160e01b8b52601160045260248bfd5b6121078180611448565b611ecc565b60405162461bcd60e51b8152602060048201526024808201527f4552433732313a207472616e7366657220746f20746865207a65726f206164646044820152637265737360e01b6064820152608490fd5b60405162461bcd60e51b815260206004820152602560248201527f4552433732313a207472616e736665722066726f6d20696e636f72726563742060448201526437bbb732b960d91b6064820152608490fd5b9192600092909190803b1561230957612206946040518092630a85bd0160e11b9485835233600484015287602484015260448301526080606483015281876001600160a01b038260209b8c9760848301906112be565b0393165af18491816122c9575b506122b8575050503d6000146122b0573d61222d816113d4565b9061223b60405192836113b2565b81528091833d92013e5b805191826122ad5760405162461bcd60e51b815260206004820152603260248201527f4552433732313a207472616e7366657220746f206e6f6e20455243373231526560448201527131b2b4bb32b91034b6b83632b6b2b73a32b960711b6064820152608490fd5b01fd5b506060612245565b6001600160e01b0319161492509050565b9091508581813d8311612302575b6122e181836113b2565b8101031261062f57516001600160e01b03198116810361062f579038612213565b503d6122d7565b5050915050600190565b9293600093909291803b1561236e579484916122069660405180948193630a85bd0160e11b978884523360048501526001600160a01b0380921660248501526044840152608060648401528260209b8c9760848301906112be565b505050915050600190565b6008548110156123b05760086000527ff3f7a9fe364faab93b216da50a3214154f22a0a2b415b23a84c8169e8b636ee30190600090565b634e487b7160e01b600052603260045260246000fd5b600d548110156123b057600d6000527fd7b6990105719101dabeb77144f2a3385c8033acd3af97e9423a695e81ad1eb50190600090565b80548210156123b05760005260206000200190600090565b600d5460008161242757506000919050565b600019820191821161157857506124456001600160e01b03916123c6565b505460201c1690565b8054906000826124615750600092915050565b600019830192831161157857506001600160e01b0391612445916123fd565b612488612415565b9060018201809211611c0057600d5461249f612415565b9080151580612569575b156124d3576124b7846128e0565b6000198201918211611c005761154d6124cf926123c6565b9190565b63ffffffff804311611a0a576124e8856128e0565b604051926124f584611364565b824316845260208401906001600160e01b038093168252600160401b811015611380578060016125289201600d556123c6565b939093612553579351905163ffffffff9190941616921660201b63ffffffff19169190911790559190565b634e487b7160e01b600052600060045260246000fd5b506000198101818111611c005761258463ffffffff916123c6565b50541643146124a9565b60058110156126ea578061259f5750565b600181036125ec5760405162461bcd60e51b815260206004820152601860248201527f45434453413a20696e76616c6964207369676e617475726500000000000000006044820152606490fd5b600281036126395760405162461bcd60e51b815260206004820152601f60248201527f45434453413a20696e76616c6964207369676e6174757265206c656e677468006044820152606490fd5b600381036126915760405162461bcd60e51b815260206004820152602260248201527f45434453413a20696e76616c6964207369676e6174757265202773272076616c604482015261756560f01b6064820152608490fd5b60041461269a57565b60405162461bcd60e51b815260206004820152602260248201527f45434453413a20696e76616c6964207369676e6174757265202776272076616c604482015261756560f01b6064820152608490fd5b634e487b7160e01b600052602160045260246000fd5b9291907f7fffffffffffffffffffffffffffffff5d576e7357a4501ddfe92f46681b20a083116127a95760ff16601b8114158061279e575b612792579160809493916020936040519384528484015260408301526060820152600093849182805260015afa156127855781516001600160a01b0381161561277f579190565b50600190565b50604051903d90823e3d90fd5b50505050600090600490565b50601c811415612738565b50505050600090600390565b6001600160a01b037f0000000000000000000000000000000000000000000000000000000000000000163014806128b7575b15612810577f000000000000000000000000000000000000000000000000000000000000000090565b60405160208101907f000000000000000000000000000000000000000000000000000000000000000082527f000000000000000000000000000000000000000000000000000000000000000060408201527f000000000000000000000000000000000000000000000000000000000000000060608201524660808201523060a082015260a0815260c0810181811067ffffffffffffffff8211176113805760405251902090565b507f000000000000000000000000000000000000000000000000000000000000000046146127e7565b6001600160e01b03908181116128f4571690565b60405162461bcd60e51b815260206004820152602760248201527f53616665436173743a2076616c756520646f65736e27742066697420696e20326044820152663234206269747360c81b6064820152608490fdfedec2bacdd2f05b59de34da9b523dff8be42e5e38e818c82fdb0bae774387a724a26469706673582212200d0540ac63a565083fdcd599192a4f26eaaccccf399882ec612a24aae325b27d64736f6c63430008100033"
}