{
  "address": "0x172076E0166D1F9Cc711C77Adf8488051744980C",
  "abi": [
    {
      "inputs": [
        {
          "internalType": "contract ISenate",
          "name": "_senate",
          "type": "address"
        }
      ],
      "stateMutability": "nonpayable",
      "type": "constructor"
    },
    {
      "anonymous": false,
      "inputs": [
        {
          "indexed": true,
          "internalType": "address",
          "name": "owner",
          "type": "address"
        },
        {
          "indexed": true,
          "internalType": "address",
          "name": "approved",
          "type": "address"
        },
        {
          "indexed": true,
          "internalType": "uint256",
          "name": "tokenId",
          "type": "uint256"
        }
      ],
      "name": "Approval",
      "type": "event"
    },
    {
      "anonymous": false,
      "inputs": [
        {
          "indexed": true,
          "internalType": "address",
          "name": "owner",
          "type": "address"
        },
        {
          "indexed": true,
          "internalType": "address",
          "name": "operator",
          "type": "address"
        },
        {
          "indexed": false,
          "internalType": "bool",
          "name": "approved",
          "type": "bool"
        }
      ],
      "name": "ApprovalForAll",
      "type": "event"
    },
    {
      "anonymous": false,
      "inputs": [
        {
          "indexed": true,
          "internalType": "address",
          "name": "delegator",
          "type": "address"
        },
        {
          "indexed": true,
          "internalType": "address",
          "name": "fromDelegate",
          "type": "address"
        },
        {
          "indexed": true,
          "internalType": "address",
          "name": "toDelegate",
          "type": "address"
        }
      ],
      "name": "DelegateChanged",
      "type": "event"
    },
    {
      "anonymous": false,
      "inputs": [
        {
          "indexed": true,
          "internalType": "address",
          "name": "delegate",
          "type": "address"
        },
        {
          "indexed": false,
          "internalType": "uint256",
          "name": "previousBalance",
          "type": "uint256"
        },
        {
          "indexed": false,
          "internalType": "uint256",
          "name": "newBalance",
          "type": "uint256"
        }
      ],
      "name": "DelegateVotesChanged",
      "type": "event"
    },
    {
      "anonymous": false,
      "inputs": [
        {
          "indexed": true,
          "internalType": "address",
          "name": "previousOwner",
          "type": "address"
        },
        {
          "indexed": true,
          "internalType": "address",
          "name": "newOwner",
          "type": "address"
        }
      ],
      "name": "OwnershipTransferred",
      "type": "event"
    },
    {
      "anonymous": false,
      "inputs": [
        {
          "indexed": false,
          "internalType": "address",
          "name": "account",
          "type": "address"
        }
      ],
      "name": "Paused",
      "type": "event"
    },
    {
      "anonymous": false,
      "inputs": [
        {
          "indexed": true,
          "internalType": "address",
          "name": "from",
          "type": "address"
        },
        {
          "indexed": true,
          "internalType": "address",
          "name": "to",
          "type": "address"
        },
        {
          "indexed": true,
          "internalType": "uint256",
          "name": "tokenId",
          "type": "uint256"
        }
      ],
      "name": "Transfer",
      "type": "event"
    },
    {
      "anonymous": false,
      "inputs": [
        {
          "indexed": false,
          "internalType": "address",
          "name": "account",
          "type": "address"
        }
      ],
      "name": "Unpaused",
      "type": "event"
    },
    {
      "inputs": [],
      "name": "DOMAIN_SEPARATOR",
      "outputs": [
        {
          "internalType": "bytes32",
          "name": "",
          "type": "bytes32"
        }
      ],
      "stateMutability": "view",
      "type": "function"
    },
    {
      "inputs": [
        {
          "internalType": "address",
          "name": "to",
          "type": "address"
        },
        {
          "internalType": "uint256",
          "name": "tokenId",
          "type": "uint256"
        }
      ],
      "name": "approve",
      "outputs": [],
      "stateMutability": "nonpayable",
      "type": "function"
    },
    {
      "inputs": [
        {
          "internalType": "address",
          "name": "owner",
          "type": "address"
        }
      ],
      "name": "balanceOf",
      "outputs": [
        {
          "internalType": "uint256",
          "name": "",
          "type": "uint256"
        }
      ],
      "stateMutability": "view",
      "type": "function"
    },
    {
      "inputs": [
        {
          "internalType": "address",
          "name": "delegatee",
          "type": "address"
        }
      ],
      "name": "delegate",
      "outputs": [],
      "stateMutability": "nonpayable",
      "type": "function"
    },
    {
      "inputs": [
        {
          "internalType": "address",
          "name": "delegatee",
          "type": "address"
        },
        {
          "internalType": "uint256",
          "name": "nonce",
          "type": "uint256"
        },
        {
          "internalType": "uint256",
          "name": "expiry",
          "type": "uint256"
        },
        {
          "internalType": "uint8",
          "name": "v",
          "type": "uint8"
        },
        {
          "internalType": "bytes32",
          "name": "r",
          "type": "bytes32"
        },
        {
          "internalType": "bytes32",
          "name": "s",
          "type": "bytes32"
        }
      ],
      "name": "delegateBySig",
      "outputs": [],
      "stateMutability": "nonpayable",
      "type": "function"
    },
    {
      "inputs": [
        {
          "internalType": "address",
          "name": "account",
          "type": "address"
        }
      ],
      "name": "delegates",
      "outputs": [
        {
          "internalType": "address",
          "name": "",
          "type": "address"
        }
      ],
      "stateMutability": "view",
      "type": "function"
    },
    {
      "inputs": [
        {
          "internalType": "uint256",
          "name": "tokenId",
          "type": "uint256"
        }
      ],
      "name": "getApproved",
      "outputs": [
        {
          "internalType": "address",
          "name": "",
          "type": "address"
        }
      ],
      "stateMutability": "view",
      "type": "function"
    },
    {
      "inputs": [
        {
          "internalType": "uint256",
          "name": "blockNumber",
          "type": "uint256"
        }
      ],
      "name": "getPastTotalSupply",
      "outputs": [
        {
          "internalType": "uint256",
          "name": "",
          "type": "uint256"
        }
      ],
      "stateMutability": "view",
      "type": "function"
    },
    {
      "inputs": [
        {
          "internalType": "address",
          "name": "account",
          "type": "address"
        },
        {
          "internalType": "uint256",
          "name": "blockNumber",
          "type": "uint256"
        }
      ],
      "name": "getPastVotes",
      "outputs": [
        {
          "internalType": "uint256",
          "name": "",
          "type": "uint256"
        }
      ],
      "stateMutability": "view",
      "type": "function"
    },
    {
      "inputs": [],
      "name": "getSenateAddress",
      "outputs": [
        {
          "internalType": "address",
          "name": "",
          "type": "address"
        }
      ],
      "stateMutability": "view",
      "type": "function"
    },
    {
      "inputs": [
        {
          "internalType": "address",
          "name": "account",
          "type": "address"
        }
      ],
      "name": "getVotes",
      "outputs": [
        {
          "internalType": "uint256",
          "name": "",
          "type": "uint256"
        }
      ],
      "stateMutability": "view",
      "type": "function"
    },
    {
      "inputs": [
        {
          "internalType": "address",
          "name": "owner",
          "type": "address"
        },
        {
          "internalType": "address",
          "name": "operator",
          "type": "address"
        }
      ],
      "name": "isApprovedForAll",
      "outputs": [
        {
          "internalType": "bool",
          "name": "",
          "type": "bool"
        }
      ],
      "stateMutability": "view",
      "type": "function"
    },
    {
      "inputs": [],
      "name": "name",
      "outputs": [
        {
          "internalType": "string",
          "name": "",
          "type": "string"
        }
      ],
      "stateMutability": "view",
      "type": "function"
    },
    {
      "inputs": [
        {
          "internalType": "address",
          "name": "owner",
          "type": "address"
        }
      ],
      "name": "nonces",
      "outputs": [
        {
          "internalType": "uint256",
          "name": "",
          "type": "uint256"
        }
      ],
      "stateMutability": "view",
      "type": "function"
    },
    {
      "inputs": [],
      "name": "owner",
      "outputs": [
        {
          "internalType": "address",
          "name": "",
          "type": "address"
        }
      ],
      "stateMutability": "view",
      "type": "function"
    },
    {
      "inputs": [
        {
          "internalType": "uint256",
          "name": "tokenId",
          "type": "uint256"
        }
      ],
      "name": "ownerOf",
      "outputs": [
        {
          "internalType": "address",
          "name": "",
          "type": "address"
        }
      ],
      "stateMutability": "view",
      "type": "function"
    },
    {
      "inputs": [],
      "name": "pause",
      "outputs": [],
      "stateMutability": "nonpayable",
      "type": "function"
    },
    {
      "inputs": [],
      "name": "paused",
      "outputs": [
        {
          "internalType": "bool",
          "name": "",
          "type": "bool"
        }
      ],
      "stateMutability": "view",
      "type": "function"
    },
    {
      "inputs": [],
      "name": "renounceOwnership",
      "outputs": [],
      "stateMutability": "nonpayable",
      "type": "function"
    },
    {
      "inputs": [
        {
          "internalType": "address",
          "name": "to",
          "type": "address"
        }
      ],
      "name": "safeMint",
      "outputs": [],
      "stateMutability": "nonpayable",
      "type": "function"
    },
    {
      "inputs": [
        {
          "internalType": "address",
          "name": "from",
          "type": "address"
        },
        {
          "internalType": "address",
          "name": "to",
          "type": "address"
        },
        {
          "internalType": "uint256",
          "name": "tokenId",
          "type": "uint256"
        }
      ],
      "name": "safeTransferFrom",
      "outputs": [],
      "stateMutability": "nonpayable",
      "type": "function"
    },
    {
      "inputs": [
        {
          "internalType": "address",
          "name": "from",
          "type": "address"
        },
        {
          "internalType": "address",
          "name": "to",
          "type": "address"
        },
        {
          "internalType": "uint256",
          "name": "tokenId",
          "type": "uint256"
        },
        {
          "internalType": "bytes",
          "name": "data",
          "type": "bytes"
        }
      ],
      "name": "safeTransferFrom",
      "outputs": [],
      "stateMutability": "nonpayable",
      "type": "function"
    },
    {
      "inputs": [],
      "name": "senate",
      "outputs": [
        {
          "internalType": "contract ISenate",
          "name": "",
          "type": "address"
        }
      ],
      "stateMutability": "view",
      "type": "function"
    },
    {
      "inputs": [
        {
          "internalType": "address",
          "name": "operator",
          "type": "address"
        },
        {
          "internalType": "bool",
          "name": "approved",
          "type": "bool"
        }
      ],
      "name": "setApprovalForAll",
      "outputs": [],
      "stateMutability": "nonpayable",
      "type": "function"
    },
    {
      "inputs": [
        {
          "internalType": "bytes4",
          "name": "interfaceId",
          "type": "bytes4"
        }
      ],
      "name": "supportsInterface",
      "outputs": [
        {
          "internalType": "bool",
          "name": "",
          "type": "bool"
        }
      ],
      "stateMutability": "view",
      "type": "function"
    },
    {
      "inputs": [],
      "name": "symbol",
      "outputs": [
        {
          "internalType": "string",
          "name": "",
          "type": "string"
        }
      ],
      "stateMutability": "view",
      "type": "function"
    },
    {
      "inputs": [
        {
          "internalType": "uint256",
          "name": "index",
          "type": "uint256"
        }
      ],
      "name": "tokenByIndex",
      "outputs": [
        {
          "internalType": "uint256",
          "name": "",
          "type": "uint256"
        }
      ],
      "stateMutability": "view",
      "type": "function"
    },
    {
      "inputs": [
        {
          "internalType": "address",
          "name": "owner",
          "type": "address"
        },
        {
          "internalType": "uint256",
          "name": "index",
          "type": "uint256"
        }
      ],
      "name": "tokenOfOwnerByIndex",
      "outputs": [
        {
          "internalType": "uint256",
          "name": "",
          "type": "uint256"
        }
      ],
      "stateMutability": "view",
      "type": "function"
    },
    {
      "inputs": [
        {
          "internalType": "uint256",
          "name": "tokenId",
          "type": "uint256"
        }
      ],
      "name": "tokenURI",
      "outputs": [
        {
          "internalType": "string",
          "name": "",
          "type": "string"
        }
      ],
      "stateMutability": "view",
      "type": "function"
    },
    {
      "inputs": [],
      "name": "totalSupply",
      "outputs": [
        {
          "internalType": "uint256",
          "name": "",
          "type": "uint256"
        }
      ],
      "stateMutability": "view",
      "type": "function"
    },
    {
      "inputs": [
        {
          "internalType": "address",
          "name": "from",
          "type": "address"
        },
        {
          "internalType": "address",
          "name": "to",
          "type": "address"
        },
        {
          "internalType": "uint256",
          "name": "tokenId",
          "type": "uint256"
        }
      ],
      "name": "transferFrom",
      "outputs": [],
      "stateMutability": "nonpayable",
      "type": "function"
    },
    {
      "inputs": [
        {
          "internalType": "address",
          "name": "newOwner",
          "type": "address"
        }
      ],
      "name": "transferOwnership",
      "outputs": [],
      "stateMutability": "nonpayable",
      "type": "function"
    },
    {
      "inputs": [],
      "name": "unpause",
      "outputs": [],
      "stateMutability": "nonpayable",
      "type": "function"
    }
  ],
  "numDeployments": 8,
  "bytecode": "0x61014034620004f157601f620037f038819003918201601f19168301916001600160401b03831184841017620002ec57808492602094604052833981010312620004f157516001600160a01b0381168103620004f157604051906200006482620004f6565b60068252652a37b5b2b71b60d11b918260208201526040516200008781620004f6565b60018152603160f81b602082015260405193620000a485620004f6565b60068552602085015260405193620000bc85620004f6565b60038552622a259b60e91b60208601528051906001600160401b038211620002ec5760005490600182811c92168015620004e6575b6020831014620003e15781601f84931162000486575b50602090601f83116001146200040e5760009262000402575b50508160011b916000199060031b1c1916176000555b83516001600160401b038111620002ec57600154600181811c91168015620003f7575b6020821014620003e157601f81116200037b575b50602094601f82116001146200030e5794819293949560009262000302575b50508160011b916000199060031b1c1916176001555b600a80546001600160a81b0319811633600881811b610100600160a81b031692909217909355604051949291901c6001600160a01b03167f8be0079c531659141344cd1fd0a4f28419497f9722a3daafe3b4186f6b6457e0600086a3602081519101209060208151910120928160e052610100938085524660a05260208401907f8b73c3c69bb8fe3d512ecc4cf759cc79239f7b179b0ffacaa9a75d522b39400f93848352604086015260608501524660808501523060a085015260a0845260c084019380851060018060401b03861117620002ec5760408590525190206080523060c052610120918252600b80546001600160a01b0319166001600160a01b03929092169190911790556132bd928362000513843960805183612457015260a05183612512015260c05183612428015260e051836124a6015251826124cc015251816124830152f35b634e487b7160e01b600052604160045260246000fd5b0151905038806200018c565b601f19821695600160005260206000209160005b888110620003625750836001959697981062000348575b505050811b01600155620001a2565b015160001960f88460031b161c1916905538808062000339565b9192602060018192868501518155019401920162000322565b60016000527fb10e2d527612073b26eecdfd717e6a320cf44b4afac2b0732d9fcbe2b7fa0cf6601f830160051c810160208410620003d9575b601f830160051c82018110620003cc5750506200016d565b60008155600101620003b4565b5080620003b4565b634e487b7160e01b600052602260045260246000fd5b90607f169062000159565b01519050388062000120565b6000808052600080516020620037d08339815191529350601f198516905b8181106200046d575090846001959493921062000453575b505050811b0160005562000136565b015160001960f88460031b161c1916905538808062000444565b929360206001819287860151815501950193016200042c565b60008052909150600080516020620037d0833981519152601f840160051c810160208510620004de575b90849392915b601f830160051c82018110620004ce57505062000107565b60008155859450600101620004b6565b5080620004b0565b91607f1691620000f1565b600080fd5b604081019081106001600160401b03821117620002ec5760405256fe60806040526004361015610013575b600080fd5b60003560e01c806301ffc9a71461029e57806306fdde0314610295578063081812fc1461028c578063095ea7b31461028357806318160ddd1461027a57806323b872dd146102715780632f745c59146102685780633644e5151461025f5780633a46b1a8146102565780633f4ba83a1461024d57806340d097c31461024457806342842e0e1461023b5780634f6ccce714610232578063587cde1e146102295780635c19a95c146102205780635c975abb146102175780636352211e1461020e57806370a0823114610205578063715018a6146101fc5780637ecebe00146101f35780638456cb59146101ea5780638da5cb5b146101e15780638e539e8c146101d857806395d89b41146101cf5780639ab24eb0146101c6578063a22cb465146101bd578063a6e5b8e614610199578063b88d4fde146101b4578063c3cda520146101ab578063c87b56dd146101a2578063e555b2eb14610199578063e985e9c5146101905763f2fde38b1461018857600080fd5b61000e6114bf565b5061000e61145c565b5061000e611126565b5061000e6113ea565b5061000e6112b5565b5061000e61122b565b5061000e611038565b5061000e610fed565b5061000e610f2b565b5061000e610dd7565b5061000e610dac565b5061000e610d51565b5061000e610d16565b5061000e610cb2565b5061000e610c8e565b5061000e610c6f565b5061000e610c4b565b5061000e610c28565b5061000e610bec565b5061000e610b2f565b5061000e610ae7565b5061000e61097d565b5061000e6108df565b5061000e610789565b5061000e610765565b5061000e610695565b5061000e61066b565b5061000e610617565b5061000e610522565b5061000e6104c6565b5061000e6103bb565b5061000e6102b9565b6001600160e01b031981160361000e57565b503461000e57602036600319011261000e5760206004356102d9816102a7565b63ffffffff60e01b16630c5a011d60e01b81149081156102ff575b506040519015158152f35b63780e9d6360e01b811491508115610319575b50386102f4565b6380ac58cd60e01b81149150811561034b575b811561033a575b5038610312565b6301ffc9a760e01b14905038610333565b635b5e139f60e01b8114915061032c565b600091031261000e57565b919082519283825260005b848110610393575050826000602080949584010152601f8019910116010190565b602081830181015184830182015201610372565b9060206103b8928181520190610367565b90565b503461000e576000806003193601126104c357604051908080549060019180831c928082169283156104b9575b60209283861085146104a5578588526020880194908115610484575060011461042c575b6104288761041c818903826111be565b604051918291826103a7565b0390f35b6000805294509192917f290decd9548b62a8d60345a988386fc84ba6bc95484008f6362f93160ef3e5635b838610610473575050509101905061041c82610428388061040c565b805485870152948201948101610457565b60ff191685525050505090151560051b01905061041c82610428388061040c565b634e487b7160e01b82526022600452602482fd5b93607f16936103e8565b80fd5b503461000e57602036600319011261000e5760206104e560043561174b565b6001600160a01b0360405191168152f35b600435906001600160a01b038216820361000e57565b602435906001600160a01b038216820361000e57565b503461000e57604036600319011261000e5761053c6104f6565b602435610548816116b7565b916001600160a01b0380841680918316146105c85761057a9361057591331490811561057c575b506116d9565b611b31565b005b6105c291506105bb906105a333916001600160a01b03166000526005602052604060002090565b906001600160a01b0316600052602052604060002090565b5460ff1690565b3861056f565b60405162461bcd60e51b815260206004820152602160248201527f4552433732313a20617070726f76616c20746f2063757272656e74206f776e656044820152603960f91b6064820152608490fd5b503461000e57600036600319011261000e576020600854604051908152f35b606090600319011261000e576001600160a01b0390600435828116810361000e5791602435908116810361000e579060443590565b503461000e5761057a61067d36610636565b9161069061068b843361188a565b611788565b6119ac565b503461000e57604036600319011261000e576106af6104f6565b602435906106bc816115f4565b8210156106fa576001600160a01b03166000526006602052604060002090600052602052610428604060002054604051918291829190602083019252565b60405162461bcd60e51b815260206004820152602b60248201527f455243373231456e756d657261626c653a206f776e657220696e646578206f7560448201527f74206f6620626f756e64730000000000000000000000000000000000000000006064820152608490fd5b503461000e57600036600319011261000e57602061078161241e565b604051908152f35b503461000e57604036600319011261000e576107a36104f6565b6001600160a01b036024359116600052600d6020526040600020904381101561089b576107d26107e9916120a9565b8254906000908260058111610832575b5084611ef2565b9081610807575050602060005b6001600160e01b0360405191168152f35b61082661082d9161081960209461197a565b9060005260206000200190565b5460201c90565b6107f6565b8061084261084892959395611f70565b90611991565b9061087361086a610860848960005260206000200190565b5463ffffffff1690565b63ffffffff1690565b63ffffffff851610156108895750915b386107e2565b9291506108959061199e565b90610883565b606460405162461bcd60e51b815260206004820152602060248201527f436865636b706f696e74733a20626c6f636b206e6f7420796574206d696e65646044820152fd5b503461000e57600036600319011261000e576108f9611599565b600a5460ff8116156109385760ff1916600a557f5db9ee0a495bf2e6ff9c91a7834c1ba4fdd244a5e8aa4e537bd38aeae4b073aa6020604051338152a1005b60405162461bcd60e51b815260206004820152601460248201527f5061757361626c653a206e6f74207061757365640000000000000000000000006044820152606490fd5b503461000e57602036600319011261000e576109976104f6565b61099f611599565b604254600181016042556040516109b581611186565b600081526001600160a01b038316918215610aa35761057a9381610a9e94610a026109fd6109f98460005260026020526001600160a01b0360406000205416151590565b1590565b612dfd565b610a0c8284612e49565b610a29836001600160a01b03166000526003602052604060002090565b610a33815461199e565b9055610a6883610a4d846000526002602052604060002090565b906001600160a01b03166001600160a01b0319825416179055565b60007fddf252ad1be2c89b69c2b068fc378daa952ba7f163c4a11628f55a4df523b3ef81604051a4610a99816131bb565b611c44565b611823565b606460405162461bcd60e51b815260206004820152602060248201527f4552433732313a206d696e7420746f20746865207a65726f20616464726573736044820152fd5b503461000e5761057a610af936610636565b90604051926020840184811067ffffffffffffffff821117610b22575b604052600084526117fa565b610b2a61114e565b610b16565b503461000e57602036600319011261000e57600435600854811015610b815760086000527ff3f7a9fe364faab93b216da50a3214154f22a0a2b415b23a84c8169e8b636ee30154604051908152602090f35b60405162461bcd60e51b815260206004820152602c60248201527f455243373231456e756d657261626c653a20676c6f62616c20696e646578206f60448201527f7574206f6620626f756e647300000000000000000000000000000000000000006064820152608490fd5b503461000e57602036600319011261000e5760206001600160a01b0380610c116104f6565b16600052600c825260406000205416604051908152f35b503461000e57602036600319011261000e5761057a610c456104f6565b33612538565b503461000e57600036600319011261000e57602060ff600a54166040519015158152f35b503461000e57602036600319011261000e5760206104e56004356116b7565b503461000e57602036600319011261000e576020610781610cad6104f6565b6115f4565b503461000e576000806003193601126104c357610ccd611599565b600a54610100600160a81b03198116600a55816001600160a01b036040519260081c167f8be0079c531659141344cd1fd0a4f28419497f9722a3daafe3b4186f6b6457e08284a3f35b503461000e57602036600319011261000e576001600160a01b03610d386104f6565b16600052600f6020526020604060002054604051908152f35b503461000e57600036600319011261000e57610d6b611599565b610d73612dac565b600160ff19600a541617600a557f62e78cea01bee320cd4e420270b5ea74000d11b0c9f74754ebdbfc544b05a2586020604051338152a1005b503461000e57600036600319011261000e5760206001600160a01b03600a5460081c16604051908152f35b503461000e57602036600319011261000e5760043543811015610ee657610e00610e17916120a9565b600e54906000908260058111610e7a575b50611e5a565b80610e3457506001600160e01b0360005b60405191168152602090f35b610e75610826610e4b6001600160e01b039361197a565b600e6000527fbb7b4a454dc3493923482f07822329ed19e8244eff582cc204f8554c3620c3fd0190565b610e28565b80610842610e8a92959395611f70565b600e60005290610ebe61086a7fbb7b4a454dc3493923482f07822329ed19e8244eff582cc204f8554c3620c3fd8401610860565b63ffffffff85161015610ed45750915b38610e11565b929150610ee09061199e565b90610ece565b60405162461bcd60e51b815260206004820152601a60248201527f566f7465733a20626c6f636b206e6f7420796574206d696e65640000000000006044820152606490fd5b503461000e576000806003193601126104c3576040519080600190815480831c92808216928315610fe3575b60209283861085146104a55785885260208801949081156104845750600114610f8a576104288761041c818903826111be565b600160005294509192917fb10e2d527612073b26eecdfd717e6a320cf44b4afac2b0732d9fcbe2b7fa0cf65b838610610fd2575050509101905061041c82610428388061040c565b805485870152948201948101610fb6565b93607f1693610f57565b503461000e57602036600319011261000e576001600160a01b0361100f6104f6565b16600052600d60205260206001600160e01b0361102f6040600020611e1f565b16604051908152f35b503461000e57604036600319011261000e576110526104f6565b602435801515810361000e576001600160a01b038216918233146110e1578161109e6110af923360005260056020526040600020906001600160a01b0316600052602052604060002090565b9060ff801983541691151516179055565b604051901515815233907f17307eab39ab6107e8899845ad3d59bd9653f200f220920489ca2b5937696c3190602090a3005b60405162461bcd60e51b815260206004820152601960248201527f4552433732313a20617070726f766520746f2063616c6c6572000000000000006044820152606490fd5b503461000e57600036600319011261000e5760206001600160a01b03600b5416604051908152f35b50634e487b7160e01b600052604160045260246000fd5b67ffffffffffffffff811161117957604052565b61118161114e565b604052565b6020810190811067ffffffffffffffff82111761117957604052565b60c0810190811067ffffffffffffffff82111761117957604052565b90601f8019910116810190811067ffffffffffffffff82111761117957604052565b604051906040820182811067ffffffffffffffff82111761117957604052565b60209067ffffffffffffffff811161121e575b601f01601f19160190565b61122661114e565b611213565b503461000e57608036600319011261000e576112456104f6565b61124d61050c565b6064359167ffffffffffffffff831161000e573660238401121561000e5782600401359161127a83611200565b9261128860405194856111be565b808452366024828701011161000e57602081600092602461057a98018388013785010152604435916117fa565b503461000e5760c036600319011261000e576112cf6104f6565b6064359060243560443560ff8416840361000e578042116113a5576113736113a09161057a956040519061135b8261134d6020820195898b886060919493926001600160a01b0360808301967fe48329057bfd03d55e49b547132e39cffd9c1820ad7b9d4c5307691425d15adf845216602083015260408201520152565b03601f1981018452836111be565b61136e60a43593608435935190206123c8565b61215a565b9161139a836001600160a01b0316600052600f602052604060002090815491600183019055565b1461210e565b612538565b60405162461bcd60e51b815260206004820152601860248201527f566f7465733a207369676e6174757265206578706972656400000000000000006044820152606490fd5b503461000e57602036600319011261000e5761142661142160043560005260026020526001600160a01b0360406000205416151590565b61166b565b600060405161143481611186565b5261042860405161144481611186565b60008152604051918291602083526020830190610367565b503461000e57604036600319011261000e57602060ff6114b361147d6104f6565b6001600160a01b0361148d61050c565b9116600052600584526040600020906001600160a01b0316600052602052604060002090565b54166040519015158152f35b503461000e57602036600319011261000e576114d96104f6565b6114e1611599565b6001600160a01b0390818116801561154557600092610100600160a81b03600a549360081b16610100600160a81b0319841617600a556040519260081c167f8be0079c531659141344cd1fd0a4f28419497f9722a3daafe3b4186f6b6457e08484a3f35b60405162461bcd60e51b815260206004820152602660248201527f4f776e61626c653a206e6577206f776e657220697320746865207a65726f206160448201526564647265737360d01b6064820152608490fd5b6001600160a01b03600a5460081c1633036115b057565b606460405162461bcd60e51b815260206004820152602060248201527f4f776e61626c653a2063616c6c6572206973206e6f7420746865206f776e65726044820152fd5b6001600160a01b0316801561161457600052600360205260406000205490565b60405162461bcd60e51b815260206004820152602960248201527f4552433732313a2061646472657373207a65726f206973206e6f7420612076616044820152683634b21037bbb732b960b91b6064820152608490fd5b1561167257565b60405162461bcd60e51b815260206004820152601860248201527f4552433732313a20696e76616c696420746f6b656e20494400000000000000006044820152606490fd5b60005260026020526001600160a01b03604060002054166103b881151561166b565b156116e057565b60405162461bcd60e51b815260206004820152603e60248201527f4552433732313a20617070726f76652063616c6c6572206973206e6f7420746f60448201527f6b656e206f776e6572206e6f7220617070726f76656420666f7220616c6c00006064820152608490fd5b61176e6114218260005260026020526001600160a01b0360406000205416151590565b60005260046020526001600160a01b036040600020541690565b1561178f57565b60405162461bcd60e51b815260206004820152602e60248201527f4552433732313a2063616c6c6572206973206e6f7420746f6b656e206f776e6560448201527f72206e6f7220617070726f7665640000000000000000000000000000000000006064820152608490fd5b916118219391610a9e9361181161068b843361188a565b61181c8383836119ac565b611d4c565b565b1561182a57565b60405162461bcd60e51b815260206004820152603260248201527f4552433732313a207472616e7366657220746f206e6f6e20455243373231526560448201527131b2b4bb32b91034b6b83632b6b2b73a32b960711b6064820152608490fd5b6001600160a01b038061189c846116b7565b1692818316928484149485156118d2575b505083156118bc575b50505090565b6118c89192935061174b565b16143880806118b6565b60ff929550906119019160005260056020526040600020906001600160a01b0316600052602052604060002090565b54169238806118ad565b1561191257565b60405162461bcd60e51b8152602060048201526024808201527f4552433732313a207472616e7366657220746f20746865207a65726f206164646044820152637265737360e01b6064820152608490fd5b50634e487b7160e01b600052601160045260246000fd5b60001981019190821161198957565b611821611963565b9190820391821161198957565b906001820180921161198957565b6119b5836116b7565b926001600160a01b0380948184169182911603611a8857611821948416906119de82151561190b565b6119e9838686612ea3565b6119f283611adb565b611a0f846001600160a01b03166000526003602052604060002090565b611a19815461197a565b9055611a38856001600160a01b03166000526003602052604060002090565b611a42815461199e565b9055611a5c85610a4d856000526002602052604060002090565b7fddf252ad1be2c89b69c2b068fc378daa952ba7f163c4a11628f55a4df523b3ef6000604051a4613226565b60405162461bcd60e51b815260206004820152602560248201527f4552433732313a207472616e736665722066726f6d20696e636f72726563742060448201526437bbb732b960d91b6064820152608490fd5b600081815260046020526040812080546001600160a01b03191690556001600160a01b03611b08836116b7565b167f8c5be1e5ebec7d5bd14f71427d1e84f3dd0314c0f7b2291e5b200ac8c7c3b92582604051a4565b600082815260046020526040902080546001600160a01b0319166001600160a01b0383161790556001600160a01b0380611b6a846116b7565b169116907f8c5be1e5ebec7d5bd14f71427d1e84f3dd0314c0f7b2291e5b200ac8c7c3b9256000604051a4565b9081602091031261000e57516103b8816102a7565b6103b893926001600160a01b036080931682526000602083015260408201528160608201520190610367565b90926103b894936080936001600160a01b03809216845216602083015260408201528160608201520190610367565b506040513d6000823e3d90fd5b3d15611c3f573d90611c2582611200565b91611c3360405193846111be565b82523d6000602084013e565b606090565b909190803b15611d4457611c7e6020916001600160a01b03936000604051958680958194630a85bd0160e11b9a8b84523360048501611bac565b0393165af160009181611d14575b50611d0657611c99611c14565b80519081611d015760405162461bcd60e51b815260206004820152603260248201527f4552433732313a207472616e7366657220746f206e6f6e20455243373231526560448201527131b2b4bb32b91034b6b83632b6b2b73a32b960711b6064820152608490fd5b602001fd5b6001600160e01b0319161490565b611d3691925060203d8111611d3d575b611d2e81836111be565b810190611b97565b9038611c8c565b503d611d24565b505050600190565b92909190823b15611d8757611c7e9260209260006001600160a01b03604051809781968295630a85bd0160e11b9b8c85523360048601611bd8565b50505050600190565b50634e487b7160e01b600052603260045260246000fd5b8115611db1570490565b634e487b7160e01b600052601260045260246000fd5b600e5460009080611dd9575050600090565b600e7fbb7b4a454dc3493923482f07822329ed19e8244eff582cc204f8554c3620c3fc9282600019810111611e12575b52015460201c90565b611e1a611963565b611e09565b8054600081611e3057505050600090565b602090600019938385810111611e4d575b81522001015460201c90565b611e55611963565b611e41565b905b828110611e6857505090565b9091808216906001818418811c8301809311611ee5575b600e60005263ffffffff80847fbb7b4a454dc3493923482f07822329ed19e8244eff582cc204f8554c3620c3fd01541690861610600014611ec4575050915b90611e5c565b909392508101809111611ed8575b90611ebe565b611ee0611963565b611ed2565b611eed611963565b611e7f565b91905b838210611f025750505090565b909192808316906001818518811c8301809311611f63575b60008681526020902083015463ffffffff9081169085161015611f42575050925b9190611ef5565b909493508101809111611f56575b91611f3b565b611f5e611963565b611f50565b611f6b611963565b611f1a565b8015612091576103b89061203361202c61202261201861200e612004611ffa611ff06001898a60801c80612082575b508060401c80612075575b508060201c80612068575b508060101c8061205b575b508060081c8061204e575b508060041c80612041575b5060021c612039575b611fe9818b611da7565b0160011c90565b611fe9818a611da7565b611fe98189611da7565b611fe98188611da7565b611fe98187611da7565b611fe98186611da7565b611fe98185611da7565b8092611da7565b90612097565b60011b611fdf565b90509060021b9038611fd6565b90509060041b9038611fcb565b90509060081b9038611fc0565b90509060101b9038611fb5565b90509060201b9038611faa565b915050600160401b9038611f9f565b50600090565b90808210156120a4575090565b905090565b63ffffffff908181116120ba571690565b60405162461bcd60e51b815260206004820152602660248201527f53616665436173743a2076616c756520646f65736e27742066697420696e203360448201526532206269747360d01b6064820152608490fd5b1561211557565b60405162461bcd60e51b815260206004820152601460248201527f566f7465733a20696e76616c6964206e6f6e63650000000000000000000000006044820152606490fd5b916103b8939161216993612312565b919091612191565b6005111561217b57565b634e487b7160e01b600052602160045260246000fd5b61219a81612171565b806121a25750565b6121ab81612171565b600181036121f85760405162461bcd60e51b815260206004820152601860248201527f45434453413a20696e76616c6964207369676e617475726500000000000000006044820152606490fd5b61220181612171565b6002810361224e5760405162461bcd60e51b815260206004820152601f60248201527f45434453413a20696e76616c6964207369676e6174757265206c656e677468006044820152606490fd5b61225781612171565b600381036122af5760405162461bcd60e51b815260206004820152602260248201527f45434453413a20696e76616c6964207369676e6174757265202773272076616c604482015261756560f01b6064820152608490fd5b806122bb600492612171565b146122c257565b60405162461bcd60e51b815260206004820152602260248201527f45434453413a20696e76616c6964207369676e6174757265202776272076616c604482015261756560f01b6064820152608490fd5b9291907f7fffffffffffffffffffffffffffffff5d576e7357a4501ddfe92f46681b20a083116123bc5760ff16601b811415806123b1575b6123a5579160809493916020936040519384528484015260408301526060820152600093849182805260015afa15612398575b81516001600160a01b03811615612392579190565b50600190565b6123a0611c07565b61237d565b50505050600090600490565b50601c81141561234a565b50505050600090600390565b6123d061241e565b9060405190602082019261190160f01b845260228301526042820152604281526080810181811067ffffffffffffffff821117612411575b60405251902090565b61241961114e565b612408565b6001600160a01b037f00000000000000000000000000000000000000000000000000000000000000001630148061250f575b15612479577f000000000000000000000000000000000000000000000000000000000000000090565b60405160208101907f000000000000000000000000000000000000000000000000000000000000000082527f000000000000000000000000000000000000000000000000000000000000000060408201527f000000000000000000000000000000000000000000000000000000000000000060608201524660808201523060a082015260a08152612509816111a2565b51902090565b507f00000000000000000000000000000000000000000000000000000000000000004614612450565b6001600160a01b038082166000818152600c602052604080822080546001600160a01b0319811686891617909155841696959194879491936125a39284169586917f3134e8a2e6d97e929a7e54011ea5485d7d196dd5f0ba4d4ef95803e8e3fc257f898851a46115f4565b928087141580612721575b6125bc575b50505050509050565b866126c6575b8061266b575b506125ea6125de600b546001600160a01b031690565b6001600160a01b031690565b91823b156126675751630d207a0f60e01b81526001600160a01b0396871660048201529516602486015260448501919091529192918290606490829084905af1801561265a575b612641575b8080808085946125b3565b8061264e61265492611165565b8061035c565b38612636565b612662611c07565b612631565b8480fd5b7fdec2bacdd2f05b59de34da9b523dff8be42e5e38e818c82fdb0bae774387a7246126b2856126ad856001600160a01b0316600052600d602052604060002090565b6129a3565b85519182526020820152604090a2386125c8565b867fdec2bacdd2f05b59de34da9b523dff8be42e5e38e818c82fdb0bae774387a72461270e86612709846001600160a01b0316600052600d602052604060002090565b612952565b86519182526020820152604090a26125c2565b508315156125ae565b6001600160a01b0380831690821681811415806128a0575b61274d575b50505050565b80612843575b50806127e6575b506127706125de600b546001600160a01b031690565b91823b1561000e57604051630d207a0f60e01b81526001600160a01b0392831660048201529116602482015260016044820152906000908290606490829084905af180156127d9575b6127c6575b808080612747565b8061264e6127d392611165565b386127be565b6127e1611c07565b6127b9565b7fdec2bacdd2f05b59de34da9b523dff8be42e5e38e818c82fdb0bae774387a72461282c612827856001600160a01b0316600052600d602052604060002090565b61297a565b60408051928352602083019190915290a23861275a565b7fdec2bacdd2f05b59de34da9b523dff8be42e5e38e818c82fdb0bae774387a724612889612884856001600160a01b0316600052600d602052604060002090565b6128a8565b60408051928352602083019190915290a238612753565b506001612742565b906001600160e01b0391826128bc82611e1f565b166000198101908111612945575b6128d3436120a9565b918482116128f0578492836128e9931691612cd3565b9316921690565b60405162461bcd60e51b815260206004820152602760248201527f53616665436173743a2076616c756520646f65736e27742066697420696e20326044820152663234206269747360c81b6064820152608490fd5b61294d611963565b6128ca565b6001600160e01b0392918361296683611e1f565b16908103908111612945576128d3436120a9565b906001600160e01b03918261298e82611e1f565b1660018101809111612945576128d3436120a9565b6001600160e01b039291836129b783611e1f565b16908101809111612945576128d3436120a9565b6001600160e01b0390816129dd611dc7565b1660018101809111612a09575b6129f3436120a9565b908381116128f0578391826128e9921690612bd6565b612a11611963565b6129ea565b6001600160e01b039081612a28611dc7565b166000198101908111612a09576129f3436120a9565b611821906001600160e01b036020600e54600160401b811015612ac5575b6001810180600e55811015612ab8575b600e600052835191909301519190911660201b63ffffffff191663ffffffff91909116177fbb7b4a454dc3493923482f07822329ed19e8244eff582cc204f8554c3620c3fd9190910155565b612ac0611d90565b612a6c565b612acd61114e565b612a5c565b906001600160e01b03602061182193805490600160401b821015612b3c575b60018201808255821015612b2f575b6000908152829020845194909201519290921660201b63ffffffff191663ffffffff9390931692909217910155565b612b37611d90565b612b00565b612b4461114e565b612af1565b906040516040810181811067ffffffffffffffff821117612b7d575b604052602081935463ffffffff81168352811c910152565b612b8561114e565b612b65565b15612b9157565b60405162461bcd60e51b815260206004820152601760248201527f436865636b706f696e743a20696e76616c6964206b65790000000000000000006044820152606490fd5b600e549192918015612ca957612c6f918185612bfe612bf9610e4b60209661197a565b612b49565b92612c0d845163ffffffff1690565b612c2463ffffffff91828416928391161115612b8a565b612c3561086a865163ffffffff1690565b03612c735750612c4a610e4b612c619361197a565b9063ffffffff82549181199060201b169116179055565b01516001600160e01b031690565b9190565b9050612ca49150612c91612c856111e0565b63ffffffff9092168252565b6001600160e01b03871681850152612a3e565b612c61565b50612ccd90612cb9612c856111e0565b6001600160e01b0384166020820152612a3e565b60009190565b90929192838254801515600014612d8757926020929184612d09612bf9612cfc612c6f9861197a565b8560005260206000200190565b93612d18855163ffffffff1690565b612d2f63ffffffff91828416928391161115612b8a565b612d4061086a875163ffffffff1690565b03612d565750612c6192610819612c4a9261197a565b915050612ca491612d74612d686111e0565b63ffffffff9093168352565b6001600160e01b03881682860152612ad2565b5050612ccd91612d98612d686111e0565b6001600160e01b0385166020830152612ad2565b60ff600a5416612db857565b60405162461bcd60e51b815260206004820152601060248201527f5061757361626c653a20706175736564000000000000000000000000000000006044820152606490fd5b15612e0457565b60405162461bcd60e51b815260206004820152601c60248201527f4552433732313a20746f6b656e20616c7265616479206d696e746564000000006044820152606490fd5b90612e52612dac565b6001600160a01b038083169081600052600c6020526040600020541615612e94575b612e7d82613031565b612e8b5761182191506130a5565b61182191612ff8565b612e9e8380612538565b612e74565b919091612eae612dac565b6001600160a01b0380841690600090828252600c6020528060408320541615612fe9575b83169283612eff575050612ee583613031565b80612ef657505061182191506130a5565b03612e8b575050565b828403612f0e575b5050612ee5565b80612f71612f1e612f80936115f4565b600019810192908311612fdc575b87855260076020526040852054838103612f88575b5084612f57896000526007602052604060002090565b556001600160a01b03166000526006602052604060002090565b90600052602052604060002090565b553880612f07565b878652600660205260408620848752602052612fd5604087205480612fc484612f71876001600160a01b03166000526006602052604060002090565b556000526007602052604060002090565b5538612f41565b612fe4611963565b612f2c565b612ff38680612538565b612ed2565b604090613004816115f4565b926001600160a01b0360009216825260066020528282208483526020528083832055815260076020522055565b60085481600052600960205280604060002055600160401b811015613098575b600181018060085581101561308b575b60086000527ff3f7a9fe364faab93b216da50a3214154f22a0a2b415b23a84c8169e8b636ee30155565b613093611d90565b613061565b6130a061114e565b613051565b6008805460001992908381018181116131ae575b613155600093849281845260096020528460408520549110156131a1575b8684526131447ff3f7a9fe364faab93b216da50a3214154f22a0a2b415b23a84c8169e8b636ee2958681015490831015613194575b88865280837ff3f7a9fe364faab93b216da50a3214154f22a0a2b415b23a84c8169e8b636ee301556000526009602052604060002090565b556000526009602052604060002090565b5582549384156131805784019380851015613173575b838352015555565b61317b611d90565b61316b565b634e487b7160e01b83526031600452602483fd5b61319c611d90565b61310c565b6131a9611d90565b6130d7565b6131b6611963565b6130b9565b611821906131c76129cb565b50506001600160a01b03809116908115613217575b600c6020527f13649b2456f1b42fef0f0040b3aaeabcd21a76a0f3f5defd4f583839455116e85460009283526040909220548116911661272a565b61321f612a16565b50506131dc565b90611821916001600160a01b0380809216928315613278575b16918215613269575b600052600c602052806040600020541691600052604060002054169061272a565b613271612a16565b5050613248565b6132806129cb565b505061323f56fea26469706673582212204d91633f3e513d5d68f72650e815db75c2385041b717188ae2f2326e3bd009ff64736f6c63430008100033290decd9548b62a8d60345a988386fc84ba6bc95484008f6362f93160ef3e563"
}