{
  "address": "0xa82fF9aFd8f496c3d6ac40E2a0F282E47488CFc9",
  "abi": [
    {
      "inputs": [],
      "stateMutability": "nonpayable",
      "type": "constructor"
    },
    {
      "anonymous": false,
      "inputs": [
        {
          "indexed": true,
          "internalType": "address",
          "name": "owner",
          "type": "address"
        },
        {
          "indexed": true,
          "internalType": "address",
          "name": "approved",
          "type": "address"
        },
        {
          "indexed": true,
          "internalType": "uint256",
          "name": "tokenId",
          "type": "uint256"
        }
      ],
      "name": "Approval",
      "type": "event"
    },
    {
      "anonymous": false,
      "inputs": [
        {
          "indexed": true,
          "internalType": "address",
          "name": "owner",
          "type": "address"
        },
        {
          "indexed": true,
          "internalType": "address",
          "name": "operator",
          "type": "address"
        },
        {
          "indexed": false,
          "internalType": "bool",
          "name": "approved",
          "type": "bool"
        }
      ],
      "name": "ApprovalForAll",
      "type": "event"
    },
    {
      "anonymous": false,
      "inputs": [
        {
          "indexed": true,
          "internalType": "address",
          "name": "delegator",
          "type": "address"
        },
        {
          "indexed": true,
          "internalType": "address",
          "name": "fromDelegate",
          "type": "address"
        },
        {
          "indexed": true,
          "internalType": "address",
          "name": "toDelegate",
          "type": "address"
        }
      ],
      "name": "DelegateChanged",
      "type": "event"
    },
    {
      "anonymous": false,
      "inputs": [
        {
          "indexed": true,
          "internalType": "address",
          "name": "delegate",
          "type": "address"
        },
        {
          "indexed": false,
          "internalType": "uint256",
          "name": "previousBalance",
          "type": "uint256"
        },
        {
          "indexed": false,
          "internalType": "uint256",
          "name": "newBalance",
          "type": "uint256"
        }
      ],
      "name": "DelegateVotesChanged",
      "type": "event"
    },
    {
      "anonymous": false,
      "inputs": [
        {
          "indexed": false,
          "internalType": "uint8",
          "name": "version",
          "type": "uint8"
        }
      ],
      "name": "Initialized",
      "type": "event"
    },
    {
      "anonymous": false,
      "inputs": [
        {
          "indexed": true,
          "internalType": "address",
          "name": "previousOwner",
          "type": "address"
        },
        {
          "indexed": true,
          "internalType": "address",
          "name": "newOwner",
          "type": "address"
        }
      ],
      "name": "OwnershipTransferred",
      "type": "event"
    },
    {
      "anonymous": false,
      "inputs": [
        {
          "indexed": false,
          "internalType": "address",
          "name": "account",
          "type": "address"
        }
      ],
      "name": "Paused",
      "type": "event"
    },
    {
      "anonymous": false,
      "inputs": [
        {
          "indexed": true,
          "internalType": "address",
          "name": "from",
          "type": "address"
        },
        {
          "indexed": true,
          "internalType": "address",
          "name": "to",
          "type": "address"
        },
        {
          "indexed": true,
          "internalType": "uint256",
          "name": "tokenId",
          "type": "uint256"
        }
      ],
      "name": "Transfer",
      "type": "event"
    },
    {
      "anonymous": false,
      "inputs": [
        {
          "indexed": false,
          "internalType": "address",
          "name": "account",
          "type": "address"
        }
      ],
      "name": "Unpaused",
      "type": "event"
    },
    {
      "inputs": [],
      "name": "DOMAIN_SEPARATOR",
      "outputs": [
        {
          "internalType": "bytes32",
          "name": "",
          "type": "bytes32"
        }
      ],
      "stateMutability": "view",
      "type": "function"
    },
    {
      "inputs": [
        {
          "internalType": "address",
          "name": "to",
          "type": "address"
        },
        {
          "internalType": "uint256",
          "name": "tokenId",
          "type": "uint256"
        }
      ],
      "name": "approve",
      "outputs": [],
      "stateMutability": "nonpayable",
      "type": "function"
    },
    {
      "inputs": [
        {
          "internalType": "address",
          "name": "owner",
          "type": "address"
        }
      ],
      "name": "balanceOf",
      "outputs": [
        {
          "internalType": "uint256",
          "name": "",
          "type": "uint256"
        }
      ],
      "stateMutability": "view",
      "type": "function"
    },
    {
      "inputs": [
        {
          "internalType": "address",
          "name": "delegatee",
          "type": "address"
        }
      ],
      "name": "delegate",
      "outputs": [],
      "stateMutability": "nonpayable",
      "type": "function"
    },
    {
      "inputs": [
        {
          "internalType": "address",
          "name": "delegatee",
          "type": "address"
        },
        {
          "internalType": "uint256",
          "name": "nonce",
          "type": "uint256"
        },
        {
          "internalType": "uint256",
          "name": "expiry",
          "type": "uint256"
        },
        {
          "internalType": "uint8",
          "name": "v",
          "type": "uint8"
        },
        {
          "internalType": "bytes32",
          "name": "r",
          "type": "bytes32"
        },
        {
          "internalType": "bytes32",
          "name": "s",
          "type": "bytes32"
        }
      ],
      "name": "delegateBySig",
      "outputs": [],
      "stateMutability": "nonpayable",
      "type": "function"
    },
    {
      "inputs": [
        {
          "internalType": "address",
          "name": "account",
          "type": "address"
        }
      ],
      "name": "delegates",
      "outputs": [
        {
          "internalType": "address",
          "name": "",
          "type": "address"
        }
      ],
      "stateMutability": "view",
      "type": "function"
    },
    {
      "inputs": [
        {
          "internalType": "uint256",
          "name": "tokenId",
          "type": "uint256"
        }
      ],
      "name": "getApproved",
      "outputs": [
        {
          "internalType": "address",
          "name": "",
          "type": "address"
        }
      ],
      "stateMutability": "view",
      "type": "function"
    },
    {
      "inputs": [
        {
          "internalType": "uint256",
          "name": "blockNumber",
          "type": "uint256"
        }
      ],
      "name": "getPastTotalSupply",
      "outputs": [
        {
          "internalType": "uint256",
          "name": "",
          "type": "uint256"
        }
      ],
      "stateMutability": "view",
      "type": "function"
    },
    {
      "inputs": [
        {
          "internalType": "address",
          "name": "account",
          "type": "address"
        },
        {
          "internalType": "uint256",
          "name": "blockNumber",
          "type": "uint256"
        }
      ],
      "name": "getPastVotes",
      "outputs": [
        {
          "internalType": "uint256",
          "name": "",
          "type": "uint256"
        }
      ],
      "stateMutability": "view",
      "type": "function"
    },
    {
      "inputs": [
        {
          "internalType": "address",
          "name": "account",
          "type": "address"
        }
      ],
      "name": "getVotes",
      "outputs": [
        {
          "internalType": "uint256",
          "name": "",
          "type": "uint256"
        }
      ],
      "stateMutability": "view",
      "type": "function"
    },
    {
      "inputs": [],
      "name": "initialize",
      "outputs": [],
      "stateMutability": "nonpayable",
      "type": "function"
    },
    {
      "inputs": [
        {
          "internalType": "address",
          "name": "owner",
          "type": "address"
        },
        {
          "internalType": "address",
          "name": "operator",
          "type": "address"
        }
      ],
      "name": "isApprovedForAll",
      "outputs": [
        {
          "internalType": "bool",
          "name": "",
          "type": "bool"
        }
      ],
      "stateMutability": "view",
      "type": "function"
    },
    {
      "inputs": [],
      "name": "name",
      "outputs": [
        {
          "internalType": "string",
          "name": "",
          "type": "string"
        }
      ],
      "stateMutability": "view",
      "type": "function"
    },
    {
      "inputs": [
        {
          "internalType": "address",
          "name": "owner",
          "type": "address"
        }
      ],
      "name": "nonces",
      "outputs": [
        {
          "internalType": "uint256",
          "name": "",
          "type": "uint256"
        }
      ],
      "stateMutability": "view",
      "type": "function"
    },
    {
      "inputs": [],
      "name": "owner",
      "outputs": [
        {
          "internalType": "address",
          "name": "",
          "type": "address"
        }
      ],
      "stateMutability": "view",
      "type": "function"
    },
    {
      "inputs": [
        {
          "internalType": "uint256",
          "name": "tokenId",
          "type": "uint256"
        }
      ],
      "name": "ownerOf",
      "outputs": [
        {
          "internalType": "address",
          "name": "",
          "type": "address"
        }
      ],
      "stateMutability": "view",
      "type": "function"
    },
    {
      "inputs": [],
      "name": "pause",
      "outputs": [],
      "stateMutability": "nonpayable",
      "type": "function"
    },
    {
      "inputs": [],
      "name": "paused",
      "outputs": [
        {
          "internalType": "bool",
          "name": "",
          "type": "bool"
        }
      ],
      "stateMutability": "view",
      "type": "function"
    },
    {
      "inputs": [],
      "name": "renounceOwnership",
      "outputs": [],
      "stateMutability": "nonpayable",
      "type": "function"
    },
    {
      "inputs": [
        {
          "internalType": "address",
          "name": "to",
          "type": "address"
        }
      ],
      "name": "safeMint",
      "outputs": [],
      "stateMutability": "nonpayable",
      "type": "function"
    },
    {
      "inputs": [
        {
          "internalType": "address",
          "name": "from",
          "type": "address"
        },
        {
          "internalType": "address",
          "name": "to",
          "type": "address"
        },
        {
          "internalType": "uint256",
          "name": "tokenId",
          "type": "uint256"
        }
      ],
      "name": "safeTransferFrom",
      "outputs": [],
      "stateMutability": "nonpayable",
      "type": "function"
    },
    {
      "inputs": [
        {
          "internalType": "address",
          "name": "from",
          "type": "address"
        },
        {
          "internalType": "address",
          "name": "to",
          "type": "address"
        },
        {
          "internalType": "uint256",
          "name": "tokenId",
          "type": "uint256"
        },
        {
          "internalType": "bytes",
          "name": "data",
          "type": "bytes"
        }
      ],
      "name": "safeTransferFrom",
      "outputs": [],
      "stateMutability": "nonpayable",
      "type": "function"
    },
    {
      "inputs": [
        {
          "internalType": "address",
          "name": "operator",
          "type": "address"
        },
        {
          "internalType": "bool",
          "name": "approved",
          "type": "bool"
        }
      ],
      "name": "setApprovalForAll",
      "outputs": [],
      "stateMutability": "nonpayable",
      "type": "function"
    },
    {
      "inputs": [
        {
          "internalType": "bytes4",
          "name": "interfaceId",
          "type": "bytes4"
        }
      ],
      "name": "supportsInterface",
      "outputs": [
        {
          "internalType": "bool",
          "name": "",
          "type": "bool"
        }
      ],
      "stateMutability": "view",
      "type": "function"
    },
    {
      "inputs": [],
      "name": "symbol",
      "outputs": [
        {
          "internalType": "string",
          "name": "",
          "type": "string"
        }
      ],
      "stateMutability": "view",
      "type": "function"
    },
    {
      "inputs": [
        {
          "internalType": "uint256",
          "name": "index",
          "type": "uint256"
        }
      ],
      "name": "tokenByIndex",
      "outputs": [
        {
          "internalType": "uint256",
          "name": "",
          "type": "uint256"
        }
      ],
      "stateMutability": "view",
      "type": "function"
    },
    {
      "inputs": [
        {
          "internalType": "address",
          "name": "owner",
          "type": "address"
        },
        {
          "internalType": "uint256",
          "name": "index",
          "type": "uint256"
        }
      ],
      "name": "tokenOfOwnerByIndex",
      "outputs": [
        {
          "internalType": "uint256",
          "name": "",
          "type": "uint256"
        }
      ],
      "stateMutability": "view",
      "type": "function"
    },
    {
      "inputs": [
        {
          "internalType": "uint256",
          "name": "tokenId",
          "type": "uint256"
        }
      ],
      "name": "tokenURI",
      "outputs": [
        {
          "internalType": "string",
          "name": "",
          "type": "string"
        }
      ],
      "stateMutability": "view",
      "type": "function"
    },
    {
      "inputs": [],
      "name": "totalSupply",
      "outputs": [
        {
          "internalType": "uint256",
          "name": "",
          "type": "uint256"
        }
      ],
      "stateMutability": "view",
      "type": "function"
    },
    {
      "inputs": [
        {
          "internalType": "address",
          "name": "from",
          "type": "address"
        },
        {
          "internalType": "address",
          "name": "to",
          "type": "address"
        },
        {
          "internalType": "uint256",
          "name": "tokenId",
          "type": "uint256"
        }
      ],
      "name": "transferFrom",
      "outputs": [],
      "stateMutability": "nonpayable",
      "type": "function"
    },
    {
      "inputs": [
        {
          "internalType": "address",
          "name": "newOwner",
          "type": "address"
        }
      ],
      "name": "transferOwnership",
      "outputs": [],
      "stateMutability": "nonpayable",
      "type": "function"
    },
    {
      "inputs": [],
      "name": "unpause",
      "outputs": [],
      "stateMutability": "nonpayable",
      "type": "function"
    }
  ],
  "numDeployments": 2,
  "bytecode": "0x608080604052346100c2576000549060ff8260081c16610070575060ff80821610610035575b604051612f849081620000c88239f35b60ff90811916176000557f7f26b83ff96e1f2b6a682f133852f6798a09c465da95921460cefb3847402498602060405160ff8152a138610025565b62461bcd60e51b815260206004820152602760248201527f496e697469616c697a61626c653a20636f6e747261637420697320696e697469604482015266616c697a696e6760c81b6064820152608490fd5b600080fdfe608080604052600436101561001357600080fd5b60003560e01c90816301ffc9a71461179b5750806306fdde03146116f5578063081812fc146116d7578063095ea7b31461154b57806318160ddd1461152d57806323b872dd146115095780632f745c59146114445780633644e515146114295780633a46b1a8146112fc5780633f4ba83a1461125f57806340d097c31461101657806342842e0e14610fd05780634f6ccce714610f2e578063587cde1e14610ef25780635c19a95c14610ed05780635c975abb14610ead5780636352211e14610e7e57806370a0823114610e5b578063715018a614610dfb5780637ecebe0014610dc05780638129fc1c146108e55780638456cb591461088b5780638da5cb5b146108645780638e539e8c1461074457806395d89b41146106625780639ab24eb014610620578063a22cb4651461054e578063b88d4fde146104a0578063c3cda520146102df578063c87b56dd1461026a578063e985e9c5146102135763f2fde38b1461017f57600080fd5b3461020e57602036600319011261020e57610198611860565b6101a0611937565b6001600160a01b038116156101ba576101b89061198f565b005b60405162461bcd60e51b815260206004820152602660248201527f4f776e61626c653a206e6577206f776e657220697320746865207a65726f206160448201526564647265737360d01b6064820152608490fd5b600080fd5b3461020e57604036600319011261020e5761022c611860565b610234611876565b906001600160a01b03809116600052606a60205260406000209116600052602052602060ff604060002054166040519015158152f35b3461020e57602036600319011261020e576102a56102a060043560005260676020526001600160a01b0360406000205416151590565b61220d565b60006040516102b3816118dd565b526102db6040516102c3816118dd565b60008152604051918291602083526020830190611820565b0390f35b3461020e5760c036600319011261020e576102f8611860565b6064359060243560443560ff8416840361020e5780421161045b57604051602081017fe48329057bfd03d55e49b547132e39cffd9c1820ad7b9d4c5307691425d15adf81526001600160a01b0392838616604084015284606084015260808301526080825260a082019167ffffffffffffffff928181108482111761044557604052519020610385612d72565b9060405190602082019261190160f01b84526022830152604282015260428152608081019281841090841117610445576103d8966103d09360405260a4359260843592519020612cbd565b949094612b4b565b831660005261016460205260406000209081549160018301905503610400576101b8916119d9565b60405162461bcd60e51b815260206004820152601460248201527f566f7465733a20696e76616c6964206e6f6e63650000000000000000000000006044820152606490fd5b634e487b7160e01b600052604160045260246000fd5b60405162461bcd60e51b815260206004820152601860248201527f566f7465733a207369676e6174757265206578706972656400000000000000006044820152606490fd5b3461020e57608036600319011261020e576104b9611860565b6104c1611876565b906064359060443567ffffffffffffffff831161020e573660238401121561020e578260040135936104f28561191b565b9261050060405194856118f9565b858452366024878701011161020e5760006020876101b89860246105499901838901378601015261053961053484336123ce565b6122f5565b61054483838361243c565b6128ca565b612367565b3461020e57604036600319011261020e57610567611860565b6024359081151580920361020e576001600160a01b0316908133146105db5733600052606a602052604060002082600052602052604060002060ff1981541660ff83161790556040519081527f17307eab39ab6107e8899845ad3d59bd9653f200f220920489ca2b5937696c3160203392a3005b60405162461bcd60e51b815260206004820152601960248201527f4552433732313a20617070726f766520746f2063616c6c6572000000000000006044820152606490fd5b3461020e57602036600319011261020e576001600160a01b03610641611860565b16600052610162602052602061065a6040600020612a06565b604051908152f35b3461020e57600036600319011261020e5760405160006066546106848161227e565b8084529060019081811690811561071d57506001146106c2575b6102db846106ae818603826118f9565b604051918291602083526020830190611820565b6066600090815292507f46501879b8ca8525e8c2fd519e2fbfcfa2ebea26501294aa02cbfcfb12e943545b8284106107055750505081016020016106ae8261069e565b805460208587018101919091529093019281016106ed565b60ff191660208087019190915292151560051b850190920192506106ae915083905061069e565b3461020e57602036600319011261020e576004354381101561081f57610163549060005b8281106107c257828061078c5750602060005b6001600160e01b0360405191168152f35b60001981019081116107ac576107a360209161297d565b5054811c61077b565b634e487b7160e01b600052601160045260246000fd5b90916001906107d7818418831c828516612189565b918463ffffffff6107e78561297d565b50541611156107fc575050905b919091610768565b9092508101809111156107f457634e487b7160e01b600052601160045260246000fd5b60405162461bcd60e51b815260206004820152601a60248201527f566f7465733a20626c6f636b206e6f7420796574206d696e65640000000000006044820152606490fd5b3461020e57600036600319011261020e5760206001600160a01b0360fb5416604051908152f35b3461020e57600036600319011261020e576108a4611937565b6108ac612edd565b600160ff1960c954161760c9557f62e78cea01bee320cd4e420270b5ea74000d11b0c9f74754ebdbfc544b05a2586020604051338152a1005b3461020e57600036600319011261020e5760005460ff8160081c1615808091610db3575b8015610d9c575b15610d315760ff198281166001176000559181610d1f575b50610931612e49565b9160405161093e816118c1565b60038152622a259960e91b602082015261096860ff60005460081c1661096381612e6b565b612e6b565b835167ffffffffffffffff81116104455761098460655461227e565b601f8111610c7c575b50602094601f8211600114610bf857948192939495600092610bed575b50508160011b916000199060031b1c1916176065555b80519067ffffffffffffffff8211610445576109dd60665461227e565b601f8111610b88575b50602090601f8311600114610afe57610a4f93929160009183610af3575b50508160011b916000199060031b1c1916176066555b60ff60005460081c1690610a2d82612e6b565b610a3682612e6b565b610a3f82612e6b565b60c9541660c95561096381612e6b565b610a583361198f565b610a60612e49565b90610ab860405192610a71846118c1565b600184526020840193603160f81b85526000549460ff8660081c1692610a9684612e6b565b610a9f84612e6b565b60208151910120915190209061012d5561012e55612e6b565b610abe57005b61ff0019166000557f7f26b83ff96e1f2b6a682f133852f6798a09c465da95921460cefb3847402498602060405160018152a1005b015190508580610a04565b90601f1983169160666000527f46501879b8ca8525e8c2fd519e2fbfcfa2ebea26501294aa02cbfcfb12e943549260005b818110610b705750916001939185610a4f97969410610b57575b505050811b01606655610a1a565b015160001960f88460031b161c19169055858080610b49565b92936020600181928786015181550195019301610b2f565b60666000527f46501879b8ca8525e8c2fd519e2fbfcfa2ebea26501294aa02cbfcfb12e94354601f840160051c81019160208510610be3575b601f0160051c01905b818110610bd757506109e6565b60008155600101610bca565b9091508190610bc1565b0151905085806109aa565b601f1982169560656000527f8ff97419363ffd7000167f130ef7168fbea05faf9251824ca5043f113cc6a7c79160005b888110610c6457508360019596979810610c4b575b505050811b016065556109c0565b015160001960f88460031b161c19169055858080610c3d565b91926020600181928685015181550194019201610c28565b6065600052601f820160051c7f8ff97419363ffd7000167f130ef7168fbea05faf9251824ca5043f113cc6a7c7019060208310610cf7575b601f0160051c7f8ff97419363ffd7000167f130ef7168fbea05faf9251824ca5043f113cc6a7c701905b818110610ceb575061098d565b60008155600101610cde565b7f8ff97419363ffd7000167f130ef7168fbea05faf9251824ca5043f113cc6a7c79150610cb4565b61ffff19166101011760005582610928565b60405162461bcd60e51b815260206004820152602e60248201527f496e697469616c697a61626c653a20636f6e747261637420697320616c72656160448201527f647920696e697469616c697a65640000000000000000000000000000000000006064820152608490fd5b50303b1580156109105750600160ff831614610910565b50600160ff831610610909565b3461020e57602036600319011261020e576001600160a01b03610de1611860565b166000526101646020526020604060002054604051908152f35b3461020e57600036600319011261020e57610e14611937565b600060fb546001600160a01b0319811660fb55816001600160a01b0360405192167f8be0079c531659141344cd1fd0a4f28419497f9722a3daafe3b4186f6b6457e08284a3f35b3461020e57602036600319011261020e57602061065a610e79611860565b612196565b3461020e57602036600319011261020e576020610e9c600435612259565b6001600160a01b0360405191168152f35b3461020e57600036600319011261020e57602060ff60c954166040519015158152f35b3461020e57602036600319011261020e576101b8610eec611860565b336119d9565b3461020e57602036600319011261020e5760206001600160a01b0380610f16611860565b16600052610161825260406000205416604051908152f35b3461020e57602036600319011261020e57600435609954811015610f6557610f57602091612930565b90546040519160031b1c8152f35b60405162461bcd60e51b815260206004820152602c60248201527f455243373231456e756d657261626c653a20676c6f62616c20696e646578206f60448201527f7574206f6620626f756e647300000000000000000000000000000000000000006064820152608490fd5b3461020e57610fde3661188c565b60405190602082019282841067ffffffffffffffff851117610445576101b894610549946040526000845261053961053484336123ce565b3461020e5760208060031936011261020e57611030611860565b611038611937565b6101c580549060018201905560405190611051826118dd565b600082526001600160a01b039283811693841561121c576110888360005260676020526001600160a01b0360406000205416151590565b6111d757611094612edd565b84600052610161948587528160406000205416156111c8575b60995484600052609a885280604060002055600160401b81101561044557846110df8260016110fa9401609955612930565b90919082549060031b600019811b9283911b16911916179055565b61110383612196565b816000526097885260406000208160005288528460406000205584600052609888526040600020558060005260688752604060002091825496600188018098116107ac576101b898610549986111c3955586600052606781526040600020846001600160a01b0319825416179055868460007fddf252ad1be2c89b69c2b068fc378daa952ba7f163c4a11628f55a4df523b3ef81604051a46111a3612a38565b505060008052528060406000205416916000526040600020541690611e47565b612763565b6111d283806119d9565b6110ad565b60405162461bcd60e51b815260048101879052601c60248201527f4552433732313a20746f6b656e20616c7265616479206d696e746564000000006044820152606490fd5b6064866040519062461bcd60e51b825280600483015260248201527f4552433732313a206d696e7420746f20746865207a65726f20616464726573736044820152fd5b3461020e57600036600319011261020e57611278611937565b60c95460ff8116156112b75760ff191660c9557f5db9ee0a495bf2e6ff9c91a7834c1ba4fdd244a5e8aa4e537bd38aeae4b073aa6020604051338152a1005b60405162461bcd60e51b815260206004820152601460248201527f5061757361626c653a206e6f74207061757365640000000000000000000000006044820152606490fd5b3461020e57604036600319011261020e57611315611860565b60246001600160a01b0381359216600052610162602052604060002090438310156113e6578154926000905b84821061138b5750508261135e5750506040516000815260209150f35b600019830192831161137757506020916107a3916129b4565b634e487b7160e01b60009081526011600452fd5b90936001906113a0818718831c828816612189565b918363ffffffff6113b185896129b4565b50541611156113c4575050935b90611341565b9095508101809111156113be5782634e487b7160e01b60005260116004526000fd5b60649060206040519162461bcd60e51b83528160048401528201527f436865636b706f696e74733a20626c6f636b206e6f7420796574206d696e65646044820152fd5b3461020e57600036600319011261020e57602061065a612d72565b3461020e57604036600319011261020e5761145d611860565b6024359061146a81612196565b82101561149e576001600160a01b031660005260976020526040600020906000526020526020604060002054604051908152f35b60405162461bcd60e51b815260206004820152602b60248201527f455243373231456e756d657261626c653a206f776e657220696e646578206f7560448201527f74206f6620626f756e64730000000000000000000000000000000000000000006064820152608490fd5b3461020e576101b861151a3661188c565b9161152861053484336123ce565b61243c565b3461020e57600036600319011261020e576020609954604051908152f35b3461020e57604036600319011261020e57611564611860565b6001600160a01b0390602435828061157b83612259565b1692169180831461168857803314908115611663575b50156115f8576000818152606960205260408120805473ffffffffffffffffffffffffffffffffffffffff191684179055926115cc82612259565b1691604051927f8c5be1e5ebec7d5bd14f71427d1e84f3dd0314c0f7b2291e5b200ac8c7c3b9258585a4f35b60405162461bcd60e51b815260206004820152603e60248201527f4552433732313a20617070726f76652063616c6c6572206973206e6f7420746f60448201527f6b656e206f776e6572206e6f7220617070726f76656420666f7220616c6c00006064820152608490fd5b9050600052606a60205260406000203360005260205260ff6040600020541684611591565b60405162461bcd60e51b815260206004820152602160248201527f4552433732313a20617070726f76616c20746f2063757272656e74206f776e656044820152603960f91b6064820152608490fd5b3461020e57602036600319011261020e576020610e9c6004356122b8565b3461020e57600036600319011261020e5760405160006065546117178161227e565b8084529060019081811690811561071d5750600114611740576102db846106ae818603826118f9565b6065600090815292507f8ff97419363ffd7000167f130ef7168fbea05faf9251824ca5043f113cc6a7c75b8284106117835750505081016020016106ae8261069e565b8054602085870181019190915290930192810161176b565b3461020e57602036600319011261020e576004359063ffffffff60e01b821680920361020e5760209163780e9d6360e01b81149081156117dd575b5015158152f35b6380ac58cd60e01b81149150811561180f575b81156117fe575b50836117d6565b6301ffc9a760e01b149050836117f7565b635b5e139f60e01b811491506117f0565b919082519283825260005b84811061184c575050826000602080949584010152601f8019910116010190565b60208183018101518483018201520161182b565b600435906001600160a01b038216820361020e57565b602435906001600160a01b038216820361020e57565b606090600319011261020e576001600160a01b0390600435828116810361020e5791602435908116810361020e579060443590565b6040810190811067ffffffffffffffff82111761044557604052565b6020810190811067ffffffffffffffff82111761044557604052565b90601f8019910116810190811067ffffffffffffffff82111761044557604052565b67ffffffffffffffff811161044557601f01601f191660200190565b6001600160a01b0360fb5416330361194b57565b606460405162461bcd60e51b815260206004820152602060248201527f4f776e61626c653a2063616c6c6572206973206e6f7420746865206f776e65726044820152fd5b60fb54906001600160a01b0380911691826001600160a01b031982161760fb55167f8be0079c531659141344cd1fd0a4f28419497f9722a3daafe3b4186f6b6457e06000604051a3565b91906001600160a01b039081841691600094838652611a46602091610161835260409484868a2054168095878b209216978892836001600160a01b03198254161790557f3134e8a2e6d97e929a7e54011ea5485d7d196dd5f0ba4d4ef95803e8e3fc257f8b8951a4612196565b918481141580611e3e575b611a5f575b50505050509050565b80611c66575b5083611a72575b80611a56565b8386526101628152611a8f83872092611a8a84612a06565b612189565b908254611a9b84612a06565b9381151580611c2c575b15611b1f57611ab384612de0565b986000198301928311611b0b575097611ae0611af892600080516020612f2f83398151915298999a6129b4565b509063ffffffff82549181199060201b169116179055565b8351928352820152a28038808080611a6c565b634e487b7160e01b81526011600452602490fd5b63ffffffff804311611bd957611b3485612de0565b92875190611b41826118c1565b8243168252858201936001600160e01b038096168552600160401b821015611bc55790611b73916001820181556129b4565b9b909b611bb1575051915163ffffffff9190921616911660201b63ffffffff19161790965593949293600080516020612f2f83398151915293611af8565b634e487b7160e01b81526004819052602490fd5b634e487b7160e01b8d52604160045260248dfd5b865162461bcd60e51b815260048101859052602660248201527f53616665436173743a2076616c756520646f65736e27742066697420696e203360448201526532206269747360d01b6064820152608490fd5b506000198201828111611c5257611c4863ffffffff91836129b4565b5054164314611aa5565b634e487b7160e01b8a52601160045260248afd5b8087526101628252838720611c7a81612a06565b848103908111611e2a57815491611c9081612a06565b9280151580611e04575b15611cf957611ca883612de0565b916000198201918211611ce557600080516020612f2f8339815191529492611ae08a9593611cd5936129b4565b825191825285820152a238611a65565b634e487b7160e01b8c52601160045260248cfd5b9063ffffffff90814311611db157611d1084612de0565b91895193611d1d856118c1565b8143168552888501926001600160e01b038095168452600160401b821015611d9d5790611d4f916001820181556129b4565b949094611d895751915163ffffffff9190921616911660201b63ffffffff1916179055600080516020612f2f833981519152918691611cd5565b634e487b7160e01b8e5260048e905260248efd5b634e487b7160e01b8f52604160045260248ffd5b885162461bcd60e51b815260048101889052602660248201527f53616665436173743a2076616c756520646f65736e27742066697420696e203360448201526532206269747360d01b6064820152608490fd5b506000198101818111611ce557611e2063ffffffff91846129b4565b5054164314611c9a565b634e487b7160e01b89526011600452602489fd5b50821515611a51565b6001600160a01b0391821691168082141580612181575b611e66575050565b8061202d575b5080611e755750565b60008181526101626020526040812090611e8e82612a06565b9060018201809211611b0b578254611ea584612a06565b9381151580611ff3575b15611ef957611ebd84612de0565b926000198301928311611b0b5750600080516020612f2f8339815191529492611ae060409593611eec936129b4565b82519182526020820152a2565b63ffffffff804311611f9f57611f0e85612de0565b9260405190611f1c826118c1565b824316825260208201936001600160e01b038096168552600160401b821015611f8b5790611f4f916001820181556129b4565b959095611bb1575051915163ffffffff9190921616911660201b63ffffffff1916179055600080516020612f2f83398151915291604091611eec565b634e487b7160e01b87526041600452602487fd5b60405162461bcd60e51b815260206004820152602660248201527f53616665436173743a2076616c756520646f65736e27742066697420696e203360448201526532206269747360d01b6064820152608490fd5b5060001982018281116120195761200f63ffffffff91836129b4565b5054164314611eaf565b634e487b7160e01b84526011600452602484fd5b60008181526101626020526040812061204581612a06565b60001980820192909183116120195780549061206081612a06565b9482151580612149575b156120b55761207885612de0565b938301928311611b0b5750600080516020612f2f8339815191529492611ae0604095936120a4936129b4565b82519182526020820152a238611e6c565b925063ffffffff804311611f9f576120cc85612de0565b92604051906120da826118c1565b824316825260208201936001600160e01b038096168552600160401b821015611f8b579061210d916001820181556129b4565b959095611bb1575051915163ffffffff9190921616911660201b63ffffffff1916179055600080516020612f2f833981519152916040916120a4565b5083830183811161216d5761216363ffffffff91846129b4565b505416431461206a565b634e487b7160e01b82526011600452602482fd5b506001611e5e565b919082018092116107ac57565b6001600160a01b031680156121b657600052606860205260406000205490565b60405162461bcd60e51b815260206004820152602960248201527f4552433732313a2061646472657373207a65726f206973206e6f7420612076616044820152683634b21037bbb732b960b91b6064820152608490fd5b1561221457565b60405162461bcd60e51b815260206004820152601860248201527f4552433732313a20696e76616c696420746f6b656e20494400000000000000006044820152606490fd5b60005260676020526001600160a01b036040600020541661227b81151561220d565b90565b90600182811c921680156122ae575b602083101461229857565b634e487b7160e01b600052602260045260246000fd5b91607f169161228d565b6122db6102a08260005260676020526001600160a01b0360406000205416151590565b60005260696020526001600160a01b036040600020541690565b156122fc57565b60405162461bcd60e51b815260206004820152602e60248201527f4552433732313a2063616c6c6572206973206e6f7420746f6b656e206f776e6560448201527f72206e6f7220617070726f7665640000000000000000000000000000000000006064820152608490fd5b1561236e57565b60405162461bcd60e51b815260206004820152603260248201527f4552433732313a207472616e7366657220746f206e6f6e20455243373231526560448201527131b2b4bb32b91034b6b83632b6b2b73a32b960711b6064820152608490fd5b906001600160a01b0380806123e284612259565b16931691838314938415612415575b5083156123ff575b50505090565b61240b919293506122b8565b16143880806123f9565b909350600052606a60205260406000208260005260205260ff6040600020541692386123f1565b9092919261244984612259565b906001600160a01b0380928185169182911603612710578282169384156126bf57612472612edd565b600096879286845261016192602092848452604096888888205416156126b0575b8315928315612611575090919293949550609954828c52609a865280888d2055600160401b8110156125fd57906124da836110df848f9a9998979695600101609955612930565b838a036125cf575b50808652606984528686206001600160a01b03199081815416905581878a61250983612259565b168a519e8f907f8c5be1e5ebec7d5bd14f71427d1e84f3dd0314c0f7b2291e5b200ac8c7c3b92591a4838752606885528787208054600019810191908211611e2a57558987526068855287872080549060018201809211611e2a57886125be9d9e8d9488947fddf252ad1be2c89b69c2b068fc378daa952ba7f163c4a11628f55a4df523b3ef945586835260678a52858d842091825416179055a46125c0575b83525282828220541693815220541690611e47565b565b6125c8612a38565b50506125a9565b6125d890612196565b89875260978552878720818852855281888820558187526098855287872055386124e2565b634e487b7160e01b8c52604160045260248cfd5b8a850361261f575b506124da565b61262f9192939495969750612196565b6000198101908111611ce5579082918c979695949388526098865288882054818103612679575b508288528789812055848852609786528888209088528552868881205538612619565b85895260978752898920828a52875289892054868a52609788528a8a20828b528852808b8b20558952609887528989205538612656565b6126ba81806119d9565b612493565b60405162461bcd60e51b8152602060048201526024808201527f4552433732313a207472616e7366657220746f20746865207a65726f206164646044820152637265737360e01b6064820152608490fd5b60405162461bcd60e51b815260206004820152602560248201527f4552433732313a207472616e736665722066726f6d20696e636f72726563742060448201526437bbb732b960d91b6064820152608490fd5b9192600092909190803b156128c0576127b9946040518092630a85bd0160e11b9485835233600484015287602484015260448301526080606483015281876001600160a01b038260209b8c976084830190611820565b0393165af184918161287c575b5061286b575050503d600014612863573d6127e08161191b565b906127ee60405192836118f9565b81528091833d92013e5b805191826128605760405162461bcd60e51b815260206004820152603260248201527f4552433732313a207472616e7366657220746f206e6f6e20455243373231526560448201527131b2b4bb32b91034b6b83632b6b2b73a32b960711b6064820152608490fd5b01fd5b5060606127f8565b6001600160e01b0319161492509050565b9091508581813d83116128b9575b61289481836118f9565b810103126128b557516001600160e01b0319811681036128b55790386127c6565b8480fd5b503d61288a565b5050915050600190565b9293600093909291803b15612925579484916127b99660405180948193630a85bd0160e11b978884523360048501526001600160a01b0380921660248501526044840152608060648401528260209b8c976084830190611820565b505050915050600190565b6099548110156129675760996000527f72a152ddfb8e864297c917af52ea6c1c68aead0fee1a62673fcc7e0c94979d000190600090565b634e487b7160e01b600052603260045260246000fd5b6101638054821015612967576000527fb0f3e90519fd0de3100ca1a24094c0a25e5cbf467d74a2603172b5a5204555b30190600090565b80548210156129675760005260206000200190600090565b610163546000816129df57506000919050565b6000198201918211611b0b57506129fd6001600160e01b039161297d565b505460201c1690565b805490600082612a195750600092915050565b6000198301928311611b0b57506001600160e01b03916129fd916129b4565b612a406129cc565b90600182018092116107ac576101638054612a596129cc565b9181151580612b26575b15612a8e5750612a7284612de0565b60001982019182116107ac57611ae0612a8a9261297d565b9190565b9063ffffffff90814311611f9f57612aa586612de0565b9060405193612ab3856118c1565b834316855260208501916001600160e01b038094168352600160401b81101561044557612ae59160018201905561297d565b939093612b10579351905163ffffffff9190941616921660201b63ffffffff19169190911790559190565b634e487b7160e01b600052600060045260246000fd5b5060001982018281116107ac57612b4163ffffffff9161297d565b5054164314612a63565b6005811015612ca75780612b5c5750565b60018103612ba95760405162461bcd60e51b815260206004820152601860248201527f45434453413a20696e76616c6964207369676e617475726500000000000000006044820152606490fd5b60028103612bf65760405162461bcd60e51b815260206004820152601f60248201527f45434453413a20696e76616c6964207369676e6174757265206c656e677468006044820152606490fd5b60038103612c4e5760405162461bcd60e51b815260206004820152602260248201527f45434453413a20696e76616c6964207369676e6174757265202773272076616c604482015261756560f01b6064820152608490fd5b600414612c5757565b60405162461bcd60e51b815260206004820152602260248201527f45434453413a20696e76616c6964207369676e6174757265202776272076616c604482015261756560f01b6064820152608490fd5b634e487b7160e01b600052602160045260246000fd5b9291907f7fffffffffffffffffffffffffffffff5d576e7357a4501ddfe92f46681b20a08311612d665760ff16601b81141580612d5b575b612d4f579160809493916020936040519384528484015260408301526060820152600093849182805260015afa15612d425781516001600160a01b03811615612d3c579190565b50600190565b50604051903d90823e3d90fd5b50505050600090600490565b50601c811415612cf5565b50505050600090600390565b61012d5461012e546040519060208201927f8b73c3c69bb8fe3d512ecc4cf759cc79239f7b179b0ffacaa9a75d522b39400f8452604083015260608201524660808201523060a082015260a0815260c0810181811067ffffffffffffffff8211176104455760405251902090565b6001600160e01b0390818111612df4571690565b60405162461bcd60e51b815260206004820152602760248201527f53616665436173743a2076616c756520646f65736e27742066697420696e20326044820152663234206269747360c81b6064820152608490fd5b60405190612e56826118c1565b60068252652a37b5b2b71960d11b6020830152565b15612e7257565b60405162461bcd60e51b815260206004820152602b60248201527f496e697469616c697a61626c653a20636f6e7472616374206973206e6f74206960448201527f6e697469616c697a696e670000000000000000000000000000000000000000006064820152608490fd5b60ff60c95416612ee957565b60405162461bcd60e51b815260206004820152601060248201527f5061757361626c653a20706175736564000000000000000000000000000000006044820152606490fdfedec2bacdd2f05b59de34da9b523dff8be42e5e38e818c82fdb0bae774387a724a26469706673582212207633e29d437b986317c1ca3089518a4692f8949c53a3465727001d748572acd864736f6c63430008100033"
}